:100000000C9463000C941A060C94F3050C94990656
:100010000C9499060C9499060C948B000C948B000C
:100020000C948B000C948B000C948B000C948B0024
:100030000C948B000C948B000C948B000C948B0014
:100040000C94A9050C948B000C9467060C94410643
:100050000C948B000C948B000C948B000C948B00F4
:100060000C94A3060C948B00000000080002010011
:100070000003040700000000000000000000000072
:10008000240027002A000000000023002600290089
:10009000010204081020408001020408102001021F
:1000A0000408102000000000250028002B00040494
:1000B0000404040404040202020202020303030310
:1000C0000303BE070E0911241FBECFEFD8E0DEBF29
:1000D000CDBF22E0AEE3B1E001C01D92A03BB2076C
:1000E000E1F711E0A0E0B1E0E8EFF4E102C0059033
:1000F0000D92AE33B107D9F710E0C2E6D0E004C0EC
:100100002197FE010E943F09C136D107C9F70E941D
:10011000C0080C946F0A0C94000090E0FC01E859B0
:10012000FF4F2491FC01E057FF4F3491FC01E25551
:10013000FF4FE491EE23C9F0222339F0233001F17F
:10014000A8F4213019F1223029F1F0E0EE0FFF1F61
:10015000EC55FF4FA591B4918FB7F894EC916111D4
:1001600026C030953E233C938FBF08952730A9F0D9
:100170002830C9F0243049F7809180008F7D03C07A
:10018000809180008F7780938000DFCF84B58F7758
:1001900084BDDBCF84B58F7DFBCF8091B0008F779E
:1001A0008093B000D2CF8091B0008F7DF9CF3E2BED
:1001B000DACFCF93DF9390E0FC01E057FF4F24911B
:1001C00082559F4FFC0184918823D1F090E0880FE5
:1001D000991FFC01E458FF4FA591B491FC01EC5527
:1001E000FF4FC591D49161110EC09FB7F8948C91C7
:1001F000E22FE0958E238C932881E223E8839FBF32
:10020000DF91CF9108958FB7F894EC91E22BEC93A6
:100210008FBFF6CF8230910538F0880F991F880F75
:10022000991F05970197F1F708950895AF92BF922E
:10023000CF92DF92EF92FF920F931F93CF93DF93B2
:100240006C017B018B01040F151FEB015E01AE18E1
:10025000BF08C017D10759F06991D601ED91FC9103
:100260000190F081E02DC6010995892B79F7C50130
:10027000DF91CF911F910F91FF90EF90DF90CF9082
:10028000BF90AF900895FC01538D448D252F30E031
:10029000842F90E0821B930B541710F0CF96089593
:1002A00001970895FC01918D828D981761F0A28DC0
:1002B000AE0FBF2FB11D5D968C91928D9F5F9F7386
:1002C000928F90E008958FEF9FEF0895FC01918D3C
:1002D000828D981731F0828DE80FF11D858D90E0A9
:1002E00008958FEF9FEF0895FC01918D228D892F46
:1002F00090E0805C9F4F821B91098F73992708952E
:100300008CEB91E00E94740121E0892B09F420E03C
:10031000822F089580E090E0892B29F00E948001CF
:1003200081110C9400000895FC01A48DA80FB92F31
:10033000B11DA35ABF4F2C91848D90E001968F730D
:100340009927848FA689B7892C93A089B1898C912C
:10035000837080648C93938D848D981306C002887B
:10036000F389E02D80818F7D80830895EF92FF9245
:100370000F931F93CF93DF93EC0181E0888F9B8DC8
:100380008C8D98131AC0E889F989808185FF15C082
:100390009FB7F894EE89FF896083E889F9898081A5
:1003A0008370806480839FBF81E090E0DF91CF9174
:1003B0001F910F91FF90EF900895F62E0B8D10E096
:1003C0000F5F1F4F0F731127E02E8C8D8E110CC005
:1003D0000FB607FCFACFE889F989808185FFF5CF50
:1003E000CE010E949401F1CFEB8DEC0FFD2FF11D9A
:1003F000E35AFF4FF0829FB7F8940B8FEA89FB898D
:1004000080818062CFCFCF93DF93EC01888D8823EA
:10041000B9F0AA89BB89E889F9898C9185FD03C067
:10042000808186FD0DC00FB607FCF7CF8C9185FF4C
:10043000F2CF808185FFEDCFCE010E949401E9CFFC
:10044000DF91CF9108950895CF93DF931F92CDB799
:10045000DEB76983DC01ED91FC910280F381E02D30
:1004600041E050E0BE016F5F7F4F09950F90DF9133
:10047000CF9108958FB7F8948091AF018FBF089501
:10048000FC0183858F3F19F061E00C948D00089585
:10049000AF92BF92CF92DF92EF92FF920F931F9392
:1004A000CF93DF93EC0188819981892B89F06EBD10
:1004B0000DB407FEFDCFBEB48B2DDF91CF911F9100
:1004C0000F91FF90EF90DF90CF90BF90AF90089585
:1004D0008885998511E0892B09F010E8AA24A39456
:1004E000862F812309F0A12C062F2C813D814E817E
:1004F0005F8160E271EA87E090E00E941D09F22EC0
:10050000B02EE12CC22ED12CFF2019F0C6010E9482
:100510000A018A85877F09F042C08D858F3F89F067
:10052000902F912381E009F480E08A1551F0EF8546
:10053000F8898F89992369F19081892B8083AA2476
:10054000A394E989FA898081998D892B8083FF2082
:1005500019F0C6010E940A018E858F3F39F0EB89A0
:10056000FC898081988D892309F0E12AE989FA893B
:100570009081898D8095892380838E858F3F09F0B6
:10058000BE2C88859985892BB9F5110F1111BCCF27
:1005900093CF9081809589238083A12CD2CFE98944
:1005A000FA898081998D892B8083FF2019F0C601FB
:1005B0000E940A018D858F3F49F0EF85F8898F8968
:1005C000902F9123A9F09081892B8083E989FA8962
:1005D0009081898D8095892380838E858F3F69F2F4
:1005E000EB89FC898081988D892339F2E12AC5CF76
:1005F000908180958923E9CF1695C8CF8CBD9DBD8C
:1006000008950F931F93CF93DF93EC01062F142FC0
:100610008C859D850E94FE0260E088890E948D0085
:100620000EBD00000DB407FEFDCF8EB51EBD00004F
:100630000DB407FEFDCF1EB561E088890E948D00D4
:10064000812FDF91CF911F910F9108950F931F93E9
:10065000CF93DF93EC01E881F9810084F185E02DEF
:100660000995892BC1F040E06DE0CE010E940103A5
:10067000082F40E060E0CE010E940103182F402FB8
:100680006DE8CE010E940103812F90E0DF91CF91B0
:100690001F910F9108958FEF9FEFF8CFCF93DF93C6
:1006A000EC01E881F9810084F185E02D0995892B21
:1006B00071F08A8D9B8D01969B8F8A8F40E060E060
:1006C000CE010E94010390E0DF91CF9108958FEF5A
:1006D0009FEFFACFCF93DF93EC0140E063E10E94FC
:1006E000010390E02A8D3B8D821B930BDF91CF910C
:1006F0000895AF92BF92CF92DF92FF920F931F9314
:10070000CF93DF936C015B01EA0140E062E20E945B
:100710000103F82E90E09C012C0F3D1F2F3F310567
:1007200029F020F0CFEFD0E0C81BD90B8501AC0E2B
:10073000BD1E0A151B0541F0F80141918F0160E8CB
:10074000C6010E940103F5CF4C2F4F0D62EAC6018E
:100750000E940103CE01DF91CF911F910F91FF9075
:10076000DF90CF90BF90AF900895CF93DF93EC01CF
:1007700088819981892B31F0EA81FB818081918187
:100780000E94FE028B858F3F29F060E0DF91CF91C0
:100790000C948D00DF91CF9108951F93CF93DF9339
:1007A000EC010E94B50360E0CE010E9448026FEFA9
:1007B000CE010E944802182FCE010E944002812FD4
:1007C000DF91CF911F9108950F931F93CF93DF93E4
:1007D000EC01162F042F0E94B503612F6068CE0133
:1007E0000E944802602FCE010E944802CE01DF9194
:1007F000CF911F910F910C9440021F93CF93DF93E1
:10080000EC018B858F3F39F061E00E94D90061E0F7
:100810008B850E948D0088819981892B09F473C092
:100820001FB7F8948091BB01811127C0E8EBF0E07D
:100830008491EAE9F0E09491E82FF0E0EE0FFF1FD9
:10084000E458FF4FA591B491EC91E92321F461E0C4
:100850008AE00E948D0061E08AE00E94D9008CB598
:1008600080618CBD8CB580648CBD61E08DE00E94A0
:10087000D90061E08BE00E94D9008091BB018F5FBD
:100880008093BB011FBF81E08B8FCE010E94CD03FF
:10089000482F4F7E60E0CE010E94E403CE010E940B
:1008A000CD03482F4F7760E0CE010E94E403CE01D4
:1008B0000E94CD03482F4F7B60E0CE010E94E403ED
:1008C00040E066E0CE010E94E40340E065E0CE0136
:1008D0000E94E4034FEF64E0CE010E94E4034FEF77
:1008E00063E0CE010E94E403CE010E94CD03837D2C
:1008F000482F426060E0CE010E94E40381E0DF9176
:10090000CF911F91089561E08C850E94D9008A855E
:100910008B7F60E009F061E08C850E948D008D8501
:100920008F3F39F061E00E94D90061E08D850E941F
:100930008D008E858F3F09F4A6CF60E00E94D9001C
:10094000A2CF20916501260F3327331F21323105B5
:10095000ECF420918901FC0190E080E0243069F002
:1009600082E00895A09165012191AC014B5B5E4F3F
:10097000A40FB52FB11D2C930196861798F3809183
:100980006501680F6093650180E0089581E0089536
:100990008FEF9FEF08958FEF9FEF089580913E01B5
:1009A00090E09195819591090895CF93DF93CB01C4
:1009B000EA01642F0E94A104CE01DF91CF91089536
:1009C000CF93DF931F92CDB7DEB7698361E0CE018D
:1009D00001960E94A10481E090E00F90DF91CF91F9
:1009E000089590E080E00895FC01868D978DA0A188
:1009F000B1A1FB0180839183A283B38308950F93F8
:100A00001F932FB7F8944091B7015091B8016091AE
:100A1000B9017091BA012FBFFC0102A513A524A54D
:100A200035A5401B510B620B730B443F51406105D0
:100A3000710580F02FB7F8944091B7015091B8013B
:100A40006091B9017091BA012FBFFC0142A753A771
:100A500064A775A71F910F91089502960C94FD034A
:100A6000089508950E946A0A1F93CF93DF9385ED3E
:100A70008093BC008091410190914201A09143017B
:100A8000B09144010796A11DB11D23E0B695A7952D
:100A9000979587952A95D1F72091BC0024FD03C036
:100AA0001092890152C040914101509142016091E0
:100AB000430170914401452B462B472B69F3009766
:100AC000A105B10541F025E32A95F1F70000019752
:100AD000A109B109E1CF80914001C1E0C0933F017C
:100AE000882399F1D091B8001091BA008091BC0090
:100AF0008A7B8093BC0060E082E10E948D0060E010
:100B000083E10E948D0010928901C0938B011092A5
:100B10008A0161E082E10E948D0061E083E10E9430
:100B20008D008091B9008E7F8093B9008091B900CB
:100B30008D7F8093B90088E48093B80085E480932A
:100B4000BC001093BA00D093B800DF91CF911F91F1
:100B500008951F920F920FB60F9211242F933F9377
:100B60008F939F93AF93BF938091B7019091B801FA
:100B7000A091B901B091BA013091B60123E0230FE1
:100B80002D3758F50196A11DB11D2093B601809314
:100B9000B7019093B801A093B901B093BA018091C5
:100BA000B2019091B301A091B401B091B501019649
:100BB000A11DB11D8093B2019093B301A093B40124
:100BC000B093B501BF91AF919F918F913F912F91BC
:100BD0000F900FBE0F901F90189526E8230F0296D6
:100BE000A11DB11DD2CF1F920F920FB60F921124EB
:100BF0002F933F934F935F936F937F938F939F9325
:100C0000AF93BF93EF93FF93E0910201F091030143
:100C10000995FF91EF91BF91AF919F918F917F9136
:100C20006F915F914F913F912F910F900FBE0F9059
:100C30001F9018951F920F920FB60F9211242F93A9
:100C40003F934F935F936F937F938F939F93AF9354
:100C5000BF93EF93FF93E0910001F091010109959B
:100C6000FF91EF91BF91AF919F918F917F916F9184
:100C70005F914F913F912F910F900FBE0F901F905A
:100C800018951F920F920FB60F9211242F933F9336
:100C90004F935F936F937F938F939F93AF93BF9384
:100CA000EF93FF938CEB91E00E949401FF91EF9101
:100CB000BF91AF919F918F917F916F915F914F9174
:100CC0003F912F910F900FBE0F901F9018951F927C
:100CD0000F920FB60F9211242F938F939F93EF9340
:100CE000FF93E091CC01F091CD018081E091D201A0
:100CF000F091D30182FD1BC090818091D5018F5F5F
:100D00008F732091D601821741F0E091D501F0E078
:100D1000E454FE4F958F8093D501FF91EF919F9101
:100D20008F912F910F900FBE0F901F90189580817B
:100D3000F4CF1F920F920FB60F9211240F900FBE97
:100D40000F901F9018951F920F920FB60F921124BB
:100D50002F933F934F935F936F937F938F939F93C3
:100D6000AF93BF93EF93FF938091B900887F803654
:100D700009F44AC0F0F5883209F4A5C018F58031AD
:100D800009F499C0B8F4882309F4F5C0883009F44F
:100D900092C0FF91EF91BF91AF919F918F917F9101
:100DA0006F915F914F913F912F910F900FBE0F90D8
:100DB0001F901895883109F486C0803251F78093CE
:100DC000880114C0803409F49BC040F48033B9F327
:100DD0008833F9F68093880185ECAEC0803509F43C
:100DE00083C0883509F494C0883499F60E9434058C
:100DF000D0CF883909F48AC038F5883729F050F403
:100E0000883611F0803729F683E0809389011092AB
:100E1000870155C0883809F479C0803919F08038C5
:100E200009F0B7CF80918701803208F06FC0E09160
:100E3000870181E08E0F809387018091BB00F0E0F5
:100E4000E959FE4F80833BC0803B39F0D0F4803AB3
:100E500009F477C0883A09F09CCF84E08093890137
:100E60001092660110926501F0E0E0E00995809132
:100E7000650181110FC081E08093650110924501E9
:100E800009C0803C09F4A8CF883C09F4A5CF883B71
:100E900009F07FCFE091660181E08E0F80936601BB
:100EA000F0E0EB5BFE4F80818093BB009091660188
:100EB0008091650129C08091AE018093BB0085ECD3
:100EC0008093BC0066CF9091AD018091AC019817E2
:100ED00058F5E091AD0181E08E0F8093AD01F0E017
:100EE000E457FE4F8081E9CFE091AD0181E08E0FA4
:100EF0008093AD018091BB00F0E0E457FE4F80830A
:100F00009091AD018091AC019817C8F285E8D8CFD7
:100F1000E091AD0181E08E0F8093AD018091BB0027
:100F2000F0E0E457FE4F808380918B0181115ECF0A
:100F300081E080938A0184EA8093BC001092890149
:100F400028CF85EC8093BC001092890180918701A5
:100F5000803230F4E0918701F0E0E959FE4F1082D1
:100F60006091870170E087E691E0F0E0E0E00995AC
:100F7000109287010ECF1092880138CFECEBF1E090
:100F80001382128288EE93E0A0E0B0E08483958320
:100F9000A683B7838EE091E09183808385EC90E017
:100FA0009587848784EC90E09787868780EC90E033
:100FB000918B808B81EC90E0938B828B82EC90E024
:100FC000958B848B86EC90E0978B868B118E128E9E
:100FD000138E148EEAE5F2E01382128280E291E031
:100FE0009183808380E5848781E0858729E532E0ED
:100FF000378726872AE030E0318B208B29E030E0EC
:10100000338B228B22E030E0358B248B168A178AB3
:10101000108E118E138E128E158E148E178E168EC4
:1010200011A210A213A212A2148215821682178294
:10103000AEE7B2E013961C921E92129715961C9280
:101040001E92149792E01D969C931D971E968C936A
:101050001E9784E050968C93509793E01F969C9334
:101060001F97E0EBF0E0E491F0E0EE0FFF1FEC558E
:10107000FF4F2591349158963C932E935797E2E970
:10108000F0E0E4915C96EC935C97E1EBF0E0E491A6
:10109000F0E0EE0FFF1FEC55FF4F25913491529673
:1010A0003C932E935197E3E9F0E0E4915996EC9349
:1010B0005997E2EBF0E0E491F0E0EE0FFF1FEA5702
:1010C000FF4F2591349156963C932E935597E4E922
:1010D000F0E0E4915A96EC935A97EFEAF0E0E4914D
:1010E000F0E0EE0FFF1FEC55FF4F25913491549621
:1010F0003C932E935397E1E9F0E0E4915B96EC93F7
:101100005B9740E452E46FE070E016964D935D9378
:101110006D937C93199721E030E01B963C932E93BE
:101120001A971C968C931C975D961C925D9782E390
:1011300091E011969C938E935E961D921D921D9246
:101140001C92919740E050E067ED73E492964D93C6
:101150005D936D937C93959740E050E068EC72E46A
:1011600096964D935D936D937C9399979A961D9265
:101170001D921D921C929D9780E892E00C94FD03B5
:10118000789484B5826084BD84B5816084BD85B562
:10119000826085BD85B5816085BD80916E0081606E
:1011A00080936E0010928100809181008260809314
:1011B0008100809181008160809381008091800016
:1011C0008160809380008091B10084608093B10041
:1011D0008091B00081608093B00080917A0084603B
:1011E00080937A0080917A00826080937A00809167
:1011F0007A00816080937A0080917A008068809381
:101200007A001092C100C0E0D0E02097F1F30E9474
:1012100080018823D1F30E940000F7CF82E391E0A0
:1012200090937F0280937E0280918202909183024C
:10123000009711F00C94E1090895A1E21A2EAA1B5F
:10124000BB1BFD010DC0AA1FBB1FEE1FFF1FA21776
:10125000B307E407F50720F0A21BB30BE40BF50B73
:10126000661F771F881F991F1A9469F760957095FC
:10127000809590959B01AC01BD01CF010895EE0FC3
:10128000FF1F0590F491E02D09940F931F93CF93C6
:10129000DF938230910510F482E090E0E091AE029D
:1012A000F091AF0230E020E0B0E0A0E0309799F498
:1012B0002115310509F44AC0281B390B24303105AA
:1012C000D8F58A819B816115710589F1FB019383B2
:1012D0008283FE0111C04081518102811381481730
:1012E0005907E0F04817590799F4109761F01296E2
:1012F0000C93129713961C933296CF01DF91CF91E6
:101300001F910F9108950093AE021093AF02F4CF96
:101310002115310551F04217530738F0A901DB01BF
:101320009A01BD01DF01F801C1CFEF01F9CF909320
:10133000AF028093AE02CDCFFE01E20FF31F819387
:1013400091932250310939832883D7CF2091AC0261
:101350003091AD02232B41F4209106013091070119
:101360003093AD022093AC0220910401309105012D
:101370002115310541F42DB73EB740910801509138
:101380000901241B350BE091AC02F091AD02E2178C
:10139000F307A0F42E1B3F0B2817390778F0AC0198
:1013A0004E5F5F4F2417350748F04E0F5F1F509375
:1013B000AD024093AC02819391939FCFF0E0E0E0C7
:1013C0009CCFCF93DF930097E9F0FC013297138213
:1013D0001282A091AE02B091AF02ED0130E020E0A8
:1013E0001097A1F420813181820F931F2091AC02CC
:1013F0003091AD022817390709F061C0F093AD02B2
:10140000E093AC02DF91CF910895EA01CE17DF0798
:10141000E8F54A815B819E0141155105B1F7E9016B
:10142000FB83EA8349915991C40FD51FEC17FD073F
:1014300061F4808191810296840F951FE90199835F
:101440008883828193819B838A83F0E0E0E0129617
:101450008D919C9113970097B9F52D913C9111971F
:10146000CD010296820F931F2091AC023091AD0204
:101470002817390739F6309751F51092AF021092BC
:10148000AE02B093AD02A093AC02BCCFD383C283B3
:1014900040815181840F951FC817D90761F44E5FB1
:1014A0005F4F88819981480F591F518340838A81FA
:1014B0009B81938382832115310509F0B0CFF0938E
:1014C000AF02E093AE029ECFFD01DC01C0CF1382DC
:1014D0001282D7CF81E090E0F8940C946F0A10E06C
:1014E000C2E6D0E004C0FE010E943F092196C33647
:0814F000D107C9F7F894FFCF02
:1014F800150115010000B002800000000000B601CF
:101508001601430103027401520166010000000044
:1015180024027903F10423026A034E032603000020
:0E15280000002D05FF04F404310531053005E7
:00000001FF
