:100000000C945E000C9405060C94DE050C9484069A
:100010000C9484060C9484060C9486000C94860040
:100020000C9486000C9486000C9486000C94860038
:100030000C9486000C9486000C9486000C94860028
:100040000C9494050C9486000C9452060C942C0687
:100050000C9486000C9486000C9486000C94860008
:100060000C948E060C9486000000000024002700EB
:100070002A0000000000250028002B0004040404CE
:100080000404040402020202020203030303030342
:10009000010204081020408001020408102001021F
:1000A00004081020000000080002010000030407FB
:1000B0000000000000000000A907550911241FBE20
:1000C000CFEFD8E0DEBFCDBF22E0A2E9B1E001C0B2
:1000D0001D92A73EB207E1F711E0A0E0B1E0E2EE29
:1000E000FBE102C005900D92A239B107D9F710E0EB
:1000F000CDE5D0E004C02197FE010E94DB0ACC359B
:10010000D107C9F70E9409080C94E40D0C94000073
:1001100090E0FC01EC55FF4F2491FC01E057FF4FAC
:100120003491FC01E458FF4FE491EE23C9F02223FF
:1001300039F0233001F1A8F4213019F1223029F1EE
:10014000F0E0EE0FFF1FEE58FF4FA591B4918FB76F
:10015000F894EC91611126C030953E233C938FBFFB
:1001600008952730A9F02830C9F0243049F780914C
:1001700080008F7D03C0809180008F778093800006
:10018000DFCF84B58F7784BDDBCF84B58F7DFBCF88
:100190008091B0008F778093B000D2CF8091B00073
:1001A0008F7DF9CF3E2BDACF0895AF92BF92CF92D9
:1001B000DF92EF92FF920F931F93CF93DF936C0127
:1001C0007B018B01040F151FEB015E01AE18BF0808
:1001D000C017D10759F06991D601ED91FC910190BA
:1001E000F081E02DC6010995892B79F7C501DF91D2
:1001F000CF911F910F91FF90EF90DF90CF90BF9024
:10020000AF900895FC01538D448D252F30E0842F4D
:1002100090E0821B930B541710F0CF96089501972E
:100220000895FC01918D828D981761F0A28DAE0F1B
:10023000BF2FB11D5D968C91928D9F5F9F73928FA2
:1002400090E008958FEF9FEF0895FC01918D828DCE
:10025000981731F0828DE80FF11D858D90E008959B
:100260008FEF9FEF0895FC01918D228D892F90E0F3
:10027000805C9F4F821B91098F73992708958EE1AF
:1002800092E00E94330121E0892B09F420E0822FC3
:10029000089580E090E0892B29F00E943F018111B0
:1002A0000C9400000895FC01A48DA80FB92FB11D76
:1002B000A35ABF4F2C91848D90E001968F7399279C
:1002C000848FA689B7892C93A089B1898C9183707A
:1002D00080648C93938D848D981306C00288F38973
:1002E000E02D80818F7D80830895EF92FF920F93A0
:1002F0001F93CF93DF93EC0181E0888F9B8D8C8DD2
:1003000098131AC0E889F989808185FF15C09FB7C5
:10031000F894EE89FF896083E889F9898081837088
:10032000806480839FBF81E090E0DF91CF911F9137
:100330000F91FF90EF900895F62E0B8D10E00F5F58
:100340001F4F0F731127E02E8C8D8E110CC00FB62E
:1003500007FCFACFE889F989808185FFF5CFCE01C6
:100360000E945301F1CFEB8DEC0FFD2FF11DE35AED
:10037000FF4FF0829FB7F8940B8FEA89FB89808149
:100380008062CFCFCF93DF93EC01888D8823B9F0C3
:10039000AA89BB89E889F9898C9185FD03C0808190
:1003A00086FD0DC00FB607FCF7CF8C9185FFF2CF0D
:1003B000808185FFEDCFCE010E945301E9CFDF910F
:1003C000CF9108950F931F93CF93DF93EC01062FE6
:1003D000142F9C858D859CBD8DBD60E088890E9411
:1003E00088000EBD00000DB407FEFDCF8EB51EBD0A
:1003F00000000DB407FEFDCF1EB561E088890E94A4
:100400008800812FDF91CF911F910F91089508955A
:100410000F931F93CF93DF93EC01E881F981008460
:10042000F185E02D0995892BC1F040E06DE0CE010A
:100430000E94E201082F40E060E0CE010E94E2014C
:10044000182F402F6DE8CE010E94E201812F90E02D
:10045000DF91CF911F910F9108958FEF9FEFF8CF0C
:10046000CF93DF93EC01E881F9810084F185E02DE1
:100470000995892B71F08A8D9B8D01969B8F8A8FB0
:1004800040E060E0CE010E94E20190E0DF91CF9178
:1004900008958FEF9FEFFACFCF93DF93EC0140E009
:1004A00063E10E94E20190E02A8D3B8D821B930B59
:1004B000DF91CF910895AF92BF92CF92DF92FF92DA
:1004C0000F931F93CF93DF936C015B01EA0140E030
:1004D00062E20E94E201F82E90E09C012C0F3D1F89
:1004E0002F3F310529F020F0CFEFD0E0C81BD90B0A
:1004F0008501AC0EBD1E0A151B0541F0F8014191A6
:100500008F0160E8C6010E94E201F5CF4C2F4F0D2C
:1005100062EAC6010E94E201CE01DF91CF911F91F4
:100520000F91FF90DF90CF90BF90AF900895CF9341
:10053000DF931F92CDB7DEB76983DC01ED91FC91AB
:100540000280F381E02D41E050E0BE016F5F7F4FFC
:1005500009950F90DF91CF9108952091B901260F51
:100560003327331F21323105ECF42091DD01FC01EA
:1005700090E080E0243069F082E00895A091B90114
:100580002191AC0147565E4FA40FB52FB11D2C939E
:100590000196861798F38091B901680F6093B901AD
:1005A00080E0089581E008958FEF9FEF08958FEF29
:1005B0009FEF08958091920190E091958195910926
:1005C0000895CF93DF93CB01EA01642F0E94AD021F
:1005D000CE01DF91CF910895CF93DF931F92CDB7D6
:1005E000DEB7698361E0CE0101960E94AD0281E031
:1005F00090E00F90DF91CF91089590E080E0089512
:100600000895FC0182819381A481B581FB018083DF
:100610009183A283B3830895CF93DF93EC012FB727
:10062000F89480911A0290911B02A0911C02B09143
:100630001D022FBF4E815F8168857985841B950BD4
:10064000A60BB70B843F9140A105B10580F19A85B7
:100650009E3008F09E509770906490937C0080913B
:100660007A00806480937A0080917A0086FDFCCFC6
:100670008091780060917900762F682F072E000C0A
:10068000880B990B0E9465096A837B838C839D8309
:100690002FB7F89480911A0290911B02A0911C022E
:1006A000B0911D022FBF8E839F83A887B987DF91EA
:1006B000CF910895CF93DF93FC01828590E0FC01F8
:1006C000E057FF4F249184589F4FFC018491882369
:1006D000C1F090E0880F991FFC01E859FF4FC591C8
:1006E000D491FC01EE58FF4FA591B4919FB7F894B7
:1006F0008881E22FE0958E2388838C91E823EC9308
:100700009FBFDF91CF9108950F931F93CF93DF93F6
:1007100005E012E0D0E0C0E08091E0029091E102BB
:100720000097F9F03091E202C317D8F49E01220F2E
:10073000331F820F931FDC018D919C91DC01ED91A1
:10074000FC910480F581E02DB801099521960C5F9C
:100750001F4FC430D10501F7DF91CF911F910F9149
:10076000089590E080E0EACFFC0101900020E9F7D5
:100770003197AF01481B590BBC018EE192E00C94FC
:10078000D5008F929F92AF92BF920F931F93CF93FA
:10079000DF93CDB7DEB7A1970FB6F894DEBF0FBEDB
:1007A000CDBF19A2423008F44AE08E010F5D1F4F01
:1007B000842E912CB12CA12CA50194010E94B90A80
:1007C000E62FB901CA01EA30F4F4E05DD801EE93F6
:1007D0008D01232B242B252B79F790E080E01097B7
:1007E00019F0CD010E94B403A1960FB6F894DEBFB4
:1007F0000FBECDBFDF91CF911F910F91BF90AF90F2
:100800009F908F900895E95CE1CFEF92FF920F9354
:100810001F93CF93DF938C016091E20270E06F5FD2
:100820007F4F660F771F8091E0029091E1020E9456
:100830001E0DEC01892B79F423E6E22EF12C8CE3DA
:1008400091E00E94B40387E591E00E94B40381E047
:10085000E81AF108A1F7D093E102C093E002809179
:10086000E202282F30E0220F331FC20FD31F19835B
:1008700008838F5F8093E202DF91CF911F910F91E8
:10088000FF90EF9008954F925F926F927F928F92B8
:100890009F92AF92BF92CF92DF92EF92FF920F930F
:1008A0001F93CF936B017C01742EAC019B010E94BE
:1008B000F40B882399F08AE591E0CF911F910F9175
:1008C000FF90EF90DF90CF90BF90AF909F908F9070
:1008D0007F906F905F904F900C94B4034601570146
:1008E000E894B7F82FEF3FEF4FE75FE7C501B4019A
:1008F0000E94F40B81110DC02FEF3FEF4FE75FE730
:10090000C501B4010E945E0918161CF48EE591E041
:10091000D4CF2FEF3FEF4FE75FE4C701B6010E944E
:10092000EF0B18161CF482E691E0C7CF2FEF3FEFD4
:100930004FE75FECC701B6010E945E0987FDF3CF68
:1009400020E030E0A901C701B6010E945E0910E075
:1009500000E087FF0AC06DE28EE192E00E9475011F
:100960008C01F7FAF094F7F8F094C0E060E070E0E2
:1009700080E09FE37C1641F020E030E040E251E46B
:100980000E944E0BCF5FF6CFA70196010E94E20AAC
:100990002B013C010E94C00B4B015C014AE00E940C
:1009A000C1037C01E00EF11ECC23C1F1C501B401ED
:1009B0000E9463099B01AC01C301B2010E94E10ADC
:1009C0004B015C016EE28EE192E00E947501E80E3F
:1009D000F91EC15018F120E030E040E251E4C501B9
:1009E000B4010E94C4092B013C010E94C00B4B01C1
:1009F000B12CA12C4AE0C501B4010E94C103E80E4C
:100A0000F91EC501B4010E9463099B01AC01C30139
:100A1000B2010E94E10A4B015C01DBCFC701CF911B
:100A20001F910F91FF90EF90DF90CF90BF90AF900C
:100A30009F908F907F906F905F904F9008951F933D
:100A4000CF93DF9385ED8093BC00809195019091C9
:100A50009601A0919701B09198010796A11DB11D33
:100A600023E0B695A795979587952A95D1F720917C
:100A7000BC0024FD03C01092DD0152C040919501DD
:100A8000509196016091970170919801452B462BEA
:100A9000472B69F30097A105B10541F025E32A959D
:100AA000F1F700000197A109B109E1CF809194010C
:100AB000C1E0C0939301882399F1D091B8001091BF
:100AC000BA008091BC008A7B8093BC0060E082E128
:100AD0000E94880060E083E10E9488001092DD019E
:100AE000C093DF011092DE0161E082E10E94880084
:100AF00061E083E10E9488008091B9008E7F80933D
:100B0000B9008091B9008D7F8093B90088E480930B
:100B1000B80085E48093BC001093BA00D093B8006D
:100B2000DF91CF911F9108951F920F920FB60F92F0
:100B300011242F933F938F939F93AF93BF938091F3
:100B40001A0290911B02A0911C02B0911D023091DB
:100B5000190223E0230F2D3758F50196A11DB11D71
:100B60002093190280931A0290931B02A0931C02F7
:100B7000B0931D028091150290911602A091170268
:100B8000B09118020196A11DB11D8093150290939A
:100B90001602A0931702B0931802BF91AF919F91D4
:100BA0008F913F912F910F900FBE0F901F9018952E
:100BB00026E8230F0296A11DB11DD2CF1F920F92DE
:100BC0000FB60F9211242F933F934F935F936F9320
:100BD0007F938F939F93AF93BF93EF93FF93E09196
:100BE0000201F09103010995FF91EF91BF91AF913F
:100BF0009F918F917F916F915F914F913F912F9135
:100C00000F900FBE0F901F9018951F920F920FB666
:100C10000F9211242F933F934F935F936F937F9382
:100C20008F939F93AF93BF93EF93FF93E091000156
:100C3000F09101010995FF91EF91BF91AF919F91C3
:100C40008F917F916F915F914F913F912F910F9075
:100C50000FBE0F901F9018951F920F920FB60F9214
:100C600011242F933F934F935F936F937F938F93B1
:100C70009F93AF93BF93EF93FF938EE192E00E9417
:100C80005301FF91EF91BF91AF919F918F917F9110
:100C90006F915F914F913F912F910F900FBE0F90E9
:100CA0001F9018951F920F920FB60F9211242F9339
:100CB0008F939F93EF93FF93E0912E02F0912F0279
:100CC0008081E0913402F091350282FD1BC0908159
:100CD000809137028F5F8F7320913802821741F025
:100CE000E0913702F0E0E25EFD4F958F809337028E
:100CF000FF91EF919F918F912F910F900FBE0F90C9
:100D00001F9018958081F4CF1F920F920FB60F920B
:100D100011240F900FBE0F901F9018951F920F92E5
:100D20000FB60F9211242F933F934F935F936F93BE
:100D30007F938F939F93AF93BF93EF93FF93809194
:100D4000B900887F803609F44AC0F0F5883209F48A
:100D5000A5C018F5803109F499C0B8F4882309F4C6
:100D6000F5C0883009F492C0FF91EF91BF91AF9127
:100D70009F918F917F916F915F914F913F912F91B3
:100D80000F900FBE0F901F901895883109F486C000
:100D9000803251F78093DC0114C0803409F49BC089
:100DA00040F48033B9F38833F9F68093DC0185ECA5
:100DB000AEC0803509F483C0883509F494C0883406
:100DC00099F60E941F05D0CF883909F48AC038F5FA
:100DD000883729F050F4883611F0803729F683E0FF
:100DE0008093DD011092DB0155C0883809F479C089
:100DF000803919F0803809F0B7CF8091DB0180325B
:100E000008F06FC0E091DB0181E08E0F8093DB0181
:100E10008091BB00F0E0E554FE4F80833BC0803BF7
:100E200039F0D0F4803A09F477C0883A09F09CCFC1
:100E300084E08093DD011092BA011092B901F0E0D4
:100E4000E0E009958091B90181110FC081E08093A4
:100E5000B9011092990109C0803C09F4A8CF883CDF
:100E600009F4A5CF883B09F07FCFE091BA0181E07A
:100E70008E0F8093BA01F0E0E756FE4F8081809399
:100E8000BB009091BA018091B90129C08091020202
:100E90008093BB0085EC8093BC0066CF90910102EB
:100EA00080910002981758F5E091010281E08E0FC1
:100EB00080930102F0E0E052FE4F8081E9CFE091A3
:100EC000010281E08E0F809301028091BB00F0E06F
:100ED000E052FE4F808390910102809100029817AA
:100EE000C8F285E8D8CFE091010281E08E0F8093AF
:100EF00001028091BB00F0E0E052FE4F80838091C0
:100F0000DF0181115ECF81E08093DE0184EA80936E
:100F1000BC001092DD0128CF85EC8093BC001092BC
:100F2000DD018091DB01803230F4E091DB01F0E003
:100F3000E554FE4F10826091DB0170E08BEB91E095
:100F4000F0E0E0E009951092DB010ECF1092DC0199
:100F500038CFEEE1F2E01382128288EE93E0A0E057
:100F6000B0E084839583A683B7838CE191E091837D
:100F7000808385EC90E09587848784EC90E0978768
:100F8000868780EC90E0918B808B81EC90E0938B56
:100F9000828B82EC90E0958B848B86EC90E0978B33
:100FA000868B118E128E138E148EECEBF2E0138270
:100FB00012828EE291E09183808380E5848781E0D4
:100FC00085878BEB92E0978786878AE090E0918B0C
:100FD000808B89E090E0938B828B82E090E0958B10
:100FE000848B168A178A108E118E138E128E158E90
:100FF000148E178E168E11A210A213A212A21482A2
:10100000158216821782E0EEF2E0118210821282BF
:101010000895789484B5826084BD84B5816084BD70
:1010200085B5826085BD85B5816085BD80916E0086
:10103000816080936E0010928100809181008260B7
:1010400080938100809181008160809381008091F4
:1010500080008160809380008091B10084608093E3
:10106000B1008091B00081608093B00080917A00DF
:10107000846080937A0080917A00826080937A0005
:1010800080917A00816080937A0080917A008068F4
:1010900080937A001092C100E0912E02F0912F020D
:1010A00082E08083E0912A02F0912B021082E0918D
:1010B0002C02F0912D028FEC808310923602E09189
:1010C0003202F091330286E08083E0913002F091A9
:1010D0003102808180618083E0913002F0913102A1
:1010E000808188608083E0913002F09131028081BC
:1010F00080688083E0913002F091310280818F7DA1
:1011000080838DE090E00E94F90B0EE011E0DC019D
:1011100011961C930E932EE01A962C931A97D5E0F5
:101120001B96DC931B97CAE01C96CC930E94050487
:101130008DE090E00E94F90BFC01118300832FE009
:101140002287D387C4870E9405048DE090E00E9427
:10115000F90BDC0111961C930E9320E11A962C9347
:101160001A971B96DC931B971C96CC930E94050440
:101170008DE090E00E94F90BFC011183008321E1D6
:101180002287D387C4870E9405048091E002909152
:10119000E102C0E0892B21F500E010E00E94840309
:1011A0008091E0029091E102892B99F1C0E0809159
:1011B000E202C81770F58C2F90E0880F991FE0911C
:1011C000E002F091E102E80FF91F80819181DC01DA
:1011D000ED91FC910280F381E02D0995CF5FE7CF7F
:1011E0008091E202C817C0F68C2F90E0880F991FFB
:1011F000E091E002F091E102E80FF91F8081918116
:10120000DC01ED91FC910190F081E02D0995CF5F1B
:10121000E7CF86E691E00E94B403609105027091E9
:101220000602809107029091080242E00E94430466
:101230008FE691E00E94B4036091090270910A0266
:1012400080910B0290910C0242E00E9443048AE7D5
:1012500091E00E94B40360910D0270910E028091A2
:101260000F029091100242E00E94430485E891E051
:101270000E94B403609111027091120280911302D6
:101280009091140242E00E94430487E591E00E949D
:10129000B4030115110509F481CF0E943F01882391
:1012A00009F47CCF0E94000079CF8091E0029091F8
:1012B000E102009711F00C94950C08950E94A0098A
:1012C00008F481E00895E89409C097FB3EF49095F6
:1012D0008095709561957F4F8F4F9F4F9923A9F00F
:1012E000F92F96E9BB279395F6958795779567959E
:1012F000B795F111F8CFFAF4BB0F11F460FF1BC0E2
:101300006F5F7F4F8F4F9F4F16C0882311F096E974
:1013100011C0772321F09EE8872F762F05C0662322
:1013200071F096E8862F70E060E02AF09A95660FDB
:10133000771F881FDAF7880F9695879597F9089594
:10134000990F0008550FAA0BE0E8FEEF16161706D6
:10135000E807F907C0F012161306E407F50798F03E
:10136000621B730B840B950B39F40A2661F0232B57
:10137000242B252B21F408950A2609F4A140A695D3
:101380008FEF811D811D08950E94D7090C94480A92
:101390000E943A0A38F00E94410A20F0952311F089
:1013A0000C94310A0C94370A11240C947C0A0E9484
:1013B000590A70F3959FC1F3950F50E0551F629F36
:1013C000F001729FBB27F00DB11D639FAA27F00D9E
:1013D000B11DAA1F649F6627B00DA11D661F829FC5
:1013E0002227B00DA11D621F739FB00DA11D621FAA
:1013F000839FA00D611D221F749F3327A00D611DC7
:10140000231F849F600D211D822F762F6A2F1124A8
:101410009F5750409AF0F1F088234AF0EE0FFF1FDB
:10142000BB1F661F771F881F91505040A9F79E3F32
:10143000510580F00C94310A0C947C0A5F3FE4F370
:10144000983ED4F3869577956795B795F795E79588
:101450009F5FC1F7FE2B880F911D9695879597F991
:10146000089597F99F6780E870E060E008959FEF26
:1014700080EC089500240A9416161706180609062B
:10148000089500240A9412161306140605060895FA
:10149000092E0394000C11F4882352F0BB0F40F482
:1014A000BF2B11F460FF04C06F5F7F4F8F4F9F4FC2
:1014B000089557FD9058440F551F59F05F3F71F044
:1014C0004795880F97FB991F61F09F3F79F08795AB
:1014D0000895121613061406551FF2CF4695F1DF34
:1014E00008C0161617061806991FF1CF86957105C4
:1014F000610508940895E894BB2766277727CB01F8
:1015000097F908952F923F924F925F926F927F9238
:101510008F929F92AF92BF92CF92DF92EF92FF9203
:101520000F931F93CF93DF93CDB7DEB7CA1BDB0BAF
:101530000FB6F894DEBF0FBECDBF09942A88398854
:1015400048885F846E847D848C849B84AA84B9845B
:10155000C884DF80EE80FD800C811B81AA81B98167
:10156000CE0FD11D0FB6F894DEBF0FBECDBFED017B
:101570000895A1E21A2EAA1BBB1BFD010DC0AA1FD4
:10158000BB1FEE1FFF1FA217B307E407F50720F0EC
:10159000A21BB30BE40BF50B661F771F881F991F67
:1015A0001A9469F760957095809590959B01AC01B0
:1015B000BD01CF010895EE0FFF1F0590F491E02DBE
:1015C00009945058BB27AA270E94F90A0C94480A8C
:1015D0000E943A0A38F00E94410A20F039F49F3FF5
:1015E00019F426F40C94370A0EF4E095E7FB0C94FA
:1015F000310AE92F0E94590A58F3BA176207730794
:101600008407950720F079F4A6F50C947B0A0EF474
:10161000E0950B2EBA2FA02D0B01B90190010C0102
:10162000CA01A0011124FF27591B99F0593F50F41A
:10163000503E68F11A16F040A22F232F342F442772
:10164000585FF3CF469537952795A795F04053956A
:10165000C9F77EF41F16BA0B620B730B840BBAF03A
:101660009150A1F0FF0FBB1F661F771F881FC2F7A5
:101670000EC0BA0F621F731F841F48F487957795B9
:101680006795B795F7959E3F08F0B0CF9395880F73
:1016900008F09927EE0F9795879508950E94620BA1
:1016A0000C94480A0E94410A58F00E943A0A40F0FD
:1016B00029F45F3F29F00C94310A51110C947C0AF3
:1016C0000C94370A0E94590A68F39923B1F3552301
:1016D00091F3951B550BBB27AA2762177307840745
:1016E00038F09F5F5F4F220F331F441FAA1FA9F3DB
:1016F00035D00E2E3AF0E0E832D091505040E695C9
:10170000001CCAF72BD0FE2F29D0660F771F881F29
:10171000BB1F261737074807AB07B0E809F0BB0B1C
:10172000802DBF01FF2793585F4F3AF09E3F510530
:1017300078F00C94310A0C947C0A5F3FE4F3983EF5
:10174000D4F3869577956795B795F7959F5FC9F719
:10175000880F911D9695879597F90895E1E0660F9A
:10176000771F881FBB1F621773078407BA0720F013
:10177000621B730B840BBA0BEE1F88F7E09508957C
:101780000E94610A88F09F5798F0B92F9927B751A6
:10179000B0F0E1F0660F771F881F991F1AF0BA9515
:1017A000C9F714C0B13091F00E947B0AB1E00895EE
:1017B0000C947B0A672F782F8827B85F39F0B93FE0
:1017C000CCF3869577956795B395D9F73EF49095C8
:1017D0008095709561957F4F8F4F9F4F08950E9420
:1017E000A00908F48FEF08950E94A009880B990BB7
:1017F00008950F931F93CF93DF938230910510F4D8
:1018000082E090E0E091E502F091E60230E020E035
:10181000B0E0A0E0309799F42115310509F44AC0F1
:10182000281B390B24303105D8F58A819B8161153D
:10183000710589F1FB0193838283FE0111C0408110
:1018400051810281138148175907E0F04817590761
:1018500099F4109761F012960C93129713961C93BB
:101860003296CF01DF91CF911F910F910895009390
:10187000E5021093E602F4CF2115310551F042172D
:10188000530738F0A901DB019A01BD01DF01F8011E
:10189000C1CFEF01F9CF9093E6028093E502CDCF5F
:1018A000FE01E20FF31F8193919322503109398396
:1018B0002883D7CF2091E3023091E402232B41F417
:1018C00020910601309107013093E4022093E30256
:1018D00020910401309105012115310541F42DB706
:1018E0003EB74091080150910901241B350BE0914E
:1018F000E302F091E402E217F307A0F42E1B3F0B82
:101900002817390778F0AC014E5F5F4F2417350771
:1019100048F04E0F5F1F5093E4024093E30281931F
:1019200091939FCFF0E0E0E09CCFCF93DF930097BF
:10193000E9F0FC01329713821282A091E502B09186
:10194000E602ED0130E020E01097A1F42081318122
:10195000820F931F2091E3023091E4022817390788
:1019600009F061C0F093E402E093E302DF91CF91CC
:101970000895EA01CE17DF07E8F54A815B819E01F1
:1019800041155105B1F7E901FB83EA83499159916A
:10199000C40FD51FEC17FD0761F480819181029679
:1019A000840F951FE90199838883828193819B83AA
:1019B0008A83F0E0E0E012968D919C911397009756
:1019C000B9F52D913C911197CD010296820F931F8D
:1019D0002091E3023091E4022817390739F6309755
:1019E00051F51092E6021092E502B093E402A09342
:1019F000E302BCCFD383C28340815181840F951F02
:101A0000C817D90761F44E5F5F4F88819981480FED
:101A1000591F518340838A819B819383828321153F
:101A2000310509F0B0CFF093E602E093E5029ECFD6
:101A3000FD01DC01C0CF13821282D7CFB0E0A0E05D
:101A4000E4E2FDE00C94840A8C01009751F4CB0190
:101A50000E94F90B8C01C801CDB7DEB7E0E10C9410
:101A6000A00AFC01E60FF71F9C0122503109E21782
:101A7000F30708F49DC0D901CD91DC911197C617E9
:101A8000D70798F0C530D10530F3CE0104978617FB
:101A9000970708F3C61BD70B2297C193D1936D9379
:101AA0007C93CF010E94950CD6CF5B01AC1ABD0A86
:101AB0004C018C0E9D1EA091E502B091E602512CC6
:101AC000412CF12CE12C109731F58091E30290919B
:101AD000E4028815990509F05CC04616570608F01F
:101AE00058C08091040190910501009741F48DB791
:101AF0009EB74091080150910901841B950BE8178E
:101B0000F90708F055C0F093E402E093E302F9010D
:101B100071836083A0CF8D919C91119712966C90E8
:101B2000129713967C901397A815B90559F56C0177
:101B300042E0C40ED11CCA14DB0420F1AC014A19E6
:101B40005B09DA011296159780F0628273825183E5
:101B50004083D9016D937C93E114F10471F0D701B6
:101B60001396FC93EE93129776CF22968C0F9D1FBF
:101B7000F90191838083F301EFCFF093E602E093C4
:101B8000E50269CF4816590608F42C017D01D301FE
:101B90009ACFCB010E94F90B7C01009749F0AE016E
:101BA000B8010E94DB0DC8010E94950C870153CF3C
:101BB00010E000E050CFFB01DC0102C001900D926B
:101BC00041505040D8F7089510E0CDE5D0E004C072
:101BD000FE010E94DB0A2196CE35D107C9F7F894A1
:021BE000FFCF35
:101BE200D400D4000000E7028000000000005A0385
:101BF2000C03010300030003000000007501D5007F
:101C02000201C20133011101250100000000970207
:101C12005B02FD0207024C02300208024D656D6F45
:101C2200727920416C6C6F636174696F6E204661DA
:101C3200696C65642021000D0A006E616E00696E98
:101C420066006F7666007C6C647255703A20007C88
:101C52006C6472446F776E3A20007C6C64724C65DF
:101C620066743A20007C6C647252696768743A2028
:021C7200000070
:00000001FF
