:100000000C9462000C9450040C9429040C94CF04BA
:100010000C94CF040C94CF040C948A000C94D90453
:100020000C948A000C948A000C948A000C948A0028
:100030000C948A000C948A000C948A000C948A0018
:100040000C94DF030C948A000C949D040C947704A8
:100050000C948A000C948A000C948A000C948A00F8
:100060000C94FE040C948A0000000000230026007B
:10007000290000000008000201000003040700003E
:1000800000000000000000000000250028002B00F8
:1000900000000000240027002A00040404040404D3
:1000A0000404020202020202030303030303010227
:1000B00004081020408001020408102001020408F6
:1000C0001020190611241FBECFEFD8E0DEBFCDBF30
:1000D00022E0AEE2B1E001C01D92A938B207E1F71B
:1000E00011E0A0E0B1E0E4EFFEE002C005900D9267
:1000F000AE32B107D9F710E0C2E6D0E004C02197D4
:10010000FE010E947207C136D107C9F70E9402079B
:100110000C9478070C940000833081F028F481302F
:1001200099F08230A9F008958730A9F08830C9F09D
:100130008430B1F4809180008F7D03C08091800075
:100140008F7780938000089584B58F7784BD08955C
:1001500084B58F7DFBCF8091B0008F778093B00006
:1001600008958091B0008F7DF9CF1F93CF93DF93D7
:10017000282F30E0F901EE58FF4F8491F901E25544
:10018000FF4FD491F901E656FF4FC491CC23A9F05B
:10019000162F81110E948C00EC2FF0E0EE0FFF1F54
:1001A000EA57FF4FA591B4918FB7F894EC911111D4
:1001B00008C0D095DE23DC938FBFDF91CF911F91D4
:1001C0000895DE2BF8CF0895AF92BF92CF92DF92C1
:1001D000EF92FF920F931F93CF93DF936C017B01FC
:1001E0008B01040F151FEB015E01AE18BF08C0178D
:1001F000D10759F06991D601ED91FC910190F08100
:10020000E02DC6010995892B79F7C501DF91CF91C2
:100210001F910F91FF90EF90DF90CF90BF90AF9024
:100220000895FC01538D448D252F30E0842F90E0FC
:10023000821B930B541710F0CF96089501970895E1
:10024000FC01918D828D981761F0A28DAE0FBF2FAA
:10025000B11D5D968C91928D9F5F9F73928F90E000
:1002600008958FEF9FEF0895FC01918D828D98176F
:1002700031F0828DE80FF11D858D90E008958FEFAC
:100280009FEF0895FC01918D228D892F90E0805C75
:100290009F4F821B91098F73992708958FEA91E0F0
:1002A0000E94420121E0892B09F420E0822F089569
:1002B00080E090E0892B29F00E944E0181110C947E
:1002C00000000895FC01A48DA80FB92FB11DA35AF9
:1002D000BF4F2C91848D90E001968F739927848F66
:1002E000A689B7892C93A089B1898C918370806489
:1002F0008C93938D848D981306C00288F389E02D2A
:1003000080818F7D80830895EF92FF920F931F93DA
:10031000CF93DF93EC0181E0888F9B8D8C8D9813B8
:100320001AC0E889F989808185FF15C09FB7F894C4
:10033000EE89FF896083E889F98980818370806410
:1003400080839FBF81E090E0DF91CF911F910F915B
:10035000FF90EF900895F62E0B8D10E00F5F1F4F6A
:100360000F731127E02E8C8D8E110CC00FB607FC79
:10037000FACFE889F989808185FFF5CFCE010E9407
:100380006201F1CFEB8DEC0FFD2FF11DE35AFF4F12
:10039000F0829FB7F8940B8FEA89FB898081806295
:1003A000CFCFCF93DF93EC01888D8823B9F0AA8952
:1003B000BB89E889F9898C9185FD03C0808186FD20
:1003C0000DC00FB607FCF7CF8C9185FFF2CF80816F
:1003D00085FFEDCFCE010E946201E9CFDF91CF9181
:1003E00008950F931F93CF93DF93EC01062F142FE3
:1003F0009C858D859CBD8DBD60E088890E94B5007F
:100400000EBD00000DB407FEFDCF8EB51EBD000071
:100410000DB407FEFDCF1EB561E088890E94B500CE
:10042000812FDF91CF911F910F91089508950F9320
:100430001F93CF93DF93EC01E881F9810084F1856C
:10044000E02D0995892BC1F040E06DE0CE010E94BE
:10045000F101082F40E060E0CE010E94F101182F69
:10046000402F6DE8CE010E94F101812F90E0DF91D5
:10047000CF911F910F9108958FEF9FEFF8CFCF93FA
:10048000DF93EC01E881F9810084F185E02D099585
:10049000892B71F08A8D9B8D01969B8F8A8F40E00E
:1004A00060E0CE010E94F10190E0DF91CF910895CC
:1004B0008FEF9FEFFACFCF93DF93EC0140E063E142
:1004C0000E94F10190E02A8D3B8D821B930BDF91FE
:1004D000CF910895AF92BF92CF92DF92FF920F9388
:1004E0001F93CF93DF936C015B01EA0140E062E26E
:1004F0000E94F101F82E90E09C012C0F3D1F2F3F30
:10050000310529F020F0CFEFD0E0C81BD90B8501D1
:10051000AC0EBD1E0A151B0541F0F80141918F017B
:1005200060E8C6010E94F101F5CF4C2F4F0D62EA41
:10053000C6010E94F101CE01DF91CF911F910F9171
:10054000FF90DF90CF90BF90AF900895CF93DF934F
:100550001F92CDB7DEB76983DC01ED91FC9102807B
:10056000F381E02D41E050E0BE016F5F7F4F0995C0
:100570000F90DF91CF91089520915A01260F3327D4
:10058000331F21323105ECF420917E01FC0190E013
:1005900080E0243069F082E00895A0915A01219111
:1005A000AC01465C5E4FA40FB52FB11D2C93019694
:1005B000861798F380915A01680F60935A0180E082
:1005C000089581E008958FEF9FEF08958FEF9FEFDB
:1005D00008958091330190E0919581959109089556
:1005E000CF93DF93CB01EA01642F0E94BC02CE01BE
:1005F000DF91CF910895CF93DF931F92CDB7DEB7F0
:10060000698361E0CE0101960E94BC0281E090E026
:100610000F90DF91CF91089590E080E00895CF93FF
:10062000DF93FC01228133813327F901EE58FF4F1C
:100630008491F901E255FF4FD491F901E656FF4F3D
:10064000C491CC23A1F081110E948C00EC2FF0E02A
:10065000EE0FFF1FE859FF4FA591B491EC91ED23E8
:1006600081E090E009F480E0DF91CF91089580E08F
:1006700090E0FACF2FB7F8948091AB019091AC0144
:10068000A091AD01B091AE012FBF40917502509184
:1006900076026091770270917802841B950BA60B0D
:1006A000B70B883C9105A105B10598F02FB7F894D8
:1006B0008091AB019091AC01A091AD01B091AE01E0
:1006C0002FBF8093750290937602A0937702B09328
:1006D000780208951F93CF93DF9385ED8093BC003C
:1006E0008091360190913701A0913801B091390184
:1006F0000796A11DB11D23E0B695A79597958795FF
:100700002A95D1F72091BC0024FD03C010927E01F0
:1007100052C040913601509137016091380170917B
:100720003901452B462B472B69F30097A105B105ED
:1007300041F02AE22A95F1F700C00197A109B10919
:10074000E1CF80913501C1E0C0933401882399F154
:10075000D091B8001091BA008091BC008A7B809340
:10076000BC0060E082E10E94B50060E083E10E948D
:10077000B50010927E01C093800110927F0161E06C
:1007800082E10E94B50061E083E10E94B5008091A2
:10079000B9008E7F8093B9008091B9008D7F8093DE
:1007A000B90088E48093B80085E48093BC0010937E
:1007B000BA00D093B800DF91CF911F9108951F9296
:1007C0000F920FB60F9211242F933F938F939F9305
:1007D000AF93BF938091AB019091AC01A091AD011B
:1007E000B091AE013091AA0123E0230F2D3758F5C7
:1007F0000196A11DB11D2093AA018093AB01909396
:10080000AC01A093AD01B093AE018091A60190918F
:10081000A701A091A801B091A9010196A11DB11D48
:100820008093A6019093A701A093A801B093A9017A
:10083000BF91AF919F918F913F912F910F900FBEDC
:100840000F901F90189526E8230F0296A11DB11D49
:10085000D2CF1F920F920FB60F9211242F933F9376
:100860004F935F936F937F938F939F93AF93BF93B8
:10087000EF93FF93E0910201F09103010995FF913D
:10088000EF91BF91AF919F918F917F916F915F9108
:100890004F913F912F910F900FBE0F901F90189581
:1008A0001F920F920FB60F9211242F933F934F93E5
:1008B0005F936F937F938F939F93AF93BF93EF93C8
:1008C000FF93E0910001F09101010995FF91EF91F3
:1008D000BF91AF919F918F917F916F915F914F9158
:1008E0003F912F910F900FBE0F901F9018951F9260
:1008F0000F920FB60F9211242F933F934F935F9354
:100900006F937F938F939F93AF93BF93EF93FF93D7
:100910008FEA91E00E946201FF91EF91BF91AF9148
:100920009F918F917F916F915F914F913F912F9107
:100930000F900FBE0F901F9018951F920F920FB639
:100940000F9211242F938F939F93EF93FF93E09136
:10095000BF01F091C0018081E091C501F091C60115
:1009600082FD1BC090818091C8018F5F8F732091A1
:10097000C901821741F0E091C801F0E0E155FE4F56
:10098000958F8093C801FF91EF919F918F912F9147
:100990000F900FBE0F901F9018958081F4CF1F927B
:1009A0000F920FB60F9211240F900FBE0F901F9051
:1009B00018951F920F920FB60F9211242F933F9309
:1009C0004F935F936F937F938F939F93AF93BF9357
:1009D000EF93FF93F0E0E0E00995FF91EF91BF9175
:1009E000AF919F918F917F916F915F914F913F91C7
:1009F0002F910F900FBE0F901F9018951F920F927E
:100A00000FB60F9211242F933F934F935F936F93E1
:100A10007F938F939F93AF93BF93EF93FF938091B7
:100A2000B900887F803609F44AC0F0F5883209F4AD
:100A3000A5C018F5803109F499C0B8F4882309F4E9
:100A4000F5C0883009F492C0FF91EF91BF91AF914A
:100A50009F918F917F916F915F914F913F912F91D6
:100A60000F900FBE0F901F901895883109F486C023
:100A7000803251F780937D0114C0803409F49BC00B
:100A800040F48033B9F38833F9F680937D0185EC27
:100A9000AEC0803509F483C0883509F494C0883429
:100AA00099F60E946A03D0CF883909F48AC038F5D4
:100AB000883729F050F4883611F0803729F683E022
:100AC00080937E0110927C0155C0883809F479C06A
:100AD000803919F0803809F0B7CF80917C018032DD
:100AE00008F06FC0E0917C0181E08E0F80937C0163
:100AF0008091BB00F0E0E45AFE4F80833BC0803B16
:100B000039F0D0F4803A09F477C0883A09F09CCFE4
:100B100084E080937E0110925B0110925A01F0E014
:100B2000E0E0099580915A0181110FC081E0809326
:100B30005A0110923A0109C0803C09F4A8CF883CC0
:100B400009F4A5CF883B09F07FCFE0915B0181E0FC
:100B50008E0F80935B01F0E0E65CFE4F8081809316
:100B6000BB0090915B0180915A0129C08091A30143
:100B70008093BB0085EC8093BC0066CF9091A2016E
:100B80008091A101981758F5E091A20181E08E0FA4
:100B90008093A201F0E0EF57FE4F8081E9CFE09112
:100BA000A20181E08E0F8093A2018091BB00F0E052
:100BB000EF57FE4F80839091A2018091A101981779
:100BC000C8F285E8D8CFE091A20181E08E0F809332
:100BD000A2018091BB00F0E0EF57FE4F808380912F
:100BE000800181115ECF81E080937F0184EA809350
:100BF000BC0010927E0128CF85EC8093BC0010923F
:100C00007E0180917C01803230F4E0917C01F0E043
:100C1000E45AFE4F108260917C0170E08CE591E017
:100C2000F0E0E0E0099510927C010ECF10927D017A
:100C300038CFCF93DF931092B2011092B10188EEBA
:100C400093E0A0E0B0E08093B3019093B401A0934F
:100C5000B501B093B60188E091E09093B001809324
:100C6000AF0185EC90E09093BC018093BB0184ECD4
:100C700090E09093BE018093BD0180EC90E0909352
:100C8000C0018093BF0181EC90E09093C2018093FA
:100C9000C10182EC90E09093C4018093C30186EC83
:100CA00090E09093C6018093C5011092C801109204
:100CB000C9011092CA011092CB01109250021092F9
:100CC0004F028AE191E090934E0280934D0280E5BD
:100CD0008093590281E080935A028CE492E09093D1
:100CE0005C0280935B028AE090E090935E028093C6
:100CF0005D0289E090E09093600280935F0282E061
:100D000090E09093620280936102109263021092CD
:100D100064021092650210926602109268021092AC
:100D2000670210926A021092690210926C0210928D
:100D30006B0210926E0210926D021092700210926D
:100D40006F021092510210925202109253021092AE
:100D500054022CE231E0309372022093710290939E
:100D600074028093730210927502109276021092B0
:100D70007702109278021092790210927A02109201
:100D80007B0210927C0210927E0210927D02E0EBB8
:100D9000F0E02491ECE9F0E084918823C1F090E048
:100DA000880F991FFC01E057FF4FC591D491FC01BA
:100DB000EA57FF4FA591B4919FB7F8943881822FDD
:100DC000809583238883EC91E22BEC939FBF81E78E
:100DD00092E00E940F039093800280937F02909391
:100DE0008202809381029093840280938302109206
:100DF0008502109286021092870210928802DF917B
:100E0000CF910895789484B5826084BD84B5816063
:100E100084BD85B5826085BD85B5816085BD8091C5
:100E20006E00816080936E0010928100809181003D
:100E30008260809381008091810081608093810035
:100E4000809180008160809380008091B1008460F7
:100E50008093B1008091B00081608093B000809158
:100E60007A00846080937A0080917A008260809317
:100E70007A0080917A00816080937A0080917A0074
:100E8000806880937A001092C100809173029091E3
:100E9000740282309105C9F0039761F48AE393E00C
:100EA0009093030180930201809169008C6080938C
:100EB0006900E99AC0E0D0E02097F1F30E944E016A
:100EC0008823D1F30E940000F7CF8AE393E0909348
:100ED0000101809300018091690083608093690023
:100EE000E89AE8CFEE0FFF1F0590F491E02D0994EA
:040EF000F894FFCFA4
:100EF400E300E300000000008401E4001101D101DB
:100F040042012001340100000000A6026A020C0321
:0E0F140016025B023F021702000000000F03EE
:00000001FF
