:100000000C9463000C9489130C9462130C940814E0
:100010000C9408140C9408140C948B000C94121477
:100020000C948B000C948B000C948B000C948B0024
:100030000C948B000C948B000C948B000C948B0014
:100040000C9418130C948B000C94D6130C94B013CE
:100050000C948B000C948B000C948B000C948B00F4
:100060000C9437140C948B00000000002300260031
:10007000290000000000240027002A0000000000E2
:10008000250028002B0004040404040404040202D4
:100090000202020203030303030301020408102007
:1000A0004080010204081020010204081020000012
:1000B0000008000201000003040700000000000027
:1000C00000005615571611241FBECFEFD8E0DEBF33
:1000D000CDBF23E0AEEFB1E001C01D92AB3AB20755
:1000E000E1F711E0A0E0B1E0E0E8F4E302C0059040
:1000F0000D92AE3FB107D9F710E0C2E6D0E004C0E0
:100100002197FE010E949F17C136D107C9F70E94AF
:10011000D2150C94331A0C940000833081F028F42B
:10012000813099F08230A9F008958730A9F08830A5
:10013000C9F08430B1F4809180008F7D03C080913C
:1001400080008F7780938000089584B58F7784BD79
:10015000089584B58F7DFBCF8091B0008F77809319
:10016000B00008958091B0008F7DF9CF1F93CF9399
:10017000DF93282F30E0F901E255FF4F8491F90118
:10018000E656FF4FD491F901EA57FF4FC491CC23B3
:10019000A9F0162F81110E948D00EC2FF0E0EE0FD8
:1001A000FF1FE458FF4FA591B4918FB7F894EC91DD
:1001B000111108C0D095DE23DC938FBFDF91CF9162
:1001C0001F910895DE2BF8CFCF93DF9390E0FC01D1
:1001D000E656FF4F24918A579F4FFC018491882354
:1001E000D1F090E0880F991FFC01EE58FF4FA591C8
:1001F000B491FC01E458FF4FC591D491623071F481
:100200009FB7F8943C91822F809583238C93E8814B
:100210002E2B28839FBFDF91CF9108958FB7F8943D
:10022000EC912E2B2C938FBFF6CF3FB7F894809193
:10023000730290917402A0917502B091760226B576
:10024000A89B05C02F3F19F00196A11DB11D3FBF0E
:10025000BA2FA92F982F8827BC01CD01620F711DDD
:10026000811D911D42E0660F771F881F991F4A95D7
:10027000D1F708958F929F92AF92BF92CF92DF9263
:10028000EF92FF926B017C010E9415014B015C0112
:10029000C114D104E104F104B9F00E9415016819F8
:1002A00079098A099B09683E73408105910580F3AD
:1002B00021E0C21AD108E108F10888EE880E83E037
:1002C000981EA11CB11CE4CFFF90EF90DF90CF905F
:1002D000BF90AF909F908F9008952FB7F894609142
:1002E0006F027091700280917102909172022FBF23
:1002F00008958230E8F4E82FF0E0EE0FFF1FE050A1
:10030000FF4F71836083813041F0809169008C7F61
:10031000482B40936900E89A089580916900837F93
:10032000440F551F440F551F482B40936900E99A0D
:1003300008950895AF92BF92CF92DF92EF92FF920D
:100340000F931F93CF93DF936C017B018B01040FFD
:10035000151FEB015E01AE18BF08C017D10759F099
:100360006991D601ED91FC910190F081E02DC601DB
:100370000995892B79F7C501DF91CF911F910F91D5
:10038000FF90EF90DF90CF90BF90AF900895FC0169
:10039000538D448D252F30E0842F90E0821B930BEA
:1003A000541710F0CF96089501970895FC01918D90
:1003B000828D981761F0A28DAE0FBF2FB11D5D9693
:1003C0008C91928D9F5F9F73928F90E008958FEF35
:1003D0009FEF0895FC01918D828D981731F0828DE9
:1003E000E80FF11D858D90E008958FEF9FEF089540
:1003F000FC01918D228D892F90E0805C9F4F821BA4
:1004000091098F739927089587EC92E00E94F80173
:1004100021E0892B09F420E0822F089580E090E00C
:10042000892B29F00E94040281110C940000089588
:10043000FC01A48DA80FB92FB11DA35ABF4F2C9159
:10044000848D90E001968F739927848FA689B78950
:100450002C93A089B1898C91837080648C93938D47
:10046000848D981306C00288F389E02D80818F7DEA
:1004700080830895EF92FF920F931F93CF93DF93A2
:10048000EC0181E0888F9B8D8C8D98131AC0E889D0
:10049000F989808185FF15C09FB7F894EE89FF899F
:1004A0006083E889F98980818370806480839FBF3D
:1004B00081E090E0DF91CF911F910F91FF90EF903D
:1004C0000895F62E0B8D10E00F5F1F4F0F7311274D
:1004D000E02E8C8D8E110CC00FB607FCFACFE88988
:1004E000F989808185FFF5CFCE010E941802F1CFF6
:1004F000EB8DEC0FFD2FF11DE35AFF4FF0829FB7FC
:10050000F8940B8FEA89FB8980818062CFCFCF93EB
:10051000DF93EC01888D8823B9F0AA89BB89E8892B
:10052000F9898C9185FD03C0808186FD0DC00FB6D1
:1005300007FCF7CF8C9185FFF2CF808185FFEDCF4F
:10054000CE010E941802E9CFDF91CF9108950F9359
:100550001F93CF93DF93EC01062F142F9C858D857D
:100560009CBD8DBD60E088890E94B6000EBD000074
:100570000DB407FEFDCF8EB51EBD00000DB407FE05
:10058000FDCF1EB561E088890E94B600812FDF9102
:10059000CF911F910F91089508950F931F93CF93BB
:1005A000DF93EC01E881F9810084F185E02D099564
:1005B000892BC1F040E06DE0CE010E94A702082F18
:1005C00040E060E0CE010E94A702182F402F6DE8A6
:1005D000CE010E94A702812F90E0DF91CF911F9161
:1005E0000F9108958FEF9FEFF8CFCF93DF93EC013A
:1005F000E881F9810084F185E02D0995892B71F05E
:100600008A8D9B8D01969B8F8A8F40E060E0CE01A2
:100610000E94A70290E0DF91CF9108958FEF9FEFA6
:10062000FACFCF93DF93EC0140E063E10E94A70291
:1006300090E02A8D3B8D821B930BDF91CF91089523
:10064000AF92BF92CF92DF92FF920F931F93CF93FF
:10065000DF936C015B01EA0140E062E20E94A702C5
:10066000F82E90E09C012C0F3D1F2F3F310529F003
:1006700020F0CFEFD0E0C81BD90B8501AC0EBD1E1A
:100680000A151B0541F0F80141918F0160E8C60190
:100690000E94A702F5CF4C2F4F0D62EAC6010E94BF
:1006A000A702CE01DF91CF911F910F91FF90DF90B4
:1006B000CF90BF90AF900895CF93DF931F92CDB7A7
:1006C000DEB76983DC01ED91FC910280F381E02DBE
:1006D00041E050E0BE016F5F7F4F09950F90DF91C1
:1006E000CF91089520914702260F3327331F2132DF
:1006F0003105ECF420919D02FC0190E080E0243073
:1007000069F082E00895A09147022191AC014B5D10
:100710005D4FA40FB52FB11D2C930196861798F34A
:1007200080914702680F6093470280E0089581E05E
:10073000089510929D0281E080939C0210927702AE
:1007400061E082E10E94B60061E083E10E94B600B0
:10075000E9EBF0E080818E7F808380818D7F8083D4
:1007600088E48093B80085E48093BC000895CF931B
:10077000DF9391E0909324028823B9F0C091B800F0
:10078000D091BA008091BC008A7B8093BC0060E06D
:1007900082E10E94B60060E083E10E94B6000E9400
:1007A0009903D093BA00C093B800DF91CF91089518
:1007B0008F929F92AF92BF92CF92DF92EF92FF9271
:1007C0000F931F93CF93DF93D091C602D13208F0DD
:1007D000D7C0182FC091C5020E9415016B017C0182
:1007E00080919D0281116BC082E080939D021093E5
:1007F0009C028FEF80939B0210929A02D0939902F1
:10080000A5EAB2E0E9E7F2E080E0D81391C01092E7
:10081000780280917802CC0FC82BC0937802809127
:100820007702813009F088C0109277020E9415018A
:100830006B017C01809178028093BB0080919F02C4
:100840009091A002A091A102B091A202892B8A2BC3
:100850008B2BA1F00E94150100919F021091A00224
:100860002091A1023091A2026C197D098E099F0985
:10087000061717072807390708F442C08091BC0003
:1008800083FDD8CF85EC8093BC000E9415016B01DD
:100890007C0180919D02823009F450C080919B02BE
:1008A0008F3F09F46FC080919B02803209F46CC0C5
:1008B00080919B02803309F469C084E026C0809156
:1008C0009F029091A002A091A102B091A202892B57
:1008D0008A2B8B2B09F484CF0E94150180909F02F4
:1008E0009090A002A090A102B090A2026C197D0984
:1008F0008E099F0986169706A806B90608F070CFDC
:1009000080919E020E94B70385E01092A40210928B
:10091000C6021092A302DF91CF911F910F91FF9019
:10092000EF90DF90CF90BF90AF909F908F90089501
:100930009D9191938F5F69CF85EEA5CF80919F02A6
:100940009091A002A091A102B091A202892B8A2BC2
:100950008B2B09F49ECF0E94150100919F021091EC
:10096000A0022091A1023091A2026C197D098E098A
:100970009F09061717072807390708F08ACFC0CF45
:1009800081E0C3CF80E0C1CF82E0BFCF83E0BDCFA5
:100990000F931F93CF93DF93EC018D859E85288560
:1009A00031E03093A3022093C5021092A40210926A
:1009B000C6025F8D01E010E020E030E004C0000FCF
:1009C000111F221F331F6A95D2F7413031F5052BD5
:1009D0000F8F6F8D2B896223298D3D892323622BF5
:1009E000688FDC01ED91FC910190F081E02D09957B
:1009F0008F8D9B8989239A8D2D899223892B888FAE
:100A000081E00E94D803982F88A781E0911180E0AF
:100A1000DF91CF911F910F91089500950523D8CFB5
:100A200008950895E091230280912202E81730F49E
:100A3000F0E0EE5FFD4F808190E008958FEF9FEF33
:100A4000089590912302809122022FEF3FEF981793
:100A500048F4E92FF0E0EE5FFD4F208130E09F5F2A
:100A600090932302C901089580912202909123025C
:100A7000891B990B0895CF92DF92EF92FF920F930B
:100A80001F93CF93DF937C01CB018A012091A302B6
:100A9000222389F0EB016B01C40ED51ECC15DD05B8
:100AA00069F06991D701ED91FC910190F081E02D01
:100AB000C7010995F3CF642F0E947203C801DF912B
:100AC000CF911F910F91FF90EF90DF90CF900895FD
:100AD000CF93DF931F92CDB7DEB769832091A30236
:100AE0002223F9F02091C602203258F021E030E0B4
:100AF000FC013383228390E080E00F90DF91CF915F
:100B000008958091A402E82FF0E0EB55FD4F998104
:100B100090838F5F8093A4028093C60281E090E06F
:100B2000ECCF61E0CE0101960E947203F7CF90E016
:100B300080E0089580919D0390919E03DC01ED91EA
:100B4000FC910284F385E02D09940F931F93CF93BA
:100B5000DF938C01D0E0C0E0D8015B968C915B976D
:100B60008C171D0661F05CF05996ED91FC91EC0F2D
:100B7000FD1F60E080810E94B6002196EDCFDF91DD
:100B8000CF911F910F9108950F931F93CF93DF93F0
:100B90008C01D0E0C0E0D8015B968C915B978C17FC
:100BA0001D0661F05CF05996ED91FC91EC0FFD1F74
:100BB00061E080810E94B6002196EDCFDF91CF9158
:100BC0001F910F910895FC018389811104C0CB010D
:100BD000BA010C943A0108954F925F926F927F92FE
:100BE0008F929F92AF92BF92CF92DF92EF92FF923D
:100BF0000F931F93CF93DF93EC0106E010E0F12CED
:100C0000E12CE98DFA8DEE0DFF1D60E080810E94E0
:100C1000B6004E815F8168857985440F551F661F38
:100C2000771FCE010E94E305E98DFA8DEE0DFF1DC1
:100C300061E080810E94B6008FEFE81AF80AE016A2
:100C4000F106FCF2E98DFA8DE00FF11F319760E0BB
:100C500080810E94B6000150110989F605E010E07C
:100C6000E98DFA8DE00FF11F61E080810E94B600EE
:100C70004E815F8168857985440F551F661F771FF8
:100C8000CE010E94E3050150110950F7CE010E94E8
:100C9000C40544EF51E060E070E0CE010E94E3053E
:100CA00010E000E076E0E72EF12CE98DFA8DE00F00
:100CB000F11F60E080810E94B6004E815F816885EF
:100CC0007985CE010E94E305E98DFA8DE00FF11FD1
:100CD00061E080810E94B6004E815F8168857985E0
:100CE000CE010E94E30581E0E81AF108F1F64E8199
:100CF0005F8168857985CE010E94E3050F5F1F4FF4
:100D00000630110579F605E010E066E0E62EF12CDC
:100D1000E98DFA8DE00FF11F60E080810E94B6003E
:100D20004E815F8168857985CE010E94E305E98D5A
:100D3000FA8DE00FF11F61E080810E94B6004E81C4
:100D40005F8168857985CE010E94E30581E0E81A1C
:100D5000F108F1F64E815F8168857985CE010E94A8
:100D6000E3050150110988F6CE010E94C40544EF45
:100D700051E060E070E0CE010E94E30552E0E52E14
:100D8000F12C10E000E044E0C42ED12CE98DFA8D66
:100D9000E00FF11F60E080810E94B600E98DFA8DBE
:100DA000EE0DFF1D60E080810E94B6004E815F81E4
:100DB00068857985CE010E94E305E98DFA8DE00F03
:100DC000F11F61E080810E94B600E98DFA8DEE0D81
:100DD000FF1D61E080810E94B6004E815F816885C1
:100DE0007985CE010E94E30581E0C81AD10871F629
:100DF00042E350E060E070E0CE010E94E3050F5F47
:100E00001F4F8FEFE81AF80A0430110509F0BBCF25
:100E1000CE010E94C40544EF51E060E070E0CE01D5
:100E20000E94E3056E817F8188859985660F771F13
:100E3000881F991F0E9484166B017C0133E0432EAA
:100E4000512C612C712C6E817F81888599850E943F
:100E50008416A70196010E947F1618160CF467C02D
:100E600010E000E0E98DFA8DE00FF11F60E0808175
:100E70000E94B600C701B6010E9412184B015C0126
:100E8000BC01A401CE010E94E3050F5F1F4F063095
:100E9000110541F710E000E0E98DFA8DE00FF11F38
:100EA00061E080810E94B600B501A401CE010E94DC
:100EB000E3050F5F1F4F0630110571F705E010E0E5
:100EC000E98DFA8DE00FF11F60E080810E94B6008D
:100ED000B501A401CE010E94E3050150110980F77C
:100EE00005E010E0E98DFA8DE00FF11F61E08081EF
:100EF0000E94B600B501A401CE010E94E305015095
:100F0000110980F76E817F8188859985A3019201FF
:100F10000E947D17CA01B9010E9484169B01AC0191
:100F2000C701B6010E94A5176B017C018CCFCE01D1
:100F30000E94C40544EF51E060E070E0CE01DF9113
:100F4000CF911F910F91FF90EF90DF90CF90BF90C6
:100F5000AF909F908F907F906F905F904F900C9488
:100F6000E3052F923F924F925F926F927F928F9202
:100F70009F92AF92BF92CF92DF92EF92FF920F9328
:100F80001F93CF93DF93EC01E2E0CE2ED12C6FE0E4
:100F9000E62EF12C8E809F80A884B98410E000E0BA
:100FA0008B8D8017110681F07CF0E98DFA8DE00FB2
:100FB000F11F60E080810E94B6000F5F1F4FF0CFED
:100FC000CC24C394D12CE3CF10E000E08B8D8017AC
:100FD000110661F05CF0E98DFA8DE00FF11F60E021
:100FE00080810E94B6000F5F1F4FF0CFB501A401B2
:100FF000CE010E94E30510E000E08B8D8017110602
:1010000061F05CF0E98DFA8DE00FF11F61E0808105
:101010000E94B6000F5F1F4FF0CF10E000E08B8DF5
:101020008017110661F05CF0E98DFA8DE00FF11F79
:1010300061E080810E94B6000F5F1F4FF0CFB501C5
:10104000A401CE010E94E30521E0E21AF10809F0B3
:10105000A1CF44EF51E060E070E0CE010E94E305D3
:10106000CA94CD2809F0ACCFCE010E94C40554E04B
:10107000E52EF12C10E000E0E98DFA8DE00FF11F74
:1010800060E080810E94B6000F5F1F4F03301105A2
:1010900099F74E815F8168857985CE010E94E305CD
:1010A00010E000E0E98DFA8DE00FF11F61E0808132
:1010B0000E94B6000F5F1F4F0330110599F74E8154
:1010C0005F8168857985CE010E94E30591E0E91A88
:1010D000F10881F642E350E060E070E0CE010E944A
:1010E000E30544E0E42EF12C03E010E0E98DFA8DF5
:1010F000E00FF11F60E080810E94B6000F5F1F4F7C
:101100000630110599F74E815F8168857985CE019A
:101110000E94E30503E010E0E98DFA8DE00FF11F76
:1011200061E080810E94B6000F5F1F4F06301105FD
:1011300099F74E815F8168857985CE010E94E3052C
:10114000E1E0EE1AF10881F642E350E060E070E081
:10115000CE010E94E30534E0E32EF12C10E000E024
:10116000E98DFA8DE00FF11F60E080810E94B600EA
:101170000F5F1F4F0330110599F74E815F8168851E
:101180007985CE010E94E30510E000E0E98DFA8D3B
:10119000E00FF11F61E080810E94B6000F5F1F4FDA
:1011A0000330110599F74E815F8168857985CE01FD
:1011B0000E94E305F1E0EF1AF10881F644EF51E0F7
:1011C00060E070E0CE010E94E305CE010E94C405FC
:1011D00024E0E22EF12C03E010E0E98DFA8DE00F1F
:1011E000F11F60E080810E94B6000F5F1F4F063044
:1011F000110599F74E815F8168857985CE010E943E
:10120000E30503E010E0E98DFA8DE00FF11F61E0E6
:1012100080810E94B6000F5F1F4F0630110599F7BD
:101220004E815F8168857985CE010E94E30521E0CA
:10123000E21AF10881F642E350E060E070E0CE018E
:101240000E94E30594E0E92EF12C10E000E0E98D26
:10125000FA8DE00FF11F60E080810E94B6000F5F01
:101260001F4F0330110599F74E815F81688579859D
:10127000CE010E94E30510E000E0E98DFA8DE00F59
:10128000F11F61E080810E94B6000F5F1F4F0330A5
:10129000110599F74E815F8168857985CE010E949D
:1012A000E30581E0E81AF10881F642E350E060E0EE
:1012B00070E0CE010E94E30584E0E82EF12C03E00B
:1012C00010E0E98DFA8DE00FF11F60E080810E944F
:1012D000B6000F5F1F4F0630110599F74E815F81F1
:1012E00068857985CE010E94E30503E010E0E98D71
:1012F000FA8DE00FF11F61E080810E94B6000F5F60
:101300001F4F0630110599F74E815F8168857985F9
:10131000CE010E94E30591E0E91AF10881F6CE01C1
:101320000E94C40544EF51E060E070E0CE010E94ED
:10133000E30502E0A02EB12CEE24E394F12C10E0A2
:1013400000E0A4E0CA2ED12CE98DFA8DE00FF11F48
:1013500060E080810E94B600E98DFA8DEE0DFF1DE0
:1013600060E080810E94B6004E815F81688579854A
:10137000CE010E94E305E98DFA8DE00FF11F61E0D7
:1013800080810E94B600E98DFA8DEE0DFF1D61E0AF
:1013900080810E94B6004E815F8168857985CE018B
:1013A0000E94E305E1E0CE1AD10871F64CE251E06B
:1013B00060E070E0CE010E94E3050E5F1F4FF2E097
:1013C000EF0EF11C0630110509F0BBCF44EF51E0E0
:1013D00060E070E0CE010E94E305AA94AB2809F01A
:1013E000A9C0CE010E94C40506E010E0F12CE12C5A
:1013F000E98DFA8DEE0DFF1D60E080810E94B60040
:101400004E815F8168857985440F551F661F771F60
:10141000CE010E94E305E98DFA8DEE0DFF1D61E01E
:1014200080810E94B6008FEFE81AF80AE016F106F4
:10143000FCF2E98DFA8DE00FF11F319760E08081B9
:101440000E94B6000150110989F605E010E0E98D0F
:10145000FA8DE00FF11F61E080810E94B6004E819D
:101460005F8168857985440F551F661F771FCE0100
:101470000E94E3050150110950F7CE010E94C405F6
:1014800044EF51E060E070E0CE010E94E3058E8001
:101490009F80880C991C092C000CAA08BB0856E0F8
:1014A000452E512C65E0262E312C8E819F81A885FA
:1014B000B98588169906AA06BB0608F4DFC003E0C2
:1014C00010E032E0632E712C26E0E22EF12C0E1596
:1014D0001F05A4F56701E1E0CE1AD108E98DFA8D68
:1014E000EC0DFD1D60E080810E94B600C2018E19E6
:1014F0009F097C01E98DFA8DE80FF91F60E080817A
:101500000E94B600B501A401CE010E94E305E98D59
:10151000FA8DEC0DFD1D61E080810E94B600898D81
:101520009A8DE80EF91E61E0F70180810E94B600F5
:101530007601CDCFAA24A394B12CFECE730168010D
:10154000E98DFA8DEC0DFD1D60E080810E94B600F2
:10155000E98DFA8DEE0DFF1D60E080810E94B600DE
:10156000B501A401CE010E94E305E98DFA8DEC0DD1
:10157000FD1D61E080810E94B600E98DFA8DEE0DBF
:10158000FF1D61E080810E94B600FFEFCF1ADF0AE5
:1015900021E0E21AF108A0F695E0E92EF12C898D00
:1015A0009A8D0E151F057CF56701E1E0CE1AD10872
:1015B0008C0D9D1D60E0FC0180810E94B600C2017F
:1015C0008E199F097C01E98DFA8DE80FF91F60E003
:1015D00080810E94B600B501A401CE010E94E305FE
:1015E000E98DFA8DEC0DFD1D61E080810E94B60051
:1015F000898D9A8DE80EF91E61E0F70180810E94C5
:10160000B6007601CCCF800F911F60E0FC01808195
:101610000E94B600E98DFA8DE60DF71D60E080812D
:101620000E94B600F1E06F1A71080F5F1F4F06307D
:10163000110509F049CF02E010E0C101801B910BB8
:10164000E98DFA8DE80FF91F61E080810E94B600F4
:10165000E98DFA8DE00FF11F61E080810E94B600F4
:10166000B501A401CE010E94E3050150110928F73C
:1016700085E0881A9108A108B10817CFCE010E9411
:10168000A50544EF51E060E070E0CE010E94E30563
:1016900005E010E0E98DFA8DE00FF11F61E0808137
:1016A0000E94B6004E815F8168857985440F551F81
:1016B000661F771FCE010E94E3050150110950F704
:1016C000CE010E94C40544EF51E060E070E0CE011D
:1016D000DF91CF911F910F91FF90EF90DF90CF900E
:1016E000BF90AF909F908F907F906F905F904F9042
:1016F0003F902F900C94E305FC014683578360874D
:10170000718708950F931F93CF93DF93CDB7DEB703
:1017100028970FB6F894DEBF0FBECDBF09831A839A
:101720002B833C834D835E836F83788728E0FE01A3
:101730003196DC011E9601900D922A95E1F72896CC
:101740000FB6F894DEBF0FBECDBFDF91CF911F91D2
:101750000F910895CF93DF9300D000D000D0CDB784
:10176000DEB729833A834B835C836D837E8326E0D7
:10177000FE013196DC01569601900D922A95E1F713
:10178000DC01ED91FC910280F381E02D26960FB6ED
:10179000F894DEBF0FBECDBFDF91CF910994DC017D
:1017A000ED91FC910280F381E02D0994FC01838985
:1017B0008111138A268D378DC901959587958E0FD6
:1017C0009F1F048CF58DE02D20FF08C0DC012D91BA
:1017D0003C91E20FF31F0190F081E02D0994CF932B
:1017E000DF93EC0162E08E850E94E4006C897D89C4
:1017F0008E858230D9F08330D9F08FEF43E050E00E
:101800000E947901ED81F0E03896EE0FFF1FEE0F98
:10181000FF1FEC0FFD1F80819181A281B3818C8F0E
:101820009D8FAE8FBF8FDF91CF91089580E0E6CF7F
:1018300081E0E4CFCF92DF92EF92FF920F931F935C
:10184000CF938C016A017B01C7E0D8011296ED911C
:10185000FC9140E06C2F828193810E94C804C701F3
:10186000B6010E943A01C15080F7C7E0D801129634
:10187000ED91FC9140E06C2F808191810E94C80421
:10188000C701B6010E943A01C15080F7C7E0D801F4
:101890001296ED91FC9141E06C2F828193810E9420
:1018A000C804C701B6010E943A01C15080F7C7E0E1
:1018B000D8011296ED91FC9141E06C2F80819181CD
:1018C0000E94C804C701B6010E943A01C15080F7C6
:1018D000CF911F910F91FF90EF90DF90CF900895DF
:1018E0008F929F92AF92BF92CF92DF92FF920F930F
:1018F0001F93CF93DF938C014A015B01D0E0C0E0DE
:10190000D80114968C918C171D06D9F0D4F06E0175
:10191000CC0CDD1CF12CD8011296ED91FC91EC0D54
:10192000FD1D40E06F2D808191810E94C804C5019A
:10193000B4010E943A01F394B8E0FB12ECCF219677
:10194000DFCFD0E0C0E0F80184818C171D06D9F00C
:10195000D4F06E01CC0CDD1CF12CD8011296ED9167
:10196000FC91EC0DFD1D41E06F2D808191810E9465
:10197000C804C501B4010E943A01F394B8E0FB1217
:10198000ECCF2196E0CFDF91CF911F910F91FF9087
:10199000DF90CF90BF90AF909F908F900895CF929F
:1019A000DF92EF92FF920F931F93CF938C016A0106
:1019B0007B01C0E0D8011296ED91FC9140E06C2FC4
:1019C000808191810E94C804CF5FC83099F7C0E040
:1019D000D8011296ED91FC9140E06C2F82819381A9
:1019E0000E94C804CF5FC83099F7C701B6010E94B2
:1019F0003A01C0E0D8011296ED91FC9141E06C2FC4
:101A0000808191810E94C804CF5FC83099F7C0E0FF
:101A1000D8011296ED91FC9141E06C2F8281938167
:101A20000E94C804CF5FC83099F7C701B601CF91B3
:101A30001F910F91FF90EF90DF90CF900C943A019F
:101A4000CF92DF92EF92FF92CF93DF93EC0184E687
:101A5000C82ED12CE12CF12C44E050E060E070E085
:101A6000CE010E94700CB701A601CE010E94CF0CDE
:101A700044E050E060E070E0CE010E941A0C84E087
:101A8000C81AD108E108F10884E0C816D104E104BD
:101A9000F10411F7DF91CF91FF90EF90DF90CF909D
:101AA0000895CF92DF92EF92FF92CF93DF93EC01F4
:101AB00084E1C82ED12CE12CF12CB701A601CE0176
:101AC0000E941A0C84E0C81AD108E108F10884E0E9
:101AD000C816D104E104F10481F7DF91CF91FF90A2
:101AE000EF90DF90CF900895CF92DF92EF92FF9228
:101AF000CF93DF93EC0184E1C82ED12CE12CF12CA3
:101B0000B701A601CE010E94700C84E0C81AD1086A
:101B1000E108F10884E0C816D104E104F10481F77A
:101B2000DF91CF91FF90EF90DF90CF900895CF920B
:101B3000DF92EF92FF92CF93DF93EC0184E6C82E01
:101B4000D12CE12CF12CB701A601CE010E94CF0CC3
:101B500084E0C81AD108E108F10884E0C816D1046D
:101B6000E104F10481F7DF91CF91FF90EF90DF90D6
:101B7000CF900895CF93DF9300D000D000D0CDB7A1
:101B8000DEB729833A834B835C836D837E83DC01DC
:101B9000ED91FC910280F381E02D26960FB6F8942A
:101BA000DEBF0FBECDBFDF91CF910994DC0113964C
:101BB0007C936E93129714964C931497ED91FC912D
:101BC0000280F381E02D0994CF93DF93EC01E98546
:101BD000F0E03596EE0FFF1FEE0FFF1FEC0FFD1F1D
:101BE00080819181A281B381888B998BAA8BBB8BD9
:101BF0002A893B89C901959587958C0F9D1FE88996
:101C0000F98920FF08C0DC012D913C91E20FF31F00
:101C10000190F081E02D09958985833028F48F5F4C
:101C20008987DF91CF9108951986FBCF0895089594
:101C30000F931F93CF93DF93CDB7DEB728970FB6DF
:101C4000F894DEBF0FBECDBF28960FB6F894DEBF66
:101C50000FBECDBFDF91CF911F910F91089542E04C
:101C600050E061ED71E087EC92E00C949A01EF9204
:101C7000FF920F931F93CF93DF93CDB7DEB7E98425
:101C8000FA848E01035F1F4F86E0D70115968C936F
:101C900086E090E00E944118F7019483838390E0EE
:101CA00080E0D7011396ED91FC91E80FF91FD80160
:101CB0002C91208301960E5F1F4F8630910589F786
:101CC000DF91CF911F910F91FF90EF9008950F93A7
:101CD0001F93CF93DF93EC0188819981009759F08E
:101CE0002A813B812617370730F081E0DF91CF91C1
:101CF0001F910F9108958B016F5F7F4F0E946619AE
:101D0000009759F0998388831B830A832C813D8136
:101D1000232B59F7FC011082E8CF80E0E7CFEF9248
:101D2000FF920F931F93CF93DF93EC017B018A0106
:101D3000BA010E94670E28813981811114C02115D2
:101D4000310519F0C9010E94DD18198218821D821F
:101D50001C821B821A82CE01DF91CF911F910F91BD
:101D6000FF90EF9008951D830C83B701C9010E9475
:101D70002C1AF1CF2F923F924F925F926F927F92E7
:101D80008F929F92AF92BF92CF92DF92EF92FF928B
:101D90000F931F93CF93DF93CDB7DEB7AE970FB6F8
:101DA000F894DEBF0FBECDBF1BA61CA61DA61EA6A7
:101DB00081E089A780E18AA782E08BA71F928CE04F
:101DC0008F931F928BE08F931F928AE08F931F92C5
:101DD00089E08F931F9288E08F931F9287E08F9303
:101DE0001F9216E01F937E0189E2E80EF11CFF921C
:101DF000EF920E94370EF701DE015D96812F019070
:101E00000D928A95E1F7FE017D96A0EAB3E001907C
:101E10000D921A95E1F70FB6F894DEBF0FBECDBF55
:101E20008091A603882309F4B5C023E030E08091B7
:101E3000A60381110EC08091A3039091A403892B66
:101E400029F48091A503882309F438C18CEB809391
:101E5000A0032330310509F044C186E0E0EAF3E055
:101E6000DE01519601900D928A95E1F786E0FE0120
:101E70007196DE01939601900D928A95E1F786E0C6
:101E8000FE01B396DE01579601900D928A95E1F717
:101E900086E0FE017796A5E9B3E001900D928A9560
:101EA000E1F78091980390919903892B09F033C24F
:101EB00080919A0381112FC2F3E9CF2EF1E0DF2E3A
:101EC000A2E14A2E512CB3E16B2E712C1AE0A12E07
:101ED000B12C0BE4302E81EE282E99E8892E93E068
:101EE000992EE0909F03F12C20919703C60183590E
:101EF00091402817190609F00CF44AC18AE290E0D3
:101F00000E9441188C01D6018D916D01F801528615
:101F1000418674866386178692E0908B128A118AB6
:101F2000138A148A158A168A178A108E118E128EB9
:101F3000138E148E158E168E178E10A211A213A258
:101F400012A2B5A2A4A236A227A210A696868586C2
:101F50008087B7016F5F7F4F660F771F80919B036C
:101F600090919C030E946619009709F4BACF909350
:101F70009C0380939B0320919F03422F50E0440FCA
:101F8000551F840F951FFC01118300832F5F209341
:101F90009F03A7CF8091A3039091A403892B09F0FD
:101FA0006FC08091A50381116BC04AE6C42E41E049
:101FB000D42E0FE611E0760162E0F70181917F01F6
:101FC0000E94E4000E151F05B9F710E000E0000FB5
:101FD000111FD6012D916D0130E0F901E255FF4F3F
:101FE0008491F901E656FF4FB490F901EA57FF4F8B
:101FF000A490AA2039F181110E948D00EA2DF0E011
:10200000EE0FFF1FE859FF4FA591B491EC91BE224E
:1020100031E020E009F430E0832F922F082B192BB8
:10202000EC14FD04A1F6EAE4F1E090E080E02191F7
:102030002017110651F4865D9E4FFC01808180932C
:10204000A103F3CE90E080E0E9CF019680329105C4
:1020500071F72091A103422F50E0217030E090E011
:1020600080E0841795071CF4211101C03F5F08969A
:1020700088349105B1F73093A2032DEF30E0D7CE2D
:1020800010E08091A503181708F0CFCEE12EF12CB7
:10209000E091A303F091A403EE0DFF1D61E08081A8
:1020A0000E94E400E091A303F091A403EE0DFF1D54
:1020B00061E080810E94B6001F5FE3CF8091A103A1
:1020C0009EEF980F9F3048F09EEE980F973038F0B3
:1020D0008A51873230F481EBBACE8BE9B8CE86EAEA
:1020E000B6CE4DE150E064ED71E087EC92E00E94E5
:1020F0009A010E942F0EFE01399686E0DF011D92A3
:102100008A95E9F782E089878AE995E0988B8F873D
:1021100088E0DE01119601900D928A95E1F7809199
:102120009D0390919E03DC01ED91FC910084F1856B
:10213000E02D09811A812B813C814D815E816F8167
:102140007885099580919D0390919E03009739F0C1
:10215000DC01ED91FC910190F081E02D0995AE96A6
:102160000FB6F894DEBF0FBECDBFDF91CF911F91A8
:102170000F91FF90EF90DF90CF90BF90AF909F9026
:102180008F907F906F905F904F903F902F90089529
:10219000F12CE12C412C512C3201439424E0322EBD
:1021A00030E1A32E35E0B32E41E1842E45E0942E9C
:1021B0002224239480919F038E151F0409F00CF4B0
:1021C000AAC06701CC0CDD1CA0919B03B0919C03BD
:1021D000AC0DBD1D90E080E0ED91FC911197B30135
:1021E000A201082E04C0440F551F661F771F0A94D2
:1021F000D2F72389242B238B2489242B248B4095ED
:1022000025892423258B27892423278B268942236C
:10221000468B019688309105F9F60D911C91D801F5
:1022200098963C9210922302109222021092A402DD
:102230001092C6020E949903B0924602A0924502F3
:1022400090924A0280924902F8018389258981117E
:1022500002C0222331F1D8011D968D919C911E97C9
:1022600018963C9118972092A3023093C502549679
:102270006C915497622B59966C93DC01ED91FC9113
:102280000190F081E02D0995F80194898689892BC8
:10229000828F808F978F81E00E94D803D801989613
:1022A0008C93F80187858823A1F062E080890E94E1
:1022B000E400D80151966D917C91529750968C9183
:1022C000823029F1833029F581E042E050E00E941C
:1022D00079010E946D01F801638F748F858F968F4D
:1022E00080A5811108CF10E0E0919B03F0919C0341
:1022F000EC0DFD1D41E0612F808191810E94C80499
:102300001F5F183089F7FFEFEF1AFF0A53CF80E005
:10231000DCCF8FEFDACF80919A0320919803309130
:102320009903232B11F4882339F08630B9F11092E8
:102330009E0310929D03DFCE809196038031B9F702
:1023400084E290E00E94411825E831E0DC0111961A
:102350003C932E9313961C921E92129714961C92E5
:102360001497FC0115821682178210861186128638
:1023700013861486168615861786118A108A138A84
:10238000128A20E1EAE0F1E0549601900D922A953C
:10239000E1F790939E0380939D03ADCE80E390E0A0
:1023A0000E94411823E731E0DC0111963C932E9303
:1023B00015961C92159748E250E060E070E0FC0131
:1023C000468357836087718716861F961D921D92DC
:1023D0001D921C92529753961C92539755961C929D
:1023E0001E92549756961C92569757961C92579742
:1023F00058961C9258975A961C921E9259975B9623
:102400001C925B975D961C921E925C975F961C9245
:102410001E925E9720E1EAE1F1E09096B6CF85ED5D
:102420008093BC0080919F029091A002A091A10294
:10243000B091A2020796A11DB11D23E0B695A79504
:10244000979587952A95D1F72091BC0024FD03C06C
:1024500010929D02089540919F025091A0026091B8
:10246000A1027091A202452B462B472B69F30097DE
:10247000A105B10541F02AE22A95F1F700C00197C4
:10248000A109B109E1CF80919E020C94B703AF92EC
:10249000BF92CF92DF92EF92FF920F931F93CF9351
:1024A000DF93CDB7DEB72F970FB6F894DEBF0FBE20
:1024B000CDBF8C010E946D01F801C284D384E484F5
:1024C000F5846C197D098E099F096A3F71058105A4
:1024D000910508F48DC08581833008F09AC08F5F24
:1024E000F801858390E0FC013896EE0FFF1FEE0F98
:1024F000FF1FE00FF11F4081518162817381F8015C
:10250000448F558F668F778F1B861A861D861C8693
:102510001F861E864AE09E012F5F3F4F7901B90159
:102520000E946516F70101900020E9F73197AF018D
:102530004E195F09B701CE010A960E948F0E1A82CA
:1025400019821C821B821E821D824BE050E062EFCA
:1025500071E0C7010E948F0EAA84BB84A114B1044C
:1025600009F459C0CE84DF84C114D104B1F08D8147
:102570009E81C80ED91EB601C7010E94670E88232E
:1025800009F449C029813A818D819E81B501820F6C
:10259000931F0E942C1ADE82CD824D815E8169815B
:1025A0007A8187EC92E00E949A010E942F0E898125
:1025B0009A81009711F00E94DD188A859B8500970B
:1025C00011F00E94DD18F80187859089A189B289F0
:1025D0000196A11DB11D8787908BA18BB28B81E0E5
:1025E000838B0E946D01F8016287738784879587CA
:1025F0002F960FB6F894DEBF0FBECDBFDF91CF91FF
:102600001F910F91FF90EF90DF90CF90BF90AF9010
:10261000089580E065CF89819A81009711F00E942A
:10262000DD181A8219821E821D821C821B82B5CF80
:102630001F920F920FB60F9211242F933F938F93F7
:102640009F93AF93BF9380916F0290917002A0917E
:102650007102B091720230916E0223E0230F2D3788
:1026600058F50196A11DB11D20936E0280936F0253
:1026700090937002A0937102B093720280917302E2
:1026800090917402A0917502B09176020196A11DFD
:10269000B11D8093730290937402A0937502B0935E
:1026A0007602BF91AF919F918F913F912F910F90A3
:1026B0000FBE0F901F90189526E8230F0296A11DBC
:1026C000B11DD2CF1F920F920FB60F9211242F93EC
:1026D0003F934F935F936F937F938F939F93AF93AA
:1026E000BF93EF93FF93E0910201F09103010995ED
:1026F000FF91EF91BF91AF919F918F917F916F91DA
:102700005F914F913F912F910F900FBE0F901F90AF
:1027100018951F920F920FB60F9211242F933F938B
:102720004F935F936F937F938F939F93AF93BF93D9
:10273000EF93FF93E0910001F09101010995FF9162
:10274000EF91BF91AF919F918F917F916F915F9129
:102750004F913F912F910F900FBE0F901F901895A2
:102760001F920F920FB60F9211242F933F934F9306
:102770005F936F937F938F939F93AF93BF93EF93E9
:10278000FF9387EC92E00E941802FF91EF91BF91B6
:10279000AF919F918F917F916F915F914F913F91F9
:1027A0002F910F900FBE0F901F9018951F920F92B0
:1027B0000FB60F9211242F938F939F93EF93FF9354
:1027C000E091D702F091D8028081E091DD02F09192
:1027D000DE0282FD1BC090818091E0028F5F8F73CB
:1027E0002091E102821741F0E091E002F0E0E9532C
:1027F000FD4F958F8093E002FF91EF919F918F9114
:102800002F910F900FBE0F901F9018958081F4CFDD
:102810001F920F920FB60F9211240F900FBE0F90C0
:102820001F9018951F920F920FB60F9211242F939D
:102830003F934F935F936F937F938F939F93AF9348
:10284000BF93EF93FF93F0E0E0E00995FF91EF91E4
:10285000BF91AF919F918F917F916F915F914F91B8
:102860003F912F910F900FBE0F901F9018951F92C0
:102870000F920FB60F9211242F933F934F935F93B4
:102880006F937F938F939F93AF93BF93EF93FF9338
:102890008091B900887F803609F44AC0F0F588320B
:1028A00009F4A7C018F5803109F49BC0B8F4882357
:1028B00009F4F9C0883009F494C0FF91EF91BF91F9
:1028C000AF919F918F917F916F915F914F913F91C8
:1028D0002F910F900FBE0F901F901895883109F41B
:1028E00088C0803251F780939B0214C0803409F471
:1028F0009DC040F48033B9F38833F9F680939B028E
:1029000085ECB0C0803509F485C0883509F496C0DF
:10291000883499F60E940F12D0CF883909F48CC000
:1029200038F5883729F050F4883611F0803729F6C9
:1029300083E080939D0210926B0257C0883809F49F
:102940007BC0803919F0803809F0B7CF80916B02D5
:10295000803208F071C0E0916B0281E08E0F8093AD
:102960006B028091BB00F0E0E55BFD4F80833DC0D2
:10297000803B39F0E0F4803A09F479C0883A09F0F4
:102980009CCF84E080939D021092480210924702EF
:10299000E0914502F091460209958091470281112C
:1029A0000FC081E0809347021092250209C0803C4D
:1029B00009F4A6CF883C09F4A3CF883B09F07DCF6A
:1029C000E091480281E08E0F80934802F0E0EB5DD9
:1029D000FD4F80818093BB00909148028091470217
:1029E00029C0809178028093BB0085EC8093BC0065
:1029F00064CF90919A0280919902981758F5E091CE
:102A00009A0281E08E0F80939A02F0E0E758FD4F22
:102A10008081E9CFE0919A0281E08E0F80939A0243
:102A20008091BB00F0E0E758FD4F808390919A02BF
:102A3000809199029817C8F285E8D8CFE0919A0260
:102A400081E08E0F80939A028091BB00F0E0E758FE
:102A5000FD4F808380919C0281115CCF81E0809347
:102A6000770284EA8093BC0010929D0226CF85EC09
:102A70008093BC0010929D0280916B02803230F4F2
:102A8000E0916B02F0E0E55BFD4F108260916B021C
:102A900070E0E0914902F0914A028BE492E00995DE
:102AA00010926B020ACF10929B0234CFE7ECF2E057
:102AB0001382128288EE93E0A0E0B0E084839583D5
:102AC000A683B7832FE931E03183208325EC30E002
:102AD0003587248724EC30E03787268720EC30E0E8
:102AE000318B208B21EC30E0338B228B22EC30E0D9
:102AF000358B248B26EC30E0378B268B118E128E93
:102B0000138E148EE5E6F3E01382128221EB31E09E
:102B10003183208320E5248721E0258724E633E0E4
:102B2000378726872AE030E0318B208B29E030E0A0
:102B3000338B228B22E030E0358B248B168A178A68
:102B4000108E118E138E128E158E148E178E168E79
:102B500011A210A213A212A2148215821682178249
:102B6000E9E8F3E01382128284839583A683B78316
:102B700083EC91E091838083E0EAF3E0108211829C
:102B800012821482138215821682E5E9F3E0108224
:102B90001182128214821382158217821682118684
:102BA00010860895789484B5826084BD84B5816070
:102BB00084BD85B5826085BD85B5816085BD809108
:102BC0006E00816080936E00109281008091810080
:102BD0008260809381008091810081608093810078
:102BE000809180008160809380008091B10084603A
:102BF0008093B1008091B00081608093B00080919B
:102C00007A00846080937A0080917A008260809359
:102C10007A0080917A00816080937A0080917A00B6
:102C2000806880937A001092C100E091D702F09101
:102C3000D80282E08083E091D302F091D402108226
:102C4000E091D502F091D6028FEC80831092DF02E2
:102C5000E091DB02F091DC0286E08083E091D90212
:102C6000F091DA02808180618083E091D902F09155
:102C7000DA02808188608083E091D902F091DA02E3
:102C8000808180688083E091D902F091DA028081AE
:102C90008F7D80830E94BA0EC0E0D0E02097F1F3D0
:102CA0000E9404028823D1F30E940000F7CFCF9343
:102CB000DF93C5E9D3E08E819F810E94DD1888856E
:102CC0009985DF91CF910C94DD18BB27FB01552727
:102CD000AA27880F991FAA1FA41710F0A41B839579
:102CE0005051B9F7A05DAA3308F0A95DA1930097F0
:102CF00079F7B111B1931192CB010C94E5160E94B2
:102D0000C11608F481E00895E89409C097FB3EF4E9
:102D100090958095709561957F4F8F4F9F4F992328
:102D2000A9F0F92F96E9BB279395F69587957795A6
:102D30006795B795F111F8CFFAF4BB0F11F460FF66
:102D40001BC06F5F7F4F8F4F9F4F16C0882311F0BE
:102D500096E911C0772321F09EE8872F762F05C0D2
:102D6000662371F096E8862F70E060E02AF09A956D
:102D7000660F771F881FDAF7880F9695879597F962
:102D80000895990F0008550FAA0BE0E8FEEF1616FC
:102D90001706E807F907C0F012161306E407F5074F
:102DA00098F0621B730B840B950B39F40A2661F0C3
:102DB000232B242B252B21F408950A2609F4A14066
:102DC000A6958FEF811D811D0895DC01FC01672F01
:102DD00071917723E1F7329704C07C916D937083F2
:102DE0006291AE17BF07C8F3089597F99F6780E80F
:102DF00070E060E008959FEF80EC089500240A944D
:102E00001616170618060906089500240A941216C5
:102E10001306140605060895092E0394000C11F4F8
:102E2000882352F0BB0F40F4BF2B11F460FF04C0A5
:102E30006F5F7F4F8F4F9F4F089557FD9058440FFE
:102E4000551F59F05F3F71F04795880F97FB991F09
:102E500061F09F3F79F087950895121613061406C6
:102E6000551FF2CF4695F1DF08C016161706180653
:102E7000991FF1CF86957105610508940895E8942E
:102E8000BB2766277727CB0197F908952F923F92AA
:102E90004F925F926F927F928F929F92AF92BF926A
:102EA000CF92DF92EF92FF920F931F93CF93DF9316
:102EB000CDB7DEB7CA1BDB0B0FB6F894DEBF0FBE73
:102EC000CDBF09942A88398848885F846E847D84C0
:102ED0008C849B84AA84B984C884DF80EE80FD80C2
:102EE0000C811B81AA81B981CE0FD11D0FB6F89438
:102EF000DEBF0FBECDBFED010895A1E21A2EAA1BC1
:102F0000BB1BFD010DC0AA1FBB1FEE1FFF1FA21799
:102F1000B307E407F50720F0A21BB30BE40BF50B96
:102F2000661F771F881F991F1A9469F7609570951F
:102F3000809590959B01AC01BD01CF010895EE0FE6
:102F4000FF1F0590F491E02D09945058BB27AA2744
:102F50000E94BD170C940C170E94FE1638F00E94B8
:102F6000051720F039F49F3F19F426F40C94FB1652
:102F70000EF4E095E7FB0C94F516E92F0E941D175F
:102F800058F3BA17620773078407950720F079F49E
:102F9000A6F50C943F170EF4E0950B2EBA2FA02D3A
:102FA0000B01B90190010C01CA01A0011124FF27F6
:102FB000591B99F0593F50F4503E68F11A16F040F1
:102FC000A22F232F342F4427585FF3CF46953795F0
:102FD0002795A795F0405395C9F77EF41F16BA0BB5
:102FE000620B730B840BBAF09150A1F0FF0FBB1F63
:102FF000661F771F881FC2F70EC0BA0F621F731FAC
:10300000841F48F4879577956795B795F7959E3F08
:1030100008F0B0CF9395880F08F09927EE0F979599
:10302000879508950E94251788F09F5798F0B92F2B
:103030009927B751B0F0E1F0660F771F881F991FED
:103040001AF0BA95C9F714C0B13091F00E943F1739
:10305000B1E008950C943F17672F782F8827B85F49
:1030600039F0B93FCCF3869577956795B395D9F745
:103070003EF490958095709561957F4F8F4F9F4F4F
:1030800008950F931F93CF93DF938230910510F42F
:1030900082E090E0E091A903F091AA0330E020E003
:1030A000B0E0A0E0309799F42115310509F44AC049
:1030B000281B390B24303105D8F58A819B81611595
:1030C000710589F1FB0193838283FE0111C0408168
:1030D00051810281138148175907E0F048175907B9
:1030E00099F4109761F012960C93129713961C9313
:1030F0003296CF01DF91CF911F910F9108950093E8
:10310000A9031093AA03F4CF2115310551F04217FA
:10311000530738F0A901DB019A01BD01DF01F80175
:10312000C1CFEF01F9CF9093AA038093A903CDCF2C
:10313000FE01E20FF31F81939193225031093983ED
:103140002883D7CF2091A7033091A803232B41F4E4
:1031500020910601309107013093A8032093A70323
:1031600020910401309105012115310541F42DB75D
:103170003EB74091080150910901241B350BE091A5
:10318000A703F091A803E217F307A0F42E1B3F0B4F
:103190002817390778F0AC014E5F5F4F24173507C9
:1031A00048F04E0F5F1F5093A8034093A7038193ED
:1031B00091939FCFF0E0E0E09CCFCF93DF93009717
:1031C000E9F0FC01329713821282A091A903B09119
:1031D000AA03ED0130E020E01097A1F420813181B5
:1031E000820F931F2091A7033091A8032817390756
:1031F00009F061C0F093A803E093A703DF91CF919A
:103200000895EA01CE17DF07E8F54A815B819E0148
:1032100041155105B1F7E901FB83EA8349915991C1
:10322000C40FD51FEC17FD0761F4808191810296D0
:10323000840F951FE90199838883828193819B8301
:103240008A83F0E0E0E012968D919C9113970097AD
:10325000B9F52D913C911197CD010296820F931FE4
:103260002091A7033091A8032817390739F6309722
:1032700051F51092AA031092A903B093A803A0934A
:10328000A703BCCFD383C28340815181840F951F94
:10329000C817D90761F44E5F5F4F88819981480F45
:1032A000591F518340838A819B8193838283211597
:1032B000310509F0B0CFF093AA03E093A9039ECFA4
:1032C000FD01DC01C0CF13821282D7CFB0E0A0E0B5
:1032D000ECE6F9E10C9448178C01009751F4CB010E
:1032E0000E9441188C01C801CDB7DEB7E0E10C9413
:1032F0006417FC01E60FF71F9C0122503109E21709
:10330000F30708F49DC0D901CD91DC911197C61740
:10331000D70798F0C530D10530F3CE010497861752
:10332000970708F3C61BD70B2297C193D1936D93D0
:103330007C93CF010E94DD18D6CF5B01AC1ABD0A89
:103340004C018C0E9D1EA091A903B091AA03512C93
:10335000412CF12CE12C109731F58091A70390912D
:10336000A8038815990509F05CC04616570608F0B1
:1033700058C08091040190910501009741F48DB7E8
:103380009EB74091080150910901841B950BE817E5
:10339000F90708F055C0F093A803E093A703F901DB
:1033A00071836083A0CF8D919C91119712966C9040
:1033B000129713967C901397A815B90559F56C01CF
:1033C00042E0C40ED11CCA14DB0420F1AC014A193E
:1033D0005B09DA011296159780F06282738251833D
:1033E0004083D9016D937C93E114F10471F0D7010E
:1033F0001396FC93EE93129776CF22968C0F9D1F17
:10340000F90191838083F301EFCFF093AA03E09356
:10341000A90369CF4816590608F42C017D01D30190
:103420009ACFCB010E9441187C01009749F0AE0170
:10343000B8010E94231AC8010E94DD18870153CFEA
:1034400010E000E050CFFB01DC0102C001900D92C2
:1034500041505040D8F70895FB01DC0101900D92D6
:103460000020E1F7089510E0C2E6D0E004C0FE01BC
:103470000E949F172196C336D107C9F7F894FFCF52
:10348000990199010000AB038000970D0000740DB5
:103490000000510D0000200D0000C4050000B10720
:1034A0000000EC050000A5050000020406080A0C57
:1034B0000E10121416181A1C1E20222426282A2C3C
:1034C0002E30323436383A3C3E401F1E1D1C1B1A2B
:1034D000191817161514131211100F0E0D0C0B0AD4
:1034E000090807060504030201001B1A1921200020
:1034F000000000EF0BD60BCF0BAA0B820B47127C00
:103500000B00000000CC02E40DD60DBA0D180E170A
:103510000E160E2420222324252627000000003A20
:10352000029A01C7018702F801D601EA01000000F2
:10353000005C0320039705CC021103F502CD0200C5
:1035400000000068053B059705CC023405210512F3
:10355000050D0A00436F6E666967204572726F72CF
:103560002C20436865636B20576972696E67202160
:0E35700021007C20707265737365643A200040
:00000001FF
