:100000000C945E000C94CC070C94A5070C944B0840
:100010000C944B080C944B080C9486000C945508D7
:100020000C9486000C9486000C9486000C94860038
:100030000C9486000C9486000C9486000C94860028
:100040000C945B070C9486000C9419080C94F3072D
:100050000C9486000C9486000C9486000C94860008
:100060000C947A080C9486000000000024002700FD
:100070002A0000000000250028002B0004040404CE
:100080000404040402020202020203030303030342
:10009000010204081020408001020408102001021F
:1000A00004081020000000080002010000030407FB
:1000B0000000000000000000AC09750C11241FBEF8
:1000C000CFEFD8E0DEBFCDBF23E0A4EBB1E001C0AD
:1000D0001D92A93BB207E1F711E0A0E0B1E0E2E236
:1000E000F2E202C005900D92A43BB107D9F710E0EF
:1000F000CDE5D0E004C02197FE010E94FB0DCC3578
:10010000D107C9F70E947F0A0C9404110C940000D7
:1001100090E0FC01EC55FF4F2491FC01E057FF4FAC
:100120003491FC01E458FF4FE491EE23C9F02223FF
:1001300039F0233001F1A8F4213019F1223029F1EE
:10014000F0E0EE0FFF1FEE58FF4FA591B4918FB76F
:10015000F894EC91611126C030953E233C938FBFFB
:1001600008952730A9F02830C9F0243049F780914C
:1001700080008F7D03C0809180008F778093800006
:10018000DFCF84B58F7784BDDBCF84B58F7DFBCF88
:100190008091B0008F778093B000D2CF8091B00073
:1001A0008F7DF9CF3E2BDACFCF93DF9390E0FC0128
:1001B000E057FF4F249184589F4FFC01849188237E
:1001C000D1F090E0880F991FFC01E859FF4FA591ED
:1001D000B491FC01EE58FF4FC591D49161110EC04E
:1001E0009FB7F8948C91E22FE0958E238C93288111
:1001F000E223E8839FBFDF91CF9108958FB7F894F2
:10020000EC91E22BEC938FBFF6CF3FB7F89480913F
:10021000890290918A02A0918B02B0918C0226B53E
:10022000A89B05C02F3F19F00196A11DB11D3FBF2E
:10023000BA2FA92F982F8827BC01CD01620F711DFD
:10024000811D911D42E0660F771F881F991F4A95F7
:10025000D1F708958F929F92AF92BF92CF92DF9283
:10026000EF92FF924B015C010E9405016B017C0142
:100270000E9405016C197D098E099F09683E734033
:1002800081059105A8F321E0821A9108A108B1081F
:1002900088EEC80E83E0D81EE11CF11C8114910485
:1002A000A104B10429F7FF90EF90DF90CF90BF90A9
:1002B000AF909F908F900895089508950895AF92FC
:1002C000BF92CF92DF92EF92FF920F931F93CF9343
:1002D000DF936C017B018B01040F151FEB015E01A5
:1002E000AE18BF08C017D10759F06991D601ED913A
:1002F000FC910190F081E02DC6010995892B79F7D9
:10030000C501DF91CF911F910F91FF90EF90DF908A
:10031000CF90BF90AF900895FC01538D448D252F51
:1003200030E0842F90E0821B930B541710F0CF968F
:10033000089501970895FC01918D828D981761F0C1
:10034000A28DAE0FBF2FB11D5D968C91928D9F5FD8
:100350009F73928F90E008958FEF9FEF0895FC01B7
:10036000918D828D981731F0828DE80FF11D858D6A
:1003700090E008958FEF9FEF0895FC01918D228DFD
:10038000892F90E0805C9F4F821B91098F73992782
:1003900008958DE892E00E94BD0121E0892B09F4C7
:1003A00020E0822F089580E090E0892B29F00E94C0
:1003B000C90181110C9400000895FC01A48DA80FBF
:1003C000B92FB11DA35ABF4F2C91848D90E0019697
:1003D0008F739927848FA689B7892C93A089B189B7
:1003E0008C91837080648C93938D848D981306C058
:1003F0000288F389E02D80818F7D80830895EF92BC
:10040000FF920F931F93CF93DF93EC0181E0888FCE
:100410009B8D8C8D98131AC0E889F989808185FF9E
:1004200015C09FB7F894EE89FF896083E889F98940
:1004300080818370806480839FBF81E090E0DF9142
:10044000CF911F910F91FF90EF900895F62E0B8D95
:1004500010E00F5F1F4F0F731127E02E8C8D8E1150
:100460000CC00FB607FCFACFE889F989808185FFB7
:10047000F5CFCE010E94DD01F1CFEB8DEC0FFD2F0A
:10048000F11DE35AFF4FF0829FB7F8940B8FEA8972
:10049000FB8980818062CFCFCF93DF93EC01888D81
:1004A0008823B9F0AA89BB89E889F9898C9185FDEF
:1004B00003C0808186FD0DC00FB607FCF7CF8C917D
:1004C00085FFF2CF808185FFEDCFCE010E94DD0157
:1004D000E9CFDF91CF9108950F931F93CF93DF93CF
:1004E000EC01062F142F9C858D859CBD8DBD60E091
:1004F00088890E9488000EBD00000DB407FEFDCF64
:100500008EB51EBD00000DB407FEFDCF1EB561E027
:1005100088890E948800812FDF91CF911F910F91D0
:10052000089508950F931F93CF93DF93EC01E88113
:10053000F9810084F185E02D0995892BC1F040E017
:100540006DE0CE010E946C02082F40E060E0CE0119
:100550000E946C02182F402F6DE8CE010E946C02A1
:10056000812F90E0DF91CF911F910F9108958FEF30
:100570009FEFF8CFCF93DF93EC01E881F9810084FE
:10058000F185E02D0995892B71F08A8D9B8D01965F
:100590009B8F8A8F40E060E0CE010E946C0290E069
:1005A000DF91CF9108958FEF9FEFFACFCF93DF9335
:1005B000EC0140E063E10E946C0290E02A8D3B8DEB
:1005C000821B930BDF91CF910895AF92BF92CF9290
:1005D000DF92FF920F931F93CF93DF936C015B0128
:1005E000EA0140E062E20E946C02F82E90E09C0179
:1005F0002C0F3D1F2F3F310529F020F0CFEFD0E029
:10060000C81BD90B8501AC0EBD1E0A151B0541F098
:10061000F80141918F0160E8C6010E946C02F5CF9C
:100620004C2F4F0D62EAC6010E946C02CE01DF9191
:10063000CF911F910F91FF90DF90CF90BF90AF901F
:100640000895CF93DF931F92CDB7DEB76983DC01A6
:10065000ED91FC910280F381E02D41E050E0BE017C
:100660006F5F7F4F09950F90DF91CF9108950895A7
:100670002091F901260F3327331F21323105ECF485
:1006800020914202FC0190E080E0243069F082E099
:100690000895A091F9012191AC0147525E4FA40F3A
:1006A000B52FB11D2C930196861798F38091F9010F
:1006B000680F6093F90180E0089581E00895109239
:1006C000420281E08093410210921C0261E082E1CB
:1006D0000E94880061E083E10E948800E9EBF0E07D
:1006E00080818E7F808380818D7F808388E480936A
:1006F000B80085E48093BC000895CF93DF9391E028
:100700009093D8018823B9F0C091B800D091BA0075
:100710008091BC008A7B8093BC0060E082E10E94F3
:10072000880060E083E10E9488000E945F03D0930C
:10073000BA00C093B800DF91CF910895E0917302A1
:1007400080917202E81730F4F0E0E854FE4F8081A7
:1007500090E008958FEF9FEF08959091730280913C
:1007600072022FEF3FEF981748F4E92FF0E0E854BA
:10077000FE4F208130E09F5F90937302C90108957E
:100780008091720290917302891B990B0895CF9208
:10079000DF92EF92FF920F931F93CF93DF937C0131
:1007A000CB018A0120914802222389F0EB016B01E1
:1007B000C40ED51ECC15DD0569F06991D701ED9108
:1007C000FC910190F081E02DC7010995F3CF642FD2
:1007D0000E943803C801DF91CF911F910F91FF90C4
:1007E000EF90DF90CF900895CF93DF931F92CDB716
:1007F000DEB76983209148022223F9F0209170022C
:10080000203258F021E030E0FC013383228390E075
:1008100080E00F90DF91CF91089580917102E82FD1
:10082000F0E0E75BFD4F998190838F5F80937102C9
:100830008093700281E090E0ECCF61E0CE01019600
:100840000E943803F7CFCF92DF92EF92FF920F937F
:100850001F93CF93DF93FC01C48121E020934802D2
:10086000C093690210927102109270028485682B05
:100870008FE493E00E94F403D0917002D13208F02B
:1008800092C00E9405016B017C018091420281119E
:1008900065C082E08093420281E0809341028FEF45
:1008A0008093400210923F02D0933E02A9E4B2E04E
:1008B000EEE1F2E080E0D81385C010921D02809135
:1008C0001D02CC0FC82BC0931D0280911C028130E9
:1008D00009F07CC010921C020E9405016B017C0192
:1008E00080911D028093BB0080914402909145024B
:1008F000A0914602B0914702892B8A2B8B2B99F04D
:100900000E94050100914402109145022091460287
:10091000309147026C197D098E099F090617170748
:1009200028073907E0F18091BC0083FDD9CF85EC21
:100930008093BC000E9405016B017C018091420202
:10094000823009F445C0809140028F3F61F180916F
:100950004002803241F18091400225C080914402E2
:1009600090914502A0914602B0914702892B8A2BB3
:100970008B2B09F48ACF0E9405010091440210914B
:10098000450220914602309147026C197D098E097B
:100990009F09061717072807390708F076CF8091B7
:1009A00043020E947D031092710210927002109215
:1009B0004802DF91CF911F910F91FF90EF90DF9050
:1009C000CF9008959D9191938F5F75CF85EEB0CFB5
:1009D0008091440290914502A0914602B091470255
:1009E000892B8A2B8B2B09F4A9CF0E94050100913A
:1009F00044021091450220914602309147026C1941
:100A00007D098E099F09061717072807390708F07F
:100A100095CFC5CF90E080E00895FC01828193815D
:100A2000A481B581FB0180839183A283B383089560
:100A3000CF93DF93EC012FB7F894809185029091CA
:100A40008602A0918702B09188022FBF4E815F81FC
:100A500068857985841B950BA60BB70B843F914065
:100A6000A105B10580F19A859E3008F09E509770DF
:100A7000906490937C0080917A00806480937A00E7
:100A800080917A0086FDFCCF80917800609179009A
:100A9000762F682F072E000C880B990B0E94850C6F
:100AA0006A837B838C839D832FB7F8948091850222
:100AB00090918602A0918702B09188022FBF8E8309
:100AC0009F83A887B987DF91CF91089560E0FC01EB
:100AD00082850C94D40008950F931F93CF93DF93D6
:100AE00004E712E0D0E0C0E0E091A503F091A60396
:100AF000EC0FFD1F80819181DC01ED91FC91048060
:100B0000F581E02DB801099522960C5F1F4FC83082
:100B1000D10551F7DF91CF911F910F9108950F9358
:100B20001F93CF938C01C62F0E9423046C2F646007
:100B3000C8010E9423046C2F6B7FC8010E9423040C
:100B400083EC90E00197F1F7CF911F910F910895F9
:100B50000F931F93CF93DF938C01D62FC42F607F09
:100B6000642B0E948F0580E1D89FB00111246C2B6B
:100B7000C801DF91CF911F910F910C948F0541E037
:100B80000E94A80581E090E00895FC0101900020FA
:100B9000E9F73197AF01481B590BBC018DE892E092
:100BA0000C945F018F929F92AF92BF920F931F930D
:100BB000CF93DF93CDB7DEB7A1970FB6F894DEBF22
:100BC0000FBECDBF19A2423008F44AE08E010F5D7E
:100BD0001F4F842E912CB12CA12CA50194010E94B1
:100BE000D90DE62FB901CA01EA30F4F4E05DD8016D
:100BF000EE938D01232B242B252B79F790E080E0B9
:100C0000109719F0CD010E94C505A1960FB6F89472
:100C1000DEBF0FBECDBFDF91CF911F910F91BF906F
:100C2000AF909F908F900895E95CE1CF4F925F92D3
:100C30006F927F928F929F92AF92BF92CF92DF92EC
:100C4000EF92FF920F931F93CF936B017C01742E51
:100C5000AC019B010E94140F882399F08EE591E06E
:100C6000CF911F910F91FF90EF90DF90CF90BF90A9
:100C7000AF909F908F907F906F905F904F900C946B
:100C8000C50546015701E894B7F82FEF3FEF4FE74E
:100C90005FE7C501B4010E94140F81110DC02FEF51
:100CA0003FEF4FE75FE7C501B4010E947E0C1816C5
:100CB0001CF482E691E0D4CF2FEF3FEF4FE75FE4E3
:100CC000C701B6010E940F0F18161CF486E691E0CA
:100CD000C7CF2FEF3FEF4FE75FECC701B6010E9490
:100CE0007E0C87FDF3CF20E030E0A901C701B601FB
:100CF0000E947E0C10E000E087FF0AC06DE28DE8E4
:100D000092E00E94FF018C01F7FAF094F7F8F0945A
:100D1000C0E060E070E080E09FE37C1641F020E0FE
:100D200030E040E251E40E946E0ECF5FF6CFA701A3
:100D300096010E94020E2B013C010E94E00E4B0125
:100D40005C014AE00E94D2057C01E00EF11ECC233A
:100D5000C1F1C501B4010E94830C9B01AC01C30128
:100D6000B2010E94010E4B015C016EE28DE892E03F
:100D70000E94FF01E80EF91EC15018F120E030E09A
:100D800040E251E4C501B4010E94E40C2B013C0196
:100D90000E94E00E4B01B12CA12C4AE0C501B40128
:100DA0000E94D205E80EF91EC501B4010E94830C11
:100DB0009B01AC01C301B2010E94010E4B015C0119
:100DC000DBCFC701CF911F910F91FF90EF90DF9084
:100DD000CF90BF90AF909F908F907F906F905F90DB
:100DE0004F900895CF93DF93EC016091A70370E0DB
:100DF0006F5F7F4F660F771F8091A5039091A603C9
:100E00000E943E10009751F48AE691E00E94C505C9
:100E100085E891E0DF91CF910C94C5059093A603EE
:100E20008093A5032091A703422F50E0440F551F44
:100E3000840F951FFC01D183C0832F5F2093A703EC
:100E4000DF91CF91089585ED8093BC00809144029D
:100E500090914502A0914602B09147020796A11DCC
:100E6000B11D23E0B695A795979587952A95D1F75B
:100E70002091BC0024FD03C01092420208954091CD
:100E80004402509145026091460270914702452B01
:100E9000462B472B69F30097A105B10541F025E3E7
:100EA0002A95F1F700000197A109B109E1CF8091DE
:100EB00043020C947D031F920F920FB60F921124E0
:100EC0002F933F938F939F93AF93BF93809185020E
:100ED00090918602A0918702B0918802309184029D
:100EE00023E0230F2D3758F50196A11DB11D209346
:100EF00084028093850290938602A0938702B09328
:100F000088028091890290918A02A0918B02B0910F
:100F10008C020196A11DB11D8093890290938A02D3
:100F2000A0938B02B0938C02BF91AF919F918F9150
:100F30003F912F910F900FBE0F901F90189526E8AC
:100F4000230F0296A11DB11DD2CF1F920F920FB693
:100F50000F9211242F933F934F935F936F937F933F
:100F60008F939F93AF93BF93EF93FF93E091020111
:100F7000F09103010995FF91EF91BF91AF919F917E
:100F80008F917F916F915F914F913F912F910F9032
:100F90000FBE0F901F9018951F920F920FB60F92D1
:100FA00011242F933F934F935F936F937F938F936E
:100FB0009F93AF93BF93EF93FF93E0910001F09164
:100FC00001010995FF91EF91BF91AF919F918F9191
:100FD0007F916F915F914F913F912F910F900FBE35
:100FE0000F901F9018951F920F920FB60F92112419
:100FF0002F933F934F935F936F937F938F939F9321
:10100000AF93BF93EF93FF938DE892E00E94DD01D1
:10101000FF91EF91BF91AF919F918F917F916F91D0
:101020005F914F913F912F910F900FBE0F901F90A6
:1010300018951F920F920FB60F9211242F938F9332
:101040009F93EF93FF93E0919D02F0919E02808128
:10105000E091A302F091A40282FD1BC090818091D7
:10106000A6028F5F8F732091A702821741F0E09153
:10107000A602F0E0E357FD4F958F8093A602FF9103
:10108000EF919F918F912F910F900FBE0F901F9016
:1010900018958081F4CF1F920F920FB60F921124F2
:1010A0000F900FBE0F901F9018951F920F920FB6C2
:1010B0000F9211242F933F934F935F936F937F93DE
:1010C0008F939F93AF93BF93EF93FF93F0E0E0E094
:1010D0000995FF91EF91BF91AF919F918F917F9172
:1010E0006F915F914F913F912F910F900FBE0F9095
:1010F0001F9018951F920F920FB60F9211242F93E5
:101100003F934F935F936F937F938F939F93AF938F
:10111000BF93EF93FF938091B900887F803609F4E5
:101120004AC0F0F5883209F4A7C018F5803109F4F7
:101130009BC0B8F4882309F4F9C0883009F494C03E
:10114000FF91EF91BF91AF919F918F917F916F919F
:101150005F914F913F912F910F900FBE0F901F9075
:101160001895883109F488C0803251F78093400285
:1011700014C0803409F49DC040F48033B9F388333F
:10118000F9F68093400285ECB0C0803509F485C043
:10119000883509F496C0883499F60E942307D0CF89
:1011A000883909F48CC038F5883729F050F488362E
:1011B00011F0803729F683E08093420210921B02DF
:1011C00057C0883809F47BC0803919F0803809F09D
:1011D000B7CF80911B02803208F071C0E0911B02F2
:1011E00081E08E0F80931B028091BB00F0E0E55000
:1011F000FE4F80833DC0803B39F0E0F4803A09F433
:1012000079C0883A09F09CCF84E080934202109222
:10121000FA011092F901E0916E02F0916F020995C6
:101220008091F90181110FC081E08093F901109242
:10123000D90109C0803C09F4A6CF883C09F4A3CFAA
:10124000883B09F07DCFE091FA0181E08E0F809319
:10125000FA01F0E0E752FE4F80818093BB0090914D
:10126000FA018091F90129C080911D028093BB0091
:1012700085EC8093BC0064CF90913F0280913E0248
:10128000981758F5E0913F0281E08E0F80933F025E
:10129000F0E0E25EFD4F8081E9CFE0913F0281E026
:1012A0008E0F80933F028091BB00F0E0E25EFD4F25
:1012B000808390913F0280913E029817C8F285E8A2
:1012C000D8CFE0913F0281E08E0F80933F02809162
:1012D000BB00F0E0E25EFD4F80838091410281110E
:1012E0005CCF81E080931C0284EA8093BC00109262
:1012F000420226CF85EC8093BC001092420280917E
:101300001B02803230F4E0911B02F0E0E550FE4F0A
:10131000108260911B0270E0E0916C02F0916D020E
:101320008BEF91E0099510921B020ACF10924002B8
:1013300034CFCF93DF93EC0161E088810E94D40029
:101340008D8961E0811101C060E088810E94880080
:101350001C8ADF91CF9108950F931F93CF93DF9352
:10136000EDE8F2E01382128288EE93E0A0E0B0E0B4
:1013700084839583A683B78320E231E03183208381
:1013800025EC30E03587248724EC30E0378726874A
:1013900020EC30E0318B208B21EC30E0338B228B42
:1013A00022EC30E0358B248B26EC30E0378B268B1B
:1013B000118E128E138E148EEBE2F3E013821282E2
:1013C00022E331E03183208320E5248721E0258753
:1013D0002AE233E0378726872AE030E0318B208B02
:1013E00029E030E0338B228B02E010E0158B048B78
:1013F000168A178A108E118E138E128E158E148EE9
:10140000178E168E11A210A213A212A21482158298
:1014100016821782EFE4F3E01382128284839583AD
:10142000A683B78384E491E091838083E8EAF3E0C4
:101430001382128286E591E091838083118687E290
:10144000848380E1828782E083871486E5EAF3E083
:10145000118210821282C1EAD3E086E08B8385E09C
:101460008A8383E0888384E0898361E086E00E9448
:10147000D40061E08A810E94D40061E088810E94EA
:10148000D40061E089810E94D400CDE9D3E08AE0F4
:101490008B8389E08A8387E0888388E0898361E0A1
:1014A0008AE00E94D40061E08A810E94D40061E059
:1014B00088810E94D40061E089810E94D400E7E81D
:1014C000F3E011830083158ACF010E949909E1E7B7
:1014D000F3E08BE090E091838083158ACF010E9436
:1014E0009909EBE5F3E08CE090E091838083158A25
:1014F000CF01DF91CF911F910F910C9499097894AE
:1015000084B5826084BD84B5816084BD85B5826008
:1015100085BD85B5816085BD80916E0081608093B9
:101520006E00109281008091810082608093810022
:101530008091810081608093810080918000816032
:10154000809380008091B10084608093B10080918D
:10155000B00081608093B00080917A0084608093B5
:101560007A0080917A00826080937A0080917A007C
:10157000816080937A0080917A00806880937A00FD
:101580001092C100E0919D02F0919E0282E0808362
:10159000E0919902F0919A021082E0919B02F09101
:1015A0009C028FEC80831092A502E091A102F09141
:1015B000A20286E08083E0919F02F091A0028081E8
:1015C00080618083E0919F02F091A0028081886019
:1015D0008083E0919F02F091A002808180688083E7
:1015E000E0919F02F091A00280818F7D80838DE049
:1015F00090E00E94190FFC010EE011E011830083BE
:101600001282138214821582168217821086118626
:101610008EE08287D5E0D387CAE0C487CF010E94DD
:10162000F2068DE090E00E94190FFC011183008307
:1016300012821382148215821682178210861186F6
:101640008FE08287D387C487CF010E94F2068DE0A6
:1016500090E00E94190FFC01118300831282138213
:1016600014821582168217821086118680E1828785
:10167000D387C487CF010E94F2068DE090E00E94DC
:10168000190FFC01118300831282138214821582C8
:10169000168217821086118681E18287D387C487DC
:1016A000CF010E94F2068091A5039091A603892B99
:1016B000D1F0C0E08091A703C817A8F48C2F90E068
:1016C000880F991FE091A503F091A603E80FF91F79
:1016D00080819181DC01ED91FC910190F081E02D00
:1016E0000995CF5FE7CF10927302109272021092A9
:1016F0007102109270020E945F038CE591E090935A
:101700006F0280936E028DE591E090936D0280935D
:101710006C021092AD038091B303823018F098E010
:101720009093AD038093B00362E370E080E090E0BB
:101730000E942A016091B40388EA93E00E94230486
:1017400068EE73E080E090E00E942A0160E388EA9E
:1017500093E00E948F05CBE4D6E4CE010197F1F728
:1017600060E388EA93E00E948F052197F1F760E338
:1017700088EA93E00E948F0583E592E00197F1F7F4
:1017800060E288EA93E00E948F056091AD03606299
:1017900040E088EA93E00E94A80584E08093AE03CD
:1017A00040E06CE088EA93E00E94A80540E061E038
:1017B00088EA93E00E94A8058BE39FE10197F1F787
:1017C0008091B103882331F040E060E888EA93E03B
:1017D0000E94A80582E08093AF0340E066E088EABB
:1017E00093E00E94A80540E062E088EA93E00E944E
:1017F000A8058BE39FE10197F1F788E08093B4039C
:1018000060E088EA93E00E94230400E010E00E9478
:101810006C058091A5039091A603892BD1F0C0E0BF
:101820008091A703C817A8F48C2F90E0880F991F08
:10183000E091A503F091A603E80FF91F8081918143
:10184000DC01ED91FC910280F381E02D0995CF5FE1
:10185000E7CF88E891E00E94C5056091740270911D
:101860007502809176029091770242E00E941606FE
:1018700081E991E00E94C50560917802709179023A
:1018800080917A0290917B0242E00E9416068CE9D8
:1018900091E00E94C50560917C0270917D0280916B
:1018A0007E0290917F0242E00E94160687EA91E054
:1018B0000E94C50560918002709181028091820230
:1018C0009091830242E00E94160685E891E00E9412
:1018D000C5050115110509F49ACF0E94C901882395
:1018E00009F495CF0E94000092CF8091A5039091BA
:1018F000A603009711F00C94B50F08950E94C00C38
:1019000008F481E00895E89409C097FB3EF49095AF
:101910008095709561957F4F8F4F9F4F9923A9F0C8
:10192000F92F96E9BB279395F69587957795679557
:10193000B795F111F8CFFAF4BB0F11F460FF1BC09B
:101940006F5F7F4F8F4F9F4F16C0882311F096E92E
:1019500011C0772321F09EE8872F762F05C06623DC
:1019600071F096E8862F70E060E02AF09A95660F95
:10197000771F881FDAF7880F9695879597F908954E
:10198000990F0008550FAA0BE0E8FEEF1616170690
:10199000E807F907C0F012161306E407F50798F0F8
:1019A000621B730B840B950B39F40A2661F0232B11
:1019B000242B252B21F408950A2609F4A140A6958D
:1019C0008FEF811D811D08950E94F70C0C94680D06
:1019D0000E945A0D38F00E94610D20F0952311F0FD
:1019E0000C94510D0C94570D11240C949C0D0E94D5
:1019F000790D70F3959FC1F3950F50E0551F629FCD
:101A0000F001729FBB27F00DB11D639FAA27F00D57
:101A1000B11DAA1F649F6627B00DA11D661F829F7E
:101A20002227B00DA11D621F739FB00DA11D621F63
:101A3000839FA00D611D221F749F3327A00D611D80
:101A4000231F849F600D211D822F762F6A2F112462
:101A50009F5750409AF0F1F088234AF0EE0FFF1F95
:101A6000BB1F661F771F881F91505040A9F79E3FEC
:101A7000510580F00C94510D0C949C0D5F3FE4F3E4
:101A8000983ED4F3869577956795B795F795E79542
:101A90009F5FC1F7FE2B880F911D9695879597F94B
:101AA000089597F99F6780E870E060E008959FEFE0
:101AB00080EC089500240A941616170618060906E5
:101AC000089500240A9412161306140605060895B4
:101AD000092E0394000C11F4882352F0BB0F40F43C
:101AE000BF2B11F460FF04C06F5F7F4F8F4F9F4F7C
:101AF000089557FD9058440F551F59F05F3F71F0FE
:101B00004795880F97FB991F61F09F3F79F0879564
:101B10000895121613061406551FF2CF4695F1DFED
:101B200008C0161617061806991FF1CF869571057D
:101B3000610508940895E894BB2766277727CB01B1
:101B400097F908952F923F924F925F926F927F92F2
:101B50008F929F92AF92BF92CF92DF92EF92FF92BD
:101B60000F931F93CF93DF93CDB7DEB7CA1BDB0B69
:101B70000FB6F894DEBF0FBECDBF09942A8839880E
:101B800048885F846E847D848C849B84AA84B98415
:101B9000C884DF80EE80FD800C811B81AA81B98121
:101BA000CE0FD11D0FB6F894DEBF0FBECDBFED0135
:101BB0000895A1E21A2EAA1BBB1BFD010DC0AA1F8E
:101BC000BB1FEE1FFF1FA217B307E407F50720F0A6
:101BD000A21BB30BE40BF50B661F771F881F991F21
:101BE0001A9469F760957095809590959B01AC016A
:101BF000BD01CF010895EE0FFF1F0590F491E02D78
:101C000009945058BB27AA270E94190E0C94680DFE
:101C10000E945A0D38F00E94610D20F039F49F3F68
:101C200019F426F40C94570D0EF4E095E7FB0C9490
:101C3000510DE92F0E94790D58F3BA176207730707
:101C40008407950720F079F4A6F50C949B0D0EF40B
:101C5000E0950B2EBA2FA02D0B01B90190010C01BC
:101C6000CA01A0011124FF27591B99F0593F50F4D4
:101C7000503E68F11A16F040A22F232F342F44272C
:101C8000585FF3CF469537952795A795F040539524
:101C9000C9F77EF41F16BA0B620B730B840BBAF0F4
:101CA0009150A1F0FF0FBB1F661F771F881FC2F75F
:101CB0000EC0BA0F621F731F841F48F48795779573
:101CC0006795B795F7959E3F08F0B0CF9395880F2D
:101CD00008F09927EE0F9795879508950E94820E38
:101CE0000C94680D0E94610D58F00E945A0D40F04E
:101CF00029F45F3F29F00C94510D51110C949C0D67
:101D00000C94570D0E94790D68F39923B1F3552374
:101D100091F3951B550BBB27AA27621773078407FE
:101D200038F09F5F5F4F220F331F441FAA1FA9F394
:101D300035D00E2E3AF0E0E832D091505040E69582
:101D4000001CCAF72BD0FE2F29D0660F771F881FE3
:101D5000BB1F261737074807AB07B0E809F0BB0BD6
:101D6000802DBF01FF2793585F4F3AF09E3F5105EA
:101D700078F00C94510D0C949C0D5F3FE4F3983E69
:101D8000D4F3869577956795B795F7959F5FC9F7D3
:101D9000880F911D9695879597F90895E1E0660F54
:101DA000771F881FBB1F621773078407BA0720F0CD
:101DB000621B730B840BBA0BEE1F88F7E095089536
:101DC0000E94810D88F09F5798F0B92F9927B7513D
:101DD000B0F0E1F0660F771F881F991F1AF0BA95CF
:101DE000C9F714C0B13091F00E949B0DB1E0089585
:101DF0000C949B0D672F782F8827B85F39F0B93F77
:101E0000CCF3869577956795B395D9F73EF4909581
:101E10008095709561957F4F8F4F9F4F08950E94D9
:101E2000C00C08F48FEF08950E94C00C880B990B2A
:101E300008950F931F93CF93DF938230910510F491
:101E400082E090E0E091B703F091B80330E020E049
:101E5000B0E0A0E0309799F42115310509F44AC0AB
:101E6000281B390B24303105D8F58A819B816115F7
:101E7000710589F1FB0193838283FE0111C04081CA
:101E800051810281138148175907E0F0481759071B
:101E900099F4109761F012960C93129713961C9375
:101EA0003296CF01DF91CF911F910F91089500934A
:101EB000B7031093B803F4CF2115310551F0421741
:101EC000530738F0A901DB019A01BD01DF01F801D8
:101ED000C1CFEF01F9CF9093B8038093B703CDCF73
:101EE000FE01E20FF31F8193919322503109398350
:101EF0002883D7CF2091B5033091B603232B41F42B
:101F000020910601309107013093B6032093B50369
:101F100020910401309105012115310541F42DB7BF
:101F20003EB74091080150910901241B350BE09107
:101F3000B503F091B603E217F307A0F42E1B3F0B95
:101F40002817390778F0AC014E5F5F4F241735072B
:101F500048F04E0F5F1F5093B6034093B503819333
:101F600091939FCFF0E0E0E09CCFCF93DF93009779
:101F7000E9F0FC01329713821282A091B703B0916D
:101F8000B803ED0130E020E01097A1F42081318109
:101F9000820F931F2091B5033091B603281739079C
:101FA00009F061C0F093B603E093B503DF91CF91E0
:101FB0000895EA01CE17DF07E8F54A815B819E01AB
:101FC00041155105B1F7E901FB83EA834991599124
:101FD000C40FD51FEC17FD0761F480819181029633
:101FE000840F951FE90199838883828193819B8364
:101FF0008A83F0E0E0E012968D919C911397009710
:10200000B9F52D913C911197CD010296820F931F46
:102010002091B5033091B6032817390739F6309768
:1020200051F51092B8031092B703B093B603A09382
:10203000B503BCCFD383C28340815181840F951FE8
:10204000C817D90761F44E5F5F4F88819981480FA7
:10205000591F518340838A819B81938382832115F9
:10206000310509F0B0CFF093B803E093B7039ECFEA
:10207000FD01DC01C0CF13821282D7CFB0E0A0E017
:10208000E4E4F0E10C94A40D8C01009751F4CB0131
:102090000E94190F8C01C801CDB7DEB7E0E10C94A6
:1020A000C00DFC01E60FF71F9C0122503109E21719
:1020B000F30708F49DC0D901CD91DC911197C617A3
:1020C000D70798F0C530D10530F3CE0104978617B5
:1020D000970708F3C61BD70B2297C193D1936D9333
:1020E0007C93CF010E94B50FD6CF5B01AC1ABD0A1D
:1020F0004C018C0E9D1EA091B703B091B803512CDA
:10210000412CF12CE12C109731F58091B503909181
:10211000B6038815990509F05CC04616570608F005
:1021200058C08091040190910501009741F48DB74A
:102130009EB74091080150910901841B950BE81747
:10214000F90708F055C0F093B603E093B503F90121
:1021500071836083A0CF8D919C91119712966C90A2
:10216000129713967C901397A815B90559F56C0131
:1021700042E0C40ED11CCA14DB0420F1AC014A19A0
:102180005B09DA011296159780F06282738251839F
:102190004083D9016D937C93E114F10471F0D70170
:1021A0001396FC93EE93129776CF22968C0F9D1F79
:1021B000F90191838083F301EFCFF093B803E093AB
:1021C000B70369CF4816590608F42C017D01D301E5
:1021D0009ACFCB010E94190F7C01009749F0AE0104
:1021E000B8010E94FB10C8010E94B50F870153CFB0
:1021F00010E000E050CFFB01DC0102C001900D9225
:1022000041505040D8F7089510E0CDE5D0E004C02B
:10221000FE010E94FB0D2196CE35D107C9F7F89437
:02222000FFCFEE
:102222005E015E010000B903800000000000660547
:1022320018050D056B056B056B059102000000008A
:10224200FF015F018C014C02BD019B01AF01000047
:1022520000002103E5020A059102D602BA029202A7
:1022620000000000F403C7030A059102C003AD0396
:102272009E0300000000BF055F010A0537036E617F
:102282006E00696E66006F7666004D656D6F7279DD
:1022920020416C6C6F636174696F6E204661696C7A
:1022A20065642021000D0A007C6C647255703A202E
:1022B200007C6C6472446F776E3A20007C6C6472AE
:1022C2004C6566743A20007C6C647252696768746B
:0422D2003A200000AE
:00000001FF
