:100000000C9462000C948A000C948A000C948A0070
:100010000C948A000C948A000C948A000C948A0038
:100020000C948A000C948A000C948A000C948A0028
:100030000C948A000C948A000C948A000C948A0018
:100040000C9408050C948A000C9478050C945205C5
:100050000C948A000C948A000C948A000C948A00F8
:100060000C948A000C948A000000000023002600F3
:10007000290000000000240027002A0000000000E2
:10008000250028002B0004040404040404040202D4
:100090000202020203030303030301020408102007
:1000A0004080010204081020010204081020000012
:1000B0000008000201000003040700000000000027
:1000C0000000AA0511241FBECFEFD8E0DEBFCDBFD0
:1000D00021E0A6E2B1E001C01D92AB3EB207E1F71C
:1000E00011E0A0E0B1E0E0E1F2E102C005900D9284
:1000F000A632B107D9F710E0C2E6D0E004C02197DC
:10010000FE010E946E07C136D107C9F70E94E205C1
:100110000C9406090C940000CF93DF9390E0FC014F
:10012000E656FF4F24918A579F4FFC018491882304
:10013000D1F090E0880F991FFC01EE58FF4FA59178
:10014000B491FC01E458FF4FC591D491623071F431
:100150009FB7F8943C91822F809583238C93E881FC
:100160002E2B28839FBFDF91CF9108958FB7F894EE
:10017000EC912E2B2C938FBFF6CF3FB7F894809144
:100180002F0190913001A0913101B091320126B53B
:10019000A89B05C02F3F19F00196A11DB11D3FBFBF
:1001A000BA2FA92F982F8827BC01CD01620F711D8E
:1001B000811D911D42E0660F771F881F991F4A9588
:1001C000D1F708958F929F92AF92BF92CF92DF9214
:1001D000EF92FF924B015C010E94BD006B017C011C
:1001E0000E94BD006C197D098E099F09683E73400D
:1001F00081059105A8F321E0821A9108A108B108B0
:1002000088EEC80E83E0D81EE11CF11C8114910415
:10021000A104B10429F7FF90EF90DF90CF90BF9039
:10022000AF909F908F900895AF92BF92CF92DF9240
:10023000EF92FF920F931F93CF93DF936C017B019B
:100240008B01040F151FEB015E01AE18BF08C0172C
:10025000D10759F06991D601ED91FC910190F0819F
:10026000E02DC6010995892B79F7C501DF91CF9162
:100270001F910F91FF90EF90DF90CF90BF90AF90C4
:100280000895FC01538D448D252F30E0842F90E09C
:10029000821B930B541710F0CF9608950197089581
:1002A000FC01918D828D981761F0A28DAE0FBF2F4A
:1002B000B11D5D968C91928D9F5F9F73928F90E0A0
:1002C00008958FEF9FEF0895FC01918D828D98170F
:1002D00031F0828DE80FF11D858D90E008958FEF4C
:1002E0009FEF0895FC01918D228D892F90E0805C15
:1002F0009F4F821B91098F739927089587E391E09F
:100300000E94720121E0892B09F420E0822F0895D8
:1003100080E090E0892B29F00E947E0181110C94ED
:1003200000000895FC01A48DA80FB92FB11DA35A98
:10033000BF4F2C91848D90E001968F739927848F05
:10034000A689B7892C93A089B1898C918370806428
:100350008C93938D848D981306C00288F389E02DC9
:1003600080818F7D80830895EF92FF920F931F937A
:10037000CF93DF93EC0181E0888F9B8D8C8D981358
:100380001AC0E889F989808185FF15C09FB7F89464
:10039000EE89FF896083E889F989808183708064B0
:1003A00080839FBF81E090E0DF91CF911F910F91FB
:1003B000FF90EF900895F62E0B8D10E00F5F1F4F0A
:1003C0000F731127E02E8C8D8E110CC00FB607FC19
:1003D000FACFE889F989808185FFF5CFCE010E94A7
:1003E0009201F1CFEB8DEC0FFD2FF11DE35AFF4F82
:1003F000F0829FB7F8940B8FEA89FB898081806235
:10040000CFCFCF93DF93EC01888D8823B9F0AA89F1
:10041000BB89E889F9898C9185FD03C0808186FDBF
:100420000DC00FB607FCF7CF8C9185FFF2CF80810E
:1004300085FFEDCFCE010E949201E9CFDF91CF91F0
:100440000895CF92DF92EF92FF92CF93DF93DC017A
:100450001796CC911797D0E06111DC2F18962C914C
:10046000189730E0220F331F28593F4F50E040E0EB
:10047000F90185919491FC01F080BA0190E080E04F
:10048000EF2DEC23ED1310C04F5F5F4F1D96CD9005
:10049000DD90ED90FC9050976C157D058E059F05C5
:1004A00038F36FEF7FEFCB01DF91CF91FF90EF90AB
:1004B000DF90CF9008958F929F92AF92BF92CF928C
:1004C000DF92EF92FF920F931F93CF93DF93CDB7FD
:1004D000DEB7C054D1400FB6F894DEBF0FBECDBF1B
:1004E0002FB7F89440913301509134016091350158
:1004F000709136012FBFFC0101851285238534855B
:100500006A017B01C01AD10AE20AF30A9701860147
:10051000003D174021053105B0F4FC018189C05C24
:10052000DE4F0FB6F894DEBF0FBECDBFDF91CF9187
:100530001F910F91FF90EF90DF90CF90BF90AF9001
:100540009F908F9008958C01FC01418752876387AB
:1005500074871482138212821182108262E0858174
:100560000E948C0061E070E080E090E00E94E20078
:1005700061E0F80185810E948C00F801858190E09E
:10058000FC01E255FF4F2491FC01E656FF4F3491E8
:10059000FC01EA57FF4FE491EE23D9F0222359F0F2
:1005A000233009F44CC008F03FC0213009F44DC09D
:1005B000223009F44EC0F0E0EE0FFF1FE458FF4F69
:1005C000A591B4918FB7F894EC9130953E233C936C
:1005D0008FBFF80186818551823008F047C08BE2D9
:1005E00091E10197F1F762E0F80185810E948C00AA
:1005F000F801828990E08230910538F0880F991FC8
:10060000880F991F05970197F1F7F89460E0C801EA
:100610000E9421026F3F7F4F8F4F9F4F71F5F8016E
:10062000118A789480E07BCF2730B1F02830D1F068
:10063000243009F0C0CF809180008F7D03C080916D
:1006400080008F7780938000B6CF84B58F7784BD8C
:10065000B2CF84B58F7DFBCF8091B0008F77809330
:10066000B000A9CF8091B0008F7DF9CF64E170E038
:1006700080E090E00E94E200B6CF61E0C8010E94F5
:1006800021026F3F7F4F8F4F9F4F49F2CE0101965E
:100690007C015E019FEBA91A9EEFB90A670160E039
:1006A000C8010E942102F6016083718382839383D3
:1006B00061E0C8010E942102F6016483758386838C
:1006C0009783F8E0CF0ED11CAC14BD0441F77894A9
:1006D00030E020E0F70180809180A280B3804481E7
:1006E000558166817781FFEF8F169F06AF06BF06A3
:1006F00031F04F3F8FEF58076807780719F4F8017A
:10070000118A90CFF90183E0F595E7958A95E1F795
:10071000E00FF11F8081880F84169506A606B706A4
:10072000F0F080832F5F3F4FF8E0EF0EF11C28328E
:10073000310581F6F801448120818181280F33271A
:10074000331F8281280F311D8381820F932F911DCA
:1007500099274817190699F681E0818BE0CE8160D0
:10076000E0CF0F931F93FC0104811581268137810F
:10077000FB010083118322833383FC0180859185F3
:10078000A285B385FB0184839583A683B7831F91DC
:100790000F9108958F929F92AF92BF92EF92FF9226
:1007A0001F93CF93DF932FB7F8944091330150916B
:1007B000340160913501709136012FBFFC018484B2
:1007C0009584A684B784481959096A097B09443F6E
:1007D00051406105710508F4BDC0EC0188898111A3
:1007E000AAC0EA80FB80C7010E945B02882341F017
:1007F000F70186818C3009F460C038F48B30E1F069
:1008000060E070E080EC9FE73EC085518230C0F729
:100810001281612F70E0762F662766277F778381AC
:10082000682B90E080E00E9473062DEC3CEC4CECD1
:100830005DE30E94B0065CC0628170E090E080E001
:100840000E9473064B015C01F701138117FF0AC078
:10085000AC019B0160E070E080E89FEB0E947407B0
:100860004B015C011F70612F70E090E080E00E94FE
:1008700075062DEC3CEC4CEC5DE30E94B006A50146
:1008800094010E9475076C837D838E839F83EA8029
:10089000FB80C7010E945B02882351F0F70186812B
:1008A0008B3030F08D3040F18551823008F45CC0DF
:1008B00060E070E080EC9FE73AC01281612F70E049
:1008C00090E080E00E9473064B015C01F7016381B8
:1008D0006F7070E090E080E00E9475062DEC3CECBB
:1008E0004CEC5DE30E94B006A50194010E947507DF
:1008F00017FFC9CF9058C7CF618170E090E080E0CA
:100900000E9475062DEC3CEC4CEC5DE30E94B006B9
:100910004B015C01F701608170E090E080E00E9493
:1009200075069B01AC01C501B4010E94750768877B
:1009300079878A879B872FB7F894809133019091AC
:100940003401A0913501B09136012FBF8C879D876E
:10095000AE87BF87DF91CF911F91FF90EF90BF903F
:10096000AF909F908F90089560817181762767275F
:10097000762790E080E00E9473062DEC3CEC4CEC76
:100980005DE30E94B006D3CF08950F931F93CF93DA
:10099000DF938C0183E190E00E94E107EC01F80114
:1009A000928981898D839E83282F30E0F901E65654
:1009B000FF4FE491EF83F901EA57FF4FE491E88795
:1009C00040E85EE360E070E04D875E876F87788B7C
:1009D000F801D383C28362E00E948C002FB7F894A1
:1009E0008091330190913401A0913501B09136018D
:1009F0002FBF805D9740A109B10989879A87AB878E
:100A0000BC8787E38A8BDF91CF911F910F91089567
:100A10001F920F920FB60F9211242F933F938F9333
:100A20009F93AF93BF938091330190913401A09134
:100A30003501B091360130912E0123E0230F2D377F
:100A400058F50196A11DB11D20932E01809333010D
:100A500090933401A0933501B093360180912F011A
:100A600090913001A0913101B09132010196A11D08
:100A7000B11D80932F0190933001A0933101B09369
:100A80003201BF91AF919F918F913F912F910F9024
:100A90000FBE0F901F90189526E8230F0296A11DF8
:100AA000B11DD2CF1F920F920FB60F9211242F9328
:100AB0003F934F935F936F937F938F939F93AF93E6
:100AC000BF93EF93FF9387E391E00E949201FF9120
:100AD000EF91BF91AF919F918F917F916F915F91B6
:100AE0004F913F912F910F900FBE0F901F9018952F
:100AF0001F920F920FB60F9211242F938F939F93F3
:100B0000EF93FF93E0914701F09148018081E091DC
:100B10004D01F0914E0182FD1BC0908180915001EA
:100B20008F5F8F7320915101821741F0E091500146
:100B3000F0E0E95CFE4F958F80935001FF91EF91BB
:100B40009F918F912F910F900FBE0F901F9018952E
:100B50008081F4CFE7E3F1E01382128288EE93E024
:100B6000A0E0B0E084839583A683B7838AE091E018
:100B70009183808385EC90E09587848784EC90E076
:100B80009787868780EC90E0918B808B81EC90E05A
:100B9000938B828B82EC90E0958B848B86EC90E03B
:100BA000978B868B118E128E138E148EE4EDF1E0EE
:100BB0008CE191E09183808382E0818B86E1828B5E
:100BC000108A0895789484B5826084BD84B581606C
:100BD00084BD85B5826085BD85B5816085BD809108
:100BE0006E00816080936E00109281008091810080
:100BF0008260809381008091810081608093810078
:100C0000809180008160809380008091B100846039
:100C10008093B1008091B00081608093B00080919A
:100C20007A00846080937A0080917A008260809359
:100C30007A0080917A00816080937A0080917A00B6
:100C4000806880937A001092C100E0914701F09192
:100C5000480182E08083E0914301F09144011082D9
:100C6000E0914501F09146018FEC808310924F0195
:100C7000E0914B01F0914C0186E08083E0914901C5
:100C8000F0914A01808180618083E0914901F09177
:100C90004A01808188608083E0914901F0914A0196
:100CA000808180688083E0914901F0914A018081D0
:100CB0008F7D808384ED91E00E94C504C0E0D0E088
:100CC00066E271E084ED91E00E94B10384ED91E071
:100CD0000E94CA032097A1F30E947E01882381F31A
:100CE0000E940000EDCFE89409C097FB3EF4909578
:100CF0008095709561957F4F8F4F9F4F9923A9F0F5
:100D0000F92F96E9BB279395F69587957795679583
:100D1000B795F111F8CFFAF4BB0F11F460FF1BC0C7
:100D20006F5F7F4F8F4F9F4F16C0882311F096E95A
:100D300011C0772321F09EE8872F762F05C0662308
:100D400071F096E8862F70E060E02AF09A95660FC1
:100D5000771F881FDAF7880F9695879597F908957A
:100D60000E94C3060C9434070E94260738F00E94A4
:100D70002D0720F0952311F00C941D070C942307E8
:100D800011240C9468070E94450770F3959FC1F3E6
:100D9000950F50E0551F629FF001729FBB27F00D29
:100DA000B11D639FAA27F00DB11DAA1F649F66277E
:100DB000B00DA11D661F829F2227B00DA11D621FCD
:100DC000739FB00DA11D621F839FA00D611D221F87
:100DD000749F3327A00D611D231F849F600D211D6B
:100DE000822F762F6A2F11249F5750409AF0F1F0EE
:100DF00088234AF0EE0FFF1FBB1F661F771F881F57
:100E000091505040A9F79E3F510580F00C941D076A
:100E10000C9468075F3FE4F3983ED4F3869577958A
:100E20006795B795F795E7959F5FC1F7FE2B880FFC
:100E3000911D9695879597F9089597F99F6780E892
:100E400070E060E008959FEF80EC089500240A941C
:100E50001616170618060906089500240A94121695
:100E60001306140605060895092E0394000C11F4C8
:100E7000882352F0BB0F40F4BF2B11F460FF04C075
:100E80006F5F7F4F8F4F9F4F089557FD9058440FCE
:100E9000551F59F05F3F71F04795880F97FB991FD9
:100EA00061F09F3F79F08795089512161306140696
:100EB000551FF2CF4695F1DF08C016161706180623
:100EC000991FF1CF86957105610508940895E894FE
:100ED000BB2766277727CB0197F90895EE0FFF1FF1
:100EE0000590F491E02D09945058BB27AA270E9441
:100EF0008C070C9434070E94260738F00E942D07B7
:100F000020F039F49F3F19F426F40C9423070EF4D3
:100F1000E095E7FB0C941D07E92F0E94450758F365
:100F2000BA17620773078407950720F079F4A6F5CE
:100F30000C9467070EF4E0950B2EBA2FA02D0B0131
:100F4000B90190010C01CA01A0011124FF27591B0E
:100F500099F0593F50F4503E68F11A16F040A22F14
:100F6000232F342F4427585FF3CF46953795279585
:100F7000A795F0405395C9F77EF41F16BA0B620B84
:100F8000730B840BBAF09150A1F0FF0FBB1F661FCB
:100F9000771F881FC2F70EC0BA0F621F731F841F0E
:100FA00048F4879577956795B795F7959E3F08F034
:100FB000B0CF9395880F08F09927EE0F97958795F6
:100FC00008950F931F93CF93DF938230910510F410
:100FD00082E090E0E091E901F091EA0130E020E068
:100FE000B0E0A0E0309799F42115310509F44AC02A
:100FF000281B390B24303105D8F58A819B81611576
:10100000710589F1FB0193838283FE0111C0408148
:1010100051810281138148175907E0F04817590799
:1010200099F4109761F012960C93129713961C93F3
:101030003296CF01DF91CF911F910F9108950093C8
:10104000E9011093EA01F4CF2115310551F042175F
:10105000530738F0A901DB019A01BD01DF01F80156
:10106000C1CFEF01F9CF9093EA018093E901CDCF91
:10107000FE01E20FF31F81939193225031093983CE
:101080002883D7CF2091E7013091E801232B41F449
:1010900020910201309103013093E8012093E70190
:1010A00020910001309101012115310541F42DB746
:1010B0003EB74091040150910501241B350BE0918E
:1010C000E701F091E801E217F307A0F42E1B3F0BB4
:1010D0002817390778F0AC014E5F5F4F24173507AA
:1010E00048F04E0F5F1F5093E8014093E701819352
:1010F00091939FCFF0E0E0E09CCFCF93DF930097F8
:10110000E9F0FC01329713821282A091E901B091BB
:10111000EA01ED0130E020E01097A1F42081318157
:10112000820F931F2091E7013091E80128173907BA
:1011300009F061C0F093E801E093E701DF91CF91FE
:101140000895EA01CE17DF07E8F54A815B819E0129
:1011500041155105B1F7E901FB83EA8349915991A2
:10116000C40FD51FEC17FD0761F4808191810296B1
:10117000840F951FE90199838883828193819B83E2
:101180008A83F0E0E0E012968D919C91139700978E
:10119000B9F52D913C911197CD010296820F931FC5
:1011A0002091E7013091E8012817390739F6309787
:1011B00051F51092EA011092E901B093E801A09371
:1011C000E701BCCFD383C28340815181840F951F37
:1011D000C817D90761F44E5F5F4F88819981480F26
:1011E000591F518340838A819B8193838283211578
:1011F000310509F0B0CFF093EA01E093E9019ECF09
:10120000FD01DC01C0CF13821282D7CFF894FFCF4B
:101210000000EB01800000000000B4011401410156
:10122000010272015001640100000000C504CA03FC
:06123000B103C404C40474
:00000001FF
