:100000000C9458000C94E0030C94B9030C945F0416
:100010000C945F040C945F040C9480000C9480009A
:100020000C9480000C9480000C9480000C94800050
:100030000C9480000C9480000C9480000C94800040
:100040000C946F030C9480000C942D040C94070402
:100050000C9480000C9480000C9480000C94800020
:100060000C9469040C948000000000002500280016
:100070002B00040404040404040402020202020229
:10008000030303030303010204081020408001025C
:1000900004081020010204081020000000080002DB
:1000A00001000003040700000000000000008405B8
:1000B00011241FBECFEFD8E0DEBFCDBF22E0A8E203
:1000C000B1E001C01D92A636B207E1F711E0A0E051
:1000D000B1E0EAE6FCE002C005900D92A832B1075B
:1000E000D9F710E0C8E5D0E004C02197FE010E94D6
:1000F0002D06C735D107C9F70E94DF050C943306DA
:100100000C94000090E0FC01E656FF4F2491FC01A6
:10011000EA57FF4F3491FC01EE58FF4FE491EE2374
:10012000C9F0222339F0233001F1A8F4213019F16C
:10013000223029F1F0E0EE0FFF1FE859FF4FA591A3
:10014000B4918FB7F894EC91611126C030953E239D
:100150003C938FBF08952730A9F02830C9F0243090
:1001600049F7809180008F7D03C0809180008F7758
:1001700080938000DFCF84B58F7784BDDBCF84B5DB
:100180008F7DFBCF8091B0008F778093B000D2CF6E
:100190008091B0008F7DF9CF3E2BDACF0895AF92DA
:1001A000BF92CF92DF92EF92FF920F931F93CF9364
:1001B000DF936C017B018B01040F151FEB015E01C6
:1001C000AE18BF08C017D10759F06991D601ED915B
:1001D000FC910190F081E02DC6010995892B79F7FA
:1001E000C501DF91CF911F910F91FF90EF90DF90AC
:1001F000CF90BF90AF900895FC01538D448D252F73
:1002000030E0842F90E0821B930B541710F0CF96B0
:10021000089501970895FC01918D828D981761F0E2
:10022000A28DAE0FBF2FB11D5D968C91928D9F5FF9
:100230009F73928F90E008958FEF9FEF0895FC01D8
:10024000918D828D981731F0828DE80FF11D858D8B
:1002500090E008958FEF9FEF0895FC01918D228D1E
:10026000892F90E0805C9F4F821B91098F739927A3
:10027000089584EA91E00E942D0121E0892B09F480
:1002800020E0822F089580E090E0892B29F00E94E1
:10029000390181110C9400000895FC01A48DA80F70
:1002A000B92FB11DA35ABF4F2C91848D90E00196B8
:1002B0008F739927848FA689B7892C93A089B189D8
:1002C0008C91837080648C93938D848D981306C079
:1002D0000288F389E02D80818F7D80830895EF92DD
:1002E000FF920F931F93CF93DF93EC0181E0888FF0
:1002F0009B8D8C8D98131AC0E889F989808185FFC0
:1003000015C09FB7F894EE89FF896083E889F98961
:1003100080818370806480839FBF81E090E0DF9163
:10032000CF911F910F91FF90EF900895F62E0B8DB6
:1003300010E00F5F1F4F0F731127E02E8C8D8E1171
:100340000CC00FB607FCFACFE889F989808185FFD8
:10035000F5CFCE010E944D01F1CFEB8DEC0FFD2FBB
:10036000F11DE35AFF4FF0829FB7F8940B8FEA8993
:10037000FB8980818062CFCFCF93DF93EC01888DA2
:100380008823B9F0AA89BB89E889F9898C9185FD10
:1003900003C0808186FD0DC00FB607FCF7CF8C919E
:1003A00085FFF2CF808185FFEDCFCE010E944D0108
:1003B000E9CFDF91CF9108950F931F93CF93DF93F0
:1003C000EC01062F142F9C858D859CBD8DBD60E0B2
:1003D00088890E9482000EBD00000DB407FEFDCF8B
:1003E0008EB51EBD00000DB407FEFDCF1EB561E049
:1003F00088890E948200812FDF91CF911F910F91F8
:10040000089508950F931F93CF93DF93EC01E88134
:10041000F9810084F185E02D0995892BC1F040E038
:100420006DE0CE010E94DC01082F40E060E0CE01CB
:100430000E94DC01182F402F6DE8CE010E94DC01E4
:10044000812F90E0DF91CF911F910F9108958FEF51
:100450009FEFF8CFCF93DF93EC01E881F98100841F
:10046000F185E02D0995892B71F08A8D9B8D019680
:100470009B8F8A8F40E060E0CE010E94DC0190E01B
:10048000DF91CF9108958FEF9FEFFACFCF93DF9356
:10049000EC0140E063E10E94DC0190E02A8D3B8D9D
:1004A000821B930BDF91CF910895AF92BF92CF92B1
:1004B000DF92FF920F931F93CF93DF936C015B0149
:1004C000EA0140E062E20E94DC01F82E90E09C012B
:1004D0002C0F3D1F2F3F310529F020F0CFEFD0E04A
:1004E000C81BD90B8501AC0EBD1E0A151B0541F0BA
:1004F000F80141918F0160E8C6010E94DC01F5CF4F
:100500004C2F4F0D62EAC6010E94DC01CE01DF9143
:10051000CF911F910F91FF90DF90CF90BF90AF9040
:100520000895CF93DF931F92CDB7DEB76983DC01C7
:10053000ED91FC910280F381E02D41E050E0BE019D
:100540006F5F7F4F09950F90DF91CF9108952091B4
:100550004F01260F3327331F21323105ECF4209150
:100560007301FC0190E080E0243069F082E008959E
:10057000A0914F012191AC01415D5E4FA40FB52FB9
:10058000B11D2C930196861798F380914F01680F47
:1005900060934F0180E0089581E008958FEF9FEF11
:1005A00008958FEF9FEF08958091280190E0919535
:1005B000819591090895CF93DF93CB01EA01642FD0
:1005C0000E94A702CE01DF91CF910895CF93DF93D0
:1005D0001F92CDB7DEB7698361E0CE0101960E941C
:1005E000A70281E090E00F90DF91CF91089590E015
:1005F00080E008951F93CF93DF9385ED8093BC0037
:1006000080912B0190912C01A0912D01B0912E0190
:100610000796A11DB11D23E0B695A79597958795DF
:100620002A95D1F72091BC0024FD03C010927301DC
:1006300052C040912B0150912C0160912D0170917D
:100640002E01452B462B472B69F30097A105B105D9
:1006500041F025E32A95F1F700000197A109B109BE
:10066000E1CF80912A01C1E0C0932901882399F14B
:10067000D091B8001091BA008091BC008A7B809321
:10068000BC0060E082E10E94820060E083E10E94A1
:10069000820010927301C09375011092740161E0A1
:1006A00082E10E94820061E083E10E9482008091E9
:1006B000B9008E7F8093B9008091B9008D7F8093BF
:1006C000B90088E48093B80085E48093BC0010935F
:1006D000BA00D093B800DF91CF911F9108951F9277
:1006E0000F920FB60F9211242F933F938F939F93E6
:1006F000AF93BF938091A0019091A101A091A2011D
:10070000B091A30130919F0123E0230F2D3758F5BD
:100710000196A11DB11D20939F018093A00190938C
:10072000A101A093A201B093A30180919B0190919C
:100730009C01A0919D01B0919E010196A11DB11D4A
:1007400080939B0190939C01A0939D01B0939E0187
:10075000BF91AF919F918F913F912F910F900FBEBD
:100760000F901F90189526E8230F0296A11DB11D2A
:10077000D2CF1F920F920FB60F9211242F933F9357
:100780004F935F936F937F938F939F93AF93BF9399
:10079000EF93FF93E0910201F09103010995FF911E
:1007A000EF91BF91AF919F918F917F916F915F91E9
:1007B0004F913F912F910F900FBE0F901F90189562
:1007C0001F920F920FB60F9211242F933F934F93C6
:1007D0005F936F937F938F939F93AF93BF93EF93A9
:1007E000FF93E0910001F09101010995FF91EF91D4
:1007F000BF91AF919F918F917F916F915F914F9139
:100800003F912F910F900FBE0F901F9018951F9240
:100810000F920FB60F9211242F933F934F935F9334
:100820006F937F938F939F93AF93BF93EF93FF93B8
:1008300084EA91E00E944D01FF91EF91BF91AF9149
:100840009F918F917F916F915F914F913F912F91E8
:100850000F900FBE0F901F9018951F920F920FB61A
:100860000F9211242F938F939F93EF93FF93E09117
:10087000B401F091B5018081E091BA01F091BB0122
:1008800082FD1BC090818091BD018F5F8F7320918D
:10089000BE01821741F0E091BD01F0E0EC55FE4F42
:1008A000958F8093BD01FF91EF919F918F912F9133
:1008B0000F900FBE0F901F9018958081F4CF1F925C
:1008C0000F920FB60F9211240F900FBE0F901F9032
:1008D00018951F920F920FB60F9211242F933F93EA
:1008E0004F935F936F937F938F939F93AF93BF9338
:1008F000EF93FF938091B900887F803609F44AC056
:10090000F0F5883209F4A5C018F5803109F499C0D2
:10091000B8F4882309F4F5C0883009F492C0FF9137
:10092000EF91BF91AF919F918F917F916F915F9167
:100930004F913F912F910F900FBE0F901F901895E0
:10094000883109F486C0803251F78093720114C057
:10095000803409F49BC040F48033B9F38833F9F64E
:100960008093720185ECAEC0803509F483C0883570
:1009700009F494C0883499F60E94FA02D0CF8839DD
:1009800009F48AC038F5883729F050F4883611F018
:10099000803729F683E0809373011092710155C06E
:1009A000883809F479C0803919F0803809F0B7CF58
:1009B00080917101803208F06FC0E091710181E097
:1009C0008E0F809371018091BB00F0E0EF5AFE4FD3
:1009D00080833BC0803B39F0D0F4803A09F477C083
:1009E000883A09F09CCF84E0809373011092500103
:1009F00010924F01F0E0E0E0099580914F018111E4
:100A00000FC081E080934F0110922F0109C0803CFC
:100A100009F4A8CF883C09F4A5CF883B09F07FCF23
:100A2000E091500181E08E0F80935001F0E0E15D94
:100A3000FE4F80818093BB009091500180914F01C7
:100A400029C0809198018093BB0085EC8093BC0005
:100A500066CF9091970180919601981758F5E09193
:100A6000970181E08E0F80939701F0E0EA58FE4FE6
:100A70008081E9CFE091970181E08E0F809397010B
:100A80008091BB00F0E0EA58FE4F8083909197017F
:100A9000809196019817C8F285E8D8CFE091970128
:100AA00081E08E0F809397018091BB00F0E0EA58BF
:100AB000FE4F80838091750181115ECF81E080932C
:100AC000740184EA8093BC001092730128CF85ECF6
:100AD0008093BC001092730180917101803230F4D8
:100AE000E0917101F0E0EF5AFE4F108260917101C8
:100AF00070E081E591E0F0E0E0E00995109271018D
:100B00000ECF1092720138CFE4EAF1E01382128224
:100B100088EE93E0A0E0B0E084839583A683B7835A
:100B200088E091E09183808385EC90E095878487CD
:100B300084EC90E09787868780EC90E0918B808BA7
:100B400081EC90E0938B828B82EC90E0958B848B90
:100B500086EC90E0978B868B118E128E138E148EFE
:100B6000E2E4F2E0138212828AE191E091838083D1
:100B700080E5848781E0858781E492E09787868796
:100B80008AE090E0918B808B89E090E0938B828B60
:100B900082E090E0958B848B168A178A108E118ED6
:100BA000138E128E158E148E178E168E11A210A211
:100BB00013A212A2148215821682178208957894C5
:100BC00084B5826084BD84B5816084BD85B5826052
:100BD00085BD85B5816085BD80916E008160809303
:100BE0006E0010928100809181008260809381006C
:100BF000809181008160809381008091800081607C
:100C0000809380008091B10084608093B1008091D6
:100C1000B00081608093B00080917A0084608093FE
:100C20007A0080917A00826080937A0080917A00C5
:100C3000816080937A0080917A00806880937A0046
:100C40001092C100C0E0D0E02097F1F30E9439017A
:100C50008823D1F30E940000F7CFEE0FFF1F05900D
:0A0C6000F491E02D0994F894FFCF01
:100C6A00CE00CE00000000006F01CF00FC00BC01E6
:100C7A002D010B011F010000000091025502F7022D
:080C8A00010246022A020202E7
:00000001FF
