:100000000C9463000C9403130C94DC120C94821374
:100010000C9482130C9482130C948B000C948C130C
:100020000C948B000C948B000C948B000C948B0024
:100030000C948B000C948B000C948B000C948B0014
:100040000C9492120C948B000C9450130C942A1361
:100050000C948B000C948B000C948B000C948B00F4
:100060000C94B1130C948B000000000023002600B8
:10007000290000000000240027002A0000000000E2
:10008000250028002B0004040404040404040202D4
:100090000202020203030303030301020408102007
:1000A0004080010204081020010204081020000012
:1000B0000008000201000003040700000000000027
:1000C0000000D014D11511241FBECFEFD8E0DEBF41
:1000D000CDBF23E0ACEFB1E001C01D92A93AB20759
:1000E000E1F711E0A0E0B1E0ECE6F0E302C005903A
:1000F0000D92AC3FB107D9F710E0C2E6D0E004C0E2
:100100002197FE010E943816C136D107C9F70E9417
:100110004C150C9429180C9400008230C8F4E82F78
:10012000F0E0EE0FFF1FE050FF4F718360838130DE
:1001300041F0809169008C7F826080936900E89A29
:10014000089580916900837F886080936900E99AAF
:100150000895833081F028F4813099F08230A9F03D
:1001600008958730A9F08830C9F08430B1F48091C7
:1001700080008F7D03C0809180008F778093800006
:10018000089584B58F7784BD089584B58F7DFBCFA6
:100190008091B0008F778093B00008958091B00077
:1001A0008F7DF9CF1F93CF93DF93282F30E0F90194
:1001B000E255FF4F8491F901E656FF4FD491F901C2
:1001C000EA57FF4FC491CC23A9F0162F81110E944A
:1001D000A900EC2FF0E0EE0FFF1FE458FF4FA591B0
:1001E000B4918FB7F894EC91111108C0D095DE232B
:1001F000DC938FBFDF91CF911F910895DE2BF8CF55
:10020000CF93DF9390E0FC01E656FF4F24918A578D
:100210009F4FFC0184918823D1F090E0880F991FB3
:10022000FC01EE58FF4FA591B491FC01E458FF4F3B
:10023000C591D491623071F49FB7F8943C91822FAC
:10024000809583238C93E8812E2B28839FBFDF9199
:10025000CF9108958FB7F894EC912E2B2C938FBFEC
:10026000F6CF3FB7F8948091710290917202A091FD
:100270007302B091740226B5A89B05C02F3F19F0F8
:100280000196A11DB11D3FBFBA2FA92F982F882716
:10029000BC01CD01620F711D811D911D42E0660FF1
:1002A000771F881F991F4A95D1F708958F929F92C3
:1002B000AF92BF92CF92DF92EF92FF924B015C011F
:1002C0000E9431016B017C010E9431016C197D0992
:1002D0008E099F09683E734081059105A8F321E0CE
:1002E000821A9108A108B10888EEC80E83E0D81ED2
:1002F000E11CF11C81149104A104B10429F7FF90C1
:10030000EF90DF90CF90BF90AF909F908F90089527
:100310002FB7F89460916D0270916E0280916F0218
:10032000909170022FBF08950895AF92BF92CF921F
:10033000DF92EF92FF920F931F93CF93DF936C01A5
:100340007B018B01040F151FEB015E01AE18BF0886
:10035000C017D10759F06991D601ED91FC91019038
:10036000F081E02DC6010995892B79F7C501DF9150
:10037000CF911F910F91FF90EF90DF90CF90BF90A2
:10038000AF900895FC01538D448D252F30E0842FCC
:1003900090E0821B930B541710F0CF9608950197AD
:1003A0000895FC01918D828D981761F0A28DAE0F9A
:1003B000BF2FB11D5D968C91928D9F5F9F73928F21
:1003C00090E008958FEF9FEF0895FC01918D828D4D
:1003D000981731F0828DE80FF11D858D90E008951A
:1003E0008FEF9FEF0895FC01918D228D892F90E072
:1003F000805C9F4F821B91098F739927089585EC2C
:1004000092E00E94F30121E0892B09F420E0822F81
:10041000089580E090E0892B29F00E94FF0181116E
:100420000C9400000895FC01A48DA80FB92FB11DF4
:10043000A35ABF4F2C91848D90E001968F7399271A
:10044000848FA689B7892C93A089B1898C918370F8
:1004500080648C93938D848D981306C00288F389F1
:10046000E02D80818F7D80830895EF92FF920F931E
:100470001F93CF93DF93EC0181E0888F9B8D8C8D50
:1004800098131AC0E889F989808185FF15C09FB744
:10049000F894EE89FF896083E889F9898081837007
:1004A000806480839FBF81E090E0DF91CF911F91B6
:1004B0000F91FF90EF900895F62E0B8D10E00F5FD7
:1004C0001F4F0F731127E02E8C8D8E110CC00FB6AD
:1004D00007FCFACFE889F989808185FFF5CFCE0145
:1004E0000E941302F1CFEB8DEC0FFD2FF11DE35AAB
:1004F000FF4FF0829FB7F8940B8FEA89FB898081C8
:100500008062CFCFCF93DF93EC01888D8823B9F041
:10051000AA89BB89E889F9898C9185FD03C080810E
:1005200086FD0DC00FB607FCF7CF8C9185FFF2CF8B
:10053000808185FFEDCFCE010E941302E9CFDF91CC
:10054000CF9108950F931F93CF93DF93EC01062F64
:10055000142F9C858D859CBD8DBD60E088890E948F
:10056000D2000EBD00000DB407FEFDCF8EB51EBD3E
:1005700000000DB407FEFDCF1EB561E088890E9422
:10058000D200812FDF91CF911F910F91089508958F
:100590000F931F93CF93DF93EC01E881F9810084DF
:1005A000F185E02D0995892BC1F040E06DE0CE0189
:1005B0000E94A202082F40E060E0CE010E94A20249
:1005C000182F402F6DE8CE010E94A202812F90E0EB
:1005D000DF91CF911F910F9108958FEF9FEFF8CF8B
:1005E000CF93DF93EC01E881F9810084F185E02D60
:1005F0000995892B71F08A8D9B8D01969B8F8A8F2F
:1006000040E060E0CE010E94A20290E0DF91CF9135
:1006100008958FEF9FEFFACFCF93DF93EC0140E087
:1006200063E10E94A20290E02A8D3B8D821B930B16
:10063000DF91CF910895AF92BF92CF92DF92FF9258
:100640000F931F93CF93DF936C015B01EA0140E0AE
:1006500062E20E94A202F82E90E09C012C0F3D1F46
:100660002F3F310529F020F0CFEFD0E0C81BD90B88
:100670008501AC0EBD1E0A151B0541F0F801419124
:100680008F0160E8C6010E94A202F5CF4C2F4F0DEA
:1006900062EAC6010E94A202CE01DF91CF911F91B2
:1006A0000F91FF90DF90CF90BF90AF900895CF93C0
:1006B000DF931F92CDB7DEB76983DC01ED91FC912A
:1006C0000280F381E02D41E050E0BE016F5F7F4F7B
:1006D00009950F90DF91CF91089520914502260F43
:1006E0003327331F21323105ECF420919B02FC01AA
:1006F00090E080E0243069F082E00895A091450206
:100700002191AC014D5D5D4FA40FB52FB11D2C9310
:100710000196861798F380914502680F6093450211
:1007200080E0089581E0089510929B0281E080931B
:100730009A021092750261E082E10E94D20061E0AB
:1007400083E10E94D200E9EBF0E080818E7F80831C
:1007500080818D7F808388E48093B80085E48093D6
:10076000BC000895CF93DF9391E0909322028823F9
:10077000B9F0C091B800D091BA008091BC008A7BDA
:100780008093BC0060E082E10E94D20060E083E1DF
:100790000E94D2000E949403D093BA00C093B80084
:1007A000DF91CF9108958F929F92AF92BF92CF9297
:1007B000DF92EF92FF920F931F93CF93DF93D0912D
:1007C000C402D13208F0D7C0182FC091C3020E94D2
:1007D00031016B017C0180919B0281116BC082E031
:1007E00080939B0210939A028FEF8093990210924C
:1007F0009802D0939702A3EAB2E0E7E7F2E080E044
:10080000D81391C01092760280917602CC0FC82B3B
:10081000C093760280917502813009F088C01092F1
:1008200075020E9431016B017C01809176028093F8
:10083000BB0080919D0290919E02A0919F02B09179
:10084000A002892B8A2B8B2BA1F00E9431010091F1
:100850009D0210919E0220919F023091A0026C197E
:100860007D098E099F09061717072807390708F41D
:1008700042C08091BC0083FDD8CF85EC8093BC0042
:100880000E9431016B017C0180919B02823009F44E
:1008900050C0809199028F3F09F46FC080919902F6
:1008A000803209F46CC080919902803309F469C0E8
:1008B00084E026C080919D0290919E02A0919F02AB
:1008C000B091A002892B8A2B8B2B09F484CF0E9434
:1008D000310180909D0290909E02A0909F02B09066
:1008E000A0026C197D098E099F0986169706A80635
:1008F000B90608F070CF80919C020E94B20385E097
:100900001092A2021092C4021092A102DF91CF9124
:100910001F910F91FF90EF90DF90CF90BF90AF901D
:100920009F908F9008959D9191938F5F69CF85EEF1
:10093000A5CF80919D0290919E02A0919F02B091BF
:10094000A002892B8A2B8B2B09F49ECF0E943101A8
:1009500000919D0210919E0220919F023091A00271
:100960006C197D098E099F09061717072807390793
:1009700008F08ACFC0CF81E0C3CF80E0C1CF82E052
:10098000BFCF83E0BDCF0F931F93CF93DF93EC01D5
:100990008D859E85288531E03093A1022093C30286
:1009A0001092A2021092C4025F8D01E010E020E0DC
:1009B00030E004C0000F111F221F331F6A95D2F7C9
:1009C000413031F5052B0F8F6F8D2B896223298DD7
:1009D0003D892323622B688FDC01ED91FC9101900E
:1009E000F081E02D09958F8D9B8989239A8D2D8922
:1009F0009223892B888F81E00E94D303982F88A7A8
:100A000081E0911180E0DF91CF911F910F910895C6
:100A100000950523D8CF08950895E0912102809193
:100A20002002E81730F4F0E0E050FE4F808190E0C3
:100A300008958FEF9FEF08959091210280912002F9
:100A40002FEF3FEF981748F4E92FF0E0E050FE4F0A
:100A5000208130E09F5F90932102C9010895809129
:100A6000200290912102891B990B0895CF92DF9269
:100A7000EF92FF920F931F93CF93DF937C01CB01F3
:100A80008A012091A102222389F0EB016B01C40E9F
:100A9000D51ECC15DD0569F06991D701ED91FC916A
:100AA0000190F081E02DC7010995F3CF642F0E94DA
:100AB0006D03C801DF91CF911F910F91FF90EF90CF
:100AC000DF90CF900895CF93DF931F92CDB7DEB71D
:100AD00069832091A1022223F9F02091C4022032DF
:100AE00058F021E030E0FC013383228390E080E085
:100AF0000F90DF91CF9108958091A202E82FF0E04E
:100B0000ED55FD4F998190838F5F8093A202809372
:100B1000C40281E090E0ECCF61E0CE0101960E943A
:100B20006D03F7CF90E080E0089580919B03909152
:100B30009C03DC01ED91FC910284F385E02D099486
:100B4000FC018589811104C0CB01BA010C945601C6
:100B500008950F931F93CF93DF938C01D0E0C0E0F3
:100B6000D8011F968C911F978C171D0661F05CF0C1
:100B70001D96ED91FC91EC0FFD1F61E080810E94BC
:100B8000D2002196EDCFDF91CF911F910F91089563
:100B9000CF92DF92EF92FF920F931F93CF93DF9349
:100BA000EC016A017B010F8510E00150110970F022
:100BB000ED85FE85E00FF11F60E080810E94D2008C
:100BC000B701A601CE010E94A005EFCF0F8510E06E
:100BD0000150110970F0ED85FE85E00FF11F61E015
:100BE00080810E94D200B701A601CE010E94A0051B
:100BF000EFCFDF91CF911F910F91FF90EF90DF909A
:100C0000CF900895CF92DF92EF92FF920F931F93B0
:100C1000CF93DF93EC016A017B0110E000E08F8548
:100C20008017110689F084F0ED85FE85E00FF11F35
:100C300060E080810E94D200B701A601CE010E942F
:100C4000A0050F5F1F4FEBCF10E000E08F858017EE
:100C5000110689F084F0ED85FE85E00FF11F61E05B
:100C600080810E94D200B701A601CE010E94A0059A
:100C70000F5F1F4FEBCFDF91CF911F910F91FF902F
:100C8000EF90DF90CF900895CF92DF92EF92FF9296
:100C9000CF93DF93EC0188E2C82ED12CE12CF12C0C
:100CA000B701A601CE010E940206B701A601CE013E
:100CB0000E94C80588E0C81AD108E108F10888E058
:100CC000C816D104E104F10459F7DF91CF91FF90E8
:100CD000EF90DF90CF900895CF92DF92EF92FF9246
:100CE000CF93DF93EC0188E2C82ED12CE12CF12CBC
:100CF000B701A601CE010E94C80584E0C81AD10838
:100D0000E108F10880E1C816D104E104F10481F79B
:100D1000DF91CF91FF90EF90DF90CF900895CF9229
:100D2000DF92EF92FF92CF93DF93EC0188E2C82E1F
:100D3000D12CE12CF12CB701A601CE010E940206B4
:100D400084E0C81AD108E108F10880E1C816D1048E
:100D5000E104F10481F7DF91CF91FF90EF90DF90F4
:100D6000CF9008952F923F924F925F926F927F9211
:100D70008F929F92AF92BF92CF92DF92EF92FF92AB
:100D80000F931F93CF93DF93EC01F2E0CF2ED12C82
:100D90007FE0E72EF12C10E000E08F858017110630
:100DA00081F07CF0ED85FE85E00FF11F60E0808131
:100DB0000E94D2000F5F1F4FF0CFCC24C394D12CE0
:100DC000E7CF10E000E08F858017110661F05CF03E
:100DD000ED85FE85E00FF11F60E080810E94D2006A
:100DE0000F5F1F4FF0CF4EE150E060E070E0CE01AA
:100DF0000E94A00510E000E08F858017110661F0C9
:100E00005CF0ED85FE85E00FF11F61E080810E94BE
:100E1000D2000F5F1F4FF0CF10E000E08F858017EA
:100E2000110661F05CF0ED85FE85E00FF11F61E0D9
:100E300080810E94D2000F5F1F4FF0CF4EE150E043
:100E400060E070E0CE010E94A00521E0E21AF10806
:100E500009F0A1CF48EE53E060E070E0CE010E94BF
:100E6000A005CA94CD2809F0A8CFCE010E94A905FB
:100E700064E0E62EF12C10E000E0ED85FE85E00F49
:100E8000F11F60E080810E94D2000F5F1F4F03308E
:100E9000110599F74EE150E060E070E0CE010E944C
:100EA000A00510E000E0ED85FE85E00FF11F61E098
:100EB00080810E94D2000F5F1F4F0330110599F708
:100EC0004EE150E060E070E0CE010E94A00591E0AC
:100ED000E91AF10881F64AE550E060E070E0CE01E1
:100EE0000E94A00554E0E52EF12C03E010E0ED8512
:100EF000FE85E00FF11F60E080810E94D2000F5F4D
:100F00001F4F0630110599F74EE150E060E070E0A8
:100F1000CE010E94A00503E010E0ED85FE85E00F04
:100F2000F11F61E080810E94D2000F5F1F4F0630E9
:100F3000110599F74EE150E060E070E0CE010E94AB
:100F4000A005E1E0EE1AF10881F64AE550E060E024
:100F500070E0CE010E94A00544E0E42EF12C10E0E8
:100F600000E0ED85FE85E00FF11F60E080810E94CA
:100F7000D2000F5F1F4F0330110599F74EE150E08B
:100F800060E070E0CE010E94A00510E000E0ED8579
:100F9000FE85E00FF11F61E080810E94D2000F5FAB
:100FA0001F4F0330110599F74EE150E060E070E00B
:100FB000CE010E94A005F1E0EF1AF10881F64AE5A2
:100FC00050E060E070E0CE010E94A00548EE53E0E2
:100FD00060E070E0CE010E94A005CE010E94A9054C
:100FE00034E0E32EF12C03E010E0ED85FE85E00F08
:100FF000F11F60E080810E94D2000F5F1F4F06301A
:10100000110599F74EE150E060E070E0CE010E94DA
:10101000A00503E010E0ED85FE85E00FF11F61E023
:1010200080810E94D2000F5F1F4F0630110599F793
:101030004EE150E060E070E0CE010E94A00521E0AA
:10104000E21AF10881F64AE550E060E070E0CE0176
:101050000E94A00524E0E22EF12C10E000E0ED85D6
:10106000FE85E00FF11F60E080810E94D2000F5FDB
:101070001F4F0330110599F74EE150E060E070E03A
:10108000CE010E94A00510E000E0ED85FE85E00F96
:10109000F11F61E080810E94D2000F5F1F4F03307B
:1010A000110599F74EE150E060E070E0CE010E943A
:1010B000A00581E0E81AF10881F64AE550E060E019
:1010C00070E0CE010E94A00594E0E92EF12C03E02F
:1010D00010E0ED85FE85E00FF11F60E080810E9449
:1010E000D2000F5F1F4F0630110599F74EE150E017
:1010F00060E070E0CE010E94A00503E010E0ED8505
:10110000FE85E00FF11F61E080810E94D2000F5F39
:101110001F4F0630110599F74EE150E060E070E096
:10112000CE010E94A00591E0E91AF10881F64AE596
:1011300050E060E070E0CE010E94A005CE010E9468
:10114000A90548EE53E060E070E0CE010E94A005E2
:1011500082E0A82EB12CEE24E394F12C10E000E004
:10116000B4E0CB2ED12CED85FE85E00FF11F60E0C1
:1011700080810E94D200ED85FE85EE0DFF1D60E0AE
:1011800080810E94D2004EE150E060E070E0CE012C
:101190000E94A005ED85FE85E00FF11F61E08081D2
:1011A0000E94D200ED85FE85EE0DFF1D61E080817D
:1011B0000E94D2004EE150E060E070E0CE010E945B
:1011C000A005E1E0CE1AD10871F64AEF50E060E0E8
:1011D00070E0CE010E94A0050E5F1F4FF2E0EF0EFF
:1011E000F11C0630110509F0BBCF48EE53E060E07A
:1011F00070E0CE010E94A005AA94AB2809F094C02B
:10120000CE010E94A90506E010E0F12CE12CED854D
:10121000FE85EE0DFF1D60E080810E94D2004CE350
:1012200050E060E070E0CE010E94A005ED85FE85F3
:10123000EE0DFF1D61E080810E94D2008FEFE81A61
:10124000F80AE016F1061CF3ED85FE85E00FF11FAC
:10125000319760E080810E94D20001501109A9F607
:1012600005E010E0ED85FE85E00FF11F61E0808173
:101270000E94D2004CE350E060E070E0CE010E949A
:10128000A0050150110970F7CE010E94A90548EE92
:1012900053E060E070E0CE010E94A005ECE38E2EEA
:1012A000912CA12CB12CF6E04F2E512CA5E02A2E2A
:1012B000312C03E010E072E0672E712C66E0E62E20
:1012C000F12C0E151F05A4F56701E1E0CE1AD10837
:1012D000ED85FE85EC0DFD1D60E080810E94D20051
:1012E000C2018E199F097C01ED85FE85E80FF91F6B
:1012F00060E080810E94D200B501A401CE010E946D
:10130000A005ED85FE85EC0DFD1D61E080810E944C
:10131000D2008D859E85E80EF91E61E0F70180817F
:101320000E94D2007601CDCFAA24A394B12C13CF72
:1013300073016801ED85FE85EC0DFD1D60E0808187
:101340000E94D200ED85FE85EE0DFF1D60E08081DC
:101350000E94D200B501A401CE010E94A005ED8536
:10136000FE85EC0DFD1D61E080810E94D200ED85BF
:10137000FE85EE0DFF1D61E080810E94D200FFEF2F
:10138000CF1ADF0A21E0E21AF108A0F655E0E52EB7
:10139000F12C8D859E850E151F057CF56701E1E01A
:1013A000CE1AD1088C0D9D1D60E0FC0180810E9449
:1013B000D200C2018E199F097C01ED85FE85E80FE0
:1013C000F91F60E080810E94D200B501A401CE0126
:1013D0000E94A005ED85FE85EC0DFD1D61E080817C
:1013E0000E94D2008D859E85E80EF91E61E0F7010E
:1013F00080810E94D2007601CCCF800F911F60E0E7
:10140000FC0180810E94D200ED85FE85E60DF71D6E
:1014100060E080810E94D200F1E06F1A71080F5FD6
:101420001F4F0630110509F049CF02E010E0C1015D
:10143000801B910BED85FE85E80FF91F61E080812F
:101440000E94D200ED85FE85E00FF11F61E08081F2
:101450000E94D200B501A401CE010E94A005015056
:10146000110928F785E0881A9108A108B10899E1C7
:1014700089169104A104B10409F01BCF10E000E02B
:101480008F858017110661F05CF0ED85FE85E00F19
:10149000F11F60E080810E94D2000F5F1F4FF0CFEC
:1014A00048EE53E060E070E0CE010E94A00505E048
:1014B00010E0ED85FE85E00FF11F61E080810E9464
:1014C000D2004CE350E060E070E0CE010E94A00545
:1014D0000150110970F7CE010E94A90548EE53E0B2
:1014E00060E070E0CE010E94A00510E000E046E060
:1014F000E42EF12CED85FE85E00FF11F60E0808188
:101500000E94D2004EE150E060E070E0CE010E9407
:10151000A005ED85FE85E00FF11F61E080810E944E
:10152000D2004EE150E060E070E0CE010E94A005E4
:10153000F1E0EF1AF108F1F64EE150E060E070E002
:10154000CE010E94A0050F5F1F4F0630110579F6EE
:1015500005E010E036E0E32EF12CED85FE85E00F8E
:10156000F11F60E080810E94D2004EE150E060E017
:1015700070E0CE010E94A005ED85FE85E00FF11F11
:1015800061E080810E94D2004EE150E060E070E0B6
:10159000CE010E94A00521E0E21AF108F1F64EE129
:1015A00050E060E070E0CE010E94A00501501109FA
:1015B00088F6CE010E94A90548EE53E060E070E095
:1015C000CE010E94A00522E0E22EF12C10E000E006
:1015D00094E0C92ED12CED85FE85E00FF11F60E06F
:1015E00080810E94D200ED85FE85EE0DFF1D60E03A
:1015F00080810E94D2004EE150E060E070E0CE01B8
:101600000E94A005ED85FE85E00FF11F61E080815D
:101610000E94D200ED85FE85EE0DFF1D61E0808108
:101620000E94D2004EE150E060E070E0CE010E94E6
:10163000A00591E0C91AD10871F64AE550E060E0D2
:1016400070E0CE010E94A0050F5F1F4FEFEFEE1A72
:10165000FE0A0430110509F0BBCFCE010E94A90596
:1016600048EE53E060E070E0CE010E94A00588E201
:10167000C82ED12CE12CF12C10E000E0ED85FE8588
:10168000E00FF11F60E080810E94D200B701A60147
:10169000CE010E94A0050F5F1F4F0630110571F7A4
:1016A00010E000E0ED85FE85E00FF11F61E0808134
:1016B0000E94D200B701A601CE010E94A0050F5FD3
:1016C0001F4F0630110571F705E010E0ED85FE852E
:1016D000E00FF11F60E080810E94D200B701A601F7
:1016E000CE010E94A0050150110980F705E010E02D
:1016F000ED85FE85E00FF11F61E080810E94D20040
:10170000B701A601CE010E94A0050150110980F782
:1017100084E0C81AD108E108F10890E1C916D104A3
:10172000E104F10409F0A8CFDF91CF911F910F914F
:10173000FF90EF90DF90CF90BF90AF909F908F90F1
:101740007F906F905F904F903F902F9008950F93F0
:101750001F93CF93DF93EC010E9488010D811E81BE
:101760002F813885601B710B820B930B6A3F7105CB
:101770008105910540F1E985E33050F5EF5FE98798
:10178000F0E03796EE0FFF1FEE0FFF1FEC0FFD1F6F
:1017900080819181A281B381888F998FAA8FBB8F1D
:1017A00089899A89AB89BC890196A11DB11D898B54
:1017B0009A8BAB8BBC8B81E08D8B0E9488016D83F3
:1017C0007E838F839887DF91CF911F910F9108952A
:1017D000E0E0D5CF0F931F93CF93DF93CDB7DEB764
:1017E00028970FB6F894DEBF0FBECDBF09831A83CA
:1017F0002B833C834D835E836F83788728E0FE01D3
:101800003196DC01509601900D922A95E1F72896C9
:101810000FB6F894DEBF0FBECDBFDF91CF911F9101
:101820000F910895CF93DF9300D000D000D0CDB7B3
:10183000DEB729833A834B835C836D837E8326E006
:10184000FE013196DC011A9601900D922A95E1F77E
:10185000DC01ED91FC910280F381E02D26960FB61C
:10186000F894DEBF0FBECDBFDF91CF910994DC01AC
:10187000ED91FC910280F381E02D0994CF93DF93E9
:10188000EC0162E088890E9400016E897F89888965
:101890008230C9F08330C9F08FEF0E948D00E98556
:1018A000F0E03796EE0FFF1FEE0FFF1FEC0FFD1F4E
:1018B00080819181A281B381888F998FAA8FBB8FFC
:1018C000DF91CF91089580E0E8CF81E0E6CFCF921D
:1018D000DF92EF92FF920F931F93CF938C016A01D7
:1018E0007B01C7E0D8011296ED91FC9140E06C2F8E
:1018F000828193810E94C304C701B6010E945601F0
:10190000C15080F7C7E0D8011296ED91FC9140E0FC
:101910006C2F808191810E94C304C701B6010E948F
:101920005601C15080F7C7E0D8011296ED91FC91A5
:1019300041E06C2F828193810E94C304C701B601EC
:101940000E945601C15080F7C7E0D8011296ED9170
:10195000FC9141E06C2F808191810E94C304C701FA
:10196000B6010E945601C15080F7CF911F910F918F
:10197000FF90EF90DF90CF9008958F929F92AF925B
:10198000BF92CF92DF92FF920F931F93CF93DF937B
:101990008C014A015B01D0E0C0E0D80114968C9123
:1019A0008C171D06D9F0D4F06E01CC0CDD1CF12C87
:1019B000D8011296ED91FC91EC0DFD1D40E06F2DCC
:1019C000808191810E94C304C501B4010E94560127
:1019D000F394B8E0FB12ECCF2196DFCFD0E0C0E06B
:1019E000F80184818C171D06D9F0D4F06E01CC0C5F
:1019F000DD1CF12CD8011296ED91FC91EC0DFD1D32
:101A000041E06F2D808191810E94C304C501B40122
:101A10000E945601F394B8E0FB12ECCF2196E0CF80
:101A2000DF91CF911F910F91FF90DF90CF90BF90EA
:101A3000AF909F908F900895CF92DF92EF92FF9298
:101A40000F931F93CF938C016A017B01C0E0D801F3
:101A50001296ED91FC9140E06C2F808191810E9463
:101A6000C304CF5FC83099F7C0E0D8011296ED915A
:101A7000FC9140E06C2F828193810E94C304CF5F70
:101A8000C83099F7C701B6010E945601C0E0D801DD
:101A90001296ED91FC9141E06C2F808191810E9422
:101AA000C304CF5FC83099F7C0E0D8011296ED911A
:101AB000FC9141E06C2F828193810E94C304CF5F2F
:101AC000C83099F7C701B601CF911F910F91FF90D0
:101AD000EF90DF90CF900C945601CF92DF92EF926F
:101AE000FF92CF93DF93EC0184E6C82ED12CE12C3A
:101AF000F12C44E050E060E070E0CE010E94BD0CAB
:101B0000B701A601CE010E941C0D44E050E060E048
:101B100070E0CE010E94670C84E0C81AD108E10889
:101B2000F10884E0C816D104E104F10411F7DF9153
:101B3000CF91FF90EF90DF90CF900895CF92DF92FA
:101B4000EF92FF92CF93DF93EC0184E1C82ED12C6A
:101B5000E12CF12CB701A601CE010E94670C84E0B4
:101B6000C81AD108E108F10884E0C816D104E104DC
:101B7000F10481F7DF91CF91FF90EF90DF90CF904C
:101B80000895CF92DF92EF92FF92CF93DF93EC0113
:101B900084E1C82ED12CE12CF12CB701A601CE0195
:101BA0000E94BD0C84E0C81AD108E108F10884E065
:101BB000C816D104E104F10481F7DF91CF91FF90C1
:101BC000EF90DF90CF900895CF92DF92EF92FF9247
:101BD000CF93DF93EC0184E6C82ED12CE12CF12CBD
:101BE000B701A601CE010E941C0D84E0C81AD108DD
:101BF000E108F10884E0C816D104E104F10481F79A
:101C0000DF91CF91FF90EF90DF90CF900895CF9329
:101C1000DF9300D000D000D0CDB7DEB729833A8360
:101C20004B835C836D837E83DC01ED91FC910280AC
:101C3000F381E02D26960FB6F894DEBF0FBECDBF20
:101C4000DF91CF910994DC0113967C936E931297E8
:101C500014964C931497ED91FC910280F381E02D42
:101C60000994CF93DF93EC01E985F0E03596EE0F10
:101C7000FF1FEE0FFF1FEC0FFD1F80819181A281DE
:101C8000B381888B998BAA8BBB8B2A893B89C9012D
:101C9000959587958C0F9D1FE889F98920FF08C0CD
:101CA000DC012D913C91E20FF31F0190F081E02DBA
:101CB00009958985833028F48F5F8987DF91CF91DB
:101CC00008951986FBCF08950F931F93CF93DF9349
:101CD000CDB7DEB728970FB6F894DEBF0FBECDBFE5
:101CE00028960FB6F894DEBF0FBECDBFDF91CF911F
:101CF0001F910F910895FC0101900020E9F73197A1
:101D0000AF01481B590BBC0185EC92E00C94950186
:101D1000CF92DF92EF92FF920F931F93CF93DF93B7
:101D2000CDB7DEB7A1970FB6F894DEBF0FBECDBF1B
:101D30008C01DC0155968C915597882311F05596AE
:101D40001C92F801228D338DC90195958795800FDE
:101D5000911F008CF18DE02D20FF08C0DC012D913A
:101D60003C91E20FF31F0190F081E02D09958DEC7D
:101D700091E00E947B0EF801218530E050E040E0C8
:101D800019A28E010F5D1F4F8AE0C82ED12CE12CC5
:101D9000F12CCA01B901A70196010E941616605DD7
:101DA000D8016E938D01211531054105510589F743
:101DB000109719F0CD010E947B0E8AED91E00E94F0
:101DC0007B0EA1960FB6F894DEBF0FBECDBFDF919C
:101DD000CF911F910F91FF90EF90DF90CF900895DA
:101DE000EF92FF920F931F93CF93DF93CDB7DEB7A0
:101DF000E984FA848E01035F1F4F86E0D7011596B0
:101E00008C9386E090E00E943E16F70194838383D2
:101E100090E080E0D7011396ED91FC91E80FF91F57
:101E2000D8012C91208301960E5F1F4F86309105BB
:101E300089F7DF91CF911F910F91FF90EF90089557
:101E400085ED8093BC0080919D0290919E02A091AF
:101E50009F02B091A0020796A11DB11D23E0B69587
:101E6000A795979587952A95D1F72091BC0024FDD9
:101E700003C010929B02089540919D0250919E02D2
:101E800060919F027091A002452B462B472B69F36E
:101E90000097A105B10541F02AE22A95F1F700C0AB
:101EA0000197A109B109E1CF80919C020C94B20382
:101EB0002F923F924F925F926F927F928F929F925A
:101EC000AF92BF92CF92DF92EF92FF920F931F9348
:101ED000CF93DF93CDB7DEB7A6970FB6F894DEBFEA
:101EE0000FBECDBF1BA21CA21DA21EA281E089A312
:101EF00080E18AA382E08BA31F928CE08F931F92D4
:101F00008BE08F931F928AE08F931F9289E08F93CB
:101F10001F9288E08F931F9287E08F931F9216E0A5
:101F20001F937E0181E2E80EF11CFF92EF920E9466
:101F3000F00EF701DE015596812F01900D928A95E2
:101F4000E1F7FE017596AEE9B3E001900D921A95A6
:101F5000E1F70FB6F894DEBF0FBECDBF8091A403AA
:101F6000882309F4B5C023E030E08091A4038111F7
:101F70000EC08091A1039091A203892B29F4809136
:101F8000A303882309F438C18CEB80939E0323308C
:101F9000310509F044C186E0EEE9F3E0DE0119966F
:101FA00001900D928A95E1F786E0FE013996DE01F7
:101FB0005B9601900D928A95E1F786E0FE017B9693
:101FC000DE011F9601900D928A95E1F786E0FE01F1
:101FD0003F96A3E9B3E001900D928A95E1F78091D5
:101FE000960390919703892B09F028C2809198035A
:101FF000811124C2FFE8CF2EF1E0DF2EA2E14A2EAC
:10200000512CB3E16B2E712C1AE0A12EB12C0BE4F4
:10201000302E81EE282E97E8892E93E0992EE090BD
:102020009D03F12C20919503C6018F5891402817EC
:10203000190609F00CF441C18AE290E00E943E16B4
:102040008C01D6018D916D01F8015286418674860E
:102050006386178692E0908B128A118A138A148AFB
:10206000158A168A178A108E118E128E138E148E70
:10207000158E168E178E10A211A213A212A2B5A24F
:10208000A4A236A227A210A6968685868087B701CD
:102090006F5F7F4F660F771F8091990390919A032E
:1020A0000E946317009709F4BACF90939A03809324
:1020B000990320919D03422F50E0440F551F840F38
:1020C000951FFC01118300832F5F20939D03A7CFF1
:1020D0008091A1039091A203892B09F06FC0809198
:1020E000A30381116BC04AE6C42E41E0D42E0FE653
:1020F00011E0760162E0F70181917F010E94000109
:102100000E151F05B9F710E000E0000F111FD601F2
:102110002D916D0130E0F901E255FF4F8491F901F5
:10212000E656FF4FB490F901EA57FF4FA490AA205A
:1021300039F181110E94A900EA2DF0E0EE0FFF1F96
:10214000E859FF4FA591B491EC91BE2231E020E017
:1021500009F430E0832F922F082B192BEC14FD0487
:10216000A1F6EAE4F1E090E080E021912017110669
:1021700051F4865D9E4FFC01808180939F03F3CED6
:1021800090E080E0E9CF01968032910571F72091CF
:102190009F03422F50E0217030E090E080E08417F0
:1021A00095071CF4211101C03F5F08968834910502
:1021B000B1F73093A0032DEF30E0D7CE10E080913F
:1021C000A303181708F0CFCEE12EF12CE091A10364
:1021D000F091A203EE0DFF1D61E080810E940001DD
:1021E000E091A103F091A203EE0DFF1D61E080815B
:1021F0000E94D2001F5FE3CF80919F039EEF980F54
:102200009F3048F09EEE980F973038F08A51873211
:1022100030F481EBBACE8BE9B8CE86EAB6CE8DED3E
:1022200091E00E947B0E8AED91E00E947B0E86E099
:10223000FE013196DF011D928A95E9F782E08983DC
:1022400085E995E0682F98878F8380919B03909113
:102250009C03DC01ED91FC910084F185E02D02E00E
:102260001A812B813C814D815E8178850995809111
:102270009B0390919C03009739F0DC01ED91FC9158
:102280000190F081E02D0995A6960FB6F894DEBF77
:102290000FBECDBFDF91CF911F910F91FF90EF90B7
:1022A000DF90CF90BF90AF909F908F907F906F9076
:1022B0005F904F903F902F900895F12CE12C412C8E
:1022C000512C3201439424E0322E3BE0A32E35E022
:1022D000B32E4CE0842E45E0942E2224239480914A
:1022E0009D038E151F0409F00CF4A8C06701CC0CE7
:1022F000DD1CA0919903B0919A03AC0DBD1D90E037
:1023000080E0ED91FC911197B301A201082E04C069
:10231000440F551F661F771F0A94D2F72389242B79
:10232000238B2489242B248B409525892423258BDA
:1023300027892423278B26894223468B01968830C0
:102340009105F9F60D911C91D80198963C92109246
:102350002102109220021092A2021092C4020E9446
:102360009403B0924402A092430290924802809259
:102370004702F80183892589811102C0222331F1A6
:10238000D8011D968D919C911E9718963C91189797
:102390002092A1023093C30254966C915497622B01
:1023A00059966C93DC01ED91FC910190F081E02D48
:1023B0000995F80194898689892B828F808F978F60
:1023C00081E00E94D303D80198968C93F801878509
:1023D000882391F062E080890E940001D801519623
:1023E0006D917C91529750968C91823019F1833087
:1023F00019F581E00E948D000E948801F801638F29
:10240000748F858F968F80A5811111CF10E0E09198
:102410009903F0919A03EC0DFD1D41E0612F80813D
:1024200091810E94C3041F5F183089F7FFEFEF1AF4
:10243000FF0A55CF80E0DECF8FEFDCCF809198038D
:102440002091960330919703232B11F4882339F0C0
:102450008630B9F110929C0310929B03E8CE8091D4
:1024600094038031B9F784E290E00E943E1623E89D
:1024700031E0DC0111963C932E9313961C921E9230
:10248000129714961C921497FC01158216821782DB
:102490001086118612861386148616861586178670
:1024A000118A108A138A128A20E1EAE0F1E0549638
:1024B00001900D922A95E1F790939C0380939B03E2
:1024C000B6CE8CE290E00E943E1623E731E0DC01BC
:1024D00011963C932E9319961C9219971A961C925A
:1024E0001A971B961C921B971C961C921C971E9663
:1024F0001C921E921D971F961C921F9750961C921D
:102500005097FC01118A128A138A148A158A178A35
:10251000168A118E108E138E128E20E1EAE1F1E000
:102520005C96C6CF1F920F920FB60F9211242F9375
:102530003F938F939F93AF93BF9380916D02909140
:102540006E02A0916F02B091700230916C0223E094
:10255000230F2D3758F50196A11DB11D20936C0254
:1025600080936D0290936E02A0936F02B0937002FD
:102570008091710290917202A0917302B0917402E5
:102580000196A11DB11D8093710290937202A093D8
:102590007302B0937402BF91AF919F918F913F915D
:1025A0002F910F900FBE0F901F90189526E8230FC4
:1025B0000296A11DB11DD2CF1F920F920FB60F929E
:1025C00011242F933F934F935F936F937F938F9338
:1025D0009F93AF93BF93EF93FF93E0910201F0912C
:1025E00003010995FF91EF91BF91AF919F918F9159
:1025F0007F916F915F914F913F912F910F900FBEFF
:102600000F901F9018951F920F920FB60F921124E2
:102610002F933F934F935F936F937F938F939F93EA
:10262000AF93BF93EF93FF93E0910001F09101010D
:102630000995FF91EF91BF91AF919F918F917F91FC
:102640006F915F914F913F912F910F900FBE0F901F
:102650001F9018951F920F920FB60F9211242F936F
:102660003F934F935F936F937F938F939F93AF931A
:10267000BF93EF93FF9385EC92E00E941302FF91CA
:10268000EF91BF91AF919F918F917F916F915F91EA
:102690004F913F912F910F900FBE0F901F90189563
:1026A0001F920F920FB60F9211242F938F939F9327
:1026B000EF93FF93E091D502F091D6028081E091F3
:1026C000DB02F091DC0282FD1BC090818091DE0272
:1026D0008F5F8F732091DF02821741F0E091DE025D
:1026E000F0E0EB53FD4F958F8093DE02FF91EF9169
:1026F0009F918F912F910F900FBE0F901F90189563
:102700008081F4CF1F920F920FB60F9211240F9079
:102710000FBE0F901F9018951F920F920FB60F9239
:1027200011242F933F934F935F936F937F938F93D6
:102730009F93AF93BF93EF93FF93F0E0E0E0099591
:10274000FF91EF91BF91AF919F918F917F916F9189
:102750005F914F913F912F910F900FBE0F901F905F
:1027600018951F920F920FB60F9211242F933F933B
:102770004F935F936F937F938F939F93AF93BF9389
:10278000EF93FF938091B900887F803609F44AC0A7
:10279000F0F5883209F4A7C018F5803109F49BC020
:1027A000B8F4882309F4F9C0883009F494C0FF9183
:1027B000EF91BF91AF919F918F917F916F915F91B9
:1027C0004F913F912F910F900FBE0F901F90189532
:1027D000883109F488C0803251F78093990214C07F
:1027E000803409F49DC040F48033B9F38833F9F69E
:1027F0008093990285ECB0C0803509F485C0883596
:1028000009F496C0883499F60E94200FD0CF8839F9
:1028100009F48CC038F5883729F050F4883611F067
:10282000803729F683E080939B021092690257C09B
:10283000883809F47BC0803919F0803809F0B7CFA7
:1028400080916902803208F071C0E091690281E0F4
:102850008E0F809369028091BB00F0E0E75BFD4F33
:1028600080833DC0803B39F0E0F4803A09F479C0C0
:10287000883A09F09CCF84E080939B021092460234
:1028800010924502E0914302F09144020995809133
:10289000450281110FC081E080934502109223020E
:1028A00009C0803C09F4A6CF883C09F4A3CF883B3B
:1028B00009F07DCFE091460281E08E0F80934602C1
:1028C000F0E0ED5DFD4F80818093BB00909146026A
:1028D0008091450229C0809176028093BB0085ECEF
:1028E0008093BC0064CF90919802809197029817D2
:1028F00058F5E091980281E08E0F80939802F0E005
:10290000E958FD4F8081E9CFE091980281E08E0F78
:10291000809398028091BB00F0E0E958FD4F8083DE
:1029200090919802809197029817C8F285E8D8CFC5
:10293000E091980281E08E0F809398028091BB0015
:10294000F0E0E958FD4F808380919A0281115CCFBD
:1029500081E08093750284EA8093BC0010929B0210
:1029600026CF85EC8093BC0010929B028091690277
:10297000803230F4E0916902F0E0E75BFD4F1082B5
:102980006091690270E0E0914702F091480289E4A9
:1029900092E00995109269020ACF1092990234CF01
:1029A000E5ECF2E01382128288EE93E0A0E0B0E062
:1029B00084839583A683B7832BE931E03183208319
:1029C00025EC30E03587248724EC30E037872687F4
:1029D00020EC30E0318B208B21EC30E0338B228BEC
:1029E00022EC30E0358B248B26EC30E0378B268BC5
:1029F000118E128E138E148EE3E6F3E01382128290
:102A00002DEA31E03183208320E5248721E02587EA
:102A100022E633E0378726872AE030E0318B208BAF
:102A200029E030E0338B228B22E030E0358B248BA1
:102A3000168A178A108E118E138E128E158E148E92
:102A4000178E168E11A210A213A212A21482158242
:102A500016821782E7E8F3E013821282848395835B
:102A6000A683B7838FEB91E091838083EEE9F3E057
:102A70001082118212821482138215821682E3E977
:102A8000F3E010821182128214821382158217825F
:102A90001682118610860895789484B5826084BD6C
:102AA00084B5816084BD85B5826085BD85B5816052
:102AB00085BD80916E00816080936E0010928100D0
:102AC000809181008260809381008091810081608B
:102AD000809381008091800081608093800080914C
:102AE000B10084608093B1008091B00081608093D8
:102AF000B00080917A00846080937A0080917A009F
:102B0000826080937A0080917A00816080937A005D
:102B100080917A00806880937A001092C100E091E1
:102B2000D502F091D60282E08083E091D102F0914B
:102B3000D2021082E091D302F091D4028FEC808314
:102B40001092DD02E091D902F091DA0286E08083F2
:102B5000E091D702F091D802808180618083E0917A
:102B6000D702F091D802808188608083E091D702FB
:102B7000F091D802808180688083E091D702F09143
:102B8000D80280818F7D80830E94580FC0E0D0E002
:102B90002097F1F30E94FF018823D1F30E940000E7
:102BA000F7CFCF93DF93C3E9D3E08E819F810E945B
:102BB000DA1688859985DF91CF910C94DA162F92D9
:102BC0003F924F925F926F927F928F929F92AF92BD
:102BD000BF92CF92DF92EF92FF920F931F93CF930A
:102BE000DF93CDB7DEB7CA1BDB0B0FB6F894DEBFA1
:102BF0000FBECDBF09942A88398848885F846E84C7
:102C00007D848C849B84AA84B984C884DF80EE8010
:102C1000FD800C811B81AA81B981CE0FD11D0FB619
:102C2000F894DEBF0FBECDBFED010895A1E21A2ECC
:102C3000AA1BBB1BFD010DC0AA1FBB1FEE1FFF1F60
:102C4000A217B307E407F50720F0A21BB30BE40BB0
:102C5000F50B661F771F881F991F1A9469F76095F7
:102C60007095809590959B01AC01BD01CF010895B1
:102C7000EE0FFF1F0590F491E02D09940F931F9321
:102C8000CF93DF938230910510F482E090E0E091E1
:102C9000A703F091A80330E020E0B0E0A0E0309777
:102CA00099F42115310509F44AC0281B390B243049
:102CB0003105D8F58A819B816115710589F1FB0188
:102CC00093838283FE0111C040815181028113816F
:102CD00048175907E0F04817590799F4109761F021
:102CE00012960C93129713961C933296CF01DF9194
:102CF000CF911F910F9108950093A7031093A803FC
:102D0000F4CF2115310551F04217530738F0A901CE
:102D1000DB019A01BD01DF01F801C1CFEF01F9CF5D
:102D20009093A8038093A703CDCFFE01E20FF31F7A
:102D3000819391932250310939832883D7CF2091F1
:102D4000A5033091A603232B41F420910601309175
:102D500007013093A6032093A5032091040130912D
:102D600005012115310541F42DB73EB74091080109
:102D700050910901241B350BE091A503F091A603A6
:102D8000E217F307A0F42E1B3F0B2817390778F042
:102D9000AC014E5F5F4F2417350748F04E0F5F1FA1
:102DA0005093A6034093A503819391939FCFF0E0A6
:102DB000E0E09CCFCF93DF930097E9F0FC013297DE
:102DC00013821282A091A703B091A803ED0130E015
:102DD00020E01097A1F420813181820F931F209170
:102DE000A5033091A6032817390709F061C0F093B5
:102DF000A603E093A503DF91CF910895EA01CE17D2
:102E0000DF07E8F54A815B819E0141155105B1F765
:102E1000E901FB83EA8349915991C40FD51FEC174F
:102E2000FD0761F4808191810296840F951FE9016D
:102E300099838883828193819B838A83F0E0E0E099
:102E400012968D919C9113970097B9F52D913C9115
:102E50001197CD010296820F931F2091A503309107
:102E6000A6032817390739F6309751F51092A803B1
:102E70001092A703B093A603A093A503BCCFD3835E
:102E8000C28340815181840F951FC817D90761F40F
:102E90004E5F5F4F88819981480F591F518340834E
:102EA0008A819B81938382832115310509F0B0CFFC
:102EB000F093A803E093A7039ECFFD01DC01C0CFF0
:102EC00013821282D7CFB0E0A0E0E9E6F7E10C94DC
:102ED000E1158C01009751F4CB010E943E168C0144
:102EE000C801CDB7DEB7E0E10C94FD15FC01E60F9B
:102EF000F71F9C0122503109E217F30708F49DC027
:102F0000D901CD91DC911197C617D70798F0C5303C
:102F1000D10530F3CE0104978617970708F3C61B37
:102F2000D70B2297C193D1936D937C93CF010E94CD
:102F3000DA16D6CF5B01AC1ABD0A4C018C0E9D1E71
:102F4000A091A703B091A803512C412CF12CE12CA6
:102F5000109731F58091A5039091A60388159905E6
:102F600009F05CC04616570608F058C0809104016D
:102F700090910501009741F48DB79EB740910801EB
:102F800050910901841B950BE817F90708F055C00B
:102F9000F093A603E093A503F90171836083A0CFAA
:102FA0008D919C91119712966C90129713967C902C
:102FB0001397A815B90559F56C0142E0C40ED11C50
:102FC000CA14DB0420F1AC014A195B09DA0112963C
:102FD000159780F06282738251834083D9016D938B
:102FE0007C93E114F10471F0D7011396FC93EE93F6
:102FF000129776CF22968C0F9D1FF90191838083C3
:10300000F301EFCFF093A803E093A70369CF48162D
:10301000590608F42C017D01D3019ACFCB010E94FF
:103020003E167C01009749F0AE01B8010E942018BD
:10303000C8010E94DA16870153CF10E000E050CF9C
:10304000FB01DC0102C001900D9241505040D8F7C5
:10305000089510E0C2E6D0E004C0FE010E943816D8
:0C3060002196C336D107C9F7F894FFCFC2
:10306C00940194010000A9038000E40D0000C10D3F
:10307C0000009E0D00006D0D0000B20600008F06D2
:10308C0000006C06000044060000020406080A0C4E
:10309C000E10121416181A1C1E20222426282A2C54
:1030AC002E30323436383A3C3E401F1E1D1C1B1A43
:1030BC00191817161514131211100F0E0D0C0B0AEC
:1030CC00090807060504030201001B1A1921200038
:1030DC000000003E0C880E370C120CEA0BA70B00FC
:1030EC00000000C702310E230E070E640E630E247F
:1030FC00202223242526270000000035029501C23A
:10310C00018202F301D101E5010000000057031B0D
:10311C00039205C7020C03F002C802000000006312
:10312C000536059205C7022F051C050D057C20737D
:10313C00657175656E63653A20000D0A00436F6E0C
:10314C00666967204572726F722C20436865636BE9
:0C315C0020576972696E67202121000075
:00000001FF
