:100000000C9463000C9472170C944B170C94F1171A
:100010000C94F1170C94F1170C948B000C94FB17B3
:100020000C948B000C948B000C948B000C948B0024
:100030000C948B000C948B000C948B000C948B0014
:100040000C9401170C948B000C94BF170C94991707
:100050000C948B000C948B000C948B000C948B00F4
:100060000C9420180C948B00000000002300260044
:10007000290000000000240027002A0000000000E2
:10008000250028002B0004040404040404040202D4
:100090000202020203030303030301020408102007
:1000A0004080010204081020010204081020000012
:1000B0000008000201000003040700000000000027
:1000C00000003F19421A11241FBECFEFD8E0DEBF57
:1000D000CDBF24E0A4E6B2E001C01D92A331B20777
:1000E000E1F712E0A0E0B1E0E6E5FCE302C0059034
:1000F0000D92A436B107D9F710E0C2E6D0E004C0F3
:100100002197FE010E948A1BC136D107C9F70E94C0
:10011000BD190C941E1E0C940000833081F028F44D
:10012000813099F08230A9F008958730A9F08830A5
:10013000C9F08430B1F4809180008F7D03C080913C
:1001400080008F7780938000089584B58F7784BD79
:10015000089584B58F7DFBCF8091B0008F77809319
:10016000B00008958091B0008F7DF9CF1F93CF9399
:10017000DF93282F30E0F901E255FF4F8491F90118
:10018000E656FF4FD491F901EA57FF4FC491CC23B3
:10019000A9F0162F81110E948D00EC2FF0E0EE0FD8
:1001A000FF1FE458FF4FA591B4918FB7F894EC91DD
:1001B000111108C0D095DE23DC938FBFDF91CF9162
:1001C0001F910895DE2BF8CFCF93DF9390E0FC01D1
:1001D000E656FF4F24918A579F4FFC018491882354
:1001E000D1F090E0880F991FFC01EE58FF4FA591C8
:1001F000B491FC01E458FF4FC591D491623071F481
:100200009FB7F8943C91822F809583238C93E8814B
:100210002E2B28839FBFDF91CF9108958FB7F8943D
:10022000EC912E2B2C938FBFF6CF3FB7F894809193
:10023000D9029091DA02A091DB02B091DC0226B5DE
:10024000A89B05C02F3F19F00196A11DB11D3FBF0E
:10025000BA2FA92F982F8827BC01CD01620F711DDD
:10026000811D911D42E0660F771F881F991F4A95D7
:10027000D1F708958F929F92AF92BF92CF92DF9263
:10028000EF92FF926B017C010E9415014B015C0112
:10029000C114D104E104F104B9F00E9415016819F8
:1002A00079098A099B09683E73408105910580F3AD
:1002B00021E0C21AD108E108F10888EE880E83E037
:1002C000981EA11CB11CE4CFFF90EF90DF90CF905F
:1002D000BF90AF909F908F9008952FB7F894609142
:1002E000D5027091D6028091D7029091D8022FBF8B
:1002F00008958230E8F4E82FF0E0EE0FFF1FE050A1
:10030000FF4F71836083813041F0809169008C7F61
:10031000482B40936900E89A089580916900837F93
:10032000440F551F440F551F482B40936900E99A0D
:1003300008950895AF92BF92CF92DF92EF92FF920D
:100340000F931F93CF93DF936C017B018B01040FFD
:10035000151FEB015E01AE18BF08C017D10759F099
:100360006991D601ED91FC910190F081E02DC601DB
:100370000995892B79F7C501DF91CF911F910F91D5
:10038000FF90EF90DF90CF90BF90AF900895FC0169
:10039000538D448D252F30E0842F90E0821B930BEA
:1003A000541710F0CF96089501970895FC01918D90
:1003B000828D981761F0A28DAE0FBF2FB11D5D9693
:1003C0008C91928D9F5F9F73928F90E008958FEF35
:1003D0009FEF0895FC01918D828D981731F0828DE9
:1003E000E80FF11D858D90E008958FEF9FEF089540
:1003F000FC01918D228D892F90E0805C9F4F821BA4
:1004000091098F73992708958DE293E00E94F80176
:1004100021E0892B09F420E0822F089580E090E00C
:10042000892B29F00E94040281110C940000089588
:10043000FC01A48DA80FB92FB11DA35ABF4F2C9159
:10044000848D90E001968F739927848FA689B78950
:100450002C93A089B1898C91837080648C93938D47
:10046000848D981306C00288F389E02D80818F7DEA
:1004700080830895EF92FF920F931F93CF93DF93A2
:10048000EC0181E0888F9B8D8C8D98131AC0E889D0
:10049000F989808185FF15C09FB7F894EE89FF899F
:1004A0006083E889F98980818370806480839FBF3D
:1004B00081E090E0DF91CF911F910F91FF90EF903D
:1004C0000895F62E0B8D10E00F5F1F4F0F7311274D
:1004D000E02E8C8D8E110CC00FB607FCFACFE88988
:1004E000F989808185FFF5CFCE010E941802F1CFF6
:1004F000EB8DEC0FFD2FF11DE35AFF4FF0829FB7FC
:10050000F8940B8FEA89FB8980818062CFCFCF93EB
:10051000DF93EC01888D8823B9F0AA89BB89E8892B
:10052000F9898C9185FD03C0808186FD0DC00FB6D1
:1005300007FCF7CF8C9185FFF2CF808185FFEDCF4F
:10054000CE010E941802E9CFDF91CF9108950F9359
:100550001F93CF93DF93EC01062F142F9C858D857D
:100560009CBD8DBD60E088890E94B6000EBD000074
:100570000DB407FEFDCF8EB51EBD00000DB407FE05
:10058000FDCF1EB561E088890E94B600812FDF9102
:10059000CF911F910F91089508950F931F93CF93BB
:1005A000DF93EC01E881F9810084F185E02D099564
:1005B000892BC1F040E06DE0CE010E94A702082F18
:1005C00040E060E0CE010E94A702182F402F6DE8A6
:1005D000CE010E94A702812F90E0DF91CF911F9161
:1005E0000F9108958FEF9FEFF8CFCF93DF93EC013A
:1005F000E881F9810084F185E02D0995892B71F05E
:100600008A8D9B8D01969B8F8A8F40E060E0CE01A2
:100610000E94A70290E0DF91CF9108958FEF9FEFA6
:10062000FACFCF93DF93EC0140E063E10E94A70291
:1006300090E02A8D3B8D821B930BDF91CF91089523
:10064000AF92BF92CF92DF92FF920F931F93CF93FF
:10065000DF936C015B01EA0140E062E20E94A702C5
:10066000F82E90E09C012C0F3D1F2F3F310529F003
:1006700020F0CFEFD0E0C81BD90B8501AC0EBD1E1A
:100680000A151B0541F0F80141918F0160E8C60190
:100690000E94A702F5CF4C2F4F0D62EAC6010E94BF
:1006A000A702CE01DF91CF911F910F91FF90DF90B4
:1006B000CF90BF90AF900895CF93DF931F92CDB7A7
:1006C000DEB76983DC01ED91FC910280F381E02DBE
:1006D00041E050E0BE016F5F7F4F09950F90DF91C1
:1006E000CF9108952091AD02260F3327331F213279
:1006F0003105ECF420910303FC0190E080E024300C
:1007000069F082E00895A091AD022191AC014557B6
:100710005D4FA40FB52FB11D2C930196861798F34A
:100720008091AD02680F6093AD0280E0089581E092
:1007300008951092030381E0809302031092DD027A
:1007400061E082E10E94B60061E083E10E94B600B0
:10075000E9EBF0E080818E7F808380818D7F8083D4
:1007600088E48093B80085E48093BC000895CF931B
:10077000DF9391E090938A028823B9F0C091B8008A
:10078000D091BA008091BC008A7B8093BC0060E06D
:1007900082E10E94B60060E083E10E94B6000E9400
:1007A0009903D093BA00C093B800DF91CF91089518
:1007B0008F929F92AF92BF92CF92DF92EF92FF9271
:1007C0000F931F93CF93DF93D0912C03D13208F076
:1007D000D7C0182FC0912B030E9415016B017C011B
:1007E0008091030381116BC082E080930303109317
:1007F00002038FEF8093010310920003D093FF0256
:10080000ABE0B3E0EFEDF2E080E0D81391C01092DE
:10081000DE028091DE02CC0FC82BC093DE028091F5
:10082000DD02813009F088C01092DD020E941501BE
:100830006B017C018091DE028093BB0080910503F7
:1008400090910603A0910703B0910803892B8A2B8E
:100850008B2BA1F00E941501009105031091060356
:1008600020910703309108036C197D098E099F09B7
:10087000061717072807390708F442C08091BC0003
:1008800083FDD8CF85EC8093BC000E9415016B01DD
:100890007C0180910303823009F450C080910103F0
:1008A0008F3F09F46FC080910103803209F46CC05E
:1008B00080910103803309F469C084E026C08091EF
:1008C000050390910603A0910703B0910803892BBB
:1008D0008A2B8B2B09F484CF0E941501809005038D
:1008E00090900603A0900703B09008036C197D094F
:1008F0008E099F0986169706A806B90608F070CFDC
:10090000809104030E94B70385E010920A031092BD
:100910002C0310920903DF91CF911F910F91FF904B
:10092000EF90DF90CF90BF90AF909F908F90089501
:100930009D9191938F5F69CF85EEA5CF809105033F
:1009400090910603A0910703B0910803892B8A2B8D
:100950008B2B09F49ECF0E94150100910503109185
:10096000060320910703309108036C197D098E0955
:100970009F09061717072807390708F08ACFC0CF45
:1009800081E0C3CF80E0C1CF82E0BFCF83E0BDCFA5
:100990000F931F93CF93DF93EC018D859E85288560
:1009A00031E03093090320932B0310920A03109235
:1009B0002C035F8D01E010E020E030E004C0000F68
:1009C000111F221F331F6A95D2F7413031F5052BD5
:1009D0000F8F6F8D2B896223298D3D892323622BF5
:1009E000688FDC01ED91FC910190F081E02D09957B
:1009F0008F8D9B8989239A8D2D899223892B888FAE
:100A000081E00E94D803982F88A781E0911180E0AF
:100A1000DF91CF911F910F91089500950523D8CFB5
:100A200008950895E091890280918802E81730F4D2
:100A3000F0E0E859FD4F808190E008958FEF9FEF3F
:100A4000089590918902809188022FEF3FEF9817C7
:100A500048F4E92FF0E0E859FD4F208130E09F5F36
:100A600090938902C901089580918802909189022A
:100A7000891B990B0895CF92DF92EF92FF920F930B
:100A80001F93CF93DF937C01CB018A01209109034F
:100A9000222389F0EB016B01C40ED51ECC15DD05B8
:100AA00069F06991D701ED91FC910190F081E02D01
:100AB000C7010995F3CF642F0E947203C801DF912B
:100AC000CF911F910F91FF90EF90DF90CF900895FD
:100AD000CF93DF931F92CDB7DEB7698320910903CF
:100AE0002223F9F020912C03203258F021E030E04D
:100AF000FC013383228390E080E00F90DF91CF915F
:100B0000089580910A03E82FF0E0E55FFC4F99819A
:100B100090838F5F80930A0380932C0381E090E0A1
:100B2000ECCF61E0CE0101960E947203F7CF90E016
:100B300080E008958091040490910504DC01ED911A
:100B4000FC910284F385E02D0994CF92DF92EF921D
:100B5000FF920F931F93CF938C016A017B01C7E033
:100B6000D8011296ED91FC9140E06C2F8281938127
:100B70000E94C804C701B6010E943A01C15080F723
:100B8000C7E0D8011296ED91FC9140E06C2F808176
:100B900091810E94C804C701B6010E943A01C15068
:100BA00080F7C7E0D8011296ED91FC9141E06C2FDF
:100BB000828193810E94C804C701B6010E943A0154
:100BC000C15080F7C7E0D8011296ED91FC9141E049
:100BD0006C2F808191810E94C804C701B6010E94D8
:100BE0003A01C15080F7CF911F910F91FF90EF9084
:100BF000DF90CF9008958F929F92AF92BF92CF9245
:100C0000DF92FF920F931F93CF93DF938C014A01E2
:100C10005B01D0E0C0E0D80114968C918C171D06C2
:100C2000D9F0D4F06E01CC0CDD1CF12CD801129659
:100C3000ED91FC91EC0DFD1D40E06F2D80819181C7
:100C40000E94C804C501B4010E943A01F394B8E0BF
:100C5000FB12ECCF2196DFCFD0E0C0E0F801848119
:100C60008C171D06D9F0D4F06E01CC0CDD1CF12CD4
:100C7000D8011296ED91FC91EC0DFD1D41E06F2D18
:100C8000808191810E94C804C501B4010E943A018B
:100C9000F394B8E0FB12ECCF2196E0CFDF91CF9137
:100CA0001F910F91FF90DF90CF90BF90AF909F90DA
:100CB0008F900895CF92DF92EF92FF920F931F9340
:100CC000CF938C016A017B01C0E0D8011296ED91AF
:100CD000FC9140E06C2F808191810E94C804CF5F1D
:100CE000C83099F7C0E0D8011296ED91FC9140E030
:100CF0006C2F828193810E94C804CF5FC83099F71E
:100D0000C701B6010E943A01C0E0D8011296ED91E8
:100D1000FC9141E06C2F808191810E94C804CF5FDB
:100D2000C83099F7C0E0D8011296ED91FC9141E0EE
:100D30006C2F828193810E94C804CF5FC83099F7DD
:100D4000C701B601CF911F910F91FF90EF90DF90F7
:100D5000CF900C943A01CF92DF92EF92FF92CF9313
:100D6000DF93EC0184E6C82ED12CE12CF12C44E079
:100D700050E060E070E0CE010E94FB05B701A601E3
:100D8000CE010E945A0644E050E060E070E0CE01DF
:100D90000E94A50584E0C81AD108E108F10884E0A2
:100DA000C816D104E104F10411F7DF91CF91FF904F
:100DB000EF90DF90CF900895CF92DF92EF92FF9265
:100DC000CF93DF93EC0184E1C82ED12CE12CF12CE0
:100DD000B701A601CE010E94A50584E0C81AD1087A
:100DE000E108F10884E0C816D104E104F10481F7B8
:100DF000DF91CF91FF90EF90DF90CF900895CF9249
:100E0000DF92EF92FF92CF93DF93EC0184E1C82E43
:100E1000D12CE12CF12CB701A601CE010E94FB05DB
:100E200084E0C81AD108E108F10884E0C816D104AA
:100E3000E104F10481F7DF91CF91FF90EF90DF9013
:100E4000CF900895CF92DF92EF92FF92CF93DF93EE
:100E5000EC0184E6C82ED12CE12CF12CB701A601BF
:100E6000CE010E945A0684E0C81AD108E108F108B0
:100E700084E0C816D104E104F10481F7DF91CF9139
:100E8000FF90EF90DF90CF9008950F931F93CF9333
:100E9000DF9300D000D000D01F92CDB7DEB709831A
:100EA0001A832B833C834D835E836F83DC01ED913A
:100EB000FC910280F381E02D27960FB6F894DEBFF7
:100EC0000FBECDBFDF91CF911F910F910994DC012F
:100ED00013967C936E93129714964C931497ED91FE
:100EE000FC910280F381E02D0994CF93DF93EC0114
:100EF000E98584E0E89FF0011124EC0FFD1F85894E
:100F00009689A789B08D898B9A8BAB8BBC8B2B89EB
:100F10003C89C901959587958C0F9D1FE989FA89B0
:100F200020FF08C0DC012D913C91E20FF31F0190DE
:100F3000F081E02D09958985833028F48F5F8987BA
:100F4000DF91CF9108951986FBCF089508950F93EF
:100F50001F93CF93DF93CDB7DEB728970FB6F894E2
:100F6000DEBF0FBECDBF28960FB6F894DEBF0FBE12
:100F7000CDBFDF91CF911F910F9108950F931F93D4
:100F8000CF93DF938C01D0E0C0E0D8015B968C91C9
:100F90005B978C171D0661F05CF05996ED91FC9102
:100FA000EC0FFD1F60E080810E94B6002196EDCF1E
:100FB000DF91CF911F910F9108950F931F93CF93BE
:100FC000DF938C01D0E0C0E0D8015B968C915B97F9
:100FD0008C171D0661F05CF05996ED91FC91EC0FB9
:100FE000FD1F61E080810E94B6002196EDCFDF9168
:100FF000CF911F910F910895FC018389811104C045
:10100000CB01BA010C943A0108954F925F926F920E
:101010007F928F929F92AF92BF92CF92DF92EF9288
:10102000FF920F931F93CF93DF93EC0106E010E044
:10103000F12CE12CE98DFA8DEE0DFF1D60E0808131
:101040000E94B6004E815F8168857985440F551FE7
:10105000661F771FCE010E94FC07E98DFA8DEE0D09
:10106000FF1D61E080810E94B6008FEFE81AF80A48
:10107000E016F106FCF2E98DFA8DE00FF11F3197D1
:1010800060E080810E94B6000150110989F605E0F8
:1010900010E0E98DFA8DE00FF11F61E080810E9480
:1010A000B6004E815F8168857985440F551F661FA4
:1010B000771FCE010E94FC070150110950F7CE01A5
:1010C0000E94DD0744EF51E060E070E0CE010E9435
:1010D000FC0710E000E076E0E72EF12CE98DFA8DB8
:1010E000E00FF11F60E080810E94B6004E815F81B9
:1010F00068857985CE010E94FC07E98DFA8DE00FA5
:10110000F11F61E080810E94B6004E815F81688599
:101110007985CE010E94FC0781E0E81AF108F1F61A
:101120004E815F8168857985CE010E94FC070F5F43
:101130001F4F0630110579F605E010E066E0E62E57
:10114000F12CE98DFA8DE00FF11F60E080810E94A3
:10115000B6004E815F8168857985CE010E94FC07CB
:10116000E98DFA8DE00FF11F61E080810E94B600E9
:101170004E815F8168857985CE010E94FC0781E000
:10118000E81AF108F1F64E815F8168857985CE0114
:101190000E94FC070150110988F6CE010E94DD076C
:1011A00044EF51E060E070E0CE010E94FC0752E0A5
:1011B000E52EF12C10E000E044E0C42ED12CE98DA6
:1011C000FA8DE00FF11F60E080810E94B600E98D8A
:1011D000FA8DEE0DFF1D60E080810E94B6004E8109
:1011E0005F8168857985CE010E94FC07E98DFA8DC3
:1011F000E00FF11F61E080810E94B600E98DFA8D59
:10120000EE0DFF1D61E080810E94B6004E815F817E
:1012100068857985CE010E94FC0781E0C81AD10853
:1012200071F642E350E060E070E0CE010E94FC07FE
:101230000F5F1F4F8FEFE81AF80A0430110509F00D
:10124000BBCFCE010E94DD0744EF51E060E070E0CB
:10125000CE010E94FC076E817F8188859985660F8B
:10126000771F881F991F0E946F1A6B017C0133E062
:10127000432E512C612C712C6E817F81888599853C
:101280000E946F1AA70196010E946A1A18160CF4A0
:1012900067C010E000E0E98DFA8DE00FF11F60E01B
:1012A00080810E94B600C701B6010E94FD1B4B0160
:1012B0005C01BC01A401CE010E94FC070F5F1F4F1F
:1012C0000630110541F710E000E0E98DFA8DE00FDE
:1012D000F11F61E080810E94B600B501A401CE013A
:1012E0000E94FC070F5F1F4F0630110571F705E0E4
:1012F00010E0E98DFA8DE00FF11F60E080810E941F
:10130000B600B501A401CE010E94FC0701501109ED
:1013100080F705E010E0E98DFA8DE00FF11F61E044
:1013200080810E94B600B501A401CE010E94FC0795
:101330000150110980F76E817F8188859985A3010D
:1013400092010E94681BCA01B9010E946F1A9B0199
:10135000AC01C701B6010E94901B6B017C018CCFD0
:10136000CE010E94DD0744EF51E060E070E0CE0165
:10137000DF91CF911F910F91FF90EF90DF90CF9071
:10138000BF90AF909F908F907F906F905F904F90A5
:101390000C94FC072F923F924F925F926F927F9234
:1013A0008F929F92AF92BF92CF92DF92EF92FF9275
:1013B0000F931F93CF93DF93EC01E2E0CE2ED12C5D
:1013C0006FE0E62EF12C8E809F80A884B98410E017
:1013D00000E08B8D8017110681F07CF0E98DFA8D8D
:1013E000E00FF11F60E080810E94B6000F5F1F4F89
:1013F000F0CFCC24C394D12CE3CF10E000E08B8D50
:101400008017110661F05CF0E98DFA8DE00FF11F95
:1014100060E080810E94B6000F5F1F4FF0CFB501E2
:10142000A401CE010E94FC0710E000E08B8D801724
:10143000110661F05CF0E98DFA8DE00FF11F61E0BB
:1014400080810E94B6000F5F1F4FF0CF10E000E0D8
:101450008B8D8017110661F05CF0E98DFA8DE00F3D
:10146000F11F61E080810E94B6000F5F1F4FF0CF37
:10147000B501A401CE010E94FC0721E0E21AF108A7
:1014800009F0A1CF44EF51E060E070E0CE010E948E
:10149000FC07CA94CD2809F0ACCFCE010E94DD072D
:1014A00054E0E52EF12C10E000E0E98DFA8DE00F1C
:1014B000F11F60E080810E94B6000F5F1F4F033074
:1014C000110599F74E815F8168857985CE010E946B
:1014D000FC0710E000E0E98DFA8DE00FF11F61E0FC
:1014E00080810E94B6000F5F1F4F0330110599F7EE
:1014F0004E815F8168857985CE010E94FC0791E06D
:10150000E91AF10881F642E350E060E070E0CE01B4
:101510000E94FC0744E0E42EF12C03E010E0E98D8A
:10152000FA8DE00FF11F60E080810E94B6000F5F2E
:101530001F4F0630110599F74E815F8168857985C7
:10154000CE010E94FC0703E010E0E98DFA8DE00F68
:10155000F11F61E080810E94B6000F5F1F4F0630CF
:10156000110599F74E815F8168857985CE010E94CA
:10157000FC07E1E0EE1AF10881F642E350E060E09A
:1015800070E0CE010E94FC0734E0E32EF12C10E065
:1015900000E0E98DFA8DE00FF11F60E080810E948C
:1015A000B6000F5F1F4F0330110599F74E815F8121
:1015B00068857985CE010E94FC0710E000E0E98D86
:1015C000FA8DE00FF11F61E080810E94B6000F5F8D
:1015D0001F4F0330110599F74E815F81688579852A
:1015E000CE010E94FC07F1E0EF1AF10881F644EF0A
:1015F00051E060E070E0CE010E94FC07CE010E9445
:10160000DD0724E0E22EF12C03E010E0E98DFA8DF5
:10161000E00FF11F60E080810E94B6000F5F1F4F56
:101620000630110599F74E815F8168857985CE0175
:101630000E94FC0703E010E0E98DFA8DE00FF11F36
:1016400061E080810E94B6000F5F1F4F06301105D8
:1016500099F74E815F8168857985CE010E94FC07EC
:1016600021E0E21AF10881F642E350E060E070E028
:10167000CE010E94FC0794E0E92EF12C10E000E07E
:10168000E98DFA8DE00FF11F60E080810E94B600C5
:101690000F5F1F4F0330110599F74E815F816885F9
:1016A0007985CE010E94FC0710E000E0E98DFA8DFB
:1016B000E00FF11F61E080810E94B6000F5F1F4FB5
:1016C0000330110599F74E815F8168857985CE01D8
:1016D0000E94FC0781E0E81AF10881F642E350E03D
:1016E00060E070E0CE010E94FC0784E0E82EF12C5F
:1016F00003E010E0E98DFA8DE00FF11F60E08081DA
:101700000E94B6000F5F1F4F0630110599F74E81FA
:101710005F8168857985CE010E94FC0703E010E0B7
:10172000E98DFA8DE00FF11F61E080810E94B60023
:101730000F5F1F4F0630110599F74E815F81688555
:101740007985CE010E94FC0791E0E91AF10881F643
:10175000CE010E94DD0744EF51E060E070E0CE0171
:101760000E94FC0702E0A02EB12CEE24E394F12CA1
:1017700010E000E0A4E0CA2ED12CE98DFA8DE00F34
:10178000F11F60E080810E94B600E98DFA8DEE0DB8
:10179000FF1D60E080810E94B6004E815F816885F8
:1017A0007985CE010E94FC07E98DFA8DE00FF11FCB
:1017B00061E080810E94B600E98DFA8DEE0DFF1D7B
:1017C00061E080810E94B6004E815F8168857985E5
:1017D000CE010E94FC07E1E0CE1AD10871F64CE27E
:1017E00051E060E070E0CE010E94FC070E5F1F4FE9
:1017F000F2E0EF0EF11C0630110509F0BBCF44EF0B
:1018000051E060E070E0CE010E94FC07AA94AB2892
:1018100009F0A9C0CE010E94DD0706E010E0F12C1E
:10182000E12CE98DFA8DEE0DFF1D60E080810E94B4
:10183000B6004E815F8168857985440F551F661F0C
:10184000771FCE010E94FC07E98DFA8DEE0DFF1D7A
:1018500061E080810E94B6008FEFE81AF80AE01676
:10186000F106FCF2E98DFA8DE00FF11F319760E08F
:1018700080810E94B6000150110989F605E010E050
:10188000E98DFA8DE00FF11F61E080810E94B600C2
:101890004E815F8168857985440F551F661F771FCC
:1018A000CE010E94FC070150110950F7CE010E94A1
:1018B000DD0744EF51E060E070E0CE010E94FC07DC
:1018C0008E809F80880C991C092C000CAA08BB08EC
:1018D00056E0452E512C65E0262E312C8E819F81BD
:1018E000A885B98588169906AA06BB0608F4DFC044
:1018F00003E010E032E0632E712C26E0E22EF12CA2
:101900000E151F05A4F56701E1E0CE1AD108E98D97
:10191000FA8DEC0DFD1D60E080810E94B600C201D1
:101920008E199F097C01E98DFA8DE80FF91F60E09F
:1019300080810E94B600B501A401CE010E94FC077F
:10194000E98DFA8DEC0DFD1D61E080810E94B600ED
:10195000898D9A8DE80EF91E61E0F70180810E9461
:10196000B6007601CDCFAA24A394B12CFECE73018C
:101970006801E98DFA8DEC0DFD1D60E080810E940B
:10198000B600E98DFA8DEE0DFF1D60E080810E94AA
:10199000B600B501A401CE010E94FC07E98DFA8DC5
:1019A000EC0DFD1D61E080810E94B600E98DFA8D8D
:1019B000EE0DFF1D61E080810E94B600FFEFCF1A9F
:1019C000DF0A21E0E21AF108A0F695E0E92EF12CF9
:1019D000898D9A8D0E151F057CF56701E1E0CE1A01
:1019E000D1088C0D9D1D60E0FC0180810E94B60035
:1019F000C2018E199F097C01E98DFA8DE80FF91F4C
:101A000060E080810E94B600B501A401CE010E9471
:101A1000FC07E98DFA8DEC0DFD1D61E080810E94CF
:101A2000B600898D9A8DE80EF91E61E0F70180817C
:101A30000E94B6007601CCCF800F911F60E0FC01C0
:101A400080810E94B600E98DFA8DE60DF71D60E0F9
:101A500080810E94B600F1E06F1A71080F5F1F4F7E
:101A60000630110509F049CF02E010E0C101801BEA
:101A7000910BE98DFA8DE80FF91F61E080810E94DA
:101A8000B600E98DFA8DE00FF11F61E080810E94C0
:101A9000B600B501A401CE010E94FC070150110956
:101AA00028F785E0881A9108A108B10817CFCE0160
:101AB0000E94BE0744EF51E060E070E0CE010E945A
:101AC000FC0705E010E0E98DFA8DE00FF11F61E001
:101AD00080810E94B6004E815F8168857985440FC0
:101AE000551F661F771FCE010E94FC070150110988
:101AF00050F7CE010E94DD0744EF51E060E070E056
:101B0000CE01DF91CF911F910F91FF90EF90DF9069
:101B1000CF90BF90AF909F908F907F906F905F908D
:101B20004F903F902F900C94FC07FC014683578305
:101B30006087718708950F931F93CF93DF93CDB77D
:101B4000DEB728970FB6F894DEBF0FBECDBF09836E
:101B50001A832B833C834D835E836F83788728E0D1
:101B6000FE013196DC011E9601900D922A95E1F757
:101B700028960FB6F894DEBF0FBECDBFDF91CF9190
:101B80001F910F9108950F931F93CF93DF9300D070
:101B900000D000D01F92CDB7DEB709831A832B8304
:101BA0003C834D835E836F8327E0FE013196DC0129
:101BB000569601900D922A95E1F7DC01ED91FC918A
:101BC0000280F381E02D27960FB6F894DEBF0FBE9A
:101BD000CDBFDF91CF911F910F910994DC01ED9161
:101BE000FC910280F381E02D0994FC01838981112D
:101BF000138A278D30A1C901959587958E0F9F1F58
:101C0000058CF68DE02D20FF08C0DC012D913C9164
:101C1000E20FF31F0190F081E02D0994CF93DF9341
:101C2000EC0162E08E850E94E4006C897D898E85DE
:101C30008230C9F08330C9F08FEF43E050E00E945A
:101C40007901ED8184E0E89FF0011124EC0FFD1F84
:101C500081A192A1A3A1B4A18D8F9E8FAF8FB8A3B4
:101C6000DF91CF91089580E0E8CF81E0E6CF08953D
:101C70000895089508950F931F93CF93DF93EC0178
:101C80000E946D010A851B852C853D85601B710BAB
:101C9000820B930B6A3F71058105910530F1ED814F
:101CA000E33040F5EF5FED8384E0E89FF00111241D
:101CB000EC0FFD1F81A192A1A3A1B4A18D8F9E8FD6
:101CC000AF8FB8A38F859889A989BA890196A11D7C
:101CD000B11D8F87988BA98BBA8B81E08B8B0E946B
:101CE0006D016A877B878C879D87DF91CF911F91DC
:101CF0000F910895E0E0D7CF0F931F93CF93DF9319
:101D000000D000D000D01F92CDB7DEB709831A8370
:101D10002B833C834D835E836F8327E0FE013196E6
:101D2000DC01569601900D922A95E1F7DC01ED91C8
:101D3000FC910280F381E02D27960FB6F894DEBF68
:101D40000FBECDBFDF91CF911F910F910994DC01A0
:101D5000ED91FC910280F381E02D0994FC018389CF
:101D60008111138A278D30A1C901959587958E0F12
:101D70009F1F058CF68DE02D20FF08C0DC012D9102
:101D80003C91E20FF31F0190F081E02D0994CF9375
:101D9000DF93EC0162E08E850E94E4006C897D890E
:101DA0008E858230C9F08330C9F08FEF43E050E078
:101DB0000E947901ED8184E0E89FF0011124EC0F8D
:101DC000FD1F81A192A1A3A1B4A18D8F9E8FAF8F82
:101DD000B8A3DF91CF91089580E0E8CF81E0E6CF0E
:101DE0000895089508950F931F93CF93DF93EC0107
:101DF0000E946D010A851B852C853D85601B710B3A
:101E0000820B930B6A3F71058105910530F1ED81DD
:101E1000E33040F5EF5FED8384E0E89FF0011124AB
:101E2000EC0FFD1F81A192A1A3A1B4A18D8F9E8F64
:101E3000AF8FB8A38F859889A989BA890196A11D0A
:101E4000B11D8F87988BA98BBA8B81E08B8B0E94F9
:101E50006D016A877B878C879D87DF91CF911F916A
:101E60000F910895E0E0D7CF0F931F93CF93DF93A7
:101E700000D000D000D01F92CDB7DEB709831A83FF
:101E80002B833C834D835E836F8327E0FE01319675
:101E9000DC01569601900D922A95E1F7DC01ED9157
:101EA000FC910280F381E02D27960FB6F894DEBFF7
:101EB0000FBECDBFDF91CF911F910F910994DC012F
:101EC000ED91FC910280F381E02D0994FC0183895E
:101ED0008111138A278D30A1C901959587958E0FA1
:101EE0009F1F058CF68DE02D20FF08C0DC012D9191
:101EF0003C91E20FF31F0190F081E02D0994CF9304
:101F0000DF93EC0162E08E850E94E4006C897D899C
:101F10008E858230C9F08330C9F08FEF43E050E006
:101F20000E947901ED8184E0E89FF0011124EC0F1B
:101F3000FD1F81A192A1A3A1B4A18D8F9E8FAF8F10
:101F4000B8A3DF91CF91089580E0E8CF81E0E6CF9C
:101F5000262F642FFC01848D882311F041E0642733
:101F6000822F0C94B600FC018389811104C0CB013F
:101F7000BA010C943A0108950F931F93CF93DF9306
:101F80008C01D0E0C0E0D8015B968C915B978C17F8
:101F90001D0669F064F05996ED91FC91EC0FFD1F60
:101FA00040E06081C8010E94A80F2196ECCFDF912C
:101FB000CF911F910F9108950F931F93CF93DF93AC
:101FC000EC010B8D10E00150110988F0E98DFA8DBC
:101FD000E00FF11F41E06081CE010E94A80F4EE1A9
:101FE00050E060E070E0CE010E94B30FECCF0B8DAB
:101FF00010E00150110988F0E98DFA8DE00FF11F12
:1020000040E06081CE010E94A80F4EE150E060E008
:1020100070E0CE010E94B30FECCFDF91CF911F9102
:102020000F9108950F931F93CF93DF93EC0110E06E
:1020300000E08B8D80171106A1F09CF0E98DFA8DE0
:10204000E00FF11F41E06081CE010E94A80F4EE138
:1020500050E060E070E0CE010E94B30F0F5F1F4FB1
:10206000E8CF10E000E08B8D80171106A1F09CF006
:10207000E98DFA8DE00FF11F40E06081CE010E94F2
:10208000A80F4EE150E060E070E0CE010E94B30F77
:102090000F5F1F4FE8CFDF91CF911F910F910895F0
:1020A0000F931F93CF93DF93EC0110E000E08B8D33
:1020B0008017110669F064F0E98DFA8DE00FF11FC9
:1020C00041E06081CE010E94A80F0F5F1F4FEFCF4C
:1020D00042E350E060E070E0CE010E94B30F10E0F8
:1020E00000E08B8D8017110669F064F0E98DFA8DA0
:1020F000E00FF11F40E06081CE010E94A80F0F5F4A
:102100001F4FEFCF42E350E060E070E0CE01DF917F
:10211000CF911F910F910C94B30F0F931F93CF93F7
:10212000DF93EC010E946D010A851B852C853D859E
:10213000601B710B820B930B6A3F71058105910542
:1021400030F1ED81E33040F5EF5FED8384E0E89F0F
:10215000F0011124EC0FFD1F81A192A1A3A1B4A154
:102160008D8F9E8FAF8FB8A38F859889A989BA89E3
:102170000196A11DB11D8F87988BA98BBA8B81E029
:102180008B8B0E946D016A877B878C879D87DF918F
:10219000CF911F910F910895E0E0D7CF0F931F9338
:1021A000CF93DF9300D000D000D01F92CDB7DEB721
:1021B00009831A832B833C834D835E836F8327E0DF
:1021C000FE013196DC01569601900D922A95E1F7B9
:1021D000DC01ED91FC910280F381E02D27960FB692
:1021E000F894DEBF0FBECDBFDF91CF911F910F914D
:1021F0000994DC01ED91FC910280F381E02D0994BA
:10220000FC0183898111138A278D30A1C90195951D
:1022100087958E0F9F1F058CF68DE02D20FF08C03F
:10222000DC012D913C91E20FF31F0190F081E02D34
:102230000994CF93DF93EC0162E08E850E94E40065
:102240006C897D898E858230C9F08330C9F08FEF2B
:1022500043E050E00E947901ED8184E0E89FF001C5
:102260001124EC0FFD1F81A192A1A3A1B4A18D8F18
:102270009E8FAF8FB8A3DF91CF91089580E0E8CF14
:1022800081E0E6CF42E050E067E372E08DE293E068
:102290000C949A01EF92FF920F931F93CF93DF93C9
:1022A000CDB7DEB7E984FA848E01035F1F4F86E065
:1022B000D70115968C9386E090E00E942C1CF701C4
:1022C0009483838390E080E0D7011396ED91FC9195
:1022D000E80FF91FD8012C91208301960E5F1F4F44
:1022E0008630910589F7DF91CF911F910F91FF9073
:1022F000EF9008950F931F93CF93DF93EC018881A4
:102300009981009759F02A813B812617370730F0D1
:1023100081E0DF91CF911F910F9108958B016F5F45
:102320007F4F0E94511D009759F0998388831B832A
:102330000A832C813D81232B59F7FC011082E8CFC1
:1023400080E0E7CFEF92FF920F931F93CF93DF933D
:10235000EC017B018A01BA010E947A11288139813E
:10236000811114C02115310519F0C9010E94C81C42
:10237000198218821D821C821B821A82CE01DF9173
:10238000CF911F910F91FF90EF9008951D830C83C3
:10239000B701C9010E94171EF1CF2F923F924F92B1
:1023A0005F926F927F928F929F92AF92BF92CF92E5
:1023B000DF92EF92FF920F931F93CF93DF93CDB7EE
:1023C000DEB7E3970FB6F894DEBF0FBECDBFFE01B8
:1023D000BF9685E0DF011D928A95E9F781E08DA720
:1023E00080E18EA782E08FA71F928CE08F931F92CF
:1023F0008BE08F931F928AE08F931F9289E08F93D7
:102400001F9288E08F931F9217E01F931F9286E020
:102410008F937E01BDE2EB0EF11CFF92EF920E94C2
:102420004A11F701DE015F96812F01900D928A9586
:10243000E1F7FE017F96A7E0B4E001900D921A95B6
:10244000E1F70FB6F894DEBF0FBECDBF80910E044A
:10245000882309F4E4C023E030E080910E04811168
:102460000EC080910A0490910B04892B29F480916D
:102470000C04882309F467C18CEB80930704233094
:10248000310509F073C187E0E7E0F4E0DE01519621
:1024900001900D928A95E1F787E0FE017196DE01C9
:1024A000969601900D928A95E1F787E0FE01B69627
:1024B000DE01589601900D928A95E1F787E0FE01C2
:1024C0007896ABEFB3E001900D928A95E1F7809199
:1024D000FE039091FF03892B09F062C280910004F2
:1024E00081115EC2F9EFCF2EF1E0DF2EA2E14A2E7C
:1024F000512CB3E16B2E712C1AE0A12EB12C0BE400
:10250000302E81EE282E9FEE892E93E0992EE090BA
:102510000604F12C2091FD03C601895F9140281724
:10252000190609F00CF479C18AE290E00E942C1C93
:102530008C01F60181916F01D8011A965C924E923E
:1025400019971C967C926E921B971F961C921F9750
:10255000E2E05096EC93509752961C921E9251973F
:1025600053961C92539754961C92549755961C92CE
:10257000559756961C92569757961C925797589671
:102580001C92589759961C9259975A961C925A9792
:102590005B961D921D921D921C925E975F961C92F7
:1025A0005F9790961C92909791961C929197939614
:1025B0001C921E9292979596BC92AE929497969684
:1025C0003C92969797962C92979798961C929897EC
:1025D0001E969C928E921D9718968C93B7016F5FF2
:1025E0007F4F660F771F80910204909103040E9431
:1025F000511D009709F48BCF90930304809302043C
:1026000020910604422F50E0440F551F840F951F60
:10261000FC01118300832F5F2093060478CF809103
:102620000A0490910B04892B09F06FC080910C046F
:1026300081116BC04AE9C42E41E0D42E0FE911E0AC
:10264000760162E0D7018D917D010E94E4000E15B4
:102650001F05B9F710E000E0000F111FF6012191EE
:102660006F0130E0F901E255FF4F8491F901E65620
:10267000FF4FB490F901EA57FF4FA490AA2039F117
:1026800081110E948D00EA2DF0E0EE0FFF1FE85946
:10269000FF4FA591B491EC91BE2231E020E009F406
:1026A00030E0832F922F082B192BEC14FD04A1F698
:1026B000EAE7F1E090E080E021912017110651F463
:1026C000865A9E4FDC018C9180930804C4CE90E022
:1026D00080E0E9CF01968032910571F720910804DE
:1026E000422F50E0217030E090E080E084179507A1
:1026F0001CF4211101C03F5F089688349105B1F7A1
:10270000309309042DEF30E0A8CE10E080910C0446
:10271000181708F0A0CEE12EF12CE0910A04F091F8
:102720000B04EE0DFF1D61E080810E94E400E0914A
:102730000A04F0910B04EE0DFF1D61E080810E9400
:10274000B6001F5FE3CF809108049EEF980F9F3083
:1027500048F09EEE980F973038F08A51873230F467
:1027600081EB8BCE8BE989CE86EA87CE4DE150E0B6
:102770006AE372E08DE293E00E949A010E944211A6
:10278000FE01399686E0DF011D928A95E9F782E025
:1027900089878AE995E0988B8F8788E0DE0111961A
:1027A00001900D928A95E1F78091040490910504BF
:1027B000DC01ED91FC910084F185E02D09811A8105
:1027C0002B813C814D815E816F8178850995809157
:1027D000040490910504009739F0DC01ED91FC911F
:1027E0000190F081E02D0995E3960FB6F894DEBFD5
:1027F0000FBECDBFDF91CF911F910F91FF90EF9052
:10280000DF90CF90BF90AF909F908F907F906F9010
:102810005F904F903F902F900895F12CE12C412C28
:10282000512C3201439424E0322E30E1A32E35E0C6
:10283000B32E41E1842E45E0942E222423948091EE
:1028400006048E151F0409F00CF4AAC06701CC0C15
:10285000DD1CA0910204B0910304AC0DBD1D90E0FD
:1028600080E0ED91FC911197B301A201082E04C004
:10287000440F551F661F771F0A94D2F72389242B14
:10288000238B2489242B248B409525892423258B75
:1028900027892423278B26894223468B019688305B
:1028A0009105F9F60D911C91D80198963C921092E1
:1028B00089021092880210920A0310922C030E943F
:1028C0009903B092AC02A092AB029092B0028092B7
:1028D000AF02F80183892589811102C0222331F1D9
:1028E000D8011D968D919C911E9718963C91189732
:1028F0002092090330932B0354966C915497622BCA
:1029000059966C93DC01ED91FC910190F081E02DE2
:102910000995F80194898689892B828F808F978FFA
:1029200081E00E94D803D80198968C93F80187859E
:102930008823A1F062E080890E94E400D8015196CA
:102940006D917C91529750968C91823029F1833011
:1029500029F581E042E050E00E9479010E946D017A
:10296000F801638F748F858F968F80A5811108CFB2
:1029700010E0E0910204F0910304EC0DFD1D41E034
:10298000612F808191810E94C8041F5F183089F7F0
:10299000FFEFEF1AFF0A53CF80E0DCCF8FEFDACFE3
:1029A000809100042091FE033091FF03232B11F44A
:1029B0008823D9F1843009F4AFC040F4833009F49E
:1029C00067C01092050410920404DACE863009F430
:1029D000CDC08E30B1F781E390E00E942C1C29ED30
:1029E00031E0FC0131832083158248E250E060E051
:1029F00070E0DC01468357836087718716861786EF
:102A0000108A118A128A138A158A148A168A178ADA
:102A1000108E128E118E138E148E168E158E10A29D
:102A2000178E20E1EAE0F1E075C08091FC0380316F
:102A300041F685E290E00E942C1C2BEE31E0DC0197
:102A400011963C932E9313961C921E9212971496F5
:102A50001C921497FC01158216821782108611862B
:102A6000128613861486168615861786108A128A91
:102A7000118A148A138A20E1EAE1F1E05596019067
:102A80000D922A95E1F7909305048093040478CE83
:102A900081E390E00E942C1C23EA31E0DC011196D6
:102AA0003C932E9315961C92159748E250E060E0F7
:102AB00070E0FC01468357836087718716861F96F6
:102AC0001D921D921D921C92529753961C925397E1
:102AD00055961C921E92549756961C92569757964E
:102AE0001C92579758961C9258975A961C921E9271
:102AF00059975B961C925B975C961C925C975E96CE
:102B00001C921E925D9790961C921E925F9720E1F8
:102B1000EAE2F1E09196B3CF81E390E00E942C1CB1
:102B200025EB31E0FC0131832083158248E250E03F
:102B300060E070E0DC01468357836087718716860A
:102B40001786108A118A128A138A158A148A168A9D
:102B5000178A108E128E118E138E148E168E158E6D
:102B600010A2178E20E1EAE3F1E0D4CF81E390E0F8
:102B70000E942C1C27EC31E0DC0111963C932E9333
:102B800015961C92159748E250E060E070E0FC0159
:102B9000468357836087718716861F961D921D9204
:102BA0001D921C92529753961C92539755961C92C5
:102BB0001E92549756961C92569757961C9257976A
:102BC00058961C9258975A961C921E9259975B964B
:102BD0001C925B975C961C925C975E961C921E9270
:102BE0005D9790961C921E925F9720E1EAE4F1E0D7
:102BF00091CF85ED8093BC008091050390910603F1
:102C0000A0910703B09108030796A11DB11D23E011
:102C1000B695A795979587952A95D1F72091BC00F1
:102C200024FD03C0109203030895409105035091C1
:102C300006036091070370910803452B462B472B31
:102C400069F30097A105B10541F02AE22A95F1F751
:102C500000C00197A109B109E1CF809104030C9450
:102C6000B703AF92BF92CF92DF92EF92FF920F9392
:102C70001F93CF93DF93CDB7DEB72F970FB6F8949E
:102C8000DEBF0FBECDBF8C010E946D01F801C28472
:102C9000D384E484F5846C197D098E099F096A3F09
:102CA00071058105910508F48CC08581833008F099
:102CB00099C08F5FF801858390E0FC01EE0FFF1F44
:102CC000EE0FFF1FE00FF11F41A152A163A174A1FC
:102CD000F801458F568F678F70A31B861A861D8655
:102CE0001C861F861E864AE09E012F5F3F4F79019A
:102CF000B9010E94501AF70101900020E9F73197BD
:102D0000AF014E195F09B701CE010A960E94A211C8
:102D10001A8219821C821B821E821D824BE050E0A7
:102D200068E572E0C7010E94A211AA84BB84A114C5
:102D3000B10409F459C0CE84DF84C114D104B1F0C8
:102D40008D819E81C80ED91EB601C7010E947A11DD
:102D5000882309F449C029813A818D819E81B5017A
:102D6000820F931F0E94171EDE82CD824D815E81ED
:102D700069817A818DE293E00E949A010E9442115A
:102D800089819A81009711F00E94C81C8A859B85D1
:102D9000009711F00E94C81CF80187859089A189CD
:102DA000B2890196A11DB11D8787908BA18BB28B33
:102DB00081E0838B0E946D01F801628773878487AD
:102DC00095872F960FB6F894DEBF0FBECDBFDF916B
:102DD000CF911F910F91FF90EF90DF90CF90BF9018
:102DE000AF90089580E066CF89819A81009711F0B5
:102DF0000E94C81C1A8219821E821D821C821B829C
:102E0000B5CF1F920F920FB60F9211242F933F93BD
:102E10008F939F93AF93BF938091D5029091D602E9
:102E2000A091D702B091D8023091D40223E0230FB1
:102E30002D3758F50196A11DB11D2093D402809322
:102E4000D5029093D602A093D702B093D802809176
:102E5000D9029091DA02A091DB02B091DC020196D6
:102E6000A11DB11D8093D9029093DA02A093DB02D9
:102E7000B093DC02BF91AF919F918F913F912F91C1
:102E80000F900FBE0F901F90189526E8230F029603
:102E9000A11DB11DD2CF1F920F920FB60F92112418
:102EA0002F933F934F935F936F937F938F939F9352
:102EB000AF93BF93EF93FF93E0910201F091030171
:102EC0000995FF91EF91BF91AF919F918F917F9164
:102ED0006F915F914F913F912F910F900FBE0F9087
:102EE0001F9018951F920F920FB60F9211242F93D7
:102EF0003F934F935F936F937F938F939F93AF9382
:102F0000BF93EF93FF93E0910001F09101010995C8
:102F1000FF91EF91BF91AF919F918F917F916F91B1
:102F20005F914F913F912F910F900FBE0F901F9087
:102F300018951F920F920FB60F9211242F933F9363
:102F40004F935F936F937F938F939F93AF93BF93B1
:102F5000EF93FF938DE293E00E941802FF91EF91AF
:102F6000BF91AF919F918F917F916F915F914F91A1
:102F70003F912F910F900FBE0F901F9018951F92A9
:102F80000F920FB60F9211242F938F939F93EF936D
:102F9000FF93E0913D03F0913E038081E091430374
:102FA000F091440382FD1BC09081809146038F5FA6
:102FB0008F7320914703821741F0E0914603F0E0C0
:102FC000E35DFC4F958F80934603FF91EF919F91B6
:102FD0008F912F910F900FBE0F901F9018958081A9
:102FE000F4CF1F920F920FB60F9211240F900FBEC5
:102FF0000F901F9018951F920F920FB60F921124E9
:103000002F933F934F935F936F937F938F939F93F0
:10301000AF93BF93EF93FF93F0E0E0E00995FF914A
:10302000EF91BF91AF919F918F917F916F915F9140
:103030004F913F912F910F900FBE0F901F901895B9
:103040001F920F920FB60F9211242F933F934F931D
:103050005F936F937F938F939F93AF93BF93EF9300
:10306000FF938091B900887F803609F44AC0F0F55B
:10307000883209F4A7C018F5803109F49BC0B8F470
:10308000882309F4F9C0883009F494C0FF91EF91C6
:10309000BF91AF919F918F917F916F915F914F9170
:1030A0003F912F910F900FBE0F901F901895883170
:1030B00009F488C0803251F78093010314C0803432
:1030C00009F49DC040F48033B9F38833F9F6809356
:1030D000010385ECB0C0803509F485C0883509F45A
:1030E00096C0883499F60E94F915D0CF883909F432
:1030F0008CC038F5883729F050F4883611F08037C5
:1031000029F683E0809303031092D10257C08838D8
:1031100009F47BC0803919F0803809F0B7CF80916D
:10312000D102803208F071C0E091D10281E08E0FAF
:103130008093D1028091BB00F0E0EF54FD4F80837B
:103140003DC0803B39F0E0F4803A09F479C0883A18
:1031500009F09CCF84E0809303031092AE0210929A
:10316000AD02E091AB02F091AC0209958091AD0205
:1031700081110FC081E08093AD0210928B0209C0D3
:10318000803C09F4A6CF883C09F4A3CF883B09F022
:103190007DCFE091AE0281E08E0F8093AE02F0E031
:1031A000E557FD4F80818093BB009091AE028091E6
:1031B000AD0229C08091DE028093BB0085EC809334
:1031C000BC0064CF909100038091FF02981758F5DE
:1031D000E091000381E08E0F80930003F0E0E15264
:1031E000FD4F8081E9CFE091000381E08E0F809355
:1031F00000038091BB00F0E0E152FD4F808390918D
:1032000000038091FF029817C8F285E8D8CFE091BB
:10321000000381E08E0F809300038091BB00F0E0FB
:10322000E152FD4F80838091020381115CCF81E0E8
:103230008093DD0284EA8093BC001092030326CFC2
:1032400085EC8093BC00109203038091D102803200
:1032500030F4E091D102F0E0EF54FD4F1082609124
:10326000D10270E0E091AF02F091B00281EB92E008
:1032700009951092D1020ACF1092010334CFEDE2EA
:10328000F3E01382128288EE93E0A0E0B0E0848342
:103290009583A683B78325E032E03183208325EC34
:1032A00030E03587248724EC30E03787268720EC10
:1032B00030E0318B208B21EC30E0338B228B22EC01
:1032C00030E0358B248B26EC30E0378B268B118E4B
:1032D000128E138E148EEBECF3E01382128227E130
:1032E00032E03183208320E5248721E025872AEC02
:1032F00033E0378726872AE030E0318B208B29E0C6
:1033000030E0338B228B22E030E0358B248B168A21
:10331000178A108E118E138E128E158E148E178EA4
:10332000168E11A210A213A212A214821582168266
:103330001782EFEEF3E01382128284839583A683D3
:10334000B78389E292E091838083E7E0F4E0108222
:103350001182128214821382158216821782EBEF79
:10336000F3E0108211821282148213821582168277
:1033700010861782128611860895789484B582602B
:1033800084BD84B5816084BD85B5826085BD85B509
:10339000816085BD80916E00816080936E00109287
:1033A0008100809181008260809381008091810002
:1033B0008160809381008091800081608093800093
:1033C0008091B10084608093B1008091B0008160F1
:1033D0008093B00080917A00846080937A0080911D
:1033E0007A00826080937A0080917A008160809375
:1033F0007A0080917A00806880937A001092C100F0
:10340000E0913D03F0913E0382E08083E091390337
:10341000F0913A031082E0913B03F0913C038FEC72
:10342000808310924503E0914103F091420386E0CE
:103430008083E0913F03F09140038081806180832D
:10344000E0913F03F0914003808188608083E091A8
:103450003F03F0914003808180688083E0913F03C7
:10346000F091400380818F7D80830E94CD11C0E068
:10347000D0E02097F1F30E9404028823D1F30E9448
:103480000000F7CFCF93DF93CBEFD3E08F81988508
:103490000E94C81C89859A85DF91CF910C94C81C25
:1034A000BB27FB015527AA27880F991FAA1FA4171E
:1034B00010F0A41B83955051B9F7A05DAA3308F012
:1034C000A95DA193009779F7B111B1931192CB0146
:1034D0000C94D01A0E94AC1A08F481E00895E89484
:1034E00009C097FB3EF490958095709561957F4F4C
:1034F0008F4F9F4F9923A9F0F92F96E9BB279395FA
:10350000F695879577956795B795F111F8CFFAF409
:10351000BB0F11F460FF1BC06F5F7F4F8F4F9F4F3A
:1035200016C0882311F096E911C0772321F09EE898
:10353000872F762F05C0662371F096E8862F70E0FE
:1035400060E02AF09A95660F771F881FDAF7880FD8
:103550009695879597F90895990F0008550FAA0B2E
:10356000E0E8FEEF16161706E807F907C0F0121696
:103570001306E407F50798F0621B730B840B950B99
:1035800039F40A2661F0232B242B252B21F40895EE
:103590000A2609F4A140A6958FEF811D811D08958B
:1035A000DC01FC01672F71917723E1F7329704C0AA
:1035B0007C916D9370836291AE17BF07C8F3089535
:1035C00097F99F6780E870E060E008959FEF80ECD6
:1035D000089500240A941616170618060906089579
:1035E00000240A9412161306140605060895092EDF
:1035F0000394000C11F4882352F0BB0F40F4BF2B4E
:1036000011F460FF04C06F5F7F4F8F4F9F4F08958D
:1036100057FD9058440F551F59F05F3F71F0479583
:10362000880F97FB991F61F09F3F79F08795089568
:10363000121613061406551FF2CF4695F1DF08C087
:10364000161617061806991FF1CF869571056105A4
:1036500008940895E894BB2766277727CB0197F94C
:1036600008952F923F924F925F926F927F928F9226
:103670009F92AF92BF92CF92DF92EF92FF920F9301
:103680001F93CF93DF93CDB7DEB7CA1BDB0B0FB60B
:10369000F894DEBF0FBECDBF09942A8839884888C8
:1036A0005F846E847D848C849B84AA84B984C8845E
:1036B000DF80EE80FD800C811B81AA81B981CE0F55
:1036C000D11D0FB6F894DEBF0FBECDBFED0108953A
:1036D000A1E21A2EAA1BBB1BFD010DC0AA1FBB1F16
:1036E000EE1FFF1FA217B307E407F50720F0A21B88
:1036F000B30BE40BF50B661F771F881F991F1A94F5
:1037000069F760957095809590959B01AC01BD011E
:10371000CF010895EE0FFF1F0590F491E02D09945D
:103720005058BB27AA270E94A81B0C94F71A0E9486
:10373000E91A38F00E94F01A20F039F49F3F19F48A
:1037400026F40C94E61A0EF4E095E7FB0C94E01ACC
:10375000E92F0E94081B58F3BA1762077307840702
:10376000950720F079F4A6F50C942A1B0EF4E09549
:103770000B2EBA2FA02D0B01B90190010C01CA012B
:10378000A0011124FF27591B99F0593F50F4503ED6
:1037900068F11A16F040A22F232F342F4427585FC8
:1037A000F3CF469537952795A795F0405395C9F7E0
:1037B0007EF41F16BA0B620B730B840BBAF0915098
:1037C000A1F0FF0FBB1F661F771F881FC2F70EC037
:1037D000BA0F621F731F841F48F48795779567950A
:1037E000B795F7959E3F08F0B0CF9395880F08F0F6
:1037F0009927EE0F9795879508950E94101B88F0E2
:103800009F5798F0B92F9927B751B0F0E1F0660FA4
:10381000771F881F991F1AF0BA95C9F714C0B130E5
:1038200091F00E942A1BB1E008950C942A1B672F87
:10383000782F8827B85F39F0B93FCCF38695779514
:103840006795B395D9F73EF49095809570956195FD
:103850007F4F8F4F9F4F08950F931F93CF93DF9309
:103860008230910510F482E090E0E0911104F09133
:10387000120430E020E0B0E0A0E0309799F4211588
:10388000310509F44AC0281B390B24303105D8F51D
:103890008A819B816115710589F1FB019383828384
:1038A000FE0111C0408151810281138148175907DF
:1038B000E0F04817590799F4109761F012960C93AD
:1038C000129713961C933296CF01DF91CF911F91DF
:1038D0000F9108950093110410931204F4CF211551
:1038E000310551F04217530738F0A901DB019A0165
:1038F000BD01DF01F801C1CFEF01F9CF90931204B0
:1039000080931104CDCFFE01E20FF31F81939193B9
:103910002250310939832883D7CF20910F04309169
:103920001004232B41F420910601309107013093BC
:10393000100420930F0420910401309105012115FA
:10394000310541F42DB73EB740910801509109016E
:10395000241B350BE0910F04F0911004E217F307DC
:10396000A0F42E1B3F0B2817390778F0AC014E5FEF
:103970005F4F2417350748F04E0F5F1F5093100418
:1039800040930F04819391939FCFF0E0E0E09CCFB0
:10399000CF93DF930097E9F0FC01329713821282F4
:1039A000A0911104B0911204ED0130E020E01097D5
:1039B000A1F420813181820F931F20910F04309157
:1039C00010042817390709F061C0F0931004E09340
:1039D0000F04DF91CF910895EA01CE17DF07E8F5D4
:1039E0004A815B819E0141155105B1F7E901FB83D5
:1039F000EA8349915991C40FD51FEC17FD0761F473
:103A0000808191810296840F951FE90199838883B3
:103A1000828193819B838A83F0E0E0E012968D910E
:103A20009C9113970097B9F52D913C911197CD0179
:103A30000296820F931F20910F04309110042817D3
:103A4000390739F6309751F510921204109211048B
:103A5000B0931004A0930F04BCCFD383C2834081E2
:103A60005181840F951FC817D90761F44E5F5F4FCE
:103A700088819981480F591F518340838A819B8196
:103A8000938382832115310509F0B0CFF09312049E
:103A9000E09311049ECFFD01DC01C0CF138212829E
:103AA000D7CFB0E0A0E0E7E5FDE10C94331B8C013B
:103AB000009751F4CB010E942C1C8C01C801CDB79A
:103AC000DEB7E0E10C944F1BFC01E60FF71F9C01F1
:103AD00022503109E217F30708F49DC0D901CD91B6
:103AE000DC911197C617D70798F0C530D10530F390
:103AF000CE0104978617970708F3C61BD70B2297AA
:103B0000C193D1936D937C93CF010E94C81CD6CFF3
:103B10005B01AC1ABD0A4C018C0E9D1EA0911104D4
:103B2000B0911204512C412CF12CE12C109731F55D
:103B300080910F04909110048815990509F05CC0DC
:103B40004616570608F058C080910401909105016F
:103B5000009741F48DB79EB740910801509109013B
:103B6000841B950BE817F90708F055C0F093100473
:103B7000E0930F04F90171836083A0CF8D919C9134
:103B8000119712966C90129713967C901397A81524
:103B9000B90559F56C0142E0C40ED11CCA14DB040E
:103BA00020F1AC014A195B09DA011296159780F0F1
:103BB0006282738251834083D9016D937C93E114B7
:103BC000F10471F0D7011396FC93EE93129776CF20
:103BD00022968C0F9D1FF90191838083F301EFCF13
:103BE000F0931204E093110469CF4816590608F4C3
:103BF0002C017D01D3019ACFCB010E942C1C7C01AA
:103C0000009749F0AE01B8010E940E1EC8010E9443
:103C1000C81C870153CF10E000E050CFFB01DC014E
:103C200002C001900D9241505040D8F70895FB0119
:103C3000DC0101900D920020E1F7089510E0C2E64A
:103C4000D0E004C0FE010E948A1B2196C336D10732
:063C5000C9F7F894FFCF54
:103C560099019901000013048000BC0F0000501068
:103C6600000012100000DC0F000022070000FF0613
:103C76000000DC060000AB060000F00E0000CC02DF
:103C86000000F20E0000F10E0000370E00003A0EA2
:103C96000000390E0000380E0000DD070000CA09DA
:103CA600000005080000BE070000020406080A0C12
:103CB6000E10121416181A1C1E20222426282A2C2E
:103CC6002E30323436383A3C3E401F1E1D1C1B1A1D
:103CD600191817161514131211100F0E0D0C0B0AC6
:103CE600090807060504030201001B1A1921200012
:103CF6000000007F0F660F5F0F340F9B0DF30E95CC
:103D06000D00000000C70EAE0EA70E7C0E9B0D3BED
:103D16000E950D000000000E0EF50DEE0DC30D9B69
:103D26000D3116950D0000000019110011F910CE85
:103D3600109B0D8D10950D00000000CC02750767D5
:103D4600074507A707A607A507242022232425261B
:103D560027000000003A029A01C7018702F801D63F
:103D660001EA01000000005C0320039705CC021164
:103D760003F502CD020000000068053B059705CC5F
:103D8600023405210512050D0A00436F6E66696748
:103D9600204572726F722C20436865636B205769E9
:103DA60072696E67202121007C20707265737365CD
:043DB600643A20004B
:00000001FF
