:100000000C945E000C94CC070C94A5070C944B0840
:100010000C944B080C944B080C9486000C948600AE
:100020000C9486000C9486000C9486000C94860038
:100030000C9486000C9486000C9486000C94860028
:100040000C945B070C9486000C9419080C94F3072D
:100050000C9486000C9486000C9486000C94860008
:100060000C9455080C948600000000002400270022
:100070002A0000000000250028002B0004040404CE
:100080000404040402020202020203030303030342
:10009000010204081020408001020408102001021F
:1000A00004081020000000080002010000030407FB
:1000B00000000000000000008709500C11241FBE42
:1000C000CFEFD8E0DEBFCDBF23E0A2EBB1E001C0AF
:1000D0001D92A33BB207E1F711E0A0E0B1E0E8ED2B
:1000E000F1E202C005900D92A23BB107D9F710E0F2
:1000F000CDE5D0E004C02197FE010E94D60DCC359D
:10010000D107C9F70E945A0A0C94DF100C94000022
:1001100090E0FC01EC55FF4F2491FC01E057FF4FAC
:100120003491FC01E458FF4FE491EE23C9F02223FF
:1001300039F0233001F1A8F4213019F1223029F1EE
:10014000F0E0EE0FFF1FEE58FF4FA591B4918FB76F
:10015000F894EC91611126C030953E233C938FBFFB
:1001600008952730A9F02830C9F0243049F780914C
:1001700080008F7D03C0809180008F778093800006
:10018000DFCF84B58F7784BDDBCF84B58F7DFBCF88
:100190008091B0008F778093B000D2CF8091B00073
:1001A0008F7DF9CF3E2BDACFCF93DF9390E0FC0128
:1001B000E057FF4F249184589F4FFC01849188237E
:1001C000D1F090E0880F991FFC01E859FF4FA591ED
:1001D000B491FC01EE58FF4FC591D49161110EC04E
:1001E0009FB7F8948C91E22FE0958E238C93288111
:1001F000E223E8839FBFDF91CF9108958FB7F894F2
:10020000EC91E22BEC938FBFF6CF3FB7F89480913F
:10021000830290918402A0918502B091860226B556
:10022000A89B05C02F3F19F00196A11DB11D3FBF2E
:10023000BA2FA92F982F8827BC01CD01620F711DFD
:10024000811D911D42E0660F771F881F991F4A95F7
:10025000D1F708958F929F92AF92BF92CF92DF9283
:10026000EF92FF924B015C010E9405016B017C0142
:100270000E9405016C197D098E099F09683E734033
:1002800081059105A8F321E0821A9108A108B1081F
:1002900088EEC80E83E0D81EE11CF11C8114910485
:1002A000A104B10429F7FF90EF90DF90CF90BF90A9
:1002B000AF909F908F900895089508950895AF92FC
:1002C000BF92CF92DF92EF92FF920F931F93CF9343
:1002D000DF936C017B018B01040F151FEB015E01A5
:1002E000AE18BF08C017D10759F06991D601ED913A
:1002F000FC910190F081E02DC6010995892B79F7D9
:10030000C501DF91CF911F910F91FF90EF90DF908A
:10031000CF90BF90AF900895FC01538D448D252F51
:1003200030E0842F90E0821B930B541710F0CF968F
:10033000089501970895FC01918D828D981761F0C1
:10034000A28DAE0FBF2FB11D5D968C91928D9F5FD8
:100350009F73928F90E008958FEF9FEF0895FC01B7
:10036000918D828D981731F0828DE80FF11D858D6A
:1003700090E008958FEF9FEF0895FC01918D228DFD
:10038000892F90E0805C9F4F821B91098F73992782
:10039000089587E892E00E94BD0121E0892B09F4CD
:1003A00020E0822F089580E090E0892B29F00E94C0
:1003B000C90181110C9400000895FC01A48DA80FBF
:1003C000B92FB11DA35ABF4F2C91848D90E0019697
:1003D0008F739927848FA689B7892C93A089B189B7
:1003E0008C91837080648C93938D848D981306C058
:1003F0000288F389E02D80818F7D80830895EF92BC
:10040000FF920F931F93CF93DF93EC0181E0888FCE
:100410009B8D8C8D98131AC0E889F989808185FF9E
:1004200015C09FB7F894EE89FF896083E889F98940
:1004300080818370806480839FBF81E090E0DF9142
:10044000CF911F910F91FF90EF900895F62E0B8D95
:1004500010E00F5F1F4F0F731127E02E8C8D8E1150
:100460000CC00FB607FCFACFE889F989808185FFB7
:10047000F5CFCE010E94DD01F1CFEB8DEC0FFD2F0A
:10048000F11DE35AFF4FF0829FB7F8940B8FEA8972
:10049000FB8980818062CFCFCF93DF93EC01888D81
:1004A0008823B9F0AA89BB89E889F9898C9185FDEF
:1004B00003C0808186FD0DC00FB607FCF7CF8C917D
:1004C00085FFF2CF808185FFEDCFCE010E94DD0157
:1004D000E9CFDF91CF9108950F931F93CF93DF93CF
:1004E000EC01062F142F9C858D859CBD8DBD60E091
:1004F00088890E9488000EBD00000DB407FEFDCF64
:100500008EB51EBD00000DB407FEFDCF1EB561E027
:1005100088890E948800812FDF91CF911F910F91D0
:10052000089508950F931F93CF93DF93EC01E88113
:10053000F9810084F185E02D0995892BC1F040E017
:100540006DE0CE010E946C02082F40E060E0CE0119
:100550000E946C02182F402F6DE8CE010E946C02A1
:10056000812F90E0DF91CF911F910F9108958FEF30
:100570009FEFF8CFCF93DF93EC01E881F9810084FE
:10058000F185E02D0995892B71F08A8D9B8D01965F
:100590009B8F8A8F40E060E0CE010E946C0290E069
:1005A000DF91CF9108958FEF9FEFFACFCF93DF9335
:1005B000EC0140E063E10E946C0290E02A8D3B8DEB
:1005C000821B930BDF91CF910895AF92BF92CF9290
:1005D000DF92FF920F931F93CF93DF936C015B0128
:1005E000EA0140E062E20E946C02F82E90E09C0179
:1005F0002C0F3D1F2F3F310529F020F0CFEFD0E029
:10060000C81BD90B8501AC0EBD1E0A151B0541F098
:10061000F80141918F0160E8C6010E946C02F5CF9C
:100620004C2F4F0D62EAC6010E946C02CE01DF9191
:10063000CF911F910F91FF90DF90CF90BF90AF901F
:100640000895CF93DF931F92CDB7DEB76983DC01A6
:10065000ED91FC910280F381E02D41E050E0BE017C
:100660006F5F7F4F09950F90DF91CF9108950895A7
:100670002091F301260F3327331F21323105ECF48B
:1006800020913C02FC0190E080E0243069F082E09F
:100690000895A091F3012191AC014D525E4FA40F3A
:1006A000B52FB11D2C930196861798F38091F30115
:1006B000680F6093F30180E0089581E0089510923F
:1006C0003C0281E080933B021092160261E082E1DD
:1006D0000E94880061E083E10E948800E9EBF0E07D
:1006E00080818E7F808380818D7F808388E480936A
:1006F000B80085E48093BC000895CF93DF9391E028
:100700009093D2018823B9F0C091B800D091BA007B
:100710008091BC008A7B8093BC0060E082E10E94F3
:10072000880060E083E10E9488000E945F03D0930C
:10073000BA00C093B800DF91CF910895E0916D02A7
:1007400080916C02E81730F4F0E0EE54FE4F8081A7
:1007500090E008958FEF9FEF089590916D02809142
:100760006C022FEF3FEF981748F4E92FF0E0EE54BA
:10077000FE4F208130E09F5F90936D02C901089584
:1007800080916C0290916D02891B990B0895CF9214
:10079000DF92EF92FF920F931F93CF93DF937C0131
:1007A000CB018A0120914202222389F0EB016B01E7
:1007B000C40ED51ECC15DD0569F06991D701ED9108
:1007C000FC910190F081E02DC7010995F3CF642FD2
:1007D0000E943803C801DF91CF911F910F91FF90C4
:1007E000EF90DF90CF900895CF93DF931F92CDB716
:1007F000DEB76983209142022223F9F020916A0238
:10080000203258F021E030E0FC013383228390E075
:1008100080E00F90DF91CF91089580916B02E82FD7
:10082000F0E0ED5BFD4F998190838F5F80936B02C9
:1008300080936A0281E090E0ECCF61E0CE01019606
:100840000E943803F7CFCF92DF92EF92FF920F937F
:100850001F93CF93DF93FC01C48121E020934202D8
:10086000C093630210926B0210926A028485682B17
:1008700089E493E00E94F403D0916A02D13208F037
:1008800092C00E9405016B017C0180913C028111A4
:1008900065C082E080933C0281E080933B028FEF51
:1008A00080933A0210923902D0933802A3E4B2E066
:1008B000E8E1F2E080E0D81385C010921702809141
:1008C0001702CC0FC82BC0931702809116028130FB
:1008D00009F07CC0109216020E9405016B017C0198
:1008E000809117028093BB0080913E0290913F025D
:1008F000A0914002B0914102892B8A2B8B2B99F059
:100900000E94050100913E0210913F022091400299
:10091000309141026C197D098E099F09061717074E
:1009200028073907E0F18091BC0083FDD9CF85EC21
:100930008093BC000E9405016B017C0180913C0208
:10094000823009F445C080913A028F3F61F1809175
:100950003A02803241F180913A0225C080913E02F4
:1009600090913F02A0914002B0914102892B8A2BC5
:100970008B2B09F48ACF0E94050100913E02109151
:100980003F0220914002309141026C197D098E098D
:100990009F09061717072807390708F076CF8091B7
:1009A0003D020E947D0310926B0210926A02109227
:1009B0004202DF91CF911F910F91FF90EF90DF9056
:1009C000CF9008959D9191938F5F75CF85EEB0CFB5
:1009D00080913E0290913F02A0914002B09141026D
:1009E000892B8A2B8B2B09F4A9CF0E94050100913A
:1009F0003E0210913F0220914002309141026C1959
:100A00007D098E099F09061717072807390708F07F
:100A100095CFC5CF90E080E00895FC01828193815D
:100A2000A481B581FB0180839183A283B383089560
:100A3000CF93DF93EC012FB7F89480917F029091D0
:100A40008002A0918102B09182022FBF4E815F810E
:100A500068857985841B950BA60BB70B843F914065
:100A6000A105B10580F19A859E3008F09E509770DF
:100A7000906490937C0080917A00806480937A00E7
:100A800080917A0086FDFCCF80917800609179009A
:100A9000762F682F072E000C880B990B0E94600C94
:100AA0006A837B838C839D832FB7F89480917F0228
:100AB00090918002A0918102B09182022FBF8E831B
:100AC0009F83A887B987DF91CF91089560E0FC01EB
:100AD00082850C94D40008950F931F93CF93DF93D6
:100AE0000EE612E0D0E0C0E0E0919F03F091A00399
:100AF000EC0FFD1F80819181DC01ED91FC91048060
:100B0000F581E02DB801099522960C5F1F4FC83082
:100B1000D10551F7DF91CF911F910F9108950F9358
:100B20001F93CF938C01C62F0E9423046C2F646007
:100B3000C8010E9423046C2F6B7FC8010E9423040C
:100B400083EC90E00197F1F7CF911F910F910895F9
:100B50000F931F93CF93DF938C01D62FC42F607F09
:100B6000642B0E948F0580E1D89FB00111246C2B6B
:100B7000C801DF91CF911F910F910C948F0541E037
:100B80000E94A80581E090E00895FC0101900020FA
:100B9000E9F73197AF01481B590BBC0187E892E098
:100BA0000C945F018F929F92AF92BF920F931F930D
:100BB000CF93DF93CDB7DEB7A1970FB6F894DEBF22
:100BC0000FBECDBF19A2423008F44AE08E010F5D7E
:100BD0001F4F842E912CB12CA12CA50194010E94B1
:100BE000B40DE62FB901CA01EA30F4F4E05DD80192
:100BF000EE938D01232B242B252B79F790E080E0B9
:100C0000109719F0CD010E94C505A1960FB6F89472
:100C1000DEBF0FBECDBFDF91CF911F910F91BF906F
:100C2000AF909F908F900895E95CE1CF4F925F92D3
:100C30006F927F928F929F92AF92BF92CF92DF92EC
:100C4000EF92FF920F931F93CF936B017C01742E51
:100C5000AC019B010E94EF0E882399F08CE591E096
:100C6000CF911F910F91FF90EF90DF90CF90BF90A9
:100C7000AF909F908F907F906F905F904F900C946B
:100C8000C50546015701E894B7F82FEF3FEF4FE74E
:100C90005FE7C501B4010E94EF0E81110DC02FEF77
:100CA0003FEF4FE75FE7C501B4010E94590C1816EA
:100CB0001CF480E691E0D4CF2FEF3FEF4FE75FE4E5
:100CC000C701B6010E94EA0E18161CF484E691E0F2
:100CD000C7CF2FEF3FEF4FE75FECC701B6010E9490
:100CE000590C87FDF3CF20E030E0A901C701B60120
:100CF0000E94590C10E000E087FF0AC06DE287E80F
:100D000092E00E94FF018C01F7FAF094F7F8F0945A
:100D1000C0E060E070E080E09FE37C1641F020E0FE
:100D200030E040E251E40E94490ECF5FF6CFA701C8
:100D300096010E94DD0D2B013C010E94BB0E4B0170
:100D40005C014AE00E94D2057C01E00EF11ECC233A
:100D5000C1F1C501B4010E945E0C9B01AC01C3014D
:100D6000B2010E94DC0D4B015C016EE287E892E06B
:100D70000E94FF01E80EF91EC15018F120E030E09A
:100D800040E251E4C501B4010E94BF0C2B013C01BB
:100D90000E94BB0E4B01B12CA12C4AE0C501B4014D
:100DA0000E94D205E80EF91EC501B4010E945E0C36
:100DB0009B01AC01C301B2010E94DC0D4B015C013F
:100DC000DBCFC701CF911F910F91FF90EF90DF9084
:100DD000CF90BF90AF909F908F907F906F905F90DB
:100DE0004F900895CF93DF93EC016091A10370E0E1
:100DF0006F5F7F4F660F771F80919F039091A003D5
:100E00000E941910009751F488E691E00E94C505F0
:100E100083E891E0DF91CF910C94C5059093A003F6
:100E200080939F032091A103422F50E0440F551F50
:100E3000840F951FFC01D183C0832F5F2093A103F2
:100E4000DF91CF91089585ED8093BC0080913E02A3
:100E500090913F02A0914002B09141020796A11DDE
:100E6000B11D23E0B695A795979587952A95D1F75B
:100E70002091BC0024FD03C010923C0208954091D3
:100E80003E0250913F026091400270914102452B19
:100E9000462B472B69F30097A105B10541F025E3E7
:100EA0002A95F1F700000197A109B109E1CF8091DE
:100EB0003D020C947D031F920F920FB60F921124E6
:100EC0002F933F938F939F93AF93BF9380917F0214
:100ED00090918002A0918102B091820230917E02B5
:100EE00023E0230F2D3758F50196A11DB11D209346
:100EF0007E0280937F0290938002A0938102B09340
:100F000082028091830290918402A0918502B09127
:100F100086020196A11DB11D8093830290938402E5
:100F2000A0938502B0938602BF91AF919F918F915C
:100F30003F912F910F900FBE0F901F90189526E8AC
:100F4000230F0296A11DB11DD2CF1F920F920FB693
:100F50000F9211242F933F934F935F936F937F933F
:100F60008F939F93AF93BF93EF93FF93E091020111
:100F7000F09103010995FF91EF91BF91AF919F917E
:100F80008F917F916F915F914F913F912F910F9032
:100F90000FBE0F901F9018951F920F920FB60F92D1
:100FA00011242F933F934F935F936F937F938F936E
:100FB0009F93AF93BF93EF93FF93E0910001F09164
:100FC00001010995FF91EF91BF91AF919F918F9191
:100FD0007F916F915F914F913F912F910F900FBE35
:100FE0000F901F9018951F920F920FB60F92112419
:100FF0002F933F934F935F936F937F938F939F9321
:10100000AF93BF93EF93FF9387E892E00E94DD01D7
:10101000FF91EF91BF91AF919F918F917F916F91D0
:101020005F914F913F912F910F900FBE0F901F90A6
:1010300018951F920F920FB60F9211242F938F9332
:101040009F93EF93FF93E0919702F0919802808134
:10105000E0919D02F0919E0282FD1BC090818091E3
:10106000A0028F5F8F732091A102821741F0E0915F
:10107000A002F0E0E957FD4F958F8093A002FF9109
:10108000EF919F918F912F910F900FBE0F901F9016
:1010900018958081F4CF1F920F920FB60F921124F2
:1010A0000F900FBE0F901F9018951F920F920FB6C2
:1010B0000F9211242F933F934F935F936F937F93DE
:1010C0008F939F93AF93BF93EF93FF938091B9005A
:1010D000887F803609F44AC0F0F5883209F4A7C049
:1010E00018F5803109F49BC0B8F4882309F4F9C0DD
:1010F000883009F494C0FF91EF91BF91AF919F9117
:101100008F917F916F915F914F913F912F910F90B0
:101110000FBE0F901F901895883109F488C0803257
:1011200051F780933A0214C0803409F49DC040F412
:101130008033B9F38833F9F680933A0285ECB0C076
:10114000803509F485C0883509F496C0883499F64D
:101150000E942307D0CF883909F48CC038F588372E
:1011600029F050F4883611F0803729F683E0809317
:101170003C021092150257C0883809F47BC08039B0
:1011800019F0803809F0B7CF80911502803208F04D
:1011900071C0E091150281E08E0F8093150280915D
:1011A000BB00F0E0EB50FE4F80833DC0803B39F048
:1011B000E0F4803A09F479C0883A09F09CCF84E0E1
:1011C00080933C021092F4011092F301E0916802C6
:1011D000F091690209958091F30181110FC081E0BE
:1011E0008093F3011092D30109C0803C09F4A6CF8B
:1011F000883C09F4A3CF883B09F07DCFE091F4014E
:1012000081E08E0F8093F401F0E0ED52FE4F80817B
:101210008093BB009091F4018091F30129C08091EB
:1012200017028093BB0085EC8093BC0064CF909143
:10123000390280913802981758F5E091390281E01F
:101240008E0F80933902F0E0E85EFD4F8081E9CF98
:10125000E091390281E08E0F809339028091BB00CA
:10126000F0E0E85EFD4F8083909139028091380272
:101270009817C8F285E8D8CFE091390281E08E0F47
:10128000809339028091BB00F0E0E85EFD4F8083DF
:1012900080913B0281115CCF81E08093160284EA49
:1012A0008093BC0010923C0226CF85EC8093BC005A
:1012B00010923C0280911502803230F4E0911502C8
:1012C000F0E0EB50FE4F10826091150270E0E0916B
:1012D0006602F091670285EF91E009951092150280
:1012E0000ACF10923A0234CFCF93DF93EC0161E042
:1012F00088810E94D4008D8961E0811101C060E085
:1013000088810E9488001C8ADF91CF9108950F93F5
:101310001F93CF93DF93E7E8F2E01382128288EE07
:1013200093E0A0E0B0E084839583A683B7832EE1A9
:1013300031E03183208325EC30E03587248724ECAD
:1013400030E03787268720EC30E0318B208B21EC92
:1013500030E0338B228B22EC30E0358B248B26EC73
:1013600030E0378B268B118E128E138E148EE5E2B1
:10137000F3E01382128220E331E03183208320E501
:10138000248721E0258724E233E0378726872AE077
:1013900030E0318B208B29E030E0338B228B02E070
:1013A00010E0158B048B168A178A108E118E138EFF
:1013B000128E158E148E178E168E11A210A213A2E5
:1013C00012A21482158216821782E9E4F3E01382D6
:1013D000128284839583A683B78382E491E091830C
:1013E0008083E2EAF3E01382128284E591E0918344
:1013F0008083118687E2848380E1828782E083870D
:101400001486EFE9F3E0118210821282CBE9D3E077
:1014100086E08B8385E08A8383E0888384E0898308
:1014200061E086E00E94D40061E08A810E94D400DD
:1014300061E088810E94D40061E089810E94D4002B
:10144000C7E9D3E08AE08B8389E08A8387E08883D9
:1014500088E0898361E08AE00E94D40061E08A81AB
:101460000E94D40061E088810E94D40061E08981FB
:101470000E94D400E1E8F3E011830083158ACF01D4
:101480000E947409EBE6F3E08BE090E091838083A7
:10149000158ACF010E947409E5E5F3E08CE090E045
:1014A00091838083158ACF01DF91CF911F910F9196
:1014B0000C947409789484B5826084BD84B581608D
:1014C00084BD85B5826085BD85B5816085BD80910F
:1014D0006E00816080936E00109281008091810087
:1014E000826080938100809181008160809381007F
:1014F000809180008160809380008091B100846041
:101500008093B1008091B00081608093B0008091A1
:101510007A00846080937A0080917A008260809360
:101520007A0080917A00816080937A0080917A00BD
:10153000806880937A001092C100E0919702F09148
:10154000980282E08083E0919302F09194021082ED
:10155000E0919502F09196028FEC808310929F02A9
:10156000E0919B02F0919C0286E08083E0919902D9
:10157000F0919A02808180618083E0919902F091DC
:101580009A02808188608083E0919902F0919A02AA
:10159000808180688083E0919902F0919A02808135
:1015A0008F7D80838DE090E00E94F40EFC010EE0C0
:1015B00011E0118300831282138214821582168235
:1015C0001782108611868EE08287D5E0D387CAE025
:1015D000C487CF010E94F2068DE090E00E94F40ED5
:1015E000FC011183008312821382148215821682F9
:1015F0001782108611868FE08287D387C487CF0138
:101600000E94F2068DE090E00E94F40EFC0111832E
:10161000008312821382148215821682178210862A
:10162000118680E18287D387C487CF010E94F206AA
:101630008DE090E00E94F40EFC0111830083128281
:10164000138214821582168217821086118681E118
:101650008287D387C487CF010E94F20680919F03BF
:101660009091A003892BD1F0C0E08091A103C8170D
:10167000A8F48C2F90E0880F991FE0919F03F091C0
:10168000A003E80FF91F80819181DC01ED91FC91AD
:101690000190F081E02D0995CF5FE7CF10926D02A8
:1016A00010926C0210926B0210926A020E945F0309
:1016B0008CE591E090936902809368028DE591E05A
:1016C00090936702809366021092A7038091AD0306
:1016D000823018F098E09093A7038093AA0362E306
:1016E00070E080E090E00E942A016091AE0382EAFF
:1016F00093E00E94230468EE73E080E090E00E9493
:101700002A0160E382EA93E00E948F05CBE4D6E4ED
:10171000CE010197F1F760E382EA93E00E948F0522
:101720002197F1F760E382EA93E00E948F0583E559
:1017300092E00197F1F760E282EA93E00E948F0560
:101740006091A703606240E082EA93E00E94A805EE
:1017500084E08093A80340E06CE082EA93E00E947A
:10176000A80540E061E082EA93E00E94A8058BE3CF
:101770009FE10197F1F78091AB03882331F040E0BE
:1017800060E882EA93E00E94A80582E08093A903C2
:1017900040E066E082EA93E00E94A80540E062E053
:1017A00082EA93E00E94A8058BE39FE10197F1F79D
:1017B00088E08093AE0360E082EA93E00E94230415
:1017C00000E010E00E946C0580919F039091A003BF
:1017D000892BD1F0C0E08091A103C817A8F48C2F09
:1017E00090E0880F991FE0919F03F091A003E80F0C
:1017F000F91F80819181DC01ED91FC910280F381E0
:10180000E02D0995CF5FE7CF86E891E00E94C505FE
:1018100060916E0270916F028091700290917102DE
:1018200042E00E9416068FE891E00E94C505609193
:10183000720270917302809174029091750242E07D
:101840000E9416068AE991E00E94C5056091760221
:1018500070917702809178029091790242E00E9423
:10186000160685EA91E00E94C50560917A027091A2
:101870007B0280917C0290917D0242E00E941606DC
:1018800083E891E00E94C5050115110509F49ACF7E
:101890000E94C901882309F495CF0E94000092CFCD
:1018A00080919F039091A003009711F00C94900FEA
:1018B00008950E949B0C08F481E00895E89409C003
:1018C00097FB3EF490958095709561957F4F8F4F73
:1018D0009F4F9923A9F0F92F96E9BB279395F69589
:1018E000879577956795B795F111F8CFFAF4BB0F07
:1018F00011F460FF1BC06F5F7F4F8F4F9F4F16C06B
:10190000882311F096E911C0772321F09EE8872FF4
:10191000762F05C0662371F096E8862F70E060E0B0
:101920002AF09A95660F771F881FDAF7880F969529
:10193000879597F90895990F0008550FAA0BE0E8CD
:10194000FEEF16161706E807F907C0F01216130681
:10195000E407F50798F0621B730B840B950B39F4C1
:101960000A2661F0232B242B252B21F408950A2627
:1019700009F4A140A6958FEF811D811D08950E9455
:10198000D20C0C94430D0E94350D38F00E943C0D92
:1019900020F0952311F00C942C0D0C94320D112491
:1019A0000C94770D0E94540D70F3959FC1F3950F21
:1019B00050E0551F629FF001729FBB27F00DB11DD3
:1019C000639FAA27F00DB11DAA1F649F6627B00D63
:1019D000A11D661F829F2227B00DA11D621F739F4C
:1019E000B00DA11D621F839FA00D611D221F749F5A
:1019F0003327A00D611D231F849F600D211D822FA1
:101A0000762F6A2F11249F5750409AF0F1F08823C7
:101A10004AF0EE0FFF1FBB1F661F771F881F9150F4
:101A20005040A9F79E3F510580F00C942C0D0C946A
:101A3000770D5F3FE4F3983ED4F3869577956795ED
:101A4000B795F795E7959F5FC1F7FE2B880F911D1E
:101A50009695879597F9089597F99F6780E870E0C4
:101A600060E008959FEF80EC089500240A94161614
:101A7000170618060906089500240A94121613067C
:101A8000140605060895092E0394000C11F488230A
:101A900052F0BB0F40F4BF2B11F460FF04C06F5F26
:101AA0007F4F8F4F9F4F089557FD9058440F551FFC
:101AB00059F05F3F71F04795880F97FB991F61F0D0
:101AC0009F3F79F087950895121613061406551F47
:101AD000F2CF4695F1DF08C0161617061806991FB3
:101AE000F1CF86957105610508940895E894BB27A8
:101AF00066277727CB0197F908952F923F924F924F
:101B00005F926F927F928F929F92AF92BF92CF928D
:101B1000DF92EF92FF920F931F93CF93DF93CDB796
:101B2000DEB7CA1BDB0B0FB6F894DEBF0FBECDBF0E
:101B300009942A88398848885F846E847D848C84DF
:101B40009B84AA84B984C884DF80EE80FD800C81E8
:101B50001B81AA81B981CE0FD11D0FB6F894DEBFCB
:101B60000FBECDBFED010895A1E21A2EAA1BBB1B2B
:101B7000FD010DC0AA1FBB1FEE1FFF1FA217B30759
:101B8000E407F50720F0A21BB30BE40BF50B661F6F
:101B9000771F881F991F1A9469F760957095809533
:101BA00090959B01AC01BD01CF010895EE0FFF1F81
:101BB0000590F491E02D09945058BB27AA270E9464
:101BC000F40D0C94430D0E94350D38F00E943C0D2D
:101BD00020F039F49F3F19F426F40C94320D0EF4E2
:101BE000E095E7FB0C942C0DE92F0E94540D58F35F
:101BF000BA17620773078407950720F079F4A6F5F2
:101C00000C94760D0EF4E0950B2EBA2FA02D0B013F
:101C1000B90190010C01CA01A0011124FF27591B31
:101C200099F0593F50F4503E68F11A16F040A22F37
:101C3000232F342F4427585FF3CF469537952795A8
:101C4000A795F0405395C9F77EF41F16BA0B620BA7
:101C5000730B840BBAF09150A1F0FF0FBB1F661FEE
:101C6000771F881FC2F70EC0BA0F621F731F841F31
:101C700048F4879577956795B795F7959E3F08F057
:101C8000B0CF9395880F08F09927EE0F9795879519
:101C900008950E945D0E0C94430D0E943C0D58F077
:101CA0000E94350D40F029F45F3F29F00C942C0D73
:101CB00051110C94770D0C94320D0E94540D68F361
:101CC0009923B1F3552391F3951B550BBB27AA27F5
:101CD00062177307840738F09F5F5F4F220F331F2F
:101CE000441FAA1FA9F335D00E2E3AF0E0E832D0F7
:101CF00091505040E695001CCAF72BD0FE2F29D0FA
:101D0000660F771F881FBB1F261737074807AB07CB
:101D1000B0E809F0BB0B802DBF01FF2793585F4F40
:101D20003AF09E3F510578F00C942C0D0C94770DF1
:101D30005F3FE4F3983ED4F3869577956795B79522
:101D4000F7959F5FC9F7880F911D9695879597F92D
:101D50000895E1E0660F771F881FBB1F62177307A6
:101D60008407BA0720F0621B730B840BBA0BEE1FBB
:101D700088F7E09508950E945C0D88F09F5798F0D1
:101D8000B92F9927B751B0F0E1F0660F771F881F80
:101D9000991F1AF0BA95C9F714C0B13091F00E949A
:101DA000760DB1E008950C94760D672F782F882773
:101DB000B85F39F0B93FCCF3869577956795B395C1
:101DC000D9F73EF490958095709561957F4F8F4F30
:101DD0009F4F08950E949B0C08F48FEF08950E9476
:101DE0009B0C880B990B08950F931F93CF93DF9350
:101DF0008230910510F482E090E0E091B103F0911F
:101E0000B20330E020E0B0E0A0E0309799F4211573
:101E1000310509F44AC0281B390B24303105D8F5A7
:101E20008A819B816115710589F1FB01938382830E
:101E3000FE0111C040815181028113814817590769
:101E4000E0F04817590799F4109761F012960C9337
:101E5000129713961C933296CF01DF91CF911F9169
:101E60000F9108950093B1031093B203F4CF21159D
:101E7000310551F04217530738F0A901DB019A01EF
:101E8000BD01DF01F801C1CFEF01F9CF9093B2039B
:101E90008093B103CDCFFE01E20FF31F81939193A5
:101EA0002250310939832883D7CF2091AF03309155
:101EB000B003232B41F420910601309107013093A8
:101EC000B0032093AF032091040130910501211547
:101ED000310541F42DB73EB74091080150910901F9
:101EE000241B350BE091AF03F091B003E217F30729
:101EF000A0F42E1B3F0B2817390778F0AC014E5F7A
:101F00005F4F2417350748F04E0F5F1F5093B00303
:101F10004093AF03819391939FCFF0E0E0E09CCF9B
:101F2000CF93DF930097E9F0FC013297138212827E
:101F3000A091B103B091B203ED0130E020E0109721
:101F4000A1F420813181820F931F2091AF03309142
:101F5000B0032817390709F061C0F093B003E0938C
:101F6000AF03DF91CF910895EA01CE17DF07E8F5BF
:101F70004A815B819E0141155105B1F7E901FB835F
:101F8000EA8349915991C40FD51FEC17FD0761F4FD
:101F9000808191810296840F951FE901998388833E
:101FA000828193819B838A83F0E0E0E012968D9199
:101FB0009C9113970097B9F52D913C911197CD0104
:101FC0000296820F931F2091AF033091B003281720
:101FD000390739F6309751F51092B2031092B103D8
:101FE000B093B003A093AF03BCCFD383C28340812F
:101FF0005181840F951FC817D90761F44E5F5F4F59
:1020000088819981480F591F518340838A819B8120
:10201000938382832115310509F0B0CFF093B20389
:10202000E093B1039ECFFD01DC01C0CF1382128289
:10203000D7CFB0E0A0E0EFE1F0E10C947F0D8C0190
:10204000009751F4CB010E94F40E8C01C801CDB76A
:10205000DEB7E0E10C949B0DFC01E60FF71F9C013D
:1020600022503109E217F30708F49DC0D901CD9140
:10207000DC911197C617D70798F0C530D10530F31A
:10208000CE0104978617970708F3C61BD70B229734
:10209000C193D1936D937C93CF010E94900FD6CFC3
:1020A0005B01AC1ABD0A4C018C0E9D1EA091B103C0
:1020B000B091B203512C412CF12CE12C109731F549
:1020C0008091AF039091B0038815990509F05CC029
:1020D0004616570608F058C08091040190910501FA
:1020E000009741F48DB79EB74091080150910901C6
:1020F000841B950BE817F90708F055C0F093B0035F
:10210000E093AF03F90171836083A0CF8D919C911F
:10211000119712966C90129713967C901397A815AE
:10212000B90559F56C0142E0C40ED11CCA14DB0498
:1021300020F1AC014A195B09DA011296159780F07B
:102140006282738251834083D9016D937C93E11441
:10215000F10471F0D7011396FC93EE93129776CFAA
:1021600022968C0F9D1FF90191838083F301EFCF9D
:10217000F093B203E093B10369CF4816590608F40F
:102180002C017D01D3019ACFCB010E94F40E7C017A
:10219000009749F0AE01B8010E94D610C8010E9414
:1021A000900F870153CF10E000E050CFFB01DC011E
:1021B00002C001900D9241505040D8F7089510E0B0
:1021C000CDE5D0E004C0FE010E94D60D2196CE35AB
:0821D000D107C9F7F894FFCF15
:1021D8005E015E010000B303800000000000660598
:1021E80018050D056B056B05910200000000FF0145
:1021F8005F018C014C02BD019B01AF010000000092
:102208002103E5020A059102D602BA0292020000F1
:102218000000F403C7030A059102C003AD039E033F
:1022280000000000BF055F010A0537036E616E00FC
:10223800696E66006F7666004D656D6F7279204134
:102248006C6C6F636174696F6E204661696C65645C
:102258002021000D0A007C6C647255703A20007CC5
:102268006C6472446F776E3A20007C6C64724C65C3
:1022780066743A20007C6C647252696768743A200C
:02228800000054
:00000001FF
