:100000000C9463000C94560E0C942F0E0C94DB0E83
:100010000C94DB0E0C94DB0E0C948B000C94E50E10
:100020000C948B000C948B000C948B000C948B0024
:100030000C948B000C948B000C948B000C948B0014
:100040000C94CB0D0C948B000C94A30E0C947D0E91
:100050000C948B000C948B000C948B000C948B00F4
:100060000C940A0F0C948B00000000002300260063
:10007000290000000000240027002A0000000000E2
:10008000250028002B0004040404040404040202D4
:100090000202020203030303030301020408102007
:1000A0004080010204081020010204081020000012
:1000B0000008000201000003040700000000000027
:1000C0000000B20DEC1011241FBECFEFD8E0DEBF50
:1000D000CDBF23E0A2E8B1E001C01D92AA32B20771
:1000E000E1F711E0A0E0B1E0EAE5FBE202C0059033
:1000F0000D92A238B107D9F710E0C2E6D0E004C0F3
:100100002197FE010E946B12C136D107C9F70E94E8
:10011000260E0C94A0150C9400008330B1F060F012
:100120008730E9F0883009F1843021F5E0E8F0E02B
:1001300080818F7D80830895813069F0823021F441
:1001400084B58F7D84BD08950895E0E8F0E0808156
:100150008F778083089584B58F7784BD0895E0EB11
:10016000F0E080818F7780830895E0EBF0E080817C
:100170008F7D808308951F93CF93DF93282F30E0E6
:10018000F901E255FF4F8491F901E656FF4F1491B2
:10019000F901EA57FF4FC491CC23A9F0D62F811162
:1001A00016C0EC2FF0E0EE0FFF1FE458FF4FA591B3
:1001B000B4918FB7F894D1110DC09C91E12FE095C7
:1001C000E923EC938FBFDF91CF911F9108950E9497
:1001D0008D00E7CFEC91E12BEC93F4CFCF93DF933D
:1001E00090E0FC01E656FF4F24918A579F4FFC0197
:1001F0008491882319F190E0880F991FFC01EE5833
:10020000FF4FA591B491FC01E458FF4FC591D491E3
:10021000662349F06230A9F08FB7F894EC91E22B95
:10022000EC938FBF0BC09FB7F8948C91E22FE095B1
:100230008E238C938881E823E8839FBFDF91CF9141
:1002400008959FB7F8943C91822F809583238C93D7
:10025000E881E22BE8839FBFF1CF789484B5826078
:1002600084BD84B5816084BD85B5826085BD85B55A
:10027000816085BDEEE6F0E0808181608083E1E809
:10028000F0E0108280818260808380818160808341
:10029000E0E8F0E0808181608083E1EBF0E0808144
:1002A00084608083E0EBF0E0808181608083EAE716
:1002B000F0E080818460808380818260808380819F
:1002C000816080838081806880831092C10008955E
:1002D0008230910538F0880F991F880F991F059774
:1002E0000197F1F708953FB7F89480912203909118
:1002F0002303A0912403B091250326B5A89B05C034
:100300002F3F19F00196A11DB11D3FBFBA2FA92F94
:10031000982F8827BC01CD01620F711D811D911D91
:10032000660F771F881F991F660F771F881F991FF9
:1003300008952FB7F89460911E0370911F03809168
:100340002003909121032FBF0895089508958F925F
:100350009F92AF92BF92CF92DF92EF92FF926B018A
:100360007C010E9473014B015C011BC021E0C21A99
:10037000D108E108F10888EE880E83E0981EA11CE0
:10038000B11CC114D104E104F10459F00E947301BD
:10039000681979098A099B09683E734081059105AE
:1003A00028F7C114D104E104F10459F7FF90EF904C
:1003B000DF90CF90BF90AF909F908F900895089559
:1003C000FC0144835583668377830895CF92DF923F
:1003D000EF92FF920F931F93CF93DF938C01DB017A
:1003E000D0E0C0E07A0181E0E81AF108452BA1F0E5
:1003F000F80180819181FC01208131816D01FFEF45
:10040000CF1ADF0A6C91C801F9010995892B21F0F7
:100410002196A701D601E6CFCE01DF91CF911F91A2
:100420000F91FF90EF90DF90CF900895019709F022
:1004300008956F3F7F4FE1F7E0E8F2E01382128208
:1004400088EE93E0A0E0B0E084839583A683B78331
:1004500086E591E09183808385EC90E095878487A1
:1004600084EC90E09787868780EC90E0918B808B7E
:1004700081EC90E0938B828B82EC90E0958B848B67
:1004800086EC90E0978B868B118E128E138E148ED5
:10049000CFCFFC01938D848D981720F4891B990B85
:1004A000019708952FE330E0291B3109820F932F24
:1004B000911D0895FC01918D828D981761F0A28D98
:1004C000AE0FBF2FB11D5D968C91928D9F5F9F7374
:1004D000928F90E008958FEF9FEF0895FC01918D2A
:1004E000828D981731F0828DE80FF11D858D90E097
:1004F00008958FEF9FEF0895FC01218D30E0205C7F
:100500003F4F828DA901481B5109CA018F7399275A
:10051000089580E892E00E947C0221E0892B09F492
:1005200020E0822F0895CF92DF92EF92FF921F93E7
:10053000CF93DF93EC016A017B01122F60E079E039
:100540008DE390E0A70196010E94491221503109E4
:10055000410951095695479537952795E889F989B5
:1005600082E08083C11481EED806E104F10421F019
:10057000211580E1380798F0E889F989108260E850
:1005800074E88EE190E0A70196010E944912215083
:100590003109410951095695479537952795EC85BD
:1005A000FD853083EE85FF852083188EEC89FD89DB
:1005B0001083EA89FB89808180618083EA89FB89D5
:1005C000808188608083EA89FB898081806880835C
:1005D000EA89FB8980818F7D8083DF91CF911F9194
:1005E000FF90EF90DF90CF900895FC01A48DA80FAD
:1005F000B92FB11DA35ABF4F2C91848D90E0019665
:100600008F739078848FA689B7892C93A089B1893C
:100610008C91837080648C93938D848D981308954E
:100620000288F389E02D80818F7D8083F8CF0F933E
:100630001F93CF93DF93EC0181E0888F9B8D8C8D8E
:100640009817B1F0062F8B8D90E001968F739078FC
:10065000182F8C8D81131EC00FB607FCFACFE889C6
:10066000F989808185FFF5CFCE010E94F502F1CF97
:10067000E889F989808185FFE5CF9FB7F894EE89F5
:10068000FF896083E889F989808183708064808331
:100690009FBF10C0EB8DEC0FFD2FF11DE35AFF4FF4
:1006A00000839FB7F8941B8FEA89FB898081806261
:1006B00080839FBF81E090E0DF91CF911F910F91E8
:1006C0000895CF93DF93EC01888D811104C00DC094
:1006D0000FB607FE0DC0EA89FB89808185FDF8CF42
:1006E000A889B9898C9186FFF3CFDF91CF910895C6
:1006F000808185FFF0CFE889F989808185FFEBCF84
:10070000CE010E94F502E7CF80E090E0892B21F036
:100710000E948902811101C008950E940000FCCF4F
:10072000FC01A685B7859C91858589230895DC0108
:100730006C9311967C931197E62FF72FEC30F1050F
:1007400008F05EC0EA55FC4F0C946B12C503D90348
:10075000ED03F703B203BB03C503CF03D903E303E0
:10076000ED03F70312961C92129713961C9213979F
:1007700014961C92089512961C92129713961C922E
:10078000139781E014968C93089512961C921297F9
:1007900081E013968C93139714961C9208951296E9
:1007A0001C92129781E013968C93139714968C9356
:1007B000089581E012968C93129713961C921397CA
:1007C00014961C92089581E012968C9312971396BA
:1007D0001C92139714968C93089581E012968C9333
:1007E000129713968C93139714961C92089581E098
:1007F00012968C93129713968C93139714968C934E
:100800000895FC0115821682478381E080874DE7B9
:1008100052E0528741872387848BCF010E94970340
:1008200008950F931F93CF93DF93EC01062F142F9E
:100830009C858D8520915802222341F03FB7F89482
:1008400020915802213059F1309357029CBD8DBD43
:1008500060E088890E94BB000EBD00000DB407FE59
:10086000FDCF8EB51EBD00000DB407FEFDCF1EB539
:1008700061E088890E94BB0080915802882349F07A
:100880009FB7F89480915802813081F0809157028F
:100890008FBF812FDF91CF911F910F9108952DB3BD
:1008A000209357022DB32DBB3FBFD0CF809157026D
:1008B0008DBB9FBFEECF60680E94110408956F77D3
:1008C00040E00E941104089508950F931F93CF9361
:1008D000DF93EC01E881F9810084F185E02D099531
:1008E000892BB1F06DE0CE010E945F04082F60E01B
:1008F000CE010E945F04182F402F6DE0CE010E94B0
:100900005B04812F90E0DF91CF911F910F910895AB
:100910008FEF9FEFF8CFCF93DF93EC01E881F98160
:100920000084F185E02D0995892B69F08A8D9B8DD6
:1009300001969B8F8A8F60E0CE010E945F0490E059
:10094000DF91CF9108958FEF9FEFFACFCF93DF9391
:10095000EC0163E10E945F0490E02A8D3B8D821BD5
:10096000930BDF91CF910895BF92CF92DF92EF92D8
:10097000FF920F931F93CF93DF937C016B018A014A
:1009800062E20E945F04B82E90E09C01200F311FAC
:100990002F3F310529F020F00FEF10E0081B190B55
:1009A000D0E0C0E0C017D10750F4F601EC0FFD1FF6
:1009B000408160E0C7010E945B042196F3CF4B2D7C
:1009C000400F62E2C7010E945B04C801DF91CF9132
:1009D0001F910F91FF90EF90DF90CF90BF900895FF
:1009E000CF93DF931F92CDB7DEB76983DC01ED9122
:1009F000FC910280F381E02D41E050E0BE016F5F89
:100A00007F4F09950F90DF91CF910895FC011382DC
:100A1000128288EE93E0A0E0B0E084839583A68301
:100A2000B78384E491E09183808380E5848781E0CB
:100A300085878DE792E0978786878AE090E0918BA3
:100A4000808B89E090E0938B828B82E090E0958BA5
:100A5000848B168A178A108E118E138E128E158E25
:100A6000148E178E168E11A210A213A212A240E0AD
:100A700050E0BA01CF010E94E0010895019709F00A
:100A800008956F3F7F4FE1F789E592E00E940605E8
:100A9000F7CFFC0182E190E09287818783E190E0CB
:100AA00094878387178682E0808B128A118A138A43
:100AB000148A158A168A178A108E118E128E138E3A
:100AC000148E158E168E178E10A211A213A212A2CA
:100AD0008AE090E095A384A38BE486A381EE87A3AC
:100AE00010A68BE492E09687858760870895FC01C5
:100AF00083858F3F11F00E94BB000895FC01808127
:100B00009181892B69F080915802882349F09FB721
:100B1000F89480915802813021F0809157028FBF64
:100B20000895809157028DBB9FBF0895CF93DF93A7
:100B3000EC0161E070E00E947705CE010E947E0525
:100B4000DF91CF910895DC012D913C911197232BDA
:100B500099F01296ED91FC9190818181209158023B
:100B6000222341F03FB7F89420915802213029F018
:100B7000309357029CBD8DBD08952DB3209357022D
:100B80002DB32DBB3FBFF6CFCF93DF93EC010E9477
:100B9000A30570E060E0CE010E947705DF91CF9160
:100BA00008954F925F926F927F928F929F92AF9231
:100BB000BF92CF92DF92EF92FF920F931F93CF934A
:100BC000DF93EC015B014A0188819981892BE1F473
:100BD00088859985892B09F044C044244394F50104
:100BE00080818421552453948111512C2C813D8185
:100BF0004E815F8160E271EA87E090E00E944912D5
:100C0000022FD12CC12CC4C0452BD1F0FB01808117
:100C10008EBDF1E08F1A910869F0F50191810DB454
:100C200007FEFDCF8EB59EBDF5018083C5010196FF
:100C30005C01EFCF0DB407FEFDCF8EB5F5018083CB
:100C4000DF91CF911F910F91FF90EF90DF90CF90A8
:100C5000BF90AF909F908F907F906F905F904F90DC
:100C600008956894442447F8BACF802F90E00E94FA
:100C700068013DC0912F962181E009F480E02D8527
:100C80002F3F61F0581651F0992309F45DC0EF85AC
:100C9000F88990812F89922B9083582EE989FA89BF
:100CA0008081998D892B8083011157C08E858F3F5C
:100CB00039F0EB89FC898081988D892309F0712AAC
:100CC000E989FA899081898D8095892380838E8531
:100CD0008F3F11F0F701708288859985892B09F083
:100CE0004EC0110F112309F450C00111BECF8A85E7
:100CF000882309F4BFCF883009F4BCCFE989FA8989
:100D00008081998D892B808301112CC08D858F3F27
:100D100049F0812F862159F1EF85F88980819F89DB
:100D2000892B8083E989FA899081898D809589232F
:100D300080838E858F3F59F2EB89FC898081988D65
:100D4000892329F2712AC3CFEF85F88920819F89F1
:100D5000909592239083582EA1CF802F90E00E94EF
:100D60006801A4CF802F90E00E946801CFCFEF856B
:100D7000F88990818F89809589238083D3CF812FB3
:100D800090E095958795182FADCFFFEFCF1ADF0A2A
:100D9000C814D90408F054CF7501EC0CFD1CF70100
:100DA0006080142D712C9ECFCF93DF931F92CDB70F
:100DB000DEB7698341E050E0BE016F5F7F4F0E9464
:100DC000D10589810F90DF91CF9108956F927F9225
:100DD0008F929F92AF92BF92CF92DF92EF920F933A
:100DE0001F93CF93DF936C014B01EA0159010E94DD
:100DF000C405712C612C6C167D0658F4F401E60DC7
:100E0000F71D6081C6010E94D4068FEF681A780A28
:100E1000F2CFD0E0C0E0C017D10758F445018C0EE6
:100E20009D1E6E2DC6010E94D406F401808321967A
:100E3000F2CFC6010E94960581E0DF91CF911F910C
:100E40000F91EF90DF90CF90BF90AF909F908F90D9
:100E50007F906F900895EF920F931F93CF93DF933E
:100E60001F92CDB7DEB76F776983022F10E0EE24B3
:100E7000EA949A0141E050E0BE016F5F7F4F0E940B
:100E8000E6060F90DF91CF911F910F91EF9008959B
:100E9000CF93DF9300D0CDB7DEB719821A8222E05C
:100EA000AE014F5F5F4F0E942B0799818A810F909F
:100EB0000F90DF91CF910895CF93DF931F92CDB71D
:100EC000DEB7198221E0AE014F5F5F4F0E942B0712
:100ED00089810F90DF91CF9108958F929F92AF9269
:100EE000BF92CF92DF92EF92FF920F931F93CF9317
:100EF000DF937C015B016A01E9010E94C405912C2A
:100F0000812C8016910658F4FE01E80DF91D6081D0
:100F1000C7010E94D4068FEF881A980AF2CFD0E05A
:100F2000C0E0CC15DD0548F4F501EC0FFD1F608134
:100F3000C7010E94D4062196F4CFC7010E949605EE
:100F400081E0DF91CF911F910F91FF90EF90DF90A3
:100F5000CF90BF90AF909F908F9008950F931F9365
:100F6000CF93DF9300D0CDB7DEB7606869834A8343
:100F700010E000E030E020E042E050E0BE016F5FB2
:100F80007F4F0E946D070F900F90DF91CF911F91BF
:100F90000F9108950F931F93CF93DF93EC018B0173
:100FA00060E00E945C070130110559F0482F4F7E28
:100FB00060E0CE010E94AE07DF91CF911F910F91AB
:100FC0000895482F4061F4CFFF920F931F93CF9362
:100FD000DF93EC01F72E042F152F462F66E00E94B9
:100FE000AE074F2D65E0CE010E94AE07402F64E0B2
:100FF000CE010E94AE07412F63E0CE010E94AE07F2
:10100000DF91CF911F910F91FF9008951F93CF9380
:10101000DF93EC01162F60E00E945C0711110AC0FB
:10102000482F4F7B60E0CE010E94AE07DF91CF9149
:101030001F910895482F4064F5CF1F93CF93DF93FE
:10104000EC01162F60E00E945C0711110AC0482FC6
:101050004F7760E0CE010E94AE07DF91CF911F91E4
:101060000895482F4068F5CFCF93DF93EC0160E0FF
:101070000E945C07837D482F426060E0CE010E94A1
:10108000AE07DF91CF9108950F931F93CF93DF9316
:10109000EC010E94340861E0CE010E941D086AE064
:1010A00070E080E090E00E94A70160E0CE010E9425
:1010B0005C07482F406260E0CE010E94AE0761E409
:1010C00070E080E090E00E94A70161E0CE010E9404
:1010D00048078C0160E0CE010E941D08C80196956A
:1010E0008795DF91CF911F910F9108958F92AF92C5
:1010F000BF92CF92DF92EF92FF920F931F93CF9305
:10110000DF93CDB7DEB7DC0111961C921E921396C9
:101110001C921E9212971B966C931B971C964C93D5
:101120001C971E962C931E971D960C931D97062EAA
:10113000000C770BFB01EA57FF4FE491F0E0EE0F54
:10114000FF1FE458FF4F8591949156969C938E9380
:10115000559766567F4FFB0164915A966C935A9748
:101160000F3FC9F0002E000C110BF801EA57FF4F9A
:10117000E491F0E0EE0FFF1FE458FF4F859194914A
:1011800050969C938E931F9706561F4FF80104911B
:1011900057960C9357972F3FC9F0022E000C330B34
:1011A000F901EA57FF4FE491F0E0EE0FFF1FE85915
:1011B000FF4F8591949154969C938E935397265606
:1011C0003F4FF901249158962C935897042E000C08
:1011D000550BFA01EA57FF4FE491F0E0EE0FFF1FC5
:1011E000E458FF4F8591949152969C938E9351971A
:1011F00046565F4FFA01449159964C93599714966D
:10120000CD92DD92ED92FC9217971996BC92AE9218
:1012100018971A968C921A975B961C92DF91CF9131
:101220001F910F91FF90EF90DF90CF90BF90AF9004
:101230008F9008958F92AF92BF92CF92DF92EF92EC
:10124000FF920F93302F6894882482F8AA24A394E5
:10125000B12C0F2EF0E4CF2EF2E4DF2EFFE0EF2EC4
:10126000F12CF02D042F432F0E9476080F91FF9050
:10127000EF90DF90CF90BF90AF908F9008959FB781
:10128000F89480914A02882319F0815080934A0291
:1012900080914A02811105C08CB58F7B8CBD109264
:1012A00058029FBF0895CF93CFB7F89480914A0218
:1012B000811123C0E0E9F0E08491E4EAF0E0949148
:1012C000E82FF0E0EE0FFF1FEE58FF4FA591B4910D
:1012D000EC91E923D1F061E08AE00E94EE008CB548
:1012E00080618CBD8CB580648CBD61E08DE00E9416
:1012F000EE0061E08BE00E94EE0080914A028F5F79
:1013000080934A02CFBFCF91089561E08AE00E94A6
:10131000BB00E1CFCF93DF93EC018B858F3F59F476
:1013200088819981892B79F00E94530981E08B8F04
:10133000DF91CF91089561E00E94EE0061E08B851E
:101340000E94BB00EDCF61E08C850E94EE008A8593
:10135000882311F0843071F460E08C850E94BB001A
:101360008D858F3F61F48E858F3F01F360E00E9491
:10137000EE00DCCF61E08C850E94BB00F1CF61E024
:101380000E94EE0061E08D850E94BB00ECCF0F93C0
:101390001F93CF93DF93EC018B010E948A09B80160
:1013A000CE010E94CA0760E0CE010E941D0860E0E5
:1013B000CE010E9406084FEF5FEF70E060E0CE01C3
:1013C0000E94E407CE010E94340881E0DF91CF91B2
:1013D0001F910F91089585EC8093BC001092240218
:1013E0000895811104C085E88093BC00089585ECC0
:1013F0008093BC000895AC0120910002260F332792
:10140000331F21323105F4F4809124028430E1F459
:1014100090E00FC0E0910002292F30E0E20FF32F9F
:10142000F11D240F351FD9012C91E052FE4F20836E
:101430009F5F961778F380910002680F6093000217
:1014400080E0089581E0089582E00895ECEBF0E0FB
:1014500080818A7B808360E082E10E94BB0060E043
:1014600083E10E94BB0008951092240281E08093E2
:1014700026021092250261E082E10E94BB0061E039
:1014800083E10E94BB00E9EBF0E080818E7F8083E6
:1014900080818D7F808388E48093B80085E4809389
:1014A000BC000895EF92FF920F931F93CF93DF93A9
:1014B00091E09093DF01811107C0DF91CF911F91DF
:1014C0000F91FF90EF900895C8EBD0E0F8800AEB01
:1014D00010E0F801E0800E94260A0E94340AF80118
:1014E000E082F882EACF08958FEF9FEF08958FEFA3
:1014F0009FEF08958091D90190E091958195910990
:101500000895CF93DF93CB01C42FD52F642F0E9472
:10151000FB098C2F9D2FDF91CF910895CF93DF93FF
:101520001F92CDB7DEB7698361E0CE0101960E94BC
:10153000FB0981E090E00F90DF91CF910895FC01CD
:101540001382128288EE93E0A0E0B0E0848395835A
:10155000A683B78382E391E0918380830895019706
:1015600009F008956F3F7F4FE1F78BE492E00E940E
:101570009F0AF7CF90E080E00895FC01868D978D5B
:10158000A0A1B1A1FB0180839183A283B3830895BD
:1015900008956F927F928F929F92AF92BF92CF9257
:1015A000DF92EF92FF920F93CF93DF93CDB7DEB729
:1015B0004C0180E291E0F401819391933F01CF01CE
:1015C0000E941A098EE091E0F40191838083168EC7
:1015D000178E10A211A2A2A2B3A2C4A2D5A288897A
:1015E0009989AA89BB8986A397A3A0A7B1A712A6A8
:1015F00013A614A615A6B701C3010E94C709DF915F
:10160000CF910F91FF90EF90DF90CF90BF90AF9070
:101610009F908F907F906F900895FC0180819181C1
:1016200070E0660F771F680F791FFB018081918141
:1016300008950F931F93CF938C016115710511F0DD
:10164000FB010995D8018D919C91892BC9F0C0E0CF
:10165000F8018281C817A0F40190F081E02D8C2F51
:1016600090E0880F991FE80FF91F80819181DC01BC
:10167000ED91FC910280F381E02D0995CF5FE8CFD9
:10168000CF911F910F910895FC0111821082128257
:1016900008950895089508950895089570E060E00C
:1016A0008AE891E00E94190B60E08AE891E00E94CC
:1016B0000D0BDC01ED91FC910480F581E02D66E8D5
:1016C00071E0099508950E94B01308950E94921543
:1016D0006115710581F0FB0101900020E9F7319758
:1016E000AF01461B570BDC01ED91FC910280F381A9
:1016F000E02D0995089590E080E0089564E671E09A
:101700000E94680B08950E94680B08950F931F9321
:10171000CF93DF93EC010E94830B8C01CE010E94DA
:101720007E0B800F911FDF91CF911F910F91089534
:10173000CF93DF93EC01888581110BC08C859D854B
:101740000E944C148E859F850E944C14DF91CF918E
:1017500008950E943F09F2CFFC018081918100979A
:1017600011F00E944C1408950F931F93CF93DF93B1
:10177000EC018B01019751F0CD2B19F40F3F1F4F56
:10178000D1F0DF91CF911F910F9108956F3F7F4F5F
:1017900099F769E38FEA91E00E94490524E045E169
:1017A00061E070E08DE891E00E9401048AE891E038
:1017B0000E94440BE1CF8AE891E00E94AC0B8DE8D7
:1017C00091E00E94980BDDCF4F925F926F927F92D3
:1017D0008F929F92AF92BF92CF92DF92EF92FF9241
:1017E0000F931F9349015A01670190E080E00E9426
:1017F000F31020E030E040E058E30E945411A801CB
:1018000096010E9454112B013C01A50194016FE740
:1018100075E08BE196EB0E94DE129B01AC01C301E7
:10182000B2010E94541126E133E843E957E30E94D4
:1018300072120E945B1322E331E140E85BE30E94F5
:1018400071122FE735E04BE955EB0E94DE126B0178
:101850007C0120E030E0A9010E94501388238CF025
:10186000C701B6011F910F91FF90EF90DF90CF90CD
:10187000BF90AF909F908F907F906F905F904F90B0
:101880000895A5019401C301B2010E94DE1220E077
:1018900030E048EC52E40E9454116B017C012BE5CE
:1018A00032E44EE050E40E9454112FE135E042E76B
:1018B00053E40E9471122B013C01A7019601C7015C
:1018C000B6010E9454114B015C0124E338E749E260
:1018D0005BE30E945411A30192010E9472122B013A
:1018E0003C01A5019401C701B6010E9454114B01AE
:1018F0005C0126E03FEE41EA56E30E9454119B0151
:10190000AC01C301B2010E9471122B013C01A5017F
:101910009401C701B6010E9454114B015C0123E1FF
:1019200037E142EF52E30E9454119B01AC01C30125
:10193000B2010E9471122B013C01A5019401C70163
:10194000B6010E9454112BE339E947E25FE20E949D
:101950005411A30192010E9472126B017C0180CF8D
:101960008F929F92AF92BF92CF92DF92EF92FF92AF
:101970000F931F93CF93DF93EC014A015B01680142
:1019800079010E94440887017601A5019401BC01F8
:10199000CE010E94E40BDF91CF911F910F91FF9038
:1019A000EF90DF90CF90BF90AF909F908F90089571
:1019B0000F931F93CF93DF93EC010E9499010AA527
:1019C0001BA52CA53DA5601B710B820B930B643FDF
:1019D00071408105910528F4DF91CF911F910F91FE
:1019E00008950EA11FA128A539A54AA15BA16CA14C
:1019F0007DA1CE0102960E94B00C6E8F7F8F88A3CE
:101A000099A30E9499016AA77BA78CA79DA7E4CF01
:101A100085ED8093BC004091DB015091DC01609129
:101A2000DD017091DE01495F5F4F6F4F7F4F68941A
:101A300012F876956795579547951694D1F780914A
:101A4000BC0084FF1FC08091DB019091DC01A0915C
:101A5000DD01B091DE01892B8A2B8B2B81F341159F
:101A600051056105710549F085E38A95F1F700009C
:101A70004150510961097109E2CF8091DA010E9458
:101A8000520A08951092240208950F931F93CF9342
:101A9000DF93EC018B016A8170E06F5F7F4F660F0F
:101AA000771F888199810E94D514009799F09983B6
:101AB00088832A81422F50E0440F551F840F951FC1
:101AC000FC01118300832F5F2A83DF91CF911F9147
:101AD0000F91089567E671E080E892E00E94860B1E
:101AE000F4CFAF92BF92CF92DF92EF92FF920F931B
:101AF000CF93DF9326E040E855E260E070E080E8B5
:101B000092E00E9493028EE290E00E94630BEC014F
:101B100082E48F9388EC8F931F921F920F2EA12C3B
:101B2000B12CF7EDCF2EF3E4DF2EF02DF12CE12CCC
:101B300001E024E043E062E0CE010E94C90ABE0158
:101B40008AE891E00E94450D0F900F900F900F9042
:101B5000DF91CF910F91FF90EF90DF90CF90BF90EA
:101B6000AF9008956FEF7FEF81E090E00E94160242
:101B70006FEF7FEF81E090E00E943E056FEF7FEF17
:101B800081E090E00E94AF0A6FEF7FEF81E090E08C
:101B90000E94B40B08951F920F920FB60F9211245A
:101BA0000F931F932F933F934F935F936F937F9365
:101BB0008F939F93AF93BF9300911E0310911F03C8
:101BC000209120033091210390911D03B901A801B8
:101BD0004F5F5F4F6F4F7F4F83E0890F8D3740F02E
:101BE00086E8890FB901A8014E5F5F4F6F4F7F4FA5
:101BF00080931D0340931E0350931F0360932003A3
:101C0000709321038091220390912303A0912403D8
:101C1000B09125030196A11DB11D809322039093DD
:101C20002303A0932403B0932503BF91AF919F9109
:101C30008F917F916F915F914F913F912F911F9164
:101C40000F910F900FBE0F901F9018950E942D01BD
:101C50000E94710D0E944E0B0E948403FBCF1F92C5
:101C60000F920FB60F9211242F933F934F935F93D0
:101C70006F937F938F939F93AF93BF93EF93FF9354
:101C8000E0910201F09103010995FF91EF91BF915D
:101C9000AF919F918F917F916F915F914F913F9104
:101CA0002F910F900FBE0F901F9018951F920F92BB
:101CB0000FB60F9211242F933F934F935F936F931F
:101CC0007F938F939F93AF93BF93EF93FF93E09195
:101CD0000001F09101010995FF91EF91BF91AF9142
:101CE0009F918F917F916F915F914F913F912F9134
:101CF0000F900FBE0F901F9018951F920F920FB666
:101D00000F9211242F933F934F935F936F937F9381
:101D10008F939F93AF93BF93EF93FF9380E892E0ED
:101D20000E94F502FF91EF91BF91AF919F918F912A
:101D30007F916F915F914F913F912F910F900FBEC7
:101D40000F901F9018951F920F920FB60F921124AB
:101D50002F938F939F93AF93BF93EF93FF93E09154
:101D60009002F0919102808182FD14C0E0E8F2E0DF
:101D7000A689B7892C91818D8F5F8F73928D89177A
:101D800071F0DF01E18DF0E0E058FD4F258F5996AD
:101D90008C9305C0E0919602F09197028081FF91AB
:101DA000EF91BF91AF919F918F912F910F900FBEA7
:101DB0000F901F9018951F920F920FB60F9211243B
:101DC0000F900FBE0F901F9018951F920F920FB695
:101DD0000F9211242F933F934F935F936F937F93B1
:101DE0008F939F93AF93BF93EF93FF93F0E0E0E067
:101DF0000995FF91EF91BF91AF919F918F917F9145
:101E00006F915F914F913F912F910F900FBE0F9067
:101E10001F9018951F920F920FB60F9211242F93B7
:101E20003F934F935F936F937F938F939F93AF9362
:101E3000BF93EF93FF93E091B900E87FE93C08F08E
:101E4000D5C0F0E0EA5DF04F0C946B12E710F60F8E
:101E5000F60FF60FF60FF60FF60FF60FEF0FF60F61
:101E6000F60FF60FF60FF60FF60FF60FEF0FF60F51
:101E7000F60FF60FF60FF60FF60FF60F0710F60F28
:101E8000F60FF60FF60FF60FF60FF60F2D10F60FF2
:101E9000F60FF60FF60FF60FF60FF60F0710F60F08
:101EA000F60FF60FF60FF60FF60FF60F3310F60FCC
:101EB000F60FF60FF60FF60FF60FF60F3910F60FB6
:101EC000F60FF60FF60FF60FF60FF60F4B10F60F94
:101ED000F60FF60FF60FF60FF60FF60F7510F60F5A
:101EE000F60FF60FF60FF60FF60FF60F3F10F60F80
:101EF000F60FF60FF60FF60FF60FF60F5910F60F56
:101F0000F60FF60FF60FF60FF60FF60F7810F60F26
:101F1000F60FF60FF60FF60FF60FF60F7810F60F16
:101F2000F60FF60FF60FF60FF60FF60F7810F60F06
:101F3000F60FF60FF60FF60FF60FF60F7810F60FF6
:101F4000F60FF60FF60FF60FF60FF60F8110F60FDD
:101F5000F60FF60FF60FF60FF60FF60FB010F60F9E
:101F6000F60FF60FF60FF60FF60FF60F8110F60FBD
:101F7000F60FF60FF60FF60FF60FF60FB010F60F7E
:101F8000F60FF60FF60FF60FF60FF60F9910F60F85
:101F9000F60FF60FF60FF60FF60FF60FB410F60F5A
:101FA000F60FF60FF60FF60FF60FF60FB410F60F4A
:101FB000F60FF60FF60FF60FF60FF60FC710F60F27
:101FC000F60FF60FF60FF60FF60FF60FE110F60FFD
:101FD000F60FF60FF60FF60FF60FF60FE1108091E1
:101FE00049028093BB0081E00E94F109FF91EF91CB
:101FF000BF91AF919F918F917F916F915F914F9121
:102000003F912F910F900FBE0F901F9018959091B8
:10201000480280914702981768F08091260281114A
:1020200019C081E08093250284EA8093BC0010925D
:102030002402DCCFE091480281E08E0F80934802B9
:10204000F0E0E95DFD4F80818093BB0081E00E945C
:10205000F109CCCF0E94080DC9CF80E28093230202
:102060000E94080DC3CF80E3809323020E94080DD5
:10207000BDCF88E3809323020E94EB09B7CFE091A4
:10208000480281E08E0F80934802F0E08091BB000F
:10209000E95DFD4F80839091480280914702981737
:1020A00020F481E00E94F109A1CF80E00E94F109B3
:1020B0009DCFE091480281E08E0F80934802F0E0CE
:1020C0008091BB00E95DFD4F8083809126028111E4
:1020D00009C081E08093250284EA8093BC001092BD
:1020E000240284CF0E94080D81CF0E94080D7ECF6C
:1020F00083E0809324021092220281E00E94F10981
:1021000075CF80912202803280F4E091220281E03A
:102110008E0F80932202F0E08091BB00EE5FFD4FB6
:10212000808381E00E94F10961CF80E00E94F10983
:102130005DCF0E94EB0980912202803230F4E09161
:102140002202F0E0EE5FFD4F10826091220270E00B
:1021500082E092E0F0E0E0E009951092220246CFA2
:1021600080E00E94F10942CF84E080932402109223
:10217000010210920002F0E0E0E009958091000277
:10218000811105C081E0809300021092E001E0918E
:10219000010281E08E0F80930102F0E0E052FE4FD9
:1021A00080818093BB00909101028091000298177A
:1021B00020F481E00E94F10919CF80E00E94F1092A
:1021C00015CF81E00E94F109109224020FCF1092E6
:1021D00023020E94080D0ACF6FEF7FEF90E080E0AE
:1021E0000E94B40B0895E89409C097FB3EF49095C3
:1021F0008095709561957F4F8F4F9F4F9923A9F0E0
:10220000F92F96E9BB279395F6958795779567956E
:10221000B795F111F8CFFAF4BB0F11F460FF1BC0B2
:102220006F5F7F4F8F4F9F4F16C0882311F096E945
:1022300011C0772321F09EE8872F762F05C06623F3
:1022400071F096E8862F70E060E02AF09A95660FAC
:10225000771F881FDAF7880F9695879597F9089565
:10226000990F0008550FAA0BE0E8FEEF16161706A7
:10227000E807F907C0F012161306E407F50798F00F
:10228000621B730B840B950B39F40A2661F0232B28
:10229000242B252B21F408950A2609F4A140A695A4
:1022A0008FEF811D811D08950E9467110C94D81134
:1022B0000E94CA1138F00E94D11120F0952311F02C
:1022C0000C94C1110C94C71111240C940C120E948F
:1022D000E91170F3959FC1F3950F50E0551F629F70
:1022E000F001729FBB27F00DB11D639FAA27F00D6F
:1022F000B11DAA1F649F6627B00DA11D661F829F96
:102300002227B00DA11D621F739FB00DA11D621F7A
:10231000839FA00D611D221F749F3327A00D611D97
:10232000231F849F600D211D822F762F6A2F112479
:102330009F5750409AF0F1F088234AF0EE0FFF1FAC
:10234000BB1F661F771F881F91505040A9F79E3F03
:10235000510580F00C94C1110C940C125F3FE4F312
:10236000983ED4F3869577956795B795F795E79559
:102370009F5FC1F7FE2B880F911D9695879597F962
:10238000089597F99F6780E870E060E008959FEFF7
:1023900080EC089500240A941616170618060906FC
:1023A000089500240A9412161306140605060895CB
:1023B000092E0394000C11F4882352F0BB0F40F453
:1023C000BF2B11F460FF04C06F5F7F4F8F4F9F4F93
:1023D000089557FD9058440F551F59F05F3F71F015
:1023E0004795880F97FB991F61F09F3F79F087957C
:1023F0000895121613061406551FF2CF4695F1DF05
:1024000008C0161617061806991FF1CF8695710594
:10241000610508940895E894BB2766277727CB01C8
:1024200097F908952F923F924F925F926F927F9209
:102430008F929F92AF92BF92CF92DF92EF92FF92D4
:102440000F931F93CF93DF93CDB7DEB7CA1BDB0B80
:102450000FB6F894DEBF0FBECDBF09942A88398825
:1024600048885F846E847D848C849B84AA84B9842C
:10247000C884DF80EE80FD800C811B81AA81B98138
:10248000CE0FD11D0FB6F894DEBF0FBECDBFED014C
:102490000895A1E21A2EAA1BBB1BFD010DC0AA1FA5
:1024A000BB1FEE1FFF1FA217B307E407F50720F0BD
:1024B000A21BB30BE40BF50B661F771F881F991F38
:1024C0001A9469F760957095809590959B01AC0181
:1024D000BD01CF010895EE0FFF1F0590F491E02D8F
:1024E00009945058BB27AA270E9489120C94D8112E
:1024F0000E94CA1138F00E94D11120F039F49F3F98
:1025000019F426F40C94C7110EF4E095E7FB0C9433
:10251000C111E92F0E94E91158F3BA176207730736
:102520008407950720F079F4A6F50C940B120EF4AD
:10253000E0950B2EBA2FA02D0B01B90190010C01D3
:10254000CA01A0011124FF27591B99F0593F50F4EB
:10255000503E68F11A16F040A22F232F342F442743
:10256000585FF3CF469537952795A795F04053953B
:10257000C9F77EF41F16BA0B620B730B840BBAF00B
:102580009150A1F0FF0FBB1F661F771F881FC2F776
:102590000EC0BA0F621F731F841F48F4879577958A
:1025A0006795B795F7959E3F08F0B0CF9395880F44
:1025B00008F09927EE0F9795879508950E94F212DB
:1025C0000C94D8110E94D11158F00E94CA1140F009
:1025D00029F45F3F29F00C94C11151110C940C1295
:1025E0000C94C7110E94E91168F39923B1F35523A4
:1025F00091F3951B550BBB27AA2762177307840716
:1026000038F09F5F5F4F220F331F441FAA1FA9F3AB
:1026100035D00E2E3AF0E0E832D091505040E69599
:10262000001CCAF72BD0FE2F29D0660F771F881FFA
:10263000BB1F261737074807AB07B0E809F0BB0BED
:10264000802DBF01FF2793585F4F3AF09E3F510501
:1026500078F00C94C1110C940C125F3FE4F3983E97
:10266000D4F3869577956795B795F7959F5FC9F7EA
:10267000880F911D9695879597F90895E1E0660F6B
:10268000771F881FBB1F621773078407BA0720F0E4
:10269000621B730B840BBA0BEE1F88F7E09508954D
:1026A0000E94301108F48FEF089519F416F40C9479
:1026B000C7110C949B130E94F111B8F39923C9F32D
:1026C000B6F39F57550B87FF0E94A9130024A0E67D
:1026D00040EA900180585695979528F4805C660FE3
:1026E000771F881F20F026173707480730F4621B32
:1026F000730B840B202931294A2BA6951794079434
:10270000202531254A2758F7660F771F881F20F0AC
:1027100026173707480730F4620B730B840B200D24
:10272000311D411DA09581F7B901842F9158880F63
:102730009695879508959F3F31F0915020F48795A5
:1027400077956795B795880F911D9695879597F919
:10275000089591505040660F771F881FD2F7089553
:102760000F931F93CF93DF938230910510F482E093
:1027700090E0E0912803F091290330E020E0B0E000
:10278000A0E0309799F42115310509F44AC0281BBF
:10279000390B24303105D8F58A819B81611571058B
:1027A00089F1FB0193838283FE0111C04081518135
:1027B0000281138148175907E0F04817590799F427
:1027C000109761F012960C93129713961C93329601
:1027D000CF01DF91CF911F910F91089500932803AE
:1027E00010932903F4CF2115310551F042175307F7
:1027F00038F0A901DB019A01BD01DF01F801C1CF69
:10280000EF01F9CF9093290380932803CDCFFE01E8
:10281000E20FF31F8193919322503109398328836A
:10282000D7CF2091260330912703232B41F4209109
:10283000060130910701309327032093260320914E
:102840000401309105012115310541F42DB73EB742
:102850004091080150910901241B350BE09126039A
:10286000F0912703E217F307A0F42E1B3F0B281764
:10287000390778F0AC014E5F5F4F2417350748F0F9
:102880004E0F5F1F5093270340932603819391932C
:102890009FCFF0E0E0E09CCFCF93DF930097E9F08B
:1028A000FC01329713821282A0912803B091290370
:1028B000ED0130E020E01097A1F420813181820FFA
:1028C000931F20912603309127032817390709F019
:1028D00061C0F0932703E0932603DF91CF91089521
:1028E000EA01CE17DF07E8F54A815B819E014115B9
:1028F0005105B1F7E901FB83EA8349915991C40F6E
:10290000D51FEC17FD0761F4808191810296840F39
:10291000951FE90199838883828193819B838A83B0
:10292000F0E0E0E012968D919C9113970097B9F535
:102930002D913C911197CD010296820F931F20910A
:102940002603309127032817390739F6309751F5B8
:102950001092290310922803B0932703A093260313
:10296000BCCFD383C28340815181840F951FC81788
:10297000D90761F44E5F5F4F88819981480F591FD5
:10298000518340838A819B81938382832115310502
:1029900009F0B0CFF0932903E09328039ECFFD0107
:1029A000DC01C0CF13821282D7CFB0E0A0E0EBED04
:1029B000F4E10C9414128C01009751F4CB010E94A5
:1029C000B0138C01C801CDB7DEB7E0E10C94301232
:1029D000FC01E60FF71F9C0122503109E217F307B3
:1029E00008F49DC0D901CD91DC911197C617D70786
:1029F00098F0C530D10530F3CE01049786179707BC
:102A000008F3C61BD70B2297C193D1936D937C9388
:102A1000CF010E944C14D6CF5B01AC1ABD0A4C0109
:102A20008C0E9D1EA0912803B0912903512C412C9E
:102A3000F12CE12C109731F580912603909127031A
:102A40008815990509F05CC04616570608F058C06D
:102A50008091040190910501009741F48DB79EB7D4
:102A60004091080150910901841B950BE817F90763
:102A700008F055C0F0932703E0932603F901718312
:102A80006083A0CF8D919C91119712966C901297B4
:102A900013967C901397A815B90559F56C0142E07F
:102AA000C40ED11CCA14DB0420F1AC014A195B0925
:102AB000DA011296159780F0628273825183408307
:102AC000D9016D937C93E114F10471F0D701139651
:102AD000FC93EE93129776CF22968C0F9D1FF901EF
:102AE00091838083F301EFCFF0932903E0932803D0
:102AF00069CF4816590608F42C017D01D3019ACFFD
:102B0000CB010E94B0137C01009749F0AE01B801DF
:102B10000E949715C8010E944C14870153CF10E002
:102B200000E050CF81E090E0F8940C94A015FB01F8
:102B3000DC0102C001900D9241505040D8F7089539
:102B400010E0C2E6D0E004C0FE010E946B122196A4
:0A2B5000C336D107C9F7F894FFCF90
:102B5A00DF01DF0100002A03800000000000C80A2C
:102B6A00D80CBD0A4C0B4B0B4A0B490B000000005A
:102B7A00660B660B4D0B4C0B4B0B4A0B490B0000BB
:102B8A0000008E0A810ABA0A730A7A0A770A740A54
:102B9A0000000000F004B404BA0A6404A6048B041A
:102BAA006504000000001703E601490261037C0284
:102BBA005A026E020D0A004D656D6F727920416CE2
:102BCA006C6F636174696F6E204661696C6564201D
:022BDA002100D8
:00000001FF
