:100000000C9462000C948A000C948A000C94B20C3C
:100010000C94B20C0C94B20C0C948A000C948A00D0
:100020000C948A000C948A000C948A000C948A0028
:100030000C948A000C948A000C948A000C948A0018
:100040000C94100C0C948A000C94800C0C945A0C98
:100050000C948A000C948A000C948A000C948A00F8
:100060000C94BC0C0C948A000000000023002600B5
:10007000290000000000240027002A0000000000E2
:10008000250028002B0004040404040404040202D4
:100090000202020203030303030301020408102007
:1000A0004080010204081020010204081020000012
:1000B0000008000201000003040700000000000027
:1000C0000000DB0D11241FBECFEFD8E0DEBFCDBF97
:1000D00023E0A6E7B1E001C01D92AB31B207E1F722
:1000E00011E0A0E0B1E0E2EDF2E202C005900D9275
:1000F000A637B107D9F710E0C2E6D0E004C02197D7
:10010000FE010E94C00FC136D107C9F70E94260E1A
:100110000C9467110C9400000895089590E0FC0180
:10012000E255FF4F2491FC01E656FF4F3491FC014C
:10013000EA57FF4FE491EE23C9F0222339F0233030
:1001400001F1A8F4213019F1223029F1F0E0EE0F8D
:10015000FF1FE458FF4FA591B4918FB7F894EC912D
:10016000611126C030953E233C938FBF0895273000
:10017000A9F02830C9F0243049F7809180008F7DA4
:1001800003C0809180008F7780938000DFCF84B59B
:100190008F7784BDDBCF84B58F7DFBCF8091B0009E
:1001A0008F778093B000D2CF8091B0008F7DF9CF50
:1001B0003E2BDACFCF93DF9390E0FC01E656FF4F62
:1001C00024918A579F4FFC0184918823D1F090E0BD
:1001D000880F991FFC01EE58FF4FA591B491FC01C7
:1001E000E458FF4FC591D491623071F49FB7F894F1
:1001F0003C91822F809583238C93E8812E2B28833A
:100200009FBFDF91CF9108958FB7F894EC912E2B7B
:100210002C938FBFF6CF3FB7F8948091D101909186
:10022000D201A091D301B091D40126B5A89B05C0FD
:100230002F3F19F00196A11DB11D3FBFBA2FA92F65
:10024000982F8827BC01CD01620F711D811D911D62
:1002500042E0660F771F881F991F4A95D1F70895CE
:100260008F929F92AF92BF92CF92DF92EF92FF92C6
:100270004B015C010E940B016B017C010E940B0190
:100280006C197D098E099F09683E734081059105AF
:10029000A8F321E0821A9108A108B10888EEC80EDF
:1002A00083E0D81EE11CF11C81149104A104B10467
:1002B00029F7FF90EF90DF90CF90BF90AF909F9085
:1002C0008F9008952FB7F8946091CD017091CE0171
:1002D0008091CF019091D0012FBF0895AF92BF922E
:1002E000CF92DF92EF92FF920F931F93CF93DF9302
:1002F0006C017B018B01040F151FEB015E01AE1831
:10030000BF08C017D10759F06991D601ED91FC9152
:100310000190F081E02DC6010995892B79F7C5017F
:10032000DF91CF911F910F91FF90EF90DF90CF90D1
:10033000BF90AF900895FC01538D448D252F30E080
:10034000842F90E0821B930B541710F0CF960895E2
:1003500001970895FC01918D828D981761F0A28D0F
:10036000AE0FBF2FB11D5D968C91928D9F5F9F73D5
:10037000928F90E008958FEF9FEF0895FC01918D8B
:10038000828D981731F0828DE80FF11D858D90E0F8
:1003900008958FEF9FEF0895FC01918D228D892F95
:1003A00090E0805C9F4F821B91098F73992708957D
:1003B0008BE492E00E94CC0121E0892B09F420E03B
:1003C000822F089580E090E0892B29F00E94D801C7
:1003D00081110C9400000895FC01A48DA80FB92F81
:1003E000B11DA35ABF4F2C91848D90E001968F735D
:1003F0009927848FA689B7892C93A089B1898C917C
:10040000837080648C93938D848D981306C00288CA
:10041000F389E02D80818F7D80830895EF92FF9294
:100420000F931F93CF93DF93EC0181E0888F9B8D17
:100430008C8D98131AC0E889F989808185FF15C0D1
:100440009FB7F894EE89FF896083E889F9898081F4
:100450008370806480839FBF81E090E0DF91CF91C3
:100460001F910F91FF90EF900895F62E0B8D10E0E5
:100470000F5F1F4F0F731127E02E8C8D8E110CC054
:100480000FB607FCFACFE889F989808185FFF5CF9F
:10049000CE010E94EC01F1CFEB8DEC0FFD2FF11D91
:1004A000E35AFF4FF0829FB7F8940B8FEA89FB89DC
:1004B00080818062CFCFCF93DF93EC01888D88233A
:1004C000B9F0AA89BB89E889F9898C9185FD03C0B7
:1004D000808186FD0DC00FB607FCF7CF8C9185FF9C
:1004E000F2CF808185FFEDCFCE010E94EC01E9CFF4
:1004F000DF91CF91089508950895CF92DF92EF9202
:10050000FF92CF93DF93DC011796CC911797D0E041
:100510006111DC2F18962C91189730E0220F331FB1
:1005200028593F4F50E040E0F90185919491FC013A
:10053000F080BA0190E080E0EF2DEC23ED1310C0C5
:100540004F5F5F4F1D96CD90DD90ED90FC905097E2
:100550006C157D058E059F0538F36FEF7FEFCB019E
:10056000DF91CF91FF90EF90DF90CF9008958F9221
:100570009F92AF92BF92CF92DF92EF92FF920F9332
:100580001F93CF93DF93CDB7DEB7C054D1400FB6E2
:10059000F894DEBF0FBECDBF8C010E946201F8014E
:1005A000C184D284E384F4849B01AC012C193D09FD
:1005B0004E095F0969017A0130EDC31637E0D306B1
:1005C000E104F104A8F48189C05CDE4F0FB6F89411
:1005D000DEBF0FBECDBFDF91CF911F910F91FF9076
:1005E000EF90DF90CF90BF90AF909F908F90089545
:1005F00061877287838794871482138212821182A3
:10060000108262E085810E94DA0061E070E080E0A3
:1006100090E00E94300161E0F80185810E94DA00DB
:1006200060E0F80185810E948E00F8018681855185
:10063000823028F58BE291E10197F1F762E0F80151
:1006400085810E94DA00F801828990E0823091056C
:1006500038F0880F991F880F991F05970197F1F7B8
:10066000F89460E0C8010E947D026F3F7F4F8F4F7A
:100670009F4F61F4F801118A789480E0A5CF64E17E
:1006800070E080E090E00E943001D8CF61E0C801C6
:100690000E947D026F3F7F4F8F4F9F4F59F39E0106
:1006A0002F5F3F4F79015E013FEBA31A3EEFB30A84
:1006B000670160E0C8010E947D02F60160837183DA
:1006C0008283938361E0C8010E947D02F601648306
:1006D000758386839783F8E0CF0ED11CCA14DB04A0
:1006E00041F7789430E020E0F70180809180A2808B
:1006F000B3804481558166817781FFEF8F169F0615
:10070000AF06BF0631F04F3F8FEF580768077807F5
:1007100019F4F801118AB1CFF90183E0F595E79555
:100720008A95E1F7E00FF11F8081880F8416950606
:10073000A606B706F0F080832F5F3F4FF8E0EF0E7C
:10074000F11C2832310581F6F80144812081818134
:10075000280F3327331F8281280F311D8381820F99
:10076000932F911D99274817190699F681E0818BDF
:100770002BCF8160E0CF20919701260F3327331FC5
:1007800021323105ECF420912102FC0190E080E05F
:10079000243069F082E00895A09197012191AC0185
:1007A00049585E4FA40FB52FB11D2C9301968617A3
:1007B00098F380919701680F6093970180E0089506
:1007C00081E008951092210281E08093200210922E
:1007D000FB0161E082E10E948E0061E083E10E9402
:1007E0008E00E9EBF0E080818E7F808380818D7FB9
:1007F000808388E48093B80085E48093BC000895EA
:10080000CF93DF9391E0909376018823B9F0C09164
:10081000B800D091BA008091BC008A7B8093BC0064
:1008200060E082E10E948E0060E083E10E948E0021
:100830000E94E203D093BA00C093B800DF91CF9139
:1008400008958F929F92AF92BF92CF92DF92EF92D4
:10085000FF920F931F93CF93DF93D0914A02D1322F
:1008600008F0D7C0182FC09149020E940B016B01FC
:100870007C018091210281116BC082E08093210272
:10088000109320028FEF80931F0210921E02D093CC
:100890001D02A9E2B2E0EDEFF1E080E0D81391C0D3
:1008A0001092FC018091FC01CC0FC82BC093FC017D
:1008B0008091FB01813009F088C01092FB010E94F9
:1008C0000B016B017C018091FC018093BB00809146
:1008D000230290912402A0912502B0912602892B37
:1008E0008A2B8B2BA1F00E940B0100912302109107
:1008F000240220912502309126026C197D098E096F
:100900009F09061717072807390708F442C0809186
:10091000BC0083FDD8CF85EC8093BC000E940B0106
:100920006B017C0180912102823009F450C08091DA
:100930001F028F3F09F46FC080911F02803209F4BB
:100940006CC080911F02803309F469C084E026C026
:100950008091230290912402A0912502B091260259
:10096000892B8A2B8B2B09F484CF0E940B0180905A
:10097000230290902402A0902502B09026026C19C8
:100980007D098E099F0986169706A806B90608F004
:1009900070CF809122020E94000485E0109228020C
:1009A00010924A0210922702DF91CF911F910F916E
:1009B000FF90EF90DF90CF90BF90AF909F908F907F
:1009C00008959D9191938F5F69CF85EEA5CF80911A
:1009D000230290912402A0912502B0912602892B36
:1009E0008A2B8B2B09F49ECF0E940B0100912302CE
:1009F0001091240220912502309126026C197D0964
:100A00008E099F09061717072807390708F08ACFAC
:100A1000C0CF81E0C3CF80E0C1CF82E0BFCF83E011
:100A2000BDCFCF93DF93EA01DC0111968D919C91AC
:100A3000DC01ED91FC910280F381E02D0995C8174E
:100A4000D90729F481E00E94210491E0811190E00E
:100A5000892FDF91CF910895CF93DF93EC018B81A4
:100A60008823A1F0888191E0909327028093490226
:100A70001092280210924A0281E00E94210491E023
:100A8000811190E0892FDF91CF9108951092DA01C2
:100A90001092D9011092280210924A020E94E20399
:100AA0008CE890E09093D8018093D7018DE890E096
:100AB0009093D6018093D50181E08B83CE010E9473
:100AC0002C05982F8111CECFDDCF0895E091DA016A
:100AD0008091D901E81730F4F0E0E552FE4F8081B3
:100AE00090E008958FEF9FEF08959091DA01809143
:100AF000D9012FEF3FEF981748F4E92FF0E0E552C6
:100B0000FE4F208130E09F5F9093DA01C901089584
:100B10008091D9019091DA01891B990B0895CF92A8
:100B2000DF92EF92FF920F931F93CF93DF937C019D
:100B3000CB018A0120912702222389F0EB016B016E
:100B4000C40ED51ECC15DD0569F06991D701ED9174
:100B5000FC910190F081E02DC7010995F3CF642F3E
:100B60000E94BB03C801DF91CF911F910F91FF90AD
:100B7000EF90DF90CF900895CF93DF931F92CDB782
:100B8000DEB76983209127022223F9F020914A02DF
:100B9000203258F021E030E0FC013383228390E0E2
:100BA00080E00F90DF91CF91089580912802E82F87
:100BB000F0E0E75DFD4F998190838F5F809328027D
:100BC00080934A0281E090E0ECCF61E0CE01019693
:100BD0000E94BB03F7CF90E080E008950F931F932E
:100BE000FC010481158126813781FB01008311837B
:100BF00022833383FC0180859185A285B385FB0127
:100C000084839583A683B7831F910F9108958F9254
:100C10009F92AF92BF92EF92FF921F93CF93DF9379
:100C2000EC010E9462018C849D84AE84BF846819AB
:100C300079098A099B09643F71408105910508F48F
:100C4000B0C0EA80FB80C7010E94B702882341F050
:100C5000F70186818C3009F460C038F48B30E1F004
:100C600060E070E080EC9FE73EC085518230C0F7C5
:100C70001281612F70E0762F662766277F77838148
:100C8000682B90E080E00E94C50E2DEC3CEC4CEC13
:100C90005DE30E94020F5CC0628170E090E080E042
:100CA0000E94C50E4B015C01F701138117FF0AC0BA
:100CB000AC019B0160E070E080E89FEB0E94C60FF2
:100CC0004B015C011F70612F70E090E080E00E949A
:100CD000C70E2DEC3CEC4CEC5DE30E94020FA5012D
:100CE00094010E94C70F6C837D838E839F83EA806B
:100CF000FB80C7010E94B702882351F0F70186816B
:100D00008B3030F08D3040F18551823008F453C083
:100D100060E070E080EC9FE73AC01281612F70E0E4
:100D200090E080E00E94C50E4B015C01F7016381F9
:100D30006F7070E090E080E00E94C70E2DEC3CECFC
:100D40004CEC5DE30E94020FA50194010E94C70FC5
:100D500017FFC9CF9058C7CF618170E090E080E065
:100D60000E94C70E2DEC3CEC4CEC5DE30E94020FA0
:100D70004B015C01F701608170E090E080E00E942F
:100D8000C70E9B01AC01C501B4010E94C70F688763
:100D900079878A879B870E9462016C877D878E870F
:100DA0009F87DF91CF911F91FF90EF90BF90AF9001
:100DB0009F908F90089560817181762767277627AD
:100DC00090E080E00E94C50E2DEC3CEC4CEC5DE325
:100DD0000E94020FDCCF0F931F93FC010481158149
:100DE00026813781FB010083118322833383FC0139
:100DF00080859185A285B385FB0184839583A68335
:100E0000B7831F910F91089508952F923F924F92AB
:100E10005F926F927F928F929F92AF92BF92CF928A
:100E2000DF92EF92FF920F931F93CF93DF935C01BA
:100E30001B016A01F12CE12CD50114968D919C9136
:100E400086010E191F098017910708F48C01F5011E
:100E5000D0810E940B012B013C0180912102811164
:100E600072C0C02F013208F0C0E2F1E0F09321021D
:100E700021E0C601801B910BE816F90608F420E07A
:100E8000209320028FEF80931F0210921E028C0F7E
:100E900080931D02A1E0A093FC018091FC01DD0F75
:100EA000D82BD093FC018091FB01813009F090C0D8
:100EB0001092FB010E940B012B013C018091FC016F
:100EC0008093BB008091230290912402A09125027F
:100ED000B0912602892B8A2B8B2BA1F00E940B014B
:100EE0002091230230912402409125025091260244
:100EF000641975098609970926173707480759079E
:100F000008F442C08091BC0083FDD8CFB5ECB0930B
:100F1000BC000E940B012B013C0180912102813019
:100F200009F45AC080911E028C1710F4C0911E0261
:100F3000ADEFB1E0EBEDF1E080E08C1751F19D9168
:100F400091938F5FFACF8091230290912402A09118
:100F50002502B0912602892B8A2B8B2B09F47DCF99
:100F60000E940B012091230230912402409125021E
:100F700050912602641975098609970926173707C3
:100F80004807590708F069CF809122020E940004A7
:100F9000C0E01092DA01C093D901C017110609F020
:100FA00057C041018E0C9F1CE401CE01881999099C
:100FB0008017910798F5D50111968D919C91DC01D0
:100FC000ED91FC910284F385E02D09958993EDCF95
:100FD000E5EEE093BC009DCF809123029091240226
:100FE000A0912502B0912602892B8A2B8B2B09F424
:100FF00094CF0E940B012091230230912402409152
:101000002502509126026419750986099709261749
:1010100037074807590708F080CFB6CFE00EF11E1A
:10102000EC14FD0408F408CF81E0DF91CF911F910B
:101030000F91FF90EF90DF90CF90BF90AF909F9077
:101040008F907F906F905F904F903F902F9008957A
:1010500080E0EBCFCF93DF931F92CDB7DEB741E0B7
:1010600050E0BE016F5F7F4FFC01848595850E9433
:101070000507882329F089810F90DF91CF9108958A
:101080008FEFFACF0C94CF100C94CF100F931F93C7
:10109000CF93DF938C01EB0188E2FB0111928A95DB
:1010A000E9F74BE050E065E671E0CE010E9458118F
:1010B0001B8681E090E0A0E0B0E08C879D87AE8742
:1010C000BF87F80182819381092E000CAA0BBB0B0C
:1010D000888B998BAA8BBB8B8DE090E0A0E0B0E071
:1010E0008C8B9D8BAE8BBF8B1CA21DA21EA21FA240
:1010F00080E090E0A0E2B2EC8C8F9D8FAE8FBF8F2E
:1011000080E090E0AAEAB2E4888F998FAA8FBB8F23
:101110008AE999E9A9E9BEE388A399A3AAA3BBA395
:10112000DF91CF911F910F9108950F931F93CF934C
:10113000DF938C01EB0188E2FB0111928A95E9F7BC
:101140004BE050E06DE671E0CE010E9458111B8625
:1011500081E090E0A0E0B0E08C879D87AE87BF87FC
:10116000F80182819381092E000CAA0BBB0B888B9E
:10117000998BAA8BBB8B8CE090E0A0E0B0E08C8BCD
:101180009D8BAE8BBF8B1CA21DA21EA21FA21C8E0C
:101190001D8E1E8E1F8E80E090E0A8ECB2E4888F3A
:1011A000998FAA8FBB8F80E090E0A0E0B0E488A385
:1011B00099A3AAA3BBA3DF91CF911F910F9108958B
:1011C0004F925F926F927F92AF92BF92CF92DF92D7
:1011D000EF92FF920F931F93CF93DF93CDB7DEB7BC
:1011E00029970FB6F894DEBF0FBECDBF8C017B01EF
:1011F0006A010E9462012B013C01809106019091DD
:101200000701A09108018F839887A987D8011C96B0
:101210008D919C91FC012481358123303105B8F4F6
:10122000B12C8B2D29960FB6F894DEBF0FBECDBF23
:10123000DF91CF911F910F91FF90EF90DF90CF90B2
:10124000BF90AF907F906F905F904F9008952081F6
:1012500031E0309327022093490210922802109225
:101260004A0243E050E0BE01695F7F4F0E941105D2
:101270008823B1F2C8010E942A0887FF07C06AE0EC
:1012800070E080E090E00E943001F4CF46E050E052
:10129000BE016F5F7F4FF801848595850E94050729
:1012A000B82E882309F4BCCF6A817B817627672713
:1012B0007627CB01B0E0A0E09C01AD0184E0220FD5
:1012C000331F441F551F8A95D1F7AC808A2D90E0BB
:1012D00064E0959587956A95E1F7092E000CAA0BB5
:1012E000BB0BBC01CD01622B732B842B952B0E9471
:1012F000C50E20E030E048EC52E40E94020F20E0EE
:1013000030E040E855E30E94020FD80114966D9337
:101310007D938D939C9317976A2D6F7070E090E08A
:1013200080E0982F872F762F66272D81622B982FAC
:10133000872F762F66272E81622B0E94C50E20E014
:1013400030E048E453E40E94020F20E030E040E83F
:1013500055E30E94020F20E030E048E452E40E948E
:10136000C60FF8016083718382839383C114D10413
:1013700081F1F601349680E2DF011D928A95E9F74A
:1013800084E290E0A0E0B0E0F60180839183A28344
:10139000B383D8011A968D919C91B0E0A0E084832C
:1013A0009583A683B7838DE090E0A0E0B0E08087CE
:1013B0009187A287B387408A518A628A738AF8012B
:1013C00080819181A281B381F601848B958BA68B5C
:1013D000B78BE114F10409F424CFF701349680E2CD
:1013E000DF011D928A95E9F784E290E0A0E0B0E089
:1013F000F70180839183A283B383D80118968D91DE
:101400009C91B0E0A0E084839583A683B7838DE0B0
:1014100090E0A0E0B0E080879187A287B387408A00
:10142000518A628A738AF80184819581A681B78185
:10143000F701848B958BA68BB78BF3CEAB0170E055
:1014400060E0FC01848195810E94E00881E00895BC
:1014500050E040E0FC01848195810E94E00881E039
:101460000895CF92DF92EF92FF920F931F93CF9345
:10147000DF93CDB7DEB7C854D1090FB6F894DEBFFD
:101480000FBECDBF8C010E946201F801C484D584D7
:10149000E684F7846C197D098E099F09643F7140C9
:1014A0008105910518F1AE014F5F5F4FBE016B5D85
:1014B0007F4FF801828193810E94E0088D899E8987
:1014C000AF89B88DF80184839583A683B78389ADEE
:1014D0009AADABADBCAD80879187A287B3870E94E0
:1014E0006201F8016487758786879787C85BDF4F3D
:1014F0000FB6F894DEBF0FBECDBFDF91CF911F9125
:101500000F91FF90EF90DF90CF90089585ED80933D
:10151000BC008091230290912402A0912502B091F9
:1015200026020796A11DB11D23E0B695A7959795B4
:1015300087952A95D1F72091BC0024FD03C0109215
:1015400021020895409123025091240260912502C6
:1015500070912602452B462B472B69F30097A10576
:10156000B10541F025E32A95F1F700000197A109A3
:10157000B109E1CF809122020C9400040F931F93D4
:10158000CF93DF938C0183E190E00E943310EC0154
:10159000F801918980898D839E83282F30E0F9019D
:1015A000E656FF4FE491EF83F901EA57FF4FE491CC
:1015B000E88740E85EE360E070E04D875E876F8714
:1015C000788BF801D383C28362E00E94DA000E9424
:1015D0006201605D77408109910969877A878B870D
:1015E0009C8787E38A8BDF91CF911F910F9108959C
:1015F000DF92EF92FF920F931F93CF93DF9300D070
:101600001F92CDB7DEB77C0182E190E00E943310DB
:101610008C01DC011D961C921E921C971F961C9239
:101620001E921E9751961C921E925097F70193831B
:10163000828364E170E080E090E00E943001D80194
:101640001C968D919C91009711F00E94CF1086E01E
:1016500090E00E9433107C0188E3F701808388EEDC
:1016600092E092838183138280E290E09583848369
:10167000D8011D96FC92EE921C971092DA011092FE
:10168000D9011092280210924A020E94E2038CE8CB
:1016900090E09093D8018093D7018DE890E09093EB
:1016A000D6018093D501DD24D394F701D382C701FD
:1016B0000E942C05882309F4ACC08AEB8983D801E9
:1016C0001C968D919C91FC0124813581232B09F47A
:1016D000A0C02081D09227022093490210922802B4
:1016E00010924A0241E050E0BE016F5F7F4F0E94BE
:1016F0001105882309F48DC064E170E080E090E07A
:101700000E943001C8010E942A0887FF05C06AE0D4
:1017100070E080E090E0F4CF81EE898388E08A83F6
:101720001B82D8011C968D919C91FC0124813581EE
:101730002330310588F0208131E030932702209357
:1017400049021092280210924A0243E050E0BE0182
:101750006F5F7F4F0E941105C8010E942A0887FF12
:1017600007C06AE070E080E090E00E943001F4CFB2
:10177000C8010E942A0883FF4CC0D80150968D9161
:101780009C91009739F0DC01ED91FC910280F3818E
:10179000E02D0995F80186859785009739F0DC01E1
:1017A000ED91FC910280F381E02D099586E090E0B7
:1017B0000E943310FC018BE191E09183808380E2F1
:1017C00090E19383828315830483D8015196FC931F
:1017D000EE93509786E090E00E943310FC018DE07C
:1017E00091E09183808381E290E1938382831583EA
:1017F0000483D8011F96FC93EE931E970F900F90D1
:101800000F90DF91CF911F910F91FF90EF90DF909C
:1018100008956AE070E080E090E00E943001EECF31
:101820001F920F920FB60F9211242F933F938F9315
:101830009F93AF93BF938091CD019091CE01A091E2
:10184000CF01B091D0013091CC0123E0230F2D378F
:1018500058F50196A11DB11D2093CC018093CD01B7
:101860009093CE01A093CF01B093D0018091D1018C
:101870009091D201A091D301B091D4010196A11D04
:10188000B11D8093D1019093D201A093D301B09365
:10189000D401BF91AF919F918F913F912F910F9064
:1018A0000FBE0F901F90189526E8230F0296A11DDA
:1018B000B11DD2CF1F920F920FB60F9211242F930A
:1018C0003F934F935F936F937F938F939F93AF93C8
:1018D000BF93EF93FF938BE492E00E94EC01FF91A2
:1018E000EF91BF91AF919F918F917F916F915F9198
:1018F0004F913F912F910F900FBE0F901F90189511
:101900001F920F920FB60F9211242F938F939F93D4
:10191000EF93FF93E0915B02F0915C028081E09194
:101920006102F091620282FD1BC09081809164028D
:101930008F5F8F7320916502821741F0E0916402FE
:10194000F0E0E55BFD4F958F80936402FF91EF918E
:101950009F918F912F910F900FBE0F901F90189510
:101960008081F4CF1F920F920FB60F9211240F9027
:101970000FBE0F901F9018951F920F920FB60F92E7
:1019800011242F933F934F935F936F937F938F9384
:101990009F93AF93BF93EF93FF938091B900887F9C
:1019A000803609F44AC0F0F5883209F4A7C018F56A
:1019B000803109F49BC0B8F4882309F4F9C0883059
:1019C00009F494C0FF91EF91BF91AF919F918F91D6
:1019D0007F916F915F914F913F912F910F900FBE2B
:1019E0000F901F901895883109F488C0803251F704
:1019F00080931F0214C0803409F49DC040F48033EA
:101A0000B9F38833F9F680931F0285ECB0C08035B6
:101A100009F485C0883509F496C0883499F60E9487
:101A2000860AD0CF883909F48CC038F5883729F078
:101A300050F4883611F0803729F683E08093210234
:101A40001092B90157C0883809F47BC0803919F069
:101A5000803809F0B7CF8091B901803208F071C0A9
:101A6000E091B90181E08E0F8093B9018091BB00B4
:101A7000F0E0E756FE4F80833DC0803B39F0E0F454
:101A8000803A09F479C0883A09F09CCF84E08093C9
:101A900021021092980110929701E091D701F091E4
:101AA000D80109958091970181110FC081E0809341
:101AB00097011092770109C0803C09F4A6CF883CB9
:101AC00009F4A3CF883B09F07DCFE091980181E034
:101AD0008E0F80939801F0E0E958FE4F808180934B
:101AE000BB00909198018091970129C08091FC01E1
:101AF0008093BB0085EC8093BC0064CF90911E0264
:101B000080911D02981758F5E0911E0281E08E0F1A
:101B100080931E02F0E0E350FE4F8081E9CFE09118
:101B20001E0281E08E0F80931E028091BB00F0E0C8
:101B3000E350FE4F808390911E0280911D02981702
:101B4000C8F285E8D8CFE0911E0281E08E0F809325
:101B50001E028091BB00F0E0E350FE4F8083809135
:101B6000200281115CCF81E08093FB0184EA8093A5
:101B7000BC001092210226CF85EC8093BC0010920D
:101B800021028091B901803230F4E091B901F0E096
:101B9000E756FE4F10826091B90170E0E091D501E7
:101BA000F091D60189E991E009951092B9010ACF27
:101BB00010921F0234CFEBE4F2E01382128288EE1F
:101BC00093E0A0E0B0E084839583A683B78329E205
:101BD00031E03183208325EC30E03587248724EC05
:101BE00030E03787268720EC30E0318B208B21ECEA
:101BF00030E0338B228B22EC30E0358B248B26ECCB
:101C000030E0378B268B118E128E138E148EE8EEF9
:101C1000F2E01382128284839583A683B7838BE3D9
:101C200091E091838083E5E0F3E08BE591E091839F
:101C3000808382E0808B86E1818BE4EFF2E08DE4AB
:101C400091E0918380838EE0808B0895789484B5B1
:101C5000826084BD84B5816084BD85B5826085BDA8
:101C600085B5816085BD80916E00816080936E0036
:101C70001092810080918100826080938100809128
:101C800081008160809381008091800081608093D9
:101C900080008091B10084608093B1008091B00099
:101CA00081608093B00080917A00846080937A0094
:101CB00080917A00826080937A0080917A008160BE
:101CC00080937A0080917A00806880937A001092E5
:101CD000C100E0915B02F0915C0282E08083E091C0
:101CE0005702F09158021082E0915902F0915A0285
:101CF0008FEC808310926302E0915F02F0916002AA
:101D000086E08083E0915D02F0915E0280818061D7
:101D10008083E0915D02F0915E0280818860808323
:101D2000E0915D02F0915E02808180688083E091A5
:101D30005D02F0915E0280818F7D808385E093E07B
:101D40000E94BE0A84EF92E00E94F80AC0E0D0E050
:101D500064EC71E085E093E00E94EE056CEB71E0CD
:101D600084EF92E00E94EB0684EF92E00E94310A39
:101D700085E093E00E940706209751F30E94D80166
:101D8000882331F30E940000E3CFE89409C097FB59
:101D90003EF490958095709561957F4F8F4F9F4F42
:101DA0009923A9F0F92F96E9BB279395F695879586
:101DB00077956795B795F111F8CFFAF4BB0F11F449
:101DC00060FF1BC06F5F7F4F8F4F9F4F16C08823F0
:101DD00011F096E911C0772321F09EE8872F762F26
:101DE00005C0662371F096E8862F70E060E02AF067
:101DF0009A95660F771F881FDAF7880F9695879553
:101E000097F908950E94150F0C94860F0E94780F81
:101E100038F00E947F0F20F0952311F00C946F0F83
:101E20000C94750F11240C94BA0F0E94970F70F345
:101E3000959FC1F3950F50E0551F629FF001729F6F
:101E4000BB27F00DB11D639FAA27F00DB11DAA1F7E
:101E5000649F6627B00DA11D661F829F2227B00DCB
:101E6000A11D621F739FB00DA11D621F839FA00D56
:101E7000611D221F749F3327A00D611D231F849FA6
:101E8000600D211D822F762F6A2F11249F575040FD
:101E90009AF0F1F088234AF0EE0FFF1FBB1F661F78
:101EA000771F881F91505040A9F79E3F510580F041
:101EB0000C946F0F0C94BA0F5F3FE4F3983ED4F389
:101EC000869577956795B795F795E7959F5FC1F7E5
:101ED000FE2B880F911D9695879597F9089597F990
:101EE0009F6780E870E060E008959FEF80EC0895C0
:101EF00000240A94161617061806090608950024E9
:101F00000A9412161306140605060895092E039462
:101F1000000C11F4882352F0BB0F40F4BF2B11F4D6
:101F200060FF04C06F5F7F4F8F4F9F4F089557FD35
:101F30009058440F551F59F05F3F71F04795880F37
:101F400097FB991F61F09F3F79F0879508951216CE
:101F500013061406551FF2CF4695F1DF08C016167A
:101F600017061806991FF1CF86957105610508942B
:101F70000895E894BB2766277727CB0197F9089542
:101F8000EE0FFF1F0590F491E02D09945058BB27E8
:101F9000AA270E94DE0F0C94860F0E94780F38F05B
:101FA0000E947F0F20F039F49F3F19F426F40C941F
:101FB000750F0EF4E095E7FB0C946F0FE92F0E946C
:101FC000970F58F3BA17620773078407950720F035
:101FD00079F4A6F50C94B90F0EF4E0950B2EBA2FF8
:101FE000A02D0B01B90190010C01CA01A00111241F
:101FF000FF27591B99F0593F50F4503E68F11A16CB
:10200000F040A22F232F342F4427585FF3CF46955B
:1020100037952795A795F0405395C9F77EF41F167D
:10202000BA0B620B730B840BBAF09150A1F0FF0F47
:10203000BB1F661F771F881FC2F70EC0BA0F621F33
:10204000731F841F48F4879577956795B795F79523
:102050009E3F08F0B0CF9395880F08F09927EE0FB8
:102060009795879508950F931F93CF93DF938230B1
:10207000910510F482E090E0E0911903F0911A03C9
:1020800030E020E0B0E0A0E0309799F42115310570
:1020900009F44AC0281B390B24303105D8F58A8150
:1020A0009B816115710589F1FB0193838283FE0198
:1020B00011C0408151810281138148175907E0F016
:1020C0004817590799F4109761F012960C931297DC
:1020D00013961C933296CF01DF91CF911F910F91F0
:1020E00008950093190310931A03F4CF21153105B5
:1020F00051F04217530738F0A901DB019A01BD01E5
:10210000DF01F801C1CFEF01F9CF90931A0380935B
:102110001903CDCFFE01E20FF31F8193919322505B
:10212000310939832883D7CF2091170330911803C1
:10213000232B41F4209102013091030130931803C5
:1021400020931703209100013091010121153105E1
:1021500041F42DB73EB74091040150910501241B75
:10216000350BE0911703F0911803E217F307A0F481
:102170002E1B3F0B2817390778F0AC014E5F5F4FDD
:102180002417350748F04E0F5F1F509318034093F4
:102190001703819391939FCFF0E0E0E09CCFCF9322
:1021A000DF930097E9F0FC01329713821282A0912D
:1021B0001903B0911A03ED0130E020E01097A1F46B
:1021C00020813181820F931F2091170330911803D2
:1021D0002817390709F061C0F0931803E09317033B
:1021E000DF91CF910895EA01CE17DF07E8F54A8124
:1021F0005B819E0141155105B1F7E901FB83EA833B
:1022000049915991C40FD51FEC17FD0761F48081E6
:1022100091810296840F951FE901998388838281B9
:1022200093819B838A83F0E0E0E012968D919C91EC
:1022300013970097B9F52D913C911197CD01029616
:10224000820F931F20911703309118032817390725
:1022500039F6309751F510921A0310921903B09382
:102260001803A0931703BCCFD383C283408151814D
:10227000840F951FC817D90761F44E5F5F4F88819F
:102280009981480F591F518340838A819B81938391
:1022900082832115310509F0B0CFF0931A03E09342
:1022A00019039ECFFD01DC01C0CF13821282D7CF6C
:1022B000FB01DC014150504048F001900D9200209C
:1022C000C9F701C01D9241505040E0F70895F894BD
:0222D000FFCF3E
:1022D20000001B038000AC3300000000007B0244BE
:1022E200087C021E0A4608000000007B0242087CAD
:1022F20002280A9508000000000E026E019B015B95
:1023020002CC01AA01BE0100000000BC058F05EB52
:1023120005650588057505660500000000F80A31A7
:102322000AEB060407040700000000BE0A0706EED7
:10233200050407040741485478305F54004148546B
:0623420078305F48000046
:00000001FF
