:100000000C945E000C94000F0C94D90E0C947F0F8E
:100010000C947F0F0C947F0F0C9486000C94890F26
:100020000C9486000C9486000C9486000C94860038
:100030000C9486000C9486000C9486000C94860028
:100040000C948F0E0C9486000C944D0F0C94270F7B
:100050000C9486000C9486000C9486000C94860008
:100060000C94AE0F0C9486000000000024002700C2
:100070002A0000000000250028002B0004040404CE
:100080000404040402020202020203030303030342
:10009000010204081020408001020408102001021F
:1000A00004081020000000080002010000030407FB
:1000B0000000000000000000E010281811241FBEFE
:1000C000CFEFD8E0DEBFCDBF13E0A0E0B1E0E2E9C2
:1000D000F9E302C005900D92A038B107D9F725E0E9
:1000E000A0E8B3E001C01D92A63EB207E1F710E020
:1000F000CDE5D0E004C02197FE010E94D31ACC3593
:10010000D107C9F70E94B3110C94BC1C0C940000D9
:100110000895089590E0FC01EC55FF4F2491FC01F7
:10012000E057FF4F3491FC01E458FF4FE491EE2378
:10013000C9F0222339F0233001F1A8F4213019F15C
:10014000223029F1F0E0EE0FFF1FEE58FF4FA5918E
:10015000B4918FB7F894EC91611126C030953E238D
:100160003C938FBF08952730A9F02830C9F0243080
:1001700049F7809180008F7D03C0809180008F7748
:1001800080938000DFCF84B58F7784BDDBCF84B5CB
:100190008F7DFBCF8091B0008F778093B000D2CF5E
:1001A0008091B0008F7DF9CF3E2BDACFCF93DF93D4
:1001B00090E0FC01E057FF4F249184589F4FFC01D1
:1001C00084918823D1F090E0880F991FFC01E859B1
:1001D000FF4FA591B491FC01EE58FF4FC591D4910A
:1001E00061110EC09FB7F8948C91E22FE0958E2399
:1001F0008C932881E223E8839FBFDF91CF910895FC
:100200008FB7F894EC91E22BEC938FBFF6CF82304E
:10021000910538F0880F991F880F991F059701974E
:10022000F1F708953FB7F89480914004909141040C
:10023000A0914204B091430426B5A89B05C02F3F6E
:1002400019F00196A11DB11D3FBFBA2FA92F982FFC
:100250008827BC01CD01620F711D811D911D42E0F7
:10026000660F771F881F991F4A95D1F708958F92BF
:100270009F92AF92BF92CF92DF92EF92FF924B018B
:100280005C010E9412016B017C010E9412016C1939
:100290007D098E099F09683E734081059105A8F389
:1002A00021E0821A9108A108B10888EEC80E83E007
:1002B000D81EE11CF11C81149104A104B10429F79A
:1002C000FF90EF90DF90CF90BF90AF909F908F9076
:1002D00008950895AF92BF92CF92DF92EF92FF926E
:1002E0000F931F93CF93DF936C017B018B01040F5E
:1002F000151FEB015E01AE18BF08C017D10759F0FA
:100300006991D601ED91FC910190F081E02DC6013B
:100310000995892B79F7C501DF91CF911F910F9135
:10032000FF90EF90DF90CF90BF90AF900895FC01C9
:10033000538D448D252F30E0842F90E0821B930B4A
:10034000541710F0CF96089501970895FC01918DF0
:10035000828D981761F0A28DAE0FBF2FB11D5D96F3
:100360008C91928D9F5F9F73928F90E008958FEF95
:100370009FEF0895FC01918D828D981731F0828D49
:10038000E80FF11D858D90E008958FEF9FEF0895A0
:10039000FC01918D228D892F90E0805C9F4F821B04
:1003A00091098F73992708958AEB94E00E94C80100
:1003B00021E0892B09F420E0822F089580E090E06D
:1003C000892B29F00E94D40181110C94000008951A
:1003D000FC01A48DA80FB92FB11DA35ABF4F2C91BA
:1003E000848D90E001968F739927848FA689B789B1
:1003F0002C93A089B1898C91837080648C93938DA8
:10040000848D981306C00288F389E02D80818F7D4A
:1004100080830895EF92FF920F931F93CF93DF9302
:10042000EC0181E0888F9B8D8C8D98131AC0E88930
:10043000F989808185FF15C09FB7F894EE89FF89FF
:100440006083E889F98980818370806480839FBF9D
:1004500081E090E0DF91CF911F910F91FF90EF909D
:100460000895F62E0B8D10E00F5F1F4F0F731127AD
:10047000E02E8C8D8E110CC00FB607FCFACFE889E8
:10048000F989808185FFF5CFCE010E94E801F1CF87
:10049000EB8DEC0FFD2FF11DE35AFF4FF0829FB75C
:1004A000F8940B8FEA89FB8980818062CFCFCF934C
:1004B000DF93EC01888D8823B9F0AA89BB89E8898C
:1004C000F9898C9185FD03C0808186FD0DC00FB632
:1004D00007FCF7CF8C9185FFF2CF808185FFEDCFB0
:1004E000CE010E94E801E9CFDF91CF9108950895F0
:1004F000CF93DF931F92CDB7DEB76983DC01ED9117
:10050000FC910280F381E02D41E050E0BE016F5F7D
:100510007F4F09950F90DF91CF9108958FB7F89491
:100520008091F0038FBF0895FC0183858F3F19F000
:1005300061E00C948A000895AF92BF92CF92DF924F
:10054000EF92FF920F931F93CF93DF93EC0188817B
:100550009981892B89F06EBD0DB407FEFDCFBEB425
:100560008B2DDF91CF911F910F91FF90EF90DF9036
:10057000CF90BF90AF9008958885998511E0892B21
:1005800009F010E8AA24A394862F812309F0A12C56
:10059000062F2C813D814E815F8160E271EA87E008
:1005A00090E00E94B11AF22EB02EE12CC22ED12C76
:1005B000FF2019F0C6010E9407018A85877F09F094
:1005C00042C08D858F3F89F0902F912381E009F4FF
:1005D00080E08A1551F0EF85F8898F89992369F1B8
:1005E0009081892B8083AA24A394E989FA89808148
:1005F000998D892B8083FF2019F0C6010E94070185
:100600008E858F3F39F0EB89FC898081988D892315
:1006100009F0E12AE989FA899081898D80958923F9
:1006200080838E858F3F09F0BE2C88859985892B24
:10063000B9F5110F1111BCCF93CF9081809589230B
:100640008083A12CD2CFE989FA898081998D892B69
:100650008083FF2019F0C6010E9407018D858F3F1E
:1006600049F0EF85F8898F89902F9123A9F0908127
:10067000892B8083E989FA899081898D80958923E6
:1006800080838E858F3F69F2EB89FC898081988D0C
:10069000892339F2E12AC5CF908180958923E9CF5A
:1006A0001695C8CF8CBD9DBD08950F931F93CF9312
:1006B000DF93EC01062F142F8C859D850E94520339
:1006C00060E088890E948A000EBD00000DB407FE1C
:1006D000FDCF8EB51EBD00000DB407FEFDCF1EB5CB
:1006E00061E088890E948A00812FDF91CF911F915C
:1006F0000F9108950F931F93CF93DF93EC01E8813F
:10070000F9810084F185E02D0995892BC1F040E045
:100710006DE0CE010E945503082F40E060E0CE015D
:100720000E945503182F402F6DE8CE010E945503FB
:10073000812F90E0DF91CF911F910F9108958FEF5E
:100740009FEFF8CFCF93DF93EC01E881F98100842C
:10075000F185E02D0995892B71F08A8D9B8D01968D
:100760009B8F8A8F40E060E0CE010E94550390E0AD
:10077000DF91CF9108958FEF9FEFFACFCF93DF9363
:10078000EC0140E063E10E94550390E02A8D3B8D2F
:10079000821B930BDF91CF910895AF92BF92CF92BE
:1007A000DF92FF920F931F93CF93DF936C015B0156
:1007B000EA0140E062E20E945503F82E90E09C01BD
:1007C0002C0F3D1F2F3F310529F020F0CFEFD0E057
:1007D000C81BD90B8501AC0EBD1E0A151B0541F0C7
:1007E000F80141918F0160E8C6010E945503F5CFE1
:1007F0004C2F4F0D62EAC6010E945503CE01DF91D6
:10080000CF911F910F91FF90DF90CF90BF90AF904D
:100810000895CF93DF93EC0188819981892B31F082
:10082000EA81FB81808191810E9452038B858F3FF9
:1008300029F060E0DF91CF910C948A00DF91CF9195
:1008400008958F929F92AF92BF92CF92DF92EF92D4
:10085000FF920F931F93CF93DF937C014B016A01AB
:10086000B22EA32E0E940904E401C80CD91CCC1599
:10087000DD0569F4CB2DDA2D0C0F1D1FC017D10734
:1008800059F06FEFC7010E949C028993F7CF6991DD
:10089000C7010E949C02EBCFC7010E94940281E035
:1008A000DF91CF911F910F91FF90EF90DF90CF904C
:1008B000BF90AF909F908F9008958F929F92AF922C
:1008C000BF92CF92DF92EF92FF920F931F93CF933D
:1008D000DF937C01B62EA72E6A0149010E9409040C
:1008E000E401080D191DC017D10761F4CB2DDA2DD5
:1008F000CC0EDD1ECC15DD0551F06991C7010E94BB
:100900009C02F8CF6991C7010E949C02ECCFC701FD
:100910000E94940281E0DF91CF911F910F91FF908F
:10092000EF90DF90CF90BF90AF909F908F90089501
:1009300008952091CD03260F3327331F213231052F
:10094000ECF420919004FC0190E080E0243069F008
:1009500082E00895A091CD032191AC0143555C4FF5
:10096000A40FB52FB11D2C930196861798F3809193
:10097000CD03680F6093CD0380E0089581E0089572
:100980001092900481E080938F0410926A0461E0D9
:1009900082E10E948A0061E083E10E948A00E9EB23
:1009A000F0E080818E7F808380818D7F808388E4EA
:1009B0008093B80085E48093BC0008951092690488
:1009C00010926804109297041092B9040E94C00417
:1009D00088E890E0909367048093660489E890E04B
:1009E00090936504809364040895CF93DF9391E01E
:1009F0009093AC038823B9F0C091B800D091BA00AD
:100A00008091BC008A7B8093BC0060E082E10E9400
:100A10008A0060E083E10E948A000E94C004D093B3
:100A2000BA00C093B800DF91CF9108958F929F9242
:100A3000AF92BF92CF92DF92EF92FF920F931F93EC
:100A4000CF93DF93D091B904D13208F0D7C0182FDB
:100A5000C091B8040E9412016B017C018091900446
:100A600081116BC082E08093900410938F048FEF0C
:100A700080938E0410928D04D0938C04A8E9B4E086
:100A8000ECE6F4E080E0D81391C010926B04809102
:100A90006B04CC0FC82BC0936B0480916A04813027
:100AA00009F088C010926A040E9412016B017C0157
:100AB00080916B048093BB00809192049091930489
:100AC000A0919404B0919504892B8A2B8B2BA1F0D3
:100AD0000E941201009192041091930420919404B9
:100AE000309195046C197D098E099F090617170727
:100AF0002807390708F442C08091BC0083FDD8CF95
:100B000085EC8093BC000E9412016B017C018091F6
:100B10009004823009F450C080918E048F3F09F414
:100B20006FC080918E04803209F46CC080918E0475
:100B3000803309F469C084E026C0809192049091CA
:100B40009304A0919404B0919504892B8A2B8B2B4C
:100B500009F484CF0E941201809092049090930433
:100B6000A0909404B09095046C197D098E099F099A
:100B700086169706A806B90608F070CF80919104F2
:100B80000E94F50485E0109297041092B904109227
:100B90009604DF91CF911F910F91FF90EF90DF901E
:100BA000CF90BF90AF909F908F9008959D9191931B
:100BB0008F5F69CF85EEA5CF8091920490919304C9
:100BC000A0919404B0919504892B8A2B8B2B09F466
:100BD0009ECF0E94120100919204109193042091E3
:100BE0009404309195046C197D098E099F090617AC
:100BF00017072807390708F08ACFC0CF81E0C3CF95
:100C000080E0C1CF82E0BFCF83E0BDCF1F93CF9301
:100C1000DF93EA01122FDC0111968D919C91DC018A
:100C2000ED91FC910280F381E02D0995C817D90759
:100C300029F4812F0E94160591E0811190E0892FFF
:100C4000DF91CF911F910895CF92DF92EF92FF92A3
:100C50000F931F93CF93DF9300D0CDB7DEB7FC0186
:100C60004787508B618B728B8285882371F1448713
:100C7000452F562F672F7727882349F143877F0118
:100C80008BE0E80EF11C9681878199838A83C0806E
:100C9000D180C114D10409F443C0018510E098014A
:100CA0002E5F3F4FD60114968D919C91821793072A
:100CB00080F480E00F900F90DF91CF911F910F9102
:100CC000FF90EF90DF90CF9008954387D1CF448776
:100CD000D6CFF60181819281208131E03093960454
:100CE0002093B804109297041092B90401151105CD
:100CF00041F421E042E050E0B701C6010E9406063F
:100D0000D9CFDC01ED91FC910280F381E02DA801A7
:100D1000BE016F5F7F4F09950817190751F6E9CF9C
:100D2000A281B381109729F224813581018510E0D9
:100D30002330310579F48E7F89839A830F5F1F4FAB
:100D40009E012F5F3F4F42E050E0B701CD010E946E
:100D50005D04B0CF2115310519F49F779983F0CF49
:100D60002230310511F49068F9CF2130310541F777
:100D70009F779064F3CFCF93DF93EC018B8188232F
:100D8000A1F0888191E0909396048093B80410922A
:100D900097041092B90481E00E94160591E0811138
:100DA00090E0892FDF91CF9108950E94DE0481E0C9
:100DB0008B83CE010E94BB06982F8111E2CFF1CF29
:100DC000E091690480916804E81730F4F0E0EC5B8E
:100DD000FB4F808190E008958FEF9FEF08959091F1
:100DE0006904809168042FEF3FEF981748F4E92FCA
:100DF000F0E0EC5BFB4F208130E09F5F9093690453
:100E0000C90108958091680490916904891B990B28
:100E10000895CF92DF92EF92FF920F931F93CF939B
:100E2000DF937C01CB018A0120919604222389F073
:100E3000EB016B01C40ED51ECC15DD0569F069917F
:100E4000D701ED91FC910190F081E02DC70109954A
:100E5000F3CF642F0E949904C801DF91CF911F91B5
:100E60000F91FF90EF90DF90CF900895CF93DF9395
:100E70001F92CDB7DEB76983209196042223F9F043
:100E80002091B904203258F021E030E0FC01338396
:100E9000228390E080E00F90DF91CF9108958091C0
:100EA0009704E82FF0E0E856FB4F998190838F5F1D
:100EB000809397048093B90481E090E0ECCF61E0E7
:100EC000CE0101960E949904F7CFFC01248131E004
:100ED000309396042093B804109297041092B904AA
:100EE0008485682B8CE795E00E94360781E00C949E
:100EF000160590E080E00895FC0182819381A48131
:100F0000B581FB0180839183A283B3830895CF933E
:100F1000DF93EC012FB7F89480913C0490913D044D
:100F2000A0913E04B0913F042FBF4E815F81688540
:100F30007985841B950BA60BB70B843F9140A105C7
:100F4000B10580F19A859E3008F09E5097709064AC
:100F500090937C0080917A00806480937A008091E5
:100F60007A0086FDFCCF8091780060917900762F21
:100F7000682F072E000C880B990B0E945D196A835D
:100F80007B838C839D832FB7F89480913C04909150
:100F90003D04A0913E04B0913F042FBF8E839F83F8
:100FA000A887B987DF91CF91089560E0FC01828521
:100FB0000C94D600DC01FB0152964D915D916D9130
:100FC0007C915597408351836283738356964D91EC
:100FD0005D916D917C9159974483558366837783A6
:100FE0005A964D915D916D917C915D9740875187A7
:100FF000628773875E968D919D910D90BC91A02D17
:1010000084879587A687B787089508952F923F9282
:101010004F925F926F927F928F929F92AF92BF9208
:10102000CF92DF92EF92FF920F931F93CF93DF93B4
:10103000CDB7DEB72C970FB6F894DEBF0FBECDBF8D
:101040006B017C01FA0120803180428053808480D2
:101050009580A680B78080859185A285B3858D8394
:101060009E83AF83B88784859585A685B785898358
:101070009A83AB83BC83A7019B016D817E818F81A5
:1010800098850E94E71BA701960187FF9EC0698192
:101090007A818B819C810E94561987FDB7C0298176
:1010A0003A814B815C816D817E818F8198850E9420
:1010B0005619882309F4AAC0A701960169817A818B
:1010C0008B819C810E94D91A69877A878B879C873C
:1010D0002D813E814F81588569817A818B819C81E8
:1010E0000E94D91A9B01AC0169857A858B859C8504
:1010F0000E94461B3B0189839D83A7019601C50180
:10110000B4010E94561918160CF050C0A7019601A0
:10111000C201B1010E94E71B18160CF44CC0A501D6
:101120009401C201B1010E945619882309F443C0F9
:10113000A2019101C701B6010E94D91A6B017C017D
:10114000A2019101C501B4010E94D91A9B01AC0111
:10115000C701B6010E94461B7B018C0193014981A6
:101160005D81B701C8010E94E71B18161CF037010A
:1011700009831D83B30189819D812C960FB6F89454
:10118000DEBF0FBECDBFDF91CF911F910F91FF90BA
:10119000EF90DF90CF90BF90AF909F908F907F9017
:1011A0006F905F904F903F902F900895E12CF12C1D
:1011B00000E81FE3D3CFE12CF12C00E010E0CECF0C
:1011C00090E89983AFE3AD83D5CFC501B4010E9408
:1011D0005619612C712C18169CF7B0E8B9838FE36F
:1011E0008D83A7019601C201B1010E94E71B181669
:1011F00044F0A5019401C201B1010E945619811168
:1012000097CF612C712C19821D82B4CFA701960152
:10121000C501B4010E945619612C712C19821D82DE
:1012200018160CF0A7CFDDCF2F923F924F925F920E
:101230006F927F928F929F92AF92BF92CF92DF92E6
:10124000EF92FF920F931F93CF93DF9300D000D0C4
:1012500000D0CDB7DEB77C017C836B830B969E8379
:101260008D83D70116969C91169717968C91179798
:1012700099838A836D907C9011976114710409F4AD
:101280004CC119964C9150E0F301848195818417EB
:101290009507A8F0808191E0909396048093B8041C
:1012A000109297041092B90420E0BE016F5F7F4F47
:1012B000C3010E940606D12CC12C81111AC080E006
:1012C00026960FB6F894DEBF0FBECDBFDF91CF914B
:1012D0001F910F91FF90EF90DF90CF90BF90AF9054
:1012E0009F908F907F906F905F904F903F902F9046
:1012F0000895D30114968D919C9102E010E00C1991
:101300001D098017910708F48C01F30150800E9499
:1013100012014B015C0180919004811176C0B02EC6
:10132000F0E2F01710F440E2B42E81E080939004D4
:1013300021E082E090E0801B910BC816D90608F4EA
:1013400020E020938F049FEF90938E0410928D04E1
:101350008FEF8B0D80938C04A1E0A0936B048091A0
:101360006B04550C582A50926B0480916A048130AA
:1013700009F093C010926A040E9412011B012C0113
:1013800080916B048093BB008091920490919304B0
:10139000A0919404B0919504892B8A2B8B2BA1F0FA
:1013A0000E94120120919204309193044091940480
:1013B0005091950462197309840995092617370716
:1013C0004807590708F442C08091BC0083FDD8CF7C
:1013D000B5ECB093BC000E9412011B012C0180915E
:1013E0009004813009F45DC080918D048B1510F458
:1013F000B0908D04ACE6B4E0E4E4F4E080E08B155A
:1014000051F19D9191938F5FFACF809192049091C9
:101410009304A0919404B0919504892B8A2B8B2B73
:1014200009F479CF0E941201209192043091930423
:101430004091940450919504681979098A099B098F
:10144000261737074807590708F065CF80919104A0
:101450000E94F504B12C10926904B0926804B01691
:10146000110609F02CCF8D809E808C0C9D1C5401A0
:10147000C5018819990980179107A8F5D30111961C
:101480008D919C91DC01ED91FC910284F385E02D1E
:101490000995F50181935F01EBCFE5EEE093BC0088
:1014A0009ACF8091920490919304A0919404B0916A
:1014B0009504892B8A2B8B2B09F491CF0E94120162
:1014C000209192043091930440919404509195049A
:1014D00062197309840995092617370748075907C0
:1014E00008F07DCFB3CFC00ED11EF2E0CF16D104ED
:1014F00008F4FFCEF7018285811142C0848590E017
:10150000982F8827AB81BC8111969C938E9323855D
:10151000822B8D939C9381E0D3CE1296ED91FC911A
:101520001397309709F4CBCE14962D913C911597D3
:1015300019964C9150E02330310591F481608983F4
:101540009A834F5F5F4F02E010E02D813E81BE0124
:101550006F5F7F4FCF010E9421048111CBCFB0CEAE
:101560002115310519F490689983EDCF22303105AA
:1015700011F49F77F9CF2130310529F7906CF4CF22
:10158000838590E0982F8827AB81BC8111969C932E
:101590008E932485BDCF8F929F92AF92BF92CF92B0
:1015A000DF92EF92FF920F931F93CF93DF93CDB70C
:1015B000DEB7A8970FB6F894DEBF0FBECDBF2FB72A
:1015C000F89440913C0450913D0460913E04709128
:1015D0003F042FBFFC0103A114A125A136A1401B8C
:1015E000510B620B730B443F51406105710508F4C8
:1015F00011C18C01FC0182819381188A198A1A8A8F
:101600001B8A9A8389831C821B82FF24F394FA86A7
:1016100081E090E098878F83FB8682E0E82EE98660
:10162000BE016C5E7F4FCE0101960E941409F80145
:1016300084836C897D89072E000C880B990B0E948E
:101640005D192AE037ED43E25CE30E94BC19F80122
:10165000628B738B848B958B82819381188A198A14
:101660001A8A1B8A9A8389831C821B82FA8682E0EB
:1016700090E098878F83FB86E986BE016C5E7F4F82
:10168000CE0101960E941409F80184836C897D893A
:1016900093E0769567959A95E1F7660F771F660F49
:1016A000771F072E000C880B990B0E945D192FE6FF
:1016B00032E143E85AE30E94BC19F801668B778B4C
:1016C000808F918F828193811BA21CA21DA21EA2DA
:1016D0009D8B8C8B1F8A1E8AFD8E35E0C32ED12CEC
:1016E000DB8ECA8EFE8EEC8E4681578160857185B9
:1016F000CE0144960E942406F80182819381188AC3
:10170000198A1A8A1B8A9A8389831C821B82FA8609
:1017100084E090E098878F83FB86E986BE01695D4F
:101720007F4FCE0101960E941409F80184836FA1B6
:1017300078A5072E000C880B990B0E945D194B01B0
:101740005C01F80162857385848595850E945B192B
:101750009B01AC01C501B4010E94461BF801628FD8
:10176000738F848F958F828193811BA21CA21DA2EF
:101770001EA29D8B8C8B1F8A1E8AFD8EDB8ECA8ECD
:10178000FE8EEC8E4681578160857185CE01449630
:101790000E942406F80182819381188A198A1A8A84
:1017A0001B8A9A8389831C821B82FA8683E090E0DD
:1017B00098878F83FB86E986BE01695D7F4FCE01E6
:1017C00001960E941409F80184836FA178A5072E61
:1017D000000C880B990B0E945D199B01AC01F8016C
:1017E00066857785808991890E94BC19F801668F8A
:1017F000778F80A391A32FB7F89480913C049091A8
:101800003D04A0913E04B0913F042FBF83A394A355
:10181000A5A3B6A3A8960FB6F894DEBF0FBECDBFA2
:10182000DF91CF911F910F91FF90EF90DF90CF90BC
:10183000BF90AF909F908F9008950F931F93CF9379
:101840008C01C62F0E9465076C2F6460C8010E943E
:1018500065076C2F6B7FC8010E94650783EC90E0E1
:101860000197F1F7CF911F910F9108950F931F9357
:10187000CF93DF938C01D62FC42F607F642B0E94FF
:101880001D0C80E1D89FB00111246C2BC801DF91A1
:10189000CF911F910F910C941D0C41E00E94360CCA
:1018A00081E090E00895FC0101900020E9F7319774
:1018B000AF01481B590BBC018AEB94E00C946A0100
:1018C0008F929F92AF92BF920F931F93CF93DF930C
:1018D000CDB7DEB7A1970FB6F894DEBF0FBECDBF70
:1018E00019A2423008F44AE08E010F5D1F4F842E8A
:1018F000912CB12CA12CA50194010E94B11AE62FC4
:10190000B901CA01EA30F4F4E05DD801EE938D012B
:10191000232B242B252B79F790E080E0109719F0EA
:10192000CD010E94530CA1960FB6F894DEBF0FBEF6
:10193000CDBFDF91CF911F910F91BF90AF909F903E
:101940008F900895E95CE1CF4F925F926F927F9202
:101950008F929F92AF92BF92CF92DF92EF92FF92BF
:101960000F931F93CF936B017C01742EAC019B01ED
:101970000E94EC1B882399F084E293E0CF911F91A1
:101980000F91FF90EF90DF90CF90BF90AF909F901E
:101990008F907F906F905F904F900C94530C460106
:1019A0005701E894B7F82FEF3FEF4FE75FE7C50126
:1019B000B4010E94EC1B81110DC02FEF3FEF4FE7E8
:1019C0005FE7C501B4010E94561918161CF488E29D
:1019D00093E0D4CF2FEF3FEF4FE75FE4C701B601AD
:1019E0000E94E71B18161CF48CE293E0C7CF2FEF80
:1019F0003FEF4FE75FECC701B6010E94561987FD24
:101A0000F3CF20E030E0A901C701B6010E945619CA
:101A100010E000E087FF0AC06DE28AEB94E00E94CC
:101A20000A028C01F7FAF094F7F8F094C0E060E055
:101A300070E080E09FE37C1641F020E030E040E27F
:101A400051E40E94461BCF5FF6CFA70196010E948A
:101A5000DA1A2B013C010E94B81B4B015C014AE0E1
:101A60000E94600C7C01E00EF11ECC23C1F1C50187
:101A7000B4010E945B199B01AC01C301B2010E9439
:101A8000D91A4B015C016EE28AEB94E00E940A02D3
:101A9000E80EF91EC15018F120E030E040E251E4B8
:101AA000C501B4010E94BC192B013C010E94B81B66
:101AB0004B01B12CA12C4AE0C501B4010E94600C7D
:101AC000E80EF91EC501B4010E945B199B01AC012F
:101AD000C301B2010E94D91A4B015C01DBCFC701DF
:101AE000CF911F910F91FF90EF90DF90CF90BF901B
:101AF000AF909F908F907F906F905F904F900895E0
:101B0000CF93DF93EC016091D40570E06F5F7F4F5E
:101B1000660F771F8091D2059091D3050E94F11B2B
:101B2000009751F480E393E00E94530C8BE493E020
:101B3000DF91CF910C94530C9093D3058093D205F1
:101B40002091D405422F50E0440F551F840F951F5C
:101B5000FC01D183C0832F5F2093D405DF91CF9107
:101B60000895CF92DF92EF92FF920F931F93CF933E
:101B7000DF93CDB7DEB7A6970FB6F894DEBF0FBEE2
:101B8000CDBF8C01DC0112968D919C91892BB9F40B
:101B900086E090E00E943118FC01D80115968C91E6
:101BA000159780838CE795E092838183138280E28E
:101BB00090E0958384831396FC93EE931297F8013B
:101BC000C280D3800E94DE04FF24F394D6011396D2
:101BD000FC92C6010E94BB06811117C08EE493E0FF
:101BE0000E94530C8BE493E00E94530CA6960FB610
:101BF000F894DEBF0FBECDBFDF91CF911F910F9143
:101C0000FF90EF90DF90CF90089580E090E1A0E00A
:101C1000B0E0F80186839783A087B1878AE090E0DF
:101C2000A0E0B0E082879387A487B58780E090E04A
:101C3000A0E0B0E486879787A08BB18B82819381E7
:101C40001BA21CA21DA21EA29D8B8C8B1F8A1E8A0A
:101C5000FD8E85E090E09B8F8A8FFE8E82E0E82EDD
:101C6000EC8E40E050E160E070E0CE0144960E94CE
:101C70002406D80112968D919C91188A198A1A8A85
:101C80001B8A9A8389831C821B82FA8618861F828C
:101C9000FB86E9864FE959E360E070E0CE010196EA
:101CA0000E942406F8018483A1CF0E94AE1C85ED1A
:101CB0008093BC008091920490919304A09194042D
:101CC000B09195040796A11DB11D23E0B695A79587
:101CD000979587952A95D1F72091BC0024FD03C0E4
:101CE0001092900408954091920450919304609151
:101CF000940470919504452B462B472B69F300976C
:101D0000A105B10541F025E32A95F1F700000197FF
:101D1000A109B109E1CF809191040C94F5041F92BF
:101D20000F920FB60F9211242F933F938F939F938F
:101D3000AF93BF9380913C0490913D04A0913E04E9
:101D4000B0913F0430913B0423E0230F2D3758F529
:101D50000196A11DB11D20933B0480933C049093F8
:101D60003D04A0933E04B0933F04809140049091C1
:101D70004104A0914204B09143040196A11DB11DFC
:101D80008093400490934104A0934204B093430491
:101D9000BF91AF919F918F913F912F910F900FBE67
:101DA0000F901F90189526E8230F0296A11DB11DD4
:101DB000D2CF1F920F920FB60F9211242F933F9301
:101DC0004F935F936F937F938F939F93AF93BF9343
:101DD000EF93FF93E0914E02F0914F020995FF912E
:101DE000EF91BF91AF919F918F917F916F915F9193
:101DF0004F913F912F910F900FBE0F901F9018950C
:101E00001F920F920FB60F9211242F933F934F936F
:101E10005F936F937F938F939F93AF93BF93EF9352
:101E2000FF93E0914C02F0914D020995FF91EF91E3
:101E3000BF91AF919F918F917F916F915F914F91E2
:101E40003F912F910F900FBE0F901F9018951F92EA
:101E50000F920FB60F9211242F933F934F935F93DE
:101E60006F937F938F939F93AF93BF93EF93FF9362
:101E70008AEB94E00E94E801FF91EF91BF91AF914E
:101E80009F918F917F916F915F914F913F912F9192
:101E90000F900FBE0F901F9018951F920F920FB6C4
:101EA0000F9211242F938F939F93EF93FF93E091C1
:101EB000CA04F091CB048081E091D004F091D10468
:101EC00082FD1BC090818091D3048F5F8F7320911E
:101ED000D404821741F0E091D304F0E0E654FB4FC4
:101EE000958F8093D304FF91EF919F918F912F91C4
:101EF0000F900FBE0F901F9018958081F4CF1F9206
:101F00000F920FB60F9211240F900FBE0F901F90DB
:101F100018951F920F920FB60F9211242F933F9393
:101F20004F935F936F937F938F939F93AF93BF93E1
:101F3000EF93FF93F0E0E0E00995FF91EF91BF91FF
:101F4000AF919F918F917F916F915F914F913F9151
:101F50002F910F900FBE0F901F9018951F920F9208
:101F60000FB60F9211242F933F934F935F936F936C
:101F70007F938F939F93AF93BF93EF93FF93809142
:101F8000B900887F803609F44AC0F0F5883209F438
:101F9000A7C018F5803109F49BC0B8F4882309F470
:101FA000F9C0883009F494C0FF91EF91BF91AF91CF
:101FB0009F918F917F916F915F914F913F912F9161
:101FC0000F900FBE0F901F901895883109F488C0AC
:101FD000803251F780938E0414C0803409F49DC080
:101FE00040F48033B9F38833F9F680938E0485EC9E
:101FF000B0C0803509F485C0883509F496C08834AE
:1020000099F60E94570ED0CF883909F48CC038F564
:10201000883729F050F4883611F0803729F683E0AC
:10202000809390041092EF0357C0883809F47BC066
:10203000803919F0803809F0B7CF8091EF038032F2
:1020400008F071C0E091EF0381E08E0F8093EF0301
:102050008091BB00F0E0E153FC4F80833DC0803BAA
:1020600039F0E0F4803A09F479C0883A09F09CCF5D
:1020700084E0809390041092CE031092CD03E091FF
:102080006604F091670409958091CD0381110FC01A
:1020900081E08093CD031092AD0309C0803C09F428
:1020A000A6CF883C09F4A3CF883B09F07DCFE0910F
:1020B000CE0381E08E0F8093CE03F0E0E355FC4F1A
:1020C00080818093BB009091CE038091CD0329C085
:1020D00080916B048093BB0085EC8093BC0064CF3F
:1020E00090918D0480918C04981758F5E0918D049F
:1020F00081E08E0F80938D04F0E0E459FB4F8081E6
:10210000E9CFE0918D0481E08E0F80938D04809162
:10211000BB00F0E0E459FB4F808390918D048091E7
:102120008C049817C8F285E8D8CFE0918D0481E03F
:102130008E0F80938D048091BB00F0E0E459FB4F3B
:10214000808380918F0481115CCF81E080936A0449
:1021500084EA8093BC001092900426CF85EC809393
:10216000BC00109290048091EF03803230F4E09133
:10217000EF03F0E0E153FC4F10826091EF0370E059
:10218000E0916404F09165048FEC93E0099510925E
:10219000EF030ACF10928E0434CFCF93DF93EC017C
:1021A00061E088810E94D6008D8961E0811101C0C3
:1021B00060E088810E948A001C8ADF91CF91089597
:1021C0000F931F93CF93DF93EAEBF4E01382128215
:1021D00088EE93E0A0E0B0E084839583A683B78384
:1021E00026EE32E03183208325EC30E035872487EA
:1021F00024EC30E03787268720EC30E0318B208BD1
:1022000021EC30E0338B228B22EC30E0358B248BB9
:1022100026EC30E0378B268B118E128E138E148EA7
:10222000E8E5F5E01382128228EF32E03183208363
:1022300020E5248721E0258727E535E037872687B5
:102240002AE030E0318B208B29E030E0338B228B89
:1022500002E010E0158B048B168A178A108E118EFF
:10226000138E128E158E148E178E168E11A210A23A
:1022700013A212A21482158216821782ECE7F5E0EF
:102280001382128284839583A683B7838AE093E0C6
:1022900091838083E5EDF5E0138212828CE193E077
:1022A00091838083118687E2848380E1828782E044
:1022B00083871486E2EDF5E0118210821282CEEC63
:1022C000D5E086E08B8385E08A8383E0888384E0A1
:1022D000898361E086E00E94D60061E08A810E94E5
:1022E000D60061E088810E94D60061E089810E9469
:1022F000D600CAECD5E08AE08B8389E08A8387E048
:10230000888388E0898361E08AE00E94D60061E0EA
:102310008A810E94D60061E088810E94D60061E037
:1023200089810E94D600E4EBF5E011830083158AD1
:10233000CF010E94CD10EEE9F5E08BE090E09183B3
:102340008083158ACF010E94CD10E8E8F5E08CE08B
:1023500090E091838083158ACF01DF91CF911F9107
:102360000F910C94CD10CF93DF93CDB7DEB7C05A49
:10237000D1090FB6F894DEBF0FBECDBF789484B5F7
:10238000826084BD84B5816084BD85B5826085BD71
:1023900085B5816085BD80916E00816080936E00FF
:1023A00010928100809181008260809381008091F1
:1023B00081008160809381008091800081608093A2
:1023C00080008091B10084608093B1008091B00062
:1023D00081608093B00080917A00846080937A005D
:1023E00080917A00826080937A0080917A00816087
:1023F00080937A0080917A00806880937A001092AE
:10240000C100E091CA04F091CB0482E08083E091A6
:10241000C604F091C7041082E091C804F091C90489
:102420008FEC80831092D204E091CE04F091CF041F
:1024300086E08083E091CC04F091CD0480818061BE
:102440008083E091CC04F091CD048081886080830A
:10245000E091CC04F091CD04808180688083E0918C
:10246000CC04F091CD0480818F7D80838DE090E05D
:102470000E943118FC010AE512E0118300831282E8
:1024800013821482158216821782108611868EE0BE
:10249000828735E0E32EE3864AE0F42EF486CF010E
:1024A0000E94800D8DE090E00E943118FC011183A4
:1024B000008312821382148215821682178210867C
:1024C00011868FE08287E386F486CF010E94800D1B
:1024D0008DE090E00E943118FC011183008312828C
:1024E000138214821582168217821086118650E19B
:1024F000D52ED286E386F4860E94800D8DE090E092
:102500000E943118FC01118300831282138214820D
:102510001582168217821086118681E18287E386F2
:10252000F486CF010E94800D87E290E00E9431186E
:10253000FC011382128280E485831286138614863E
:10254000158616861786108A118A0CE612E011830A
:1025500000839F012E5E3F4FD9014D2D1D924A955C
:10256000E9F782A313A214A215A216A2CF010E941A
:10257000800D87E290E00E943118FC0113821282E4
:1025800081E485831286138614861586168617863F
:10259000108A118A118300839F012E5E3F4FD9015B
:1025A0001D92DA94E9F782A313A214A215A216A22F
:1025B000CF010E94800D8091D2059091D305892B87
:1025C000D1F010E08091D4051817A8F4812F90E085
:1025D000880F991FE091D205F091D305E80FF91FFC
:1025E00080819181DC01ED91FC910190F081E02DE1
:1025F00009951F5FE7CF0E94DE041092DA058091F3
:10260000E005823018F098E09093DA058093DD05BC
:1026100062E370E080E090E00E9437016091E105A4
:1026200085ED95E00E94650768EE73E080E090E03C
:102630000E94370160E385ED95E00E941D0C0BE4DC
:1026400016E4C8010197F1F760E385ED95E00E947B
:102650001D0CC8010197F1F760E385ED95E00E943C
:102660001D0C83E592E00197F1F760E285ED95E0BE
:102670000E941D0C6091DA05606240E085ED95E0F6
:102680000E94360C84E08093DB0540E06CE085ED31
:1026900095E00E94360C40E061E085ED95E00E94F7
:1026A000360C8BE39FE10197F1F78091DE058823DB
:1026B00031F040E060E885ED95E00E94360C82E064
:1026C0008093DC0540E066E085ED95E00E94360CE5
:1026D00040E062E085ED95E00E94360C8BE39FE1DF
:1026E0000197F1F788E08093E10560E085ED95E0E2
:1026F0000E946507FE013196C357DF4FF983E883D7
:10270000CD58D040E65EF540C156DF4FF983E883EF
:10271000CF59D0408091D2059091D305892BD1F02B
:1027200010E0E091D205F091D3058091D4051817FF
:1027300088F4812F90E0880F991FE80FF91F80819E
:102740009181DC01ED91FC910280F381E02D0995EE
:102750001F5FE7CFB3E1EB2EB4E0FB2E10E000E00B
:10276000E091D205F091D305E00FF11F80819181B6
:10277000DC01ED91FC910480F581E02DB701099514
:1027800020E030E048EC52E4F70160817181828101
:1027900093810E94BC1920E030EC4FE754E40E9482
:1027A000461B20E030E0A9010E94DA1AD7016D93A0
:1027B0007D938D939D937D010E5F1F4F0830110512
:1027C00079F6E091D205F091D30582859385DC01FD
:1027D000ED91FC910480F581E02D63E074E00995B2
:1027E000E091D205F091D30584859585DC01ED91CA
:1027F000FC910480F581E02D63EF73E0099589E693
:1028000093E00E94530C6091230470912404809102
:1028100025049091260442E00E94A40C80E793E0F6
:102820000E94530C60912704709128048091290420
:1028300090912A0442E00E94A40C87E793E00E9452
:10284000530C8091E2059091E305009709F02AC1AD
:10285000C156DF4FE881F981CF59D040FA83E9832F
:10286000C980DA800D2C000CEE08FF084AE0C70191
:10287000B601F7FE0DC06DE28AEB94E00E940A02F9
:1028800066277727CB016C197D098E099F094AE0DD
:102890000E94600C8BE493E00E94530C10922B0476
:1028A00010922C0410922D0410922E0410922F04DA
:1028B00010923004109231041092320410923304BA
:1028C000109234041092350410923604109237049A
:1028D000109238041092390410923A041092230492
:1028E00010922404109225041092260410922704BA
:1028F000109228041092290410922A04CF57DF4F17
:10290000188219821A821B82C158D040CB57DF4FE0
:10291000188219821A821B82C558D040ED961CAECF
:102920001DAE1EAE1FAEED97C358DF4F1882198241
:102930001A821B82CD57D040E5961CAE1DAE1EAE4E
:102940001FAEE597E9961CAE1DAE1EAE1FAEE99711
:10295000AD961CAE1DAE1EAE1FAEAD97E1961CAE81
:102960001DAE1EAE1FAEE19741E850E04C0F5D1F5B
:10297000A3965FAF4EAFA39789E790E08C0F9D1FA2
:10298000A5969FAF8EAFA597A1E7B0E0AC0FBD1F96
:10299000A796BFAFAEAFA797E9E6F0E0EC0FFD1F3B
:1029A000A996FFAFEEAFA99769961CAE1DAE1EAEFD
:1029B0001FAE69976D961CAE1DAE1EAE1FAE6D9715
:1029C000A1961CAE1DAE1EAE1FAEA1972D961CAEDD
:1029D0001DAE1EAE1FAE2D9761961CAE1DAE1EAE77
:1029E0001FAE619765961CAE1DAE1EAE1FAE6597FD
:1029F00025E530E02C0F3D1FC757DF4F3983288373
:102A0000C958D04049E450E04C0F5D1FC557DF4F17
:102A100059834883CB58D04088E4C357DF4FA881FF
:102A2000B981CD58D0401D928A95E9F70AED12E0A0
:102A3000F2ED8F2EF2E09F2EFE01EF59FF4F6F0156
:102A4000ABE2AA2EA4E0BA2ED8014D905D908D0184
:102A5000F12CE12CE414F50484F53701660C771CA5
:102A6000660C771CF60180819181680E791EC70182
:102A7000880F991FD401ED91FC91E80FF91F408157
:102A80005181F50160817181828193810E940608E4
:102A9000D3016D937D938D939C931397BFEFEB1AA6
:102AA000FB0AD8CFC357DF4F28813981CD58D0409A
:102AB000281B390B3A832983D3CEE2E08E0E911C7A
:102AC000F4E0AF0EB11C22E0C20ED11C32E0023E97
:102AD000130709F0B9CF42EC52E0C157DF4F5983D9
:102AE0004883CF58D04082EB92E0C956DF4F99839C
:102AF0008883C759D040A2E9B2E0CB56DF4FB983F3
:102B0000A883C559D040FE0131961F01C756DF4F3B
:102B1000188219821A821B82C959D040C157DF4FCF
:102B2000A881B981CF58D0408D919D91C157DF4F79
:102B3000B983A883CF58D040C956DF4FE881F981C7
:102B4000C759D04001911191C956DF4FF983E883ED
:102B5000C759D0409801285F3F4FCF56DF4F398388
:102B60002883C159D040019709F0CAC080E090E0A5
:102B7000A0E8BFE3F10180839183A283B3839E0128
:102B80002F593F4F7901D8018D919D918D01F10110
:102B900080809180A280B380181619060CF08CC03A
:102BA0008150904C880F991F880F991FD7012D9144
:102BB0003C91820F931FA5019401FC0160817181FA
:102BC000828193810E94BC19D1016D937D938D9375
:102BD0009C931397F2E0EF0EF11CCF56DF4F288144
:102BE0003981C159D0402017310769F6CB56DF4FE4
:102BF000A881B981C559D0406D917D918D919D91EC
:102C0000CB56DF4FB983A883C559D040F10121913C
:102C10003191419151911F010E94BC199B01AC015E
:102C2000F10134972083318342835383C756DF4FAA
:102C3000688179818A819B81C959D0400E94DA1AC2
:102C4000C756DF4F688379838A839B83C959D040F5
:102C500026EE32E0C157DF4F48815981CF58D0402E
:102C60002417350709F05ACF20E030E0A9010E946F
:102C700056198111DFC080E090E0A0E0BFE38093AF
:102C8000230490932404A0932504B09326048093F6
:102C9000270490932804A0932904B0932A0480E089
:102CA00090E0892B09F436CD0E94D401882309F4E1
:102CB00031CD0E9400002ECD009709F48BCF0196F4
:102CC0006CEFAC0164039001659F300D1124D701B6
:102CD000ED91FC91E20FF31F2081318142815381FC
:102CE00060E070E080E89FE30E94D91AA50194019A
:102CF0000E94BC19F10160837183828393836ACF40
:102D0000D1011D921D921D921C921397CD56DF4F3B
:102D100019830883C359D0408E010F591F4FCD56D8
:102D2000DF4FE881F981C359D04081919191CD560F
:102D3000DF4FF983E883C359D040D101CD90DD90B6
:102D4000ED90FC9018161906E4F58150904C880F10
:102D5000991F880F991FF80120813181820F931FDD
:102D6000DC018D909D90AD90BC90A7019601C501AE
:102D7000B4010E94DA1A2B013C01A7019601C5019A
:102D8000B4010E94BC199B01AC01C301B2010E94B5
:102D9000D91AF10160837183828393830E5F1F4F81
:102DA000CF56DF4FE881F981C159D040CD56DF4F72
:102DB00028813981C359D040E217F30709F0AFCF1A
:102DC00015CF0097D1F001966CEFAC016403900130
:102DD000659F300D1124D801ED91FC91E20FF31F96
:102DE000208131814281538160E070E080E89FE37F
:102DF0000E94D91A4B015C01B8CF20E030E0A90154
:102E0000C701B6010E94DA1A4B015C0120E030E0F4
:102E1000A901C701B6010E94BC199B01AC01C50103
:102E2000B4010E94D91AD1016D937D938D939C9327
:102E30001397B4CFAEE8B2E0C956DF4FB983A88389
:102E4000C759D040E3E2F4E0CB56DF4FF983E88383
:102E5000C559D0402E01F9E84F0E511C2AE832E046
:102E6000C157DF4F39832883CF58D040312C212CD4
:102E7000C956DF4FA881B981C759D040ED91FD9166
:102E8000C956DF4FB983A883C759D040C356DF4F17
:102E9000F983E883CD59D040D2010D90BC91A02D8B
:102EA000CD56DF4FB983A883C359D040F12CE12C14
:102EB000C356DF4FE881F981CD59D040EE16FF06A9
:102EC0000CF05BC0C157DF4FA881B981CF58D0400B
:102ED000ED91FC91C701880F991FE80FF91F019030
:102EE000F081E02D3701660C771C660C771CCD56FF
:102EF000DF4F28813981C359D040620E731E80880C
:102F00009188A288B3888F016F0130E1C30ED11C74
:102F10004BE254E0CF56DF4F59834883C159D0402C
:102F2000CF56DF4FA881B981C159D0406D917D91B5
:102F30008D919D91CF56DF4FB983A883C159D04061
:102F4000F80121913191419151918F010E94BC1959
:102F50009B01AC01C501B4010E94DA1A4B015C016E
:102F6000C016D106E9F6D3018D929D92AD92BC9226
:102F70001397BFEFEB1AFB0A9BCF0AE712E0FE01A3
:102F800031965F01C12CD12C7601D801ED91FD91D4
:102F90008D01D5016D917D918D919D915D01E20D28
:102FA000F31D0190F081E02D3197EE0FFF1FEE0F22
:102FB000FF1FCD56DF4F28813981C359D040E20F22
:102FC000F31F20813181428153810E94BC199B01F2
:102FD000AC01C701B6010E94DA1A6B017C014EE90F
:102FE00052E04017510789F6C756DF4F28813981D3
:102FF0004A815B81C959D0400E94461BCB56DF4FA6
:10300000A881B981C559D0406D937D938D939D93CF
:10301000CB56DF4FB983A883C559D040B2E02B0E01
:10302000311CE2E04E0E511CC157DF4F288139811F
:10303000CF58D0402E5F3F4FC157DF4F3983288391
:10304000CF58D04034E02316310409F011CF27CEF9
:103050008091D2059091D305009711F00C94CD1872
:1030600008950F931F93CF93DF938230910510F44F
:1030700082E090E0E091E405F091E50530E020E0A9
:10308000B0E0A0E0309799F42115310509F44AC069
:10309000281B390B24303105D8F58A819B816115B5
:1030A000710589F1FB0193838283FE0111C0408188
:1030B00051810281138148175907E0F048175907D9
:1030C00099F4109761F012960C93129713961C9333
:1030D0003296CF01DF91CF911F910F910895009308
:1030E000E4051093E505F4CF2115310551F04217A1
:1030F000530738F0A901DB019A01BD01DF01F80196
:10310000C1CFEF01F9CF9093E5058093E405CDCFD2
:10311000FE01E20FF31F819391932250310939830D
:103120002883D7CF2091E2053091E305232B41F48A
:1031300020915202309153023093E3052093E2052F
:1031400020915002309151022115310541F42DB7E3
:103150003EB74091540250915502241B350BE0912B
:10316000E205F091E305E217F307A0F42E1B3F0BF5
:103170002817390778F0AC014E5F5F4F24173507E9
:1031800048F04E0F5F1F5093E3054093E205819393
:1031900091939FCFF0E0E0E09CCFCF93DF93009737
:1031A000E9F0FC01329713821282A091E405B091FC
:1031B000E505ED0130E020E01097A1F42081318198
:1031C000820F931F2091E2053091E30528173907FC
:1031D00009F061C0F093E305E093E205DF91CF9140
:1031E0000895EA01CE17DF07E8F54A815B819E0169
:1031F00041155105B1F7E901FB83EA8349915991E2
:10320000C40FD51FEC17FD0761F4808191810296F0
:10321000840F951FE90199838883828193819B8321
:103220008A83F0E0E0E012968D919C9113970097CD
:10323000B9F52D913C911197CD010296820F931F04
:103240002091E2053091E3052817390739F63097C8
:1032500051F51092E5051092E405B093E305A093B3
:10326000E205BCCFD383C28340815181840F951F77
:10327000C817D90761F44E5F5F4F88819981480F65
:10328000591F518340838A819B81938382832115B7
:10329000310509F0B0CFF093E505E093E4059ECF4A
:1032A000FD01DC01C0CF13821282D7CF0E94981992
:1032B00008F481E00895E89409C097FB3EF49095E6
:1032C0008095709561957F4F8F4F9F4F9923A9F0FF
:1032D000F92F96E9BB279395F6958795779567958E
:1032E000B795F111F8CFFAF4BB0F11F460FF1BC0D2
:1032F0006F5F7F4F8F4F9F4F16C0882311F096E965
:1033000011C0772321F09EE8872F762F05C0662312
:1033100071F096E8862F70E060E02AF09A95660FCB
:10332000771F881FDAF7880F9695879597F9089584
:10333000990F0008550FAA0BE0E8FEEF16161706C6
:10334000E807F907C0F012161306E407F50798F02E
:10335000621B730B840B950B39F40A2661F0232B47
:10336000242B252B21F408950A2609F4A140A695C3
:103370008FEF811D811D08950E94CF190C94401A72
:103380000E94321A38F00E94391A20F0952311F069
:103390000C94291A0C942F1A11240C94741A0E945C
:1033A000511A70F3959FC1F3950F50E0551F629F1E
:1033B000F001729FBB27F00DB11D639FAA27F00D8E
:1033C000B11DAA1F649F6627B00DA11D661F829FB5
:1033D0002227B00DA11D621F739FB00DA11D621F9A
:1033E000839FA00D611D221F749F3327A00D611DB7
:1033F000231F849F600D211D822F762F6A2F112499
:103400009F5750409AF0F1F088234AF0EE0FFF1FCB
:10341000BB1F661F771F881F91505040A9F79E3F22
:10342000510580F00C94291A0C94741A5F3FE4F350
:10343000983ED4F3869577956795B795F795E79578
:103440009F5FC1F7FE2B880F911D9695879597F981
:10345000089597F99F6780E870E060E008959FEF16
:1034600080EC089500240A9416161706180609061B
:10347000089500240A9412161306140605060895EA
:10348000092E0394000C11F4882352F0BB0F40F472
:10349000BF2B11F460FF04C06F5F7F4F8F4F9F4FB2
:1034A000089557FD9058440F551F59F05F3F71F034
:1034B0004795880F97FB991F61F09F3F79F087959B
:1034C0000895121613061406551FF2CF4695F1DF24
:1034D00008C0161617061806991FF1CF86957105B4
:1034E000610508940895E894BB2766277727CB01E8
:1034F00097F908952F923F924F925F926F927F9229
:103500008F929F92AF92BF92CF92DF92EF92FF92F3
:103510000F931F93CF93DF93CDB7DEB7CA1BDB0B9F
:103520000FB6F894DEBF0FBECDBF09942A88398844
:1035300048885F846E847D848C849B84AA84B9844B
:10354000C884DF80EE80FD800C811B81AA81B98157
:10355000CE0FD11D0FB6F894DEBF0FBECDBFED016B
:103560000895A1E21A2EAA1BBB1BFD010DC0AA1FC4
:10357000BB1FEE1FFF1FA217B307E407F50720F0DC
:10358000A21BB30BE40BF50B661F771F881F991F57
:103590001A9469F760957095809590959B01AC01A0
:1035A000BD01CF010895EE0FFF1F0590F491E02DAE
:1035B00009945058BB27AA270E94F11A0C94401A6C
:1035C0000E94321A38F00E94391A20F039F49F3FD5
:1035D00019F426F40C942F1A0EF4E095E7FB0C94E2
:1035E000291AE92F0E94511A58F3BA176207730774
:1035F0008407950720F079F4A6F50C94731A0EF45D
:10360000E0950B2EBA2FA02D0B01B90190010C01F2
:10361000CA01A0011124FF27591B99F0593F50F40A
:10362000503E68F11A16F040A22F232F342F442762
:10363000585FF3CF469537952795A795F04053955A
:10364000C9F77EF41F16BA0B620B730B840BBAF02A
:103650009150A1F0FF0FBB1F661F771F881FC2F795
:103660000EC0BA0F621F731F841F48F487957795A9
:103670006795B795F7959E3F08F0B0CF9395880F63
:1036800008F09927EE0F9795879508950E945A1B89
:103690000C94401A0E94391A58F00E94321A40F0D5
:1036A00029F45F3F29F00C94291A51110C94741AD3
:1036B0000C942F1A0E94511A68F39923B1F35523E1
:1036C00091F3951B550BBB27AA2762177307840735
:1036D00038F09F5F5F4F220F331F441FAA1FA9F3CB
:1036E00035D00E2E3AF0E0E832D091505040E695B9
:1036F000001CCAF72BD0FE2F29D0660F771F881F1A
:10370000BB1F261737074807AB07B0E809F0BB0B0C
:10371000802DBF01FF2793585F4F3AF09E3F510520
:1037200078F00C94291A0C94741A5F3FE4F3983ED5
:10373000D4F3869577956795B795F7959F5FC9F709
:10374000880F911D9695879597F90895E1E0660F8A
:10375000771F881FBB1F621773078407BA0720F003
:10376000621B730B840BBA0BEE1F88F7E09508956C
:103770000E94591A88F09F5798F0B92F9927B7518E
:10378000B0F0E1F0660F771F881F991F1AF0BA9505
:10379000C9F714C0B13091F00E94731AB1E00895D6
:1037A0000C94731A672F782F8827B85F39F0B93FC8
:1037B000CCF3869577956795B395D9F73EF49095B8
:1037C0008095709561957F4F8F4F9F4F08950E9410
:1037D000981908F48FEF08950E949819880B990B97
:1037E0000895B0E0A0E0E7EFFBE10C947C1A8C01B7
:1037F000009751F4CB010E9431188C01C801CDB75C
:10380000DEB7E0E10C94981AFC01E60FF71F9C016B
:1038100022503109E217F30708F49DC0D901CD9178
:10382000DC911197C617D70798F0C530D10530F352
:10383000CE0104978617970708F3C61BD70B22976C
:10384000C193D1936D937C93CF010E94CD18D6CFB5
:103850005B01AC1ABD0A4C018C0E9D1EA091E405C3
:10386000B091E505512C412CF12CE12C109731F54C
:103870008091E2059091E3058815990509F05CC0F7
:103880004616570608F058C0809150029091510298
:10389000009741F48DB79EB7409154025091550264
:1038A000841B950BE817F90708F055C0F093E30562
:1038B000E093E205F90171836083A0CF8D919C9123
:1038C000119712966C90129713967C901397A815E7
:1038D000B90559F56C0142E0C40ED11CCA14DB04D1
:1038E00020F1AC014A195B09DA011296159780F0B4
:1038F0006282738251834083D9016D937C93E1147A
:10390000F10471F0D7011396FC93EE93129776CFE2
:1039100022968C0F9D1FF90191838083F301EFCFD5
:10392000F093E505E093E40569CF4816590608F4DD
:103930002C017D01D3019ACFCB010E9431187C016B
:10394000009749F0AE01B8010E94B31CC8010E9463
:10395000CD18870153CF10E000E050CF81E090E018
:10396000F8940C94BC1CFB01DC0102C001900D9288
:1039700041505040D8F7089510E0CDE5D0E004C0A4
:10398000FE010E94D31A2196CE35D107C9F7F894CB
:02399000FFCF67
:103992000000000000000000000000000000000025
:1039A2000000803F00000000000000000000000056
:1039B200000000000000003F0000000000000000C6
:1039C20000000000000000000000803F0000000036
:1039D2000000000000000000000000000000003FA6
:1039E20000002042000070420000C8420000C842AD
:1039F20000000000000000000000204200007042B1
:103A020000002042000070420000C8420000C8428C
:103A12000000000000000000000020420000704290
:103A220000002042000070420000C8420000C8426C
:103A32000000000000000000000020420000704270
:103A420000002042000070420000C8420000C8424C
:103A52000000000000000000000020420000704250
:103A6200000002000000010000000300000002004C
:103A7200020000000100000003000000020000003C
:103A820084031401000198033C0128010000000096
:103A9200020002000000000002000100000000001D
:103AA200010002000000000001000100020002000B
:103AB20000000000020001000000000001000200FE
:103AC2000000000001000100000000006001500140
:103AD20080017001A0019001C001B001690169017A
:103AE2000000E605800000000000D50787077C077C
:103AF200050805080508770200000000B10DCB0A91
:103B0200DA070508050805087702EC01E801E40177
:103B1200E001DC01D801D401D001F601F00103007B
:103B220003000000803F0000803F0000803F000053
:103B3200803F0000803F0000803F0000803F000087
:103B4200803F34022C0224021C0214020C020402E2
:103B5200FC0101000100010001000100010001005F
:103B620001004802440240023C020200020002003C
:103B72000200000000000A026A0197015702C80110
:103B8200A601BA01000000007802CD03790777028E
:103B9200BE03A2037A030000000036070907790773
:103BA20077020207EF06E006000000004D0C6A01F2
:103BB200790798046E616E00696E66006F76660022
:103BC2004D656D6F727920416C6C6F636174696FC2
:103BD2006E204661696C65642021000D0A00466111
:103BE200696C656420746F2066696E6420494E4179
:103BF2003231392063686970007C204C523A2000CF
:103C02007C2055443A20007C206D656D3A200000EE
:00000001FF
