:100000000C9463000C948B000C948B000C94C60D24
:100010000C94C60D0C94C60D0C948B000C948B00A4
:100020000C948B000C948B000C948B000C948B0024
:100030000C948B000C948B000C948B000C948B0014
:100040000C94240D0C948B000C94940D0C946E0D58
:100050000C948B000C948B000C948B000C948B00F4
:100060000C943E0E0C948B00000000002300260030
:10007000290000000000240027002A0000000000E2
:10008000250028002B0004040404040404040202D4
:100090000202020203030303030301020408102007
:1000A0004080010204081020010204081020000012
:1000B0000008000201000003040700000000000027
:1000C00000005D0FC91111241FBECFEFD8E0DEBFC5
:1000D000CDBF23E0A0E9B1E001C01D92A338B20773
:1000E000E1F711E0A0E0B1E0E0E5FBE202C005903D
:1000F0000D92A039B107D9F710E0C2E6D0E004C0F4
:100100002197FE010E942713C136D107C9F70E942B
:10011000BF0F0C949B150C9400000895089590E077
:10012000FC01E255FF4F2491FC01E656FF4F34914C
:10013000FC01EA57FF4FE491EE23C9F0222339F086
:10014000233001F1A8F4213019F1223029F1F0E037
:10015000EE0FFF1FE458FF4FA591B4918FB7F894AD
:10016000EC91611126C030953E233C938FBF0895DA
:100170002730A9F02830C9F0243049F78091800059
:100180008F7D03C0809180008F7780938000DFCFC8
:1001900084B58F7784BDDBCF84B58F7DFBCF809115
:1001A000B0008F778093B000D2CF8091B0008F7D68
:1001B000F9CF3E2BDACFCF93DF9390E0FC01E656E8
:1001C000FF4F24918A579F4FFC0184918823C9F0E7
:1001D00090E0880F991FFC01EE58FF4FA591B49154
:1001E000FC01E458FF4FC591D49161110DC09FB738
:1001F000F8948C91209582238C93888128232883DE
:100200009FBFDF91CF910895623051F49FB7F8946A
:100210003C91822F809583238C93E8812E2BEFCF06
:100220008FB7F894EC912E2B2C938FBFEACF3FB76A
:10023000F89480912D0290912E02A0912F02B091FE
:10024000300226B5A89B05C02F3F19F00196A11DCD
:10025000B11D3FBFBA2FA92F982F8827BC01CD0110
:10026000620F711D811D911D42E0660F771F881F6F
:10027000991F4A95D1F708958F929F92AF92BF929E
:10028000CF92DF92EF92FF924B015C010E94170127
:100290006B017C010E9417016C197D098E099F0971
:1002A000683E734081059105A8F321E0821A910808
:1002B000A108B10888EEC80E83E0D81EE11CF11C2D
:1002C00081149104A104B10429F7FF90EF90DF900D
:1002D000CF90BF90AF909F908F9008952FB7F894D4
:1002E0006091290270912A0280912B0290912C0238
:1002F0002FBF0895AF92BF92CF92DF92EF92FF92FD
:100300000F931F93CF93DF936C017B018B01040F3D
:10031000151FEB015E01AE18BF08C017D10759F0D9
:100320006991D601ED91FC910190F081E02DC6011B
:100330000995892B79F7C501DF91CF911F910F9115
:10034000FF90EF90DF90CF90BF90AF900895FC01A9
:10035000538D448D252F30E0842F90E0821B930B2A
:10036000541710F0CF96089501970895FC01918DD0
:10037000828D981761F0A28DAE0FBF2FB11D5D96D3
:100380008C91928D9F5F9F73928F90E008958FEF75
:100390009FEF0895FC01918D828D981731F0828D29
:1003A000E80FF11D858D90E008958FEF9FEF089580
:1003B000FC01918D228D892F90E0805C9F4F821BE4
:1003C00091098F739927089587EA92E00E94D801D6
:1003D00021E0892B09F420E0822F089580E090E04D
:1003E000892B29F00E94E40181110C9400000895EA
:1003F000FC01A48DA80FB92FB11DA35ABF4F2C919A
:10040000848D90E001968F739927848FA689B78990
:100410002C93A089B1898C91837080648C93938D87
:10042000848D981306C00288F389E02D80818F7D2A
:1004300080830895EF92FF920F931F93CF93DF93E2
:10044000EC0181E0888F9B8D8C8D98131AC0E88910
:10045000F989808185FF15C09FB7F894EE89FF89DF
:100460006083E889F98980818370806480839FBF7D
:1004700081E090E0DF91CF911F910F91FF90EF907D
:100480000895F62E0B8D10E00F5F1F4F0F7311278D
:10049000E02E8C8D8E110CC00FB607FCFACFE889C8
:1004A000F989808185FFF5CFCE010E94F801F1CF57
:1004B000EB8DEC0FFD2FF11DE35AFF4FF0829FB73C
:1004C000F8940B8FEA89FB8980818062CFCFCF932C
:1004D000DF93EC01888D8823B9F0AA89BB89E8896C
:1004E000F9898C9185FD03C0808186FD0DC00FB612
:1004F00007FCF7CF8C9185FFF2CF808185FFEDCF90
:10050000CE010E94F801E9CFDF91CF9108952091AB
:100510001602309117022817390771F490911402CE
:1005200080911502981741F0E0911402F0E0EC522E
:10053000FE4F808190E008958FEF9FEF089508951A
:10054000EF92FF920F931F93CF93DF93DC015C96A2
:10055000ED90FC905D97E114F10479F481E090E076
:1005600013969C938E93129790E080E0DF91CF9149
:100570001F910F91FF90EF9008955196ED91FC918E
:10058000529750968C915097982F90950FB75E96F2
:100590002C915E97122F127021FD6095F8942081A6
:1005A000112319F1282B2083E7012197F1F728E087
:1005B000462F50E0308160FF1AC0382B3083E701AE
:1005C0002197F1F7BA0175956795215089F71123A5
:1005D00081F08081892380830FBF5C968D919C91EF
:1005E0000197F1F781E090E0C1CF2923DCCF3923D7
:1005F000E5CF9081892BEFCF209116023091170221
:100600002817390771F4809115022091140290E0A7
:10061000805C9F4F821B910960E470E00E94FF1292
:10062000089590E080E0089520911602309117021D
:1006300028173907B9F49091140280911502981780
:1006400089F0E0911402F0E0EC52FE4F808120919D
:10065000140230E02F5F3F4F2F7333272093140293
:1006600090E008958FEF9FEF089508950895CF9239
:10067000DF92EF92FF92CF93DF93DC011796CC913C
:100680001797D0E06111DC2F18962C91189730E065
:10069000220F331F28593F4F50E040E0F901859168
:1006A0009491FC01F080BA0190E080E0EF2DEC2302
:1006B000ED1310C04F5F5F4F1D96CD90DD90ED9014
:1006C000FC9050976C157D058E059F0538F36FEFF4
:1006D0007FEFCB01DF91CF91FF90EF90DF90CF9034
:1006E00008958F929F92AF92BF92CF92DF92EF9236
:1006F000FF920F931F93CF93DF93CDB7DEB7C05414
:10070000D1400FB6F894DEBF0FBECDBF8C010E9462
:100710006E01F801C184D284E384F4849B01AC01AE
:100720002C193D094E095F0969017A0130EDC316A4
:1007300037E0D306E104F104A8F48189C05CDE4F00
:100740000FB6F894DEBF0FBECDBFDF91CF911F91E2
:100750000F91FF90EF90DF90CF90BF90AF909F9060
:100760008F9008956187728783879487148213829C
:1007700012821182108262E085810E94DB0061E0BA
:1007800070E080E090E00E943C0161E0F80185812A
:100790000E94DB0060E0F80185810E948F00F80173
:1007A00086818551823028F58BE291E10197F1F73E
:1007B00062E0F80185810E94DB00F801828990E007
:1007C0008230910538F0880F991F880F991F05977F
:1007D0000197F1F7F89460E0C8010E9437036F3F7A
:1007E0007F4F8F4F9F4F61F4F801118A789480E01A
:1007F000A5CF64E170E080E090E00E943C01D8CF9A
:1008000061E0C8010E9437036F3F7F4F8F4F9F4FBA
:1008100059F39E012F5F3F4F79015E013FEBA31A11
:100820003EEFB30A670160E0C8010E943703F6019A
:10083000608371838283938361E0C8010E943703E0
:10084000F6016483758386839783F8E0CF0ED11C0D
:10085000CA14DB0441F7789430E020E0F70180808F
:100860009180A280B3804481558166817781FFEFBA
:100870008F169F06AF06BF0631F04F3F8FEF580728
:100880006807780719F4F801118AB1CFF90183E0FC
:10089000F595E7958A95E1F7E00FF11F8081880FC4
:1008A00084169506A606B706F0F080832F5F3F4FAB
:1008B000F8E0EF0EF11C2832310581F6F801448191
:1008C00020818181280F3327331F8281280F311D1A
:1008D0008381820F932F911D99274817190699F646
:1008E00081E0818B2BCF8160E0CF2091B101260F79
:1008F0003327331F21323105ECF420917D02FC01B6
:1009000090E080E0243069F082E00895A091B10188
:100910002191AC014F565E4FA40FB52FB11D2C9302
:100920000196861798F38091B101680F6093B10129
:1009300080E0089581E0089510927D0281E0809327
:100940007C021092570261E082E10E948F0061E018
:1009500083E10E948F00E9EBF0E080818E7F80834D
:1009600080818D7F808388E48093B80085E48093C4
:10097000BC000895CF93DF9391E09093900188237A
:10098000B9F0C091B800D091BA008091BC008A7BC8
:100990008093BC0060E082E10E948F0060E083E110
:1009A0000E948F000E949C04D093BA00C093B800AC
:1009B000DF91CF9108958F929F92AF92BF92CF9285
:1009C000DF92EF92FF920F931F93CF93DF93D0911B
:1009D000A602D13208F0D7C0182FC091A5020E94FC
:1009E00017016B017C0180917D0281116BC082E057
:1009F00080937D0210937C028FEF80937B02109294
:100A00007A02D0937902A5E8B2E0E9E5F2E080E06D
:100A1000D81391C01092580280915802CC0FC82B65
:100A2000C093580280915702813009F088C010921B
:100A300057020E9417016B017C018091580280933C
:100A4000BB0080917F0290918002A0918102B091C1
:100A50008202892B8A2B8B2BA1F00E941701009117
:100A60007F021091800220918102309182026C19E4
:100A70007D098E099F09061717072807390708F40B
:100A800042C08091BC0083FDD8CF85EC8093BC0030
:100A90000E9417016B017C0180917D02823009F474
:100AA00050C080917B028F3F09F46FC080917B0220
:100AB000803209F46CC080917B02803309F469C0F4
:100AC00084E026C080917F0290918002A0918102F3
:100AD000B0918202892B8A2B8B2B09F484CF0E9440
:100AE000170180907F0290908002A0908102B090C8
:100AF00082026C197D098E099F0986169706A80641
:100B0000B90608F070CF80917E020E94BA0485E099
:100B1000109284021092A60210928302DF91CF916C
:100B20001F910F91FF90EF90DF90CF90BF90AF900B
:100B30009F908F9008959D9191938F5F69CF85EEDF
:100B4000A5CF80917F0290918002A0918102B09107
:100B50008202892B8A2B8B2B09F49ECF0E941701CE
:100B600000917F02109180022091810230918202D7
:100B70006C197D098E099F09061717072807390781
:100B800008F08ACFC0CF81E0C3CF80E0C1CF82E040
:100B9000BFCF83E0BDCFCF93DF93EA01DC01119695
:100BA0008D919C91DC01ED91FC910280F381E02D0F
:100BB0000995C817D90729F481E00E94DB0491E068
:100BC000811190E0892FDF91CF910895CF93DF932A
:100BD000EC018B818823A1F0888191E090938302BE
:100BE0008093A502109284021092A60281E00E94D6
:100BF000DB0491E0811190E0892FDF91CF9108957E
:100C00001092360210923502109284021092A602BF
:100C10000E949C048DE890E090933402809333020C
:100C20008EE890E0909332028093310281E08B83D2
:100C3000CE010E94E605982F8111CECFDDCFE09145
:100C4000360280913502E81730F4F0E0E95CFD4FA0
:100C5000808190E008958FEF9FEF08959091360284
:100C6000809135022FEF3FEF981748F4E92FF0E01D
:100C7000E95CFD4F208130E09F5F90933602C9010F
:100C800008958091350290913602891B990B089541
:100C9000CF92DF92EF92FF920F931F93CF93DF9348
:100CA0007C01CB018A0120918302222389F0EB0190
:100CB0006B01C40ED51ECC15DD0569F06991D70115
:100CC000ED91FC910190F081E02DC7010995F3CFE2
:100CD000642F0E947504C801DF91CF911F910F917D
:100CE000FF90EF90DF90CF900895CF93DF931F9206
:100CF000CDB7DEB76983209183022223F9F02091DA
:100D0000A602203258F021E030E0FC013383228338
:100D100090E080E00F90DF91CF9108958091840260
:100D2000E82FF0E0EB57FD4F998190838F5F809320
:100D300084028093A60281E090E0ECCF61E0CE01D6
:100D400001960E947504F7CF90E080E008950F931C
:100D50001F93FC010481158126813781FB010083EB
:100D6000118322833383FC0180859185A285B3851D
:100D7000FB0184839583A683B7831F910F91089508
:100D80008F929F92AF92BF92EF92FF921F93CF9359
:100D9000DF93EC010E946E018C849D84AE84BF843D
:100DA000681979098A099B09643F71408105910599
:100DB00008F4B0C0EA80FB80C7010E947103882359
:100DC00041F0F70186818C3009F460C038F48B3033
:100DD000E1F060E070E080EC9FE73EC0855182303A
:100DE000C0F71281612F70E0762F662766277F7724
:100DF0008381682B90E080E00E94CD112DEC3CECCB
:100E00004CEC5DE30E940A125CC0628170E090E0ED
:100E100080E00E94CD114B015C01F701138117FFA7
:100E20000AC0AC019B0160E070E080E89FEB0E948B
:100E30002D134B015C011F70612F70E090E080E08A
:100E40000E94CF112DEC3CEC4CEC5DE30E940A12A9
:100E5000A50194010E942E136C837D838E839F8352
:100E6000EA80FB80C7010E947103882351F0F701DB
:100E700086818B3030F08D3040F18551823008F41E
:100E800053C060E070E080EC9FE73AC01281612FB0
:100E900070E090E080E00E94CD114B015C01F70111
:100EA00063816F7070E090E080E00E94CF112DECC4
:100EB0003CEC4CEC5DE30E940A12A50194010E94F7
:100EC0002E1317FFC9CF9058C7CF618170E090E013
:100ED00080E00E94CF112DEC3CEC4CEC5DE30E94D5
:100EE0000A124B015C01F701608170E090E080E044
:100EF0000E94CF119B01AC01C501B4010E942E13C9
:100F0000688779878A879B870E946E016C877D87B7
:100F10008E879F87DF91CF911F91FF90EF90BF90B9
:100F2000AF909F908F900895608171817627672799
:100F3000762790E080E00E94CD112DEC3CEC4CEC4B
:100F40005DE30E940A12DCCF0F931F93FC01048122
:100F5000158126813781FB0100831183228333832E
:100F6000FC0180859185A285B385FB0184839583EF
:100F7000A683B7831F910F91089508952F923F92F2
:100F80004F925F926F927F928F929F92AF92BF9299
:100F9000CF92DF92EF92FF920F931F93CF93DF9345
:100FA0005C011B016A01F12CE12CD50114968D9195
:100FB0009C9186010E191F098017910708F48C0176
:100FC000F501D0810E9417012B013C0180917D0227
:100FD000811172C0C02F013208F0C0E2F1E0F0933D
:100FE0007D0221E0C601801B910BE816F90608F48A
:100FF00020E020937C028FEF80937B0210927A0294
:101000008C0F80937902A1E0A0935802809158023E
:10101000DD0FD82BD093580280915702813009F010
:1010200090C0109257020E9417012B013C01809141
:1010300058028093BB0080917F0290918002A09122
:101040008102B0918202892B8A2B8B2BA1F00E9406
:10105000170120917F0230918002409181025091CE
:101060008202641975098609970926173707480708
:10107000590708F442C08091BC0083FDD8CFB5EC7D
:10108000B093BC000E9417012B013C0180917D02AE
:10109000813009F45AC080917A028C1710F4C09103
:1010A0007A02A9E5B2E0E7E3F2E080E08C1751F1C3
:1010B0009D9191938F5FFACF80917F0290918002F2
:1010C000A0918102B0918202892B8A2B8B2B09F48B
:1010D0007DCF0E94170120917F02309180024091C4
:1010E00081025091820264197509860997092617B1
:1010F00037074807590708F069CF80917E020E94A0
:10110000BA04C0E010923602C0933502C01711062F
:1011100009F057C041018E0C9F1CE401CE018819D3
:1011200099098017910798F5D50111968D919C9199
:10113000DC01ED91FC910284F385E02D0995899302
:10114000EDCFE5EEE093BC009DCF80917F029091C2
:101150008002A0918102B0918202892B8A2B8B2B75
:1011600009F494CF0E94170120917F0230918002F0
:10117000409181025091820264197509860997098C
:10118000261737074807590708F080CFB6CFE00E7B
:10119000F11EEC14FD0408F408CF81E0DF91CF913B
:1011A0001F910F91FF90EF90DF90CF90BF90AF9085
:1011B0009F908F907F906F905F904F903F902F9077
:1011C000089580E0EBCFCF93DF931F92CDB7DEB7CA
:1011D00041E050E0BE016F5F7F4FFC018485958543
:1011E0000E94BE07882329F089810F90DF91CF915B
:1011F00008958FEFFACFFC0180819181009711F063
:101200000C94361408950C9436140C9436140F93E1
:101210001F93CF93DF938C0183E190E00E949A1398
:10122000EC01F801918980898D839E83282F30E01D
:10123000F901E656FF4FE491EF83F901EA57FF4FBA
:10124000E491E88740E85EE360E070E04D875E8708
:101250006F87788BF801D383C28362E00E94DB0042
:101260000E946E01605D77408109910969877A87E4
:101270008B879C8787E38A8BDF91CF911F910F919A
:101280000895DF92EF92FF920F931F93CF93DF9316
:1012900000D01F92CDB7DEB77C0182E190E00E94C2
:1012A0009A138C01DC011D961C921E921C971F96AE
:1012B0001C921E921E9751961C921E925097F701F7
:1012C0009383828364E170E080E090E00E943C01BF
:1012D000D8011C968D919C91009711F00E943614B4
:1012E00086E090E00E949A137C0188E3F7018083F6
:1012F00084E493E092838183138280E290E095837B
:101300008483D8011D96FC92EE921C9710923602AF
:1013100010923502109284021092A6020E949C0440
:101320008DE890E090933402809333028EE890E051
:101330009093320280933102DD24D394F701D3825B
:10134000C7010E94E605882309F4ACC08AEB8983B3
:10135000D8011C968D919C91FC0124813581232B11
:1013600009F4A0C02081D09283022093A50210929C
:1013700084021092A60241E050E0BE016F5F7F4FF1
:101380000E94CB05882309F48DC064E170E080E001
:1013900090E00E943C01C8010E94E30887FF05C05D
:1013A0006AE070E080E090E0F4CF81EE898388E02D
:1013B0008A831B82D8011C968D919C91FC0124810B
:1013C00035812330310588F0208131E0309383026C
:1013D0002093A502109284021092A60243E050E0EE
:1013E000BE016F5F7F4F0E94CB05C8010E94E308DA
:1013F00087FF07C06AE070E080E090E00E943C0157
:10140000F4CFC8010E94E30883FF4CC0D801509676
:101410008D919C91009739F0DC01ED91FC91028057
:10142000F381E02D0995F80186859785009739F0BD
:10143000DC01ED91FC910280F381E02D099586E0BD
:1014400090E00E949A13FC018BE191E091838083EC
:1014500080E290E19383828315830483D8015196BF
:10146000FC93EE93509786E090E00E949A13FC0163
:101470008DE091E09183808381E290E19383828388
:1014800015830483D8011F96FC93EE931E970F904B
:101490000F900F90DF91CF911F910F91FF90EF90E0
:1014A000DF9008956AE070E080E090E00E943C01E7
:1014B000EECF0F931F93CF93DF93EC018881998137
:1014C000009759F02A813B812617370730F081E0D9
:1014D000DF91CF911F910F9108958B016F5F7F4F27
:1014E0000E94BF14009759F0998388831B830A8355
:1014F0002C813D81232B59F7FC011082E8CF80E03D
:10150000E7CFEF92FF920F931F93CF93DF93EC01FE
:101510007B018A01BA010E94590A2881398181110F
:1015200014C02115310519F0C9010E943614198221
:1015300018821D821C821B821A82CE01DF91CF91FC
:101540001F910F91FF90EF9008951D830C83B701B9
:10155000C9010E948515F1CF0F931F93CF93DF939D
:101560008C01EB0188E2FB0111928A95E9F74BE0CF
:1015700050E067E771E0CE010E948C151B8681E088
:1015800090E0A0E0B0E08C879D87AE87BF87F80130
:1015900082819381092E000CAA0BBB0B888B998B3F
:1015A000AA8BBB8B8DE090E0A0E0B0E08C8B9D8B94
:1015B000AE8BBF8B1CA21DA21EA21FA280E090E0DA
:1015C000A0E2B2EC8C8F9D8FAE8FBF8F80E090E059
:1015D000AAEAB2E4888F998FAA8FBB8F8AE999E92A
:1015E000A9E9BEE388A399A3AAA3BBA3DF91CF91E6
:1015F0001F910F9108950F931F93CF93DF938C0149
:10160000EB0188E2FB0111928A95E9F74BE050E08B
:101610006FE771E0CE010E948C151B8681E090E09F
:10162000A0E0B0E08C879D87AE87BF87F8018281FC
:101630009381092E000CAA0BBB0B888B998BAA8B6C
:10164000BB8B8CE090E0A0E0B0E08C8B9D8BAE8BF0
:10165000BF8B1CA21DA21EA21FA21C8E1D8E1E8E41
:101660001F8E80E090E0A8ECB2E4888F998FAA8F5B
:10167000BB8F80E090E0A0E0B0E488A399A3AAA388
:10168000BBA3DF91CF911F910F9108954F925F926D
:101690006F927F92AF92BF92CF92DF92EF92FF92C2
:1016A0000F931F93CF93DF93CDB7DEB729970FB674
:1016B000F894DEBF0FBECDBF8C017B016A010E9492
:1016C0006E012B013C018091060190910701A091D0
:1016D00008018F839887A987D8011C968D919C91CA
:1016E000FC012481358123303105B8F4B12C8B2DD8
:1016F00029960FB6F894DEBF0FBECDBFDF91CF9114
:101700001F910F91FF90EF90DF90CF90BF90AF901F
:101710007F906F905F904F900895208131E03093DB
:1017200083022093A502109284021092A60243E045
:1017300050E0BE01695F7F4F0E94CB058823B1F264
:10174000C8010E94E30887FF07C06AE070E080E0FC
:1017500090E00E943C01F4CF46E050E0BE016F5F94
:101760007F4FF801848595850E94BE07B82E882397
:1017700009F4BCCF6A817B81762767277627CB0166
:10178000B0E0A0E09C01AD0184E0220F331F441FB4
:10179000551F8A95D1F7AC808A2D90E064E095952D
:1017A00087956A95E1F7092E000CAA0BBB0BBC01CB
:1017B000CD01622B732B842B952B0E94CD1120E041
:1017C00030E048EC52E40E940A1220E030E040E8A9
:1017D00055E30E940A12D80114966D937D938D9360
:1017E0009C9317976A2D6F7070E090E080E0982FBF
:1017F000872F762F66272D81622B982F872F762FA4
:1018000066272E81622B0E94CD1120E030E048E453
:1018100053E40E940A1220E030E040E855E30E94C1
:101820000A1220E030E048E452E40E942D13F8014F
:101830006083718382839383C114D10481F1F601A3
:10184000349680E2DF011D928A95E9F784E290E008
:10185000A0E0B0E0F60180839183A283B383D80136
:101860001A968D919C91B0E0A0E084839583A68325
:10187000B7838DE090E0A0E0B0E080879187A287F9
:10188000B387408A518A628A738AF8018081918184
:10189000A281B381F601848B958BA68BB78BE11463
:1018A000F10409F424CFF701349680E2DF011D92A0
:1018B0008A95E9F784E290E0A0E0B0E0F701808348
:1018C0009183A283B383D80118968D919C91B0E047
:1018D000A0E084839583A683B7838DE090E0A0E0A9
:1018E000B0E080879187A287B387408A518A628A55
:1018F000738AF80184819581A681B781F701848B71
:10190000958BA68BB78BF3CEAB0170E060E0FC014A
:10191000848195810E94460B81E0089550E040E06B
:10192000FC01848195810E94460B81E00895CF924D
:10193000DF92EF92FF920F931F93CF93DF93CDB778
:10194000DEB7C854D1090FB6F894DEBF0FBECDBFC5
:101950008C010E946E01F801C484D584E684F7846A
:101960006C197D098E099F09643F714081059105BD
:1019700018F1AE014F5F5F4FBE016B5D7F4FF80105
:10198000828193810E94460B8D899E89AF89B88D93
:10199000F80184839583A683B78389AD9AADABADF7
:1019A000BCAD80879187A287B3870E946E01F80142
:1019B0006487758786879787C85BDF4F0FB6F89473
:1019C000DEBF0FBECDBFDF91CF911F910F91FF9072
:1019D000EF90DF90CF90089585ED8093BC008091CB
:1019E0007F0290918002A0918102B09182020796BD
:1019F000A11DB11D23E0B695A795979587952A95CA
:101A0000D1F72091BC0024FD03C010927D020895FF
:101A100040917F0250918002609181027091820218
:101A2000452B462B472B69F30097A105B10541F0E3
:101A300025E32A95F1F700000197A109B109E1CF4B
:101A400080917E020C94BA041F920F920FB60F92EF
:101A500011242F933F938F939F93AF93BF938091C4
:101A6000290290912A02A0912B02B0912C02309170
:101A7000280223E0230F2D3758F50196A11DB11D33
:101A8000209328028093290290932A02A0932B028C
:101A9000B0932C0280912D0290912E02A0912F02E2
:101AA000B09130020196A11DB11D80932D0290933B
:101AB0002E02A0932F02B0933002BF91AF919F915D
:101AC0008F913F912F910F900FBE0F901F901895FF
:101AD00026E8230F0296A11DB11DD2CF1F920F92AF
:101AE0000FB60F9211242F933F934F935F936F93F1
:101AF0007F938F939F93AF93BF93EF93FF9387EA67
:101B000092E00E94F801FF91EF91BF91AF919F91F8
:101B10008F917F916F915F914F913F912F910F9096
:101B20000FBE0F901F9018951F920F920FB60F9235
:101B300011242F938F939F93EF93FF93E091B7021C
:101B4000F091B8028081E091BD02F091BE0282FD69
:101B50001BC090818091C0028F5F8F732091C10262
:101B6000821741F0E091C002F0E0E955FD4F958FFA
:101B70008093C002FF91EF919F918F912F910F90D1
:101B80000FBE0F901F9018958081F4CF1F920F9277
:101B90000FB60F9211242F933F934F935F936F9340
:101BA0007F938F939F93AF93BF93EF93FF93E091B6
:101BB0001602F0911702309749F0A685B785858502
:101BC000968D91FF14C09C918923A1F4FF91EF9110
:101BD000BF91AF919F918F917F916F915F914F9145
:101BE0003F912F910F900FBE0F901F9018959C91D1
:101BF000892361F7A389B4899C918589809589237C
:101C00008C93868997890197F1F7608D718DA685F0
:101C1000B785558538E020E0CB010197F1F7822F99
:101C200090E095958795282F4C91452309F02068E1
:101C3000315091F7868D81FD20958091150290E0BD
:101C400001968F73992730911402381799F0A0915B
:101C50001502B0E0AC52BE4F2C9380931502828DDA
:101C6000938D0197F1F7A389B4898C919589892B7C
:101C70008C93ACCF868D8160868FF1CF1F920F92AF
:101C80000FB60F9211242F933F934F935F936F934F
:101C90007F938F939F93AF93BF93EF93FF93809125
:101CA000B900887F803609F44AC0F0F5883209F41B
:101CB000A7C018F5803109F49BC0B8F4882309F453
:101CC000F9C0883009F494C0FF91EF91BF91AF91B2
:101CD0009F918F917F916F915F914F913F912F9144
:101CE0000F900FBE0F901F901895883109F488C08F
:101CF000803251F780937B0214C0803409F49DC078
:101D000040F48033B9F38833F9F680937B0285EC95
:101D1000B0C0803509F485C0883509F496C0883490
:101D200099F60E94EC0CD0CF883909F48CC038F5B4
:101D3000883729F050F4883611F0803729F683E08F
:101D400080937D021092D30157C0883809F47BC07C
:101D5000803919F0803809F0B7CF8091D3018032F3
:101D600008F071C0E091D30181E08E0F8093D30120
:101D70008091BB00F0E0ED54FE4F80833DC0803B7E
:101D800039F0E0F4803A09F479C0883A09F09CCF40
:101D900084E080937D021092B2011092B101E09133
:101DA0003302F091340209958091B10181110FC085
:101DB00081E08093B1011092910109C0803C09F447
:101DC000A6CF883C09F4A3CF883B09F07DCFE091F2
:101DD000B20181E08E0F8093B201F0E0EF56FE4F2A
:101DE00080818093BB009091B2018091B10129C0A4
:101DF000809158028093BB0085EC8093BC0064CF37
:101E000090917A0280917902981758F5E0917A02C0
:101E100081E08E0F80937A02F0E0E75AFD4F8081D7
:101E2000E9CFE0917A0281E08E0F80937A0280916F
:101E3000BB00F0E0E75AFD4F808390917A028091D9
:101E400079029817C8F285E8D8CFE0917A0281E04C
:101E50008E0F80937A028091BB00F0E0E75AFD4F2D
:101E6000808380917C0281115CCF81E08093570256
:101E700084EA8093BC0010927D0226CF85EC80938B
:101E8000BC0010927D028091D301803230F4E09149
:101E9000D301F0E0ED54FE4F10826091D30170E069
:101EA000E0913102F091320283EB91E009951092BA
:101EB000D3010ACF10927B0234CFE7EAF2E013821B
:101EC000128288EE93E0A0E0B0E084839583A6833D
:101ED000B7832BE331E03183208325EC30E0358775
:101EE000248724EC30E03787268720EC30E0318BE4
:101EF000208B21EC30E0338B228B22EC30E0358BD1
:101F0000248B26EC30E0378B268B118E128E138EAD
:101F1000148EE4E4F3E01382128284839583A68313
:101F2000B7838DE491E091838083EDE6F3E08DE665
:101F300091E09183808382E0808B86E1818BECE568
:101F4000F3E08FE591E0918380838EE0808BE0E584
:101F5000F3E013821282158214821782168250E0F7
:101F600040E069E871E082E593E00E94810A50E078
:101F700040E069E871E082E593E00C94810ACF9338
:101F8000DF93CDB7DEB72C970FB6F894DEBF0FBE48
:101F9000CDBF789484B5826084BD84B5816084BDF2
:101FA00085B5826085BD85B5816085BD80916E00F7
:101FB000816080936E001092810080918100826028
:101FC0008093810080918100816080938100809165
:101FD00080008160809380008091B1008460809354
:101FE000B1008091B00081608093B00080917A0050
:101FF000846080937A0080917A00826080937A0076
:1020000080917A00816080937A0080917A00806864
:1020100080937A001092C100E091B702F091B8026B
:1020200082E08083E091B302F091B4021082E091EB
:10203000B502F091B6028FEC80831092BF02E0915E
:10204000BB02F091BC0286E08083E091B902F0917E
:10205000BA02808180618083E091B902F091BA0276
:10206000808188608083E091B902F091BA0280811A
:1020700080688083E091B902F091BA0280818F7DFF
:1020800080838FE190E00E949A138C01DC0113960B
:102090001C921E92129788EE93E0A0E0B0E0F80147
:1020A00084839583A683B78389E291E091838083BB
:1020B000178A168A118E108E138E128E158E148E1C
:1020C000668D6E7F6D7F668F6695617081E0682793
:1020D00083E00E948F0061E083E00E94DB00EDE975
:1020E000F0E0E491D8015096EC93E9E8F0E0E49157
:1020F000F0E0EE0FFF1FE458FF4F85919491F80137
:10210000928B818B60E082E00E94DB00D8015E96BA
:102110008C9181FD04C061E082E00E948F0082E02A
:10212000F8018487ECE9F0E0E491D8011D96EC9386
:10213000E8E8F0E0E491F0E0EE0FFF1FE859FF4F10
:1021400085919491F80197878687109351030093A6
:1021500050038DE991E0958F848F8DEB90E0978B04
:10216000868B8BE991E0918F808F8CE291E0938F49
:10217000828F8091680084608093680094852DE64A
:1021800030E0983050F02BE630E09E3030F02CE616
:1021900030E0963110F030E020E0D80154963C93C6
:1021A0002E935397292F30E0983008F0E5C081E056
:1021B00001C0880F9A95EAF7F801858B848D958D7B
:1021C0000197F1F7828D938D892B29F1E091160209
:1021D000F09117020E171F07F1F0309739F0A3891D
:1021E000B4899C918589809589238C93F801868D8B
:1021F0008E7F868F10921502109214021093170290
:10220000009316020388F489E02D8081D801559649
:102210009C91892B80838091500390915103DC0124
:10222000ED91FC910280F381E02D42E050E067E8FF
:1022300071E009958DE693E00E9407098CE593E033
:102240000E94410980E0E82E80E0F82E60E272E012
:102250008DE693E00E94A70668E172E08CE593E0CA
:102260000E94A40750E040E069E871E082E593E055
:102270000E94810A18861F821A8619861C861B8670
:1022800042E050E06AE871E0CE0107960E94810AC0
:102290001A8219821C821B821E821D826F817885A0
:1022A0006115710531F04B855C85CE0101960E9468
:1022B000810AC980DA80C114D10419F10D811E810F
:1022C00001151105F1F08091560390915703080F05
:1022D000191FB80182E593E00E94590A882389F00A
:1022E00020915203309153038091560390915703EC
:1022F000B601820F931F0E94851510935703009318
:102300005603CE0101960E94FB08009156031091DE
:1023100057030F5F1F4FB80182E593E00E94590AEF
:10232000882391F0209152033091530380915603FA
:10233000909157036DE871E0820F931F0E948515FD
:102340001093570300935603CE0107960E94FB0893
:102350008CE593E00E94970C8DE693E00E94C00606
:10236000E114F10409F472CF0E94E401882309F416
:102370006DCF0E9400006ACF9E3040F42850310992
:1023800081E001C0880F2A95EAF716CF2E50310957
:10239000F7CF82E593E00C94FB08E89409C097FB23
:1023A0003EF490958095709561957F4F8F4F9F4F2C
:1023B0009923A9F0F92F96E9BB279395F695879570
:1023C00077956795B795F111F8CFFAF4BB0F11F433
:1023D00060FF1BC06F5F7F4F8F4F9F4F16C08823DA
:1023E00011F096E911C0772321F09EE8872F762F10
:1023F00005C0662371F096E8862F70E060E02AF051
:102400009A95660F771F881FDAF7880F969587953C
:1024100097F908950E941D120C948E120E9480124A
:1024200038F00E94871220F0952311F00C94771257
:102430000C947D1211240C94C2120E949F1270F30E
:10244000959FC1F3950F50E0551F629FF001729F59
:10245000BB27F00DB11D639FAA27F00DB11DAA1F68
:10246000649F6627B00DA11D661F829F2227B00DB5
:10247000A11D621F739FB00DA11D621F839FA00D40
:10248000611D221F749F3327A00D611D231F849F90
:10249000600D211D822F762F6A2F11249F575040E7
:1024A0009AF0F1F088234AF0EE0FFF1FBB1F661F62
:1024B000771F881F91505040A9F79E3F510580F02B
:1024C0000C9477120C94C2125F3FE4F3983ED4F35D
:1024D000869577956795B795F795E7959F5FC1F7CF
:1024E000FE2B880F911D9695879597F9089597F97A
:1024F0009F6780E870E060E008959FEF80EC0895AA
:1025000000240A94161617061806090608950024D2
:102510000A9412161306140605060895092E03944C
:10252000000C11F4882352F0BB0F40F4BF2B11F4C0
:1025300060FF04C06F5F7F4F8F4F9F4F089557FD1F
:102540009058440F551F59F05F3F71F04795880F21
:1025500097FB991F61F09F3F79F0879508951216B8
:1025600013061406551FF2CF4695F1DF08C0161664
:1025700017061806991FF1CF869571056105089415
:102580000895E894BB2766277727CB0197F908952C
:102590002F923F924F925F926F927F928F929F9273
:1025A000AF92BF92CF92DF92EF92FF920F931F9361
:1025B000CF93DF93CDB7DEB7CA1BDB0B0FB6F89412
:1025C000DEBF0FBECDBF09942A88398848885F8452
:1025D0006E847D848C849B84AA84B984C884DF80C3
:1025E000EE80FD800C811B81AA81B981CE0FD11DA7
:1025F0000FB6F894DEBF0FBECDBFED01089597FB77
:10260000072E16F4009407D077FD09D00E9413130B
:1026100007FC05D03EF4909581959F4F08957095E5
:1026200061957F4F0895AA1BBB1B51E107C0AA1FEC
:10263000BB1FA617B70710F0A61BB70B881F991F63
:102640005A95A9F780959095BC01CD010895EE0F9C
:10265000FF1F0590F491E02D09945058BB27AA273D
:102660000E9445130C948E120E94801238F00E9432
:10267000871220F039F49F3F19F426F40C947D1250
:102680000EF4E095E7FB0C947712E92F0E949F125D
:1026900058F3BA17620773078407950720F079F497
:1026A000A6F50C94C1120EF4E0950B2EBA2FA02DB6
:1026B0000B01B90190010C01CA01A0011124FF27EF
:1026C000591B99F0593F50F4503E68F11A16F040EA
:1026D000A22F232F342F4427585FF3CF46953795E9
:1026E0002795A795F0405395C9F77EF41F16BA0BAE
:1026F000620B730B840BBAF09150A1F0FF0FBB1F5C
:10270000661F771F881FC2F70EC0BA0F621F731FA4
:10271000841F48F4879577956795B795F7959E3F01
:1027200008F0B0CF9395880F08F09927EE0F979592
:10273000879508950F931F93CF93DF938230910570
:1027400010F482E090E0E0918103F091820330E0A8
:1027500020E0B0E0A0E0309799F42115310509F4AC
:102760004AC0281B390B24303105D8F58A819B815A
:102770006115710589F1FB0193838283FE0111C00C
:10278000408151810281138148175907E0F04817B1
:10279000590799F4109761F012960C9312971396BB
:1027A0001C933296CF01DF91CF911F910F91089525
:1027B0000093810310938203F4CF2115310551F06A
:1027C0004217530738F0A901DB019A01BD01DF016F
:1027D000F801C1CFEF01F9CF909382038093810379
:1027E000CDCFFE01E20FF31F819391932250310967
:1027F00039832883D7CF20917F0330918003232B07
:1028000041F4209102013091030130938003209321
:102810007F0320910001309101012115310541F420
:102820002DB73EB74091040150910501241B350B93
:10283000E0917F03F0918003E217F307A0F42E1BD1
:102840003F0B2817390778F0AC014E5F5F4F241714
:10285000350748F04E0F5F1F5093800340937F036E
:10286000819391939FCFF0E0E0E09CCFCF93DF93F3
:102870000097E9F0FC01329713821282A091810344
:10288000B0918203ED0130E020E01097A1F42081A7
:102890003181820F931F20917F033091800328178D
:1028A000390709F061C0F0938003E0937F03DF9163
:1028B000CF910895EA01CE17DF07E8F54A815B81E1
:1028C0009E0141155105B1F7E901FB83EA83499166
:1028D0005991C40FD51FEC17FD0761F480819181D8
:1028E0000296840F951FE9019983888382819381E1
:1028F0009B838A83F0E0E0E012968D919C91139780
:102900000097B9F52D913C911197CD010296820F58
:10291000931F20917F03309180032817390739F6E0
:10292000309751F51092820310928103B093800387
:10293000A0937F03BCCFD383C28340815181840F96
:10294000951FC817D90761F44E5F5F4F8881998141
:10295000480F591F518340838A819B8193838283CF
:102960002115310509F0B0CFF0938203E093810384
:102970009ECFFD01DC01C0CF13821282D7CFB0E021
:10298000A0E0E5ECF4E10C94CA128C01009751F43C
:10299000CB010E949A138C01C801CDB7DEB7E0E1EC
:1029A0000C94E612FC01E60FF71F9C01225031093E
:1029B000E217F30708F49DC0D901CD91DC9111977E
:1029C000C617D70798F0C530D10530F3CE0104976C
:1029D0008617970708F3C61BD70B2297C193D1938D
:1029E0006D937C93CF010E943614D6CF5B01AC1A55
:1029F000BD0A4C018C0E9D1EA0918103B0918203F3
:102A0000512C412CF12CE12C109731F580917F0352
:102A1000909180038815990509F05CC04616570609
:102A200008F058C08091000190910101009741F495
:102A30008DB79EB74091040150910501841B950B01
:102A4000E817F90708F055C0F0938003E0937F037F
:102A5000F90171836083A0CF8D919C91119712969B
:102A60006C90129713967C901397A815B90559F599
:102A70006C0142E0C40ED11CCA14DB0420F1AC018D
:102A80004A195B09DA011296159780F06282738207
:102A900051834083D9016D937C93E114F10471F06B
:102AA000D7011396FC93EE93129776CF22968C0F54
:102AB0009D1FF90191838083F301EFCFF09382038F
:102AC000E093810369CF4816590608F42C017D0173
:102AD000D3019ACFCB010E949A137C01009749F051
:102AE000AE01B8010E947C15C8010E94361487010E
:102AF00053CF10E000E050CFFB01DC0102C0019099
:102B00000D9241505040D8F70895FB01DC0101902F
:102B10000D920020E1F70895FB01DC014150504087
:102B200048F001900D920020C9F701C01D9241505C
:102B30005040E0F7089510E0C2E6D0E004C0FE0186
:102B40000E9427132196C336D107C9F7F894FFCF07
:102B5000000083038000AC33000000000035030553
:102B6000093603840CAC0A00000000350303093663
:102B7000038E0CFB0A00000000A0027A01A4069F4D
:102B800002FC0214038702000000001A027A01A767
:102B9000016702D801B601CA0100000000750648AD
:102BA00006A4069F0241062E061F060000000041F3
:102BB00009970CA407BD07BD07000000000709C066
:102BC00006A706BD07BD0741485478305F54004151
:102BD000485478305F48000D0A003132003B000055
:00000001FF
