:100000000C9463000C942D070C9406070C94AC0719
:100010000C94AC070C94AC070C948B000C948B00E4
:100020000C948B000C948B000C948B000C948B0024
:100030000C948B000C948B000C948B000C948B0014
:100040000C94BC060C948B000C947A070C94540707
:100050000C948B000C948B000C948B000C948B00F4
:100060000C94B6070C948B000000000023002600BF
:10007000290000000000240027002A0000000000E2
:10008000250028002B0004040404040404040202D4
:100090000202020203030303030301020408102007
:1000A0004080010204081020010204081020000012
:1000B0000008000201000003040700000000000027
:1000C0000000D108300B11241FBECFEFD8E0DEBFF7
:1000D000CDBF22E0ACE5B1E001C01D92A73AB20766
:1000E000E1F711E0A0E0B1E0E6EEFFE102C005902B
:1000F0000D92AC35B107D9F710E0C2E6D0E004C0EC
:100100002197FE010E94B10CC136D107C9F70E94A8
:1001100031090C94E60F0C94000090E0FC01E255CC
:10012000FF4F2491FC01E656FF4F3491FC01EA5742
:10013000FF4FE491EE23C9F0222339F0233001F17F
:10014000A8F4213019F1223029F1F0E0EE0FFF1F61
:10015000E458FF4FA591B4918FB7F894EC916111D9
:1001600026C030953E233C938FBF08952730A9F0D9
:100170002830C9F0243049F7809180008F7D03C07A
:10018000809180008F7780938000DFCF84B58F7758
:1001900084BDDBCF84B58F7DFBCF8091B0008F779E
:1001A0008093B000D2CF8091B0008F7DF9CF3E2BED
:1001B000DACFCF93DF9390E0FC01E656FF4F249116
:1001C0008A579F4FFC0184918823D1F090E0880FDB
:1001D000991FFC01EE58FF4FA591B491FC01E45822
:1001E000FF4FC591D49161110EC09FB7F8948C91C7
:1001F000E22FE0958E238C932881E223E8839FBF32
:10020000DF91CF9108958FB7F894EC91E22BEC93A6
:100210008FBFF6CF8230910538F0880F991F880F75
:10022000991F05970197F1F708953FB7F8948091CA
:10023000DA019091DB01A091DC01B091DD0126B5DE
:10024000A89B05C02F3F19F00196A11DB11D3FBF0E
:10025000BA2FA92F982F8827BC01CD01620F711DDD
:10026000811D911D42E0660F771F881F991F4A95D7
:10027000D1F708958F929F92AF92BF92CF92DF9263
:10028000EF92FF924B015C010E9415016B017C0112
:100290000E9415016C197D098E099F09683E734003
:1002A00081059105A8F321E0821A9108A108B108FF
:1002B00088EEC80E83E0D81EE11CF11C8114910465
:1002C000A104B10429F7FF90EF90DF90CF90BF9089
:1002D000AF909F908F9008950895AF92BF92CF9264
:1002E000DF92EF92FF920F931F93CF93DF936C01F6
:1002F0007B018B01040F151FEB015E01AE18BF08D7
:10030000C017D10759F06991D601ED91FC91019088
:10031000F081E02DC6010995892B79F7C501DF91A0
:10032000CF911F910F91FF90EF90DF90CF90BF90F2
:10033000AF900895FC01538D448D252F30E0842F1C
:1003400090E0821B930B541710F0CF9608950197FD
:100350000895FC01918D828D981761F0A28DAE0FEA
:10036000BF2FB11D5D968C91928D9F5F9F73928F71
:1003700090E008958FEF9FEF0895FC01918D828D9D
:10038000981731F0828DE80FF11D858D90E008956A
:100390008FEF9FEF0895FC01918D228D892F90E0C2
:1003A000805C9F4F821B91098F73992708958EED72
:1003B00091E00E94CB0121E0892B09F420E0822FFB
:1003C000089580E090E0892B29F00E94D7018111E7
:1003D0000C9400000895FC01A48DA80FB92FB11D45
:1003E000A35ABF4F2C91848D90E001968F7399276B
:1003F000848FA689B7892C93A089B1898C91837049
:1004000080648C93938D848D981306C00288F38941
:10041000E02D80818F7D80830895EF92FF920F936E
:100420001F93CF93DF93EC0181E0888F9B8D8C8DA0
:1004300098131AC0E889F989808185FF15C09FB794
:10044000F894EE89FF896083E889F9898081837057
:10045000806480839FBF81E090E0DF91CF911F9106
:100460000F91FF90EF900895F62E0B8D10E00F5F27
:100470001F4F0F731127E02E8C8D8E110CC00FB6FD
:1004800007FCFACFE889F989808185FFF5CFCE0195
:100490000E94EB01F1CFEB8DEC0FFD2FF11DE35A24
:1004A000FF4FF0829FB7F8940B8FEA89FB89808118
:1004B0008062CFCFCF93DF93EC01888D8823B9F092
:1004C000AA89BB89E889F9898C9185FD03C080815F
:1004D00086FD0DC00FB607FCF7CF8C9185FFF2CFDC
:1004E000808185FFEDCFCE010E94EB01E9CFDF9146
:1004F000CF9108950895CF93DF931F92CDB7DEB7C4
:100500006983DC01ED91FC910280F381E02D41E0F3
:1005100050E0BE016F5F7F4F09950F90DF91CF9143
:1005200008958FB7F8948091CD018FBF0895FC0195
:1005300083858F3F19F061E00C948D000895AF9290
:10054000BF92CF92DF92EF92FF920F931F93CF93C0
:10055000DF93EC0188819981892B89F06EBD0DB400
:1005600007FEFDCFBEB48B2DDF91CF911F910F9170
:10057000FF90EF90DF90CF90BF90AF900895888567
:10058000998511E0892B09F010E8AA24A394862FFD
:10059000812309F0A12C062F2C813D814E815F81A2
:1005A00060E271EA87E090E00E948F0CF22EB02E9C
:1005B000E12CC22ED12CFF2019F0C6010E940A01A5
:1005C0008A85877F09F042C08D858F3F89F0902F03
:1005D000912381E009F480E08A1551F0EF85F889D4
:1005E0008F89992369F19081892B8083AA24A39410
:1005F000E989FA898081998D892B8083FF2019F000
:10060000C6010E940A018E858F3F39F0EB89FC8973
:100610008081988D892309F0E12AE989FA899081FE
:10062000898D8095892380838E858F3F09F0BE2C2C
:1006300088859985892BB9F5110F1111BCCF93CFFE
:100640009081809589238083A12CD2CFE989FA8972
:100650008081998D892B8083FF2019F0C6010E942B
:100660000A018D858F3F49F0EF85F8898F89902F9A
:100670009123A9F09081892B8083E989FA8990815F
:10068000898D8095892380838E858F3F69F2EB89E0
:10069000FC898081988D892339F2E12AC5CF908128
:1006A00080958923E9CF1695C8CF8CBD9DBD08954F
:1006B0000F931F93CF93DF93EC01062F142F8C859C
:1006C0009D850E94550360E088890E948D000EBDC3
:1006D00000000DB407FEFDCF8EB51EBD00000DB4A9
:1006E00007FEFDCF1EB561E088890E948D00812F35
:1006F000DF91CF911F910F9108950F931F93CF9387
:10070000DF93EC01E881F9810084F185E02D099502
:10071000892BC1F040E06DE0CE010E945803082F04
:1007200040E060E0CE010E945803182F402F6DE892
:10073000CE010E945803812F90E0DF91CF911F914D
:100740000F9108958FEF9FEFF8CFCF93DF93EC01D8
:10075000E881F9810084F185E02D0995892B71F0FC
:100760008A8D9B8D01969B8F8A8F40E060E0CE0141
:100770000E94580390E0DF91CF9108958FEF9FEF93
:10078000FACFCF93DF93EC0140E063E10E9458037E
:1007900090E02A8D3B8D821B930BDF91CF910895C2
:1007A000AF92BF92CF92DF92FF920F931F93CF939E
:1007B000DF936C015B01EA0140E062E20E945803B2
:1007C000F82E90E09C012C0F3D1F2F3F310529F0A2
:1007D00020F0CFEFD0E0C81BD90B8501AC0EBD1EB9
:1007E0000A151B0541F0F80141918F0160E8C6012F
:1007F0000E945803F5CF4C2F4F0D62EAC6010E94AC
:100800005803CE01DF91CF911F910F91FF90DF90A0
:10081000CF90BF90AF900895CF93DF93EC01888184
:100820009981892B31F0EA81FB81808191810E943D
:1008300055038B858F3F29F060E0DF91CF910C94B9
:100840008D00DF91CF910895CF92DF92EF92FF92CA
:100850000F931F93CF93DF938C01EB016A01790112
:100860000E940C046881C8010E949F02E601EC0C02
:10087000FD1CCE15DF0531F06FEFC8010E949F020D
:100880008993F7CFC8010E94970281E0DF91CF9151
:100890001F910F91FF90EF90DF90CF900895CF932D
:1008A000DF9300D0CDB7DEB71A82198221E030E0A5
:1008B000AE014E5F5F4FBE016F5F7F4F0E94240409
:1008C0008A810F900F90DF91CF9108950F931F931E
:1008D000CF93DF93EC01162F042F0E940C04612F9D
:1008E0006068CE010E949F02602FCE010E949F028D
:1008F000CE01DF91CF911F910F910C9497021F931E
:10090000CF93DF93EC01162F0E944F04482F112341
:1009100041F0406860E0CE01DF91CF911F910C94CF
:1009200066044F77F7CFCF93DF93EC010E944F041B
:10093000837D482F426060E0CE01DF91CF910C941F
:10094000660420918301260F3327331F213231059E
:10095000ECF42091A701FC0190E080E0243069F0E4
:1009600082E00895A09183012191AC014D595E4F21
:10097000A40FB52FB11D2C930196861798F3809183
:100980008301680F6093830180E0089581E00895FA
:100990008FEF9FEF08958FEF9FEF089580915C0197
:1009A00090E09195819591090895CF93DF93CB01C4
:1009B000EA01642F0E94A104CE01DF91CF91089536
:1009C000CF93DF931F92CDB7DEB7698361E0CE018D
:1009D00001960E94A10481E090E00F90DF91CF91F9
:1009E000089590E080E00895FC01868D978DA0A188
:1009F000B1A1FB0180839183A283B38308950895FD
:100A000008950E94D80F1F93CF93DF9385ED8093B5
:100A1000BC0080915F0190916001A0916101B09153
:100A200062010796A11DB11D23E0B695A795979584
:100A300087952A95D1F72091BC0024FD03C0109220
:100A4000A70152C040915F01509160016091610126
:100A500070916201452B462B472B69F30097A10546
:100A6000B10541F025E32A95F1F700000197A109AE
:100A7000B109E1CF80915E01C1E0C0935D0188239F
:100A800099F1D091B8001091BA008091BC008A7B96
:100A90008093BC0060E082E10E948D0060E083E111
:100AA0000E948D001092A701C093A9011092A80185
:100AB00061E082E10E948D0061E083E10E948D008F
:100AC0008091B9008E7F8093B9008091B9008D7FAD
:100AD0008093B90088E48093B80085E48093BC00DB
:100AE0001093BA00D093B800DF91CF911F91089571
:100AF0004F925F926F927F928F929F92AF92BF922E
:100B0000CF92DF92EF92FF920F931F93CF93DF93D9
:100B100000D01F92CDB7DEB72FB7F8944091D60121
:100B20005091D7016091D8017091D9012FBFFC017C
:100B300002A513A524A535A5401B510B620B730B11
:100B4000443F51406105710508F402C18C016C01FC
:100B500022E0C20ED11CFC0146A057A060A471A4E3
:100B600082A093A0A4A0B5A0C6010E94930461E056
:100B7000C6010E947F046AE070E080E090E00E947D
:100B80003A01C6010E944F04482F406260E0C6014E
:100B90000E94660461E470E080E090E00E943A0107
:100BA00019821A8281E08B8322E030E0AE014F5F30
:100BB0005F4FBE016D5F7F4FC6010E942404E98034
:100BC000FA80FE24EF24FE2460E0C6010E947F0428
:100BD000F694E794B70190E080E00E94390B20E0A2
:100BE00030E040E058E30E949A0B9B01AC01C30146
:100BF000B2010E949A0B2B013C01A50194016FE701
:100C000075E08BE196EB0E94240DA30192010E94F6
:100C10009A0B26E133E843E957E30E94B80C0E949F
:100C2000A10D22E331E140E85BE30E94B70C2FE71E
:100C300035E04BE955EB0E94240D6B017C0120E06F
:100C400030E0A9010E94960D87FF6EC0A5019401B6
:100C5000C301B2010E94240D20E030E048EC52E4D0
:100C60000E949A0B6B017C012BE532E44EE050E4CC
:100C70000E949A0B2FE135E042E753E40E94B70C43
:100C80002B013C01A7019601C701B6010E949A0BF6
:100C90004B015C0124E338E749E25BE30E949A0BD5
:100CA000A30192010E94B80C2B013C01A501940103
:100CB000C701B6010E949A0B4B015C0126E03FEE92
:100CC00041EA56E30E949A0B9B01AC01C301B201B9
:100CD0000E94B70C2B013C01A5019401C701B6018C
:100CE0000E949A0B4B015C0123E137E142EF52E392
:100CF0000E949A0B9B01AC01C301B2010E94B70C88
:100D00002B013C01A5019401C701B6010E949A0B79
:100D10002BE339E947E25FE20E949A0BA3019201BB
:100D20000E94B80C6B017C01F801C68ED78EE0A240
:100D3000F1A22FB7F8948091D6019091D701A0919C
:100D4000D801B091D9012FBF82A793A7A4A7B5A7B7
:100D50000F900F900F90DF91CF911F910F91FF9007
:100D6000EF90DF90CF90BF90AF909F908F907F904B
:100D70006F905F904F9008951F920F920FB60F9251
:100D800011242F933F938F939F93AF93BF938091A1
:100D9000D6019091D701A091D801B091D90130919D
:100DA000D50123E0230F2D3758F50196A11DB11D64
:100DB0002093D5018093D6019093D701A093D801B9
:100DC000B093D9018091DA019091DB01A091DC010F
:100DD000B091DD010196A11DB11D8093DA019093C0
:100DE000DB01A093DC01B093DD01BF91AF919F9136
:100DF0008F913F912F910F900FBE0F901F901895DC
:100E000026E8230F0296A11DB11DD2CF1F920F928B
:100E10000FB60F9211242F933F934F935F936F93CD
:100E20007F938F939F93AF93BF93EF93FF93E09143
:100E30000201F09103010995FF91EF91BF91AF91EC
:100E40009F918F917F916F915F914F913F912F91E2
:100E50000F900FBE0F901F9018951F920F920FB614
:100E60000F9211242F933F934F935F936F937F9330
:100E70008F939F93AF93BF93EF93FF93E091000104
:100E8000F09101010995FF91EF91BF91AF919F9171
:100E90008F917F916F915F914F913F912F910F9023
:100EA0000FBE0F901F9018951F920F920FB60F92C2
:100EB00011242F933F934F935F936F937F938F935F
:100EC0009F93AF93BF93EF93FF938EED91E00E94BA
:100ED000EB01FF91EF91BF91AF919F918F917F9126
:100EE0006F915F914F913F912F910F900FBE0F9097
:100EF0001F9018951F920F920FB60F9211242F93E7
:100F00008F939F93EF93FF93E091EE01F091EF01A8
:100F10008081E091F401F091F50182FD1BC0908188
:100F20008091F7018F5F8F732091F801821741F054
:100F3000E091F701F0E0E252FE4F958F8093F701C8
:100F4000FF91EF919F918F912F910F900FBE0F9076
:100F50001F9018958081F4CF1F920F920FB60F92B9
:100F600011240F900FBE0F901F9018951F920F9293
:100F70000FB60F9211242F933F934F935F936F936C
:100F80007F938F939F93AF93BF93EF93FF93809142
:100F9000B900887F803609F44AC0F0F5883209F438
:100FA000A5C018F5803109F499C0B8F4882309F474
:100FB000F5C0883009F492C0FF91EF91BF91AF91D5
:100FC0009F918F917F916F915F914F913F912F9161
:100FD0000F900FBE0F901F901895883109F486C0AE
:100FE000803251F78093A60114C0803409F49BC06D
:100FF00040F48033B9F38833F9F68093A60185EC89
:10100000AEC0803509F483C0883509F494C08834B3
:1010100099F60E940305D0CF883909F48AC038F5C3
:10102000883729F050F4883611F0803729F683E0AC
:101030008093A7011092A50155C0883809F479C0A2
:10104000803919F0803809F0B7CF8091A50180323E
:1010500008F06FC0E091A50181E08E0F8093A5019B
:101060008091BB00F0E0EB57FE4F80833BC0803B9C
:1010700039F0D0F4803A09F477C0883A09F09CCF6F
:1010800084E08093A7011092840110928301F0E024
:10109000E0E009958091830181110FC081E0809388
:1010A00083011092630109C0803C09F4A8CF883CF9
:1010B00009F4A5CF883B09F07FCFE091840181E05E
:1010C0008E0F80938401F0E0ED59FE4F8081809374
:1010D000BB00909184018091830129C08091CC0153
:1010E0008093BB0085EC8093BC0066CF9091CB01D0
:1010F0008091CA01981758F5E091CB0181E08E0FDD
:101100008093CB01F0E0E655FE4F8081E9CFE0917E
:10111000CB0181E08E0F8093CB018091BB00F0E08A
:10112000E655FE4F80839091CB018091CA019817BC
:10113000C8F285E8D8CFE091CB0181E08E0F809393
:10114000CB018091BB00F0E0E655FE4F808380919B
:10115000A90181115ECF81E08093A80184EA809388
:10116000BC001092A70128CF85EC8093BC001092A0
:10117000A7018091A501803230F4E091A501F0E053
:10118000EB57FE4F10826091A50170E085E891E079
:10119000F0E0E0E009951092A5010ECF1092A601B3
:1011A00038CFEEEDF1E01382128288EE93E0A0E0FA
:1011B000B0E084839583A683B7838EE191E0918329
:1011C000808385EC90E09587848784EC90E0978716
:1011D000868780EC90E0918B808B81EC90E0938B04
:1011E000828B82EC90E0958B848B86EC90E0978BE1
:1011F000868B118E128E138E148EECE7F2E0138222
:10120000128280E391E09183808380E5848781E08E
:1012100085878BE792E0978786878AE090E0918BBD
:10122000808B89E090E0938B828B82E090E0958BBD
:10123000848B168A178A108E118E138E128E158E3D
:10124000148E178E168E11A210A213A212A214824F
:10125000158216821782E0EAF2E011821082128271
:101260000895789484B5826084BD84B5816084BD1E
:1012700085B5826085BD85B5816085BD80916E0034
:10128000816080936E001092810080918100826065
:1012900080938100809181008160809381008091A2
:1012A00080008160809380008091B1008460809391
:1012B000B1008091B00081608093B00080917A008D
:1012C000846080937A0080917A00826080937A00B3
:1012D00080917A00816080937A0080917A008068A2
:1012E00080937A001092C100E091EE01F091EF013D
:1012F000B2E0FB2EF082E091EA01F091EB01108266
:10130000E091EC01F091ED018FEC80831092F601F9
:10131000E091F201F091F30186E08083E091F00129
:10132000F091F101808180618083E091F001F09182
:10133000F101808188608083E091F001F091F101FA
:10134000808180688083E091F001F091F1018081DB
:101350008F7D80838EE290E00E94F60DEC018C017F
:101360000E5F1F4F1B821A821D821C82FD8681E048
:101370008E8784E0888B93E09F87E8E8F0E0E49133
:10138000F0E0EE0FFF1FE458FF4F25913491388FA6
:101390002F8BECE9F0E0E491EC8FE9E8F0E0E491E8
:1013A000F0E0EE0FFF1FE458FF4F259134913A8B88
:1013B000298BEDE9F0E0E491E98FEAE8F0E0E491CF
:1013C000F0E0EE0FFF1FE859FF4F259134913E8B5F
:1013D0002D8BEEE9F0E0E491EA8FE7E8F0E0E491AC
:1013E000F0E0EE0FFF1FE458FF4F259134913C8B46
:1013F0002B8BEBE9F0E0E491EB8F40E452E46FE0FB
:1014000070E04E835F836887798721E030E03B8717
:101410002A878C871D8E8EE091E0998388831E8EAB
:101420001F8E18A219A280E090E0A7EDB3E48AA372
:101430009BA3ACA3BDA380E090E0A8ECB2E48EA394
:101440009FA3A8A7B9A71AA61BA61CA61DA661E064
:1014500082E00E94D90061E08D850E948D008A8122
:101460009B81892B09F4C3C0FFB6F8948091D00109
:10147000811127C0E0E9F0E08491E4EAF0E0949182
:10148000E82FF0E0EE0FFF1FEE58FF4FA591B4914B
:10149000EC91E92321F461E08AE00E948D0061E093
:1014A0008AE00E94D9008CB580618CBD8CB58064C7
:1014B0008CBD61E08DE00E94D90061E08BE00E946C
:1014C000D9008091D0018F5F8093D001FFBE81E071
:1014D0008D8FC8010E944F04482F4F7E60E0C801E5
:1014E0000E94660460E0C8010E947F04C8010E9457
:1014F0004F04482F4F7B60E0C8010E94660440E023
:1015000066E0C8010E94660440E065E0C8010E94F0
:1015100066044FEF64E0C8010E9466044FEF63E089
:10152000C8010E946604C8010E9493046091A2024F
:1015300070E06F5F7F4F660F771F8091A0029091E0
:10154000A1020E941B0F8C01892BE9F453E6E52EC2
:10155000F12C4AE150E06EE371E08EED91E00E94E3
:101560006D0142E050E069E571E08EED91E00E948E
:101570006D0168EE73E080E090E00E943A0181E046
:10158000E81AF10831F71093A1020093A0028091AC
:10159000A202282F30E0220F331F020F131FD801A1
:1015A000CD93DC938F5F8093A20200E010E08091E6
:1015B000A0029091A102892BC1F1C0E0E091A002AC
:1015C000F091A1028091A202C81778F58C2F90E0CB
:1015D000880F991FE80FF91F80819181DC01ED913F
:1015E000FC910280F381E02D0995CF5FE7CF61E0A8
:1015F0008E850E94D9008C858B7F60E009F061E0C8
:101600008E850E948D008F858F3F39F061E00E94AA
:10161000D90061E08F850E948D0088898F3F09F491
:1016200056CF60E00E94D90052CFE091A002F09125
:10163000A10280819181DC01ED91FC910480F58112
:10164000E02D61ED71E009950115110509F4AFCFA9
:101650000E94D701882309F4AACF0E940000A7CFD7
:101660008091A0029091A102009711F00C94920E2B
:101670000895E89409C097FB3EF490958095709585
:1016800061957F4F8F4F9F4F9923A9F0F92F96E9CE
:10169000BB279395F695879577956795B795F11143
:1016A000F8CFFAF4BB0F11F460FF1BC06F5F7F4FE0
:1016B0008F4F9F4F16C0882311F096E911C07723F2
:1016C00021F09EE8872F762F05C0662371F096E8FB
:1016D000862F70E060E02AF09A95660F771F881FCA
:1016E000DAF7880F9695879597F90895990F00086E
:1016F000550FAA0BE0E8FEEF16161706E807F907E4
:10170000C0F012161306E407F50798F0621B730B7E
:10171000840B950B39F40A2661F0232B242B252BFF
:1017200021F408950A2609F4A140A6958FEF811DA2
:10173000811D08950E94AD0B0C941E0C0E94100C8C
:1017400038F00E94170C20F0952311F00C94070C30
:101750000C940D0C11240C94520C0E942F0C70F35D
:10176000959FC1F3950F50E0551F629FF001729F46
:10177000BB27F00DB11D639FAA27F00DB11DAA1F55
:10178000649F6627B00DA11D661F829F2227B00DA2
:10179000A11D621F739FB00DA11D621F839FA00D2D
:1017A000611D221F749F3327A00D611D231F849F7D
:1017B000600D211D822F762F6A2F11249F575040D4
:1017C0009AF0F1F088234AF0EE0FFF1FBB1F661F4F
:1017D000771F881F91505040A9F79E3F510580F018
:1017E0000C94070C0C94520C5F3FE4F3983ED4F336
:1017F000869577956795B795F795E7959F5FC1F7BC
:10180000FE2B880F911D9695879597F9089597F966
:101810009F6780E870E060E008959FEF80EC089596
:1018200000240A94161617061806090608950024BF
:101830000A9412161306140605060895092E039439
:10184000000C11F4882352F0BB0F40F4BF2B11F4AD
:1018500060FF04C06F5F7F4F8F4F9F4F089557FD0C
:101860009058440F551F59F05F3F71F04795880F0E
:1018700097FB991F61F09F3F79F0879508951216A5
:1018800013061406551FF2CF4695F1DF08C0161651
:1018900017061806991FF1CF869571056105089402
:1018A0000895E894BB2766277727CB0197F9089519
:1018B0002F923F924F925F926F927F928F929F9260
:1018C000AF92BF92CF92DF92EF92FF920F931F934E
:1018D000CF93DF93CDB7DEB7CA1BDB0B0FB6F894FF
:1018E000DEBF0FBECDBF09942A88398848885F843F
:1018F0006E847D848C849B84AA84B984C884DF80B0
:10190000EE80FD800C811B81AA81B981CE0FD11D93
:101910000FB6F894DEBF0FBECDBFED010895A1E272
:101920001A2EAA1BBB1BFD010DC0AA1FBB1FEE1F59
:10193000FF1FA217B307E407F50720F0A21BB30BA4
:10194000E40BF50B661F771F881F991F1A9469F720
:1019500060957095809590959B01AC01BD01CF017C
:101960000895EE0FFF1F0590F491E02D0994505853
:10197000BB27AA270E94CF0C0C941E0C0E94100CAF
:1019800038F00E94170C20F039F49F3F19F426F428
:101990000C940D0C0EF4E095E7FB0C94070CE92F6A
:1019A0000E942F0C58F3BA17620773078407950734
:1019B00020F079F4A6F50C94510C0EF4E0950B2E62
:1019C000BA2FA02D0B01B90190010C01CA01A00191
:1019D0001124FF27591B99F0593F50F4503E68F1EC
:1019E0001A16F040A22F232F342F4427585FF3CF2D
:1019F000469537952795A795F0405395C9F77EF4FE
:101A00001F16BA0B620B730B840BBAF09150A1F046
:101A1000FF0FBB1F661F771F881FC2F70EC0BA0FCC
:101A2000621F731F841F48F4879577956795B79554
:101A3000F7959E3F08F0B0CF9395880F08F099274F
:101A4000EE0F9795879508950E94380D0C941E0C03
:101A50000E94170C58F00E94100C40F029F45F3FD0
:101A600029F00C94070C51110C94520C0C940D0C91
:101A70000E942F0C68F39923B1F3552391F3951B22
:101A8000550BBB27AA2762177307840738F09F5F9F
:101A90005F4F220F331F441FAA1FA9F335D00E2E0C
:101AA0003AF0E0E832D091505040E695001CCAF779
:101AB0002BD0FE2F29D0660F771F881FBB1F26173C
:101AC00037074807AB07B0E809F0BB0B802DBF0113
:101AD000FF2793585F4F3AF09E3F510578F00C94E2
:101AE000070C0C94520C5F3FE4F3983ED4F38695B8
:101AF00077956795B795F7959F5FC9F7880F911D03
:101B00009695879597F90895E1E0660F771F881FEE
:101B1000BB1F621773078407BA0720F0621B730BA1
:101B2000840BBA0BEE1F88F7E09508950E94760BA0
:101B300008F48FEF089519F416F40C940D0C0C941E
:101B4000E10D0E94370CB8F39923C9F3B6F39F5700
:101B5000550B87FF0E94EF0D0024A0E640EA90019C
:101B600080585695979528F4805C660F771F881FDC
:101B700020F026173707480730F4621B730B840BDD
:101B8000202931294A2BA695179407942025312521
:101B90004A2758F7660F771F881F20F02617370748
:101BA000480730F4620B730B840B200D311D411D6F
:101BB000A09581F7B901842F9158880F9695879544
:101BC00008959F3F31F0915020F487957795679560
:101BD000B795880F911D9695879597F9089591501F
:101BE0005040660F771F881FD2F708950F931F93F9
:101BF000CF93DF938230910510F482E090E0E09182
:101C0000A502F091A60230E020E0B0E0A0E030971D
:101C100099F42115310509F44AC0281B390B2430E9
:101C20003105D8F58A819B816115710589F1FB0128
:101C300093838283FE0111C040815181028113810F
:101C400048175907E0F04817590799F4109761F0C1
:101C500012960C93129713961C933296CF01DF9134
:101C6000CF911F910F9108950093A5021093A602A2
:101C7000F4CF2115310551F04217530738F0A9016F
:101C8000DB019A01BD01DF01F801C1CFEF01F9CFFE
:101C90009093A6028093A502CDCFFE01E20FF31F21
:101CA000819391932250310939832883D7CF209192
:101CB000A3023091A402232B41F42091060130911C
:101CC00007013093A4022093A302209104013091D4
:101CD00005012115310541F42DB73EB740910801AA
:101CE00050910901241B350BE091A302F091A4024D
:101CF000E217F307A0F42E1B3F0B2817390778F0E3
:101D0000AC014E5F5F4F2417350748F04E0F5F1F41
:101D10005093A4024093A302819391939FCFF0E04C
:101D2000E0E09CCFCF93DF930097E9F0FC0132977E
:101D300013821282A091A502B091A602ED0130E0BB
:101D400020E01097A1F420813181820F931F209110
:101D5000A3023091A4022817390709F061C0F0935B
:101D6000A402E093A302DF91CF910895EA01CE1778
:101D7000DF07E8F54A815B819E0141155105B1F706
:101D8000E901FB83EA8349915991C40FD51FEC17F0
:101D9000FD0761F4808191810296840F951FE9010E
:101DA00099838883828193819B838A83F0E0E0E03A
:101DB00012968D919C9113970097B9F52D913C91B6
:101DC0001197CD010296820F931F2091A3023091AB
:101DD000A4022817390739F6309751F51092A60258
:101DE0001092A502B093A402A093A302BCCFD38308
:101DF000C28340815181840F951FC817D90761F4B0
:101E00004E5F5F4F88819981480F591F51834083EE
:101E10008A819B81938382832115310509F0B0CF9C
:101E2000F093A602E093A5029ECFFD01DC01C0CF96
:101E300013821282D7CFB0E0A0E0E1E2FFE00C9481
:101E40005A0C8C01009751F4CB010E94F60D8C01C5
:101E5000C801CDB7DEB7E0E10C94760CFC01E60FCB
:101E6000F71F9C0122503109E217F30708F49DC0C7
:101E7000D901CD91DC911197C617D70798F0C530DD
:101E8000D10530F3CE0104978617970708F3C61BD8
:101E9000D70B2297C193D1936D937C93CF010E946E
:101EA000920ED6CF5B01AC1ABD0A4C018C0E9D1E62
:101EB000A091A502B091A602512C412CF12CE12C4D
:101EC000109731F58091A3029091A402881599058D
:101ED00009F05CC04616570608F058C0809104010E
:101EE00090910501009741F48DB79EB7409108018C
:101EF00050910901841B950BE817F90708F055C0AC
:101F0000F093A402E093A302F90171836083A0CF50
:101F10008D919C91119712966C90129713967C90CC
:101F20001397A815B90559F56C0142E0C40ED11CF0
:101F3000CA14DB0420F1AC014A195B09DA011296DC
:101F4000159780F06282738251834083D9016D932B
:101F50007C93E114F10471F0D7011396FC93EE9396
:101F6000129776CF22968C0F9D1FF9019183808363
:101F7000F301EFCFF093A602E093A50269CF4816D4
:101F8000590608F42C017D01D3019ACFCB010E94A0
:101F9000F60D7C01009749F0AE01B8010E94DD0FFB
:101FA000C8010E94920E870153CF10E000E050CF8D
:101FB00081E090E0F8940C94E60FFB01DC0102C094
:101FC00001900D9241505040D8F7089510E0C2E6BC
:101FD000D0E004C0FE010E94B10C2196C336D107A7
:061FE000C9F7F894FFCFE1
:101FE6006C016C010000A7028000000000007A026C
:101FF6007805F40400050005FF04000000000D024A
:102006006D019A015A02CB01A901BD010000000031
:102016007B02D003F1047A02C103A5037D034D655B
:102026006D6F727920416C6C6F636174696F6E209D
:0C2036004661696C65642021000D0A0001
:00000001FF
